{
  "_format": "hh-sol-artifact-1",
  "contractName": "yxToken",
  "sourceName": "contracts/wrappers/yxToken.sol",
  "abi": [
    {
      "inputs": [
        {
          "internalType": "address",
          "name": "_underlying",
          "type": "address"
        },
        {
          "internalType": "uint256",
          "name": "_marketId",
          "type": "uint256"
        },
        {
          "internalType": "string",
          "name": "_name",
          "type": "string"
        },
        {
          "internalType": "string",
          "name": "_symbol",
          "type": "string"
        },
        {
          "internalType": "uint8",
          "name": "_decimals",
          "type": "uint8"
        }
      ],
      "payable": false,
      "stateMutability": "nonpayable",
      "type": "constructor"
    },
    {
      "anonymous": false,
      "inputs": [
        {
          "indexed": true,
          "internalType": "address",
          "name": "owner",
          "type": "address"
        },
        {
          "indexed": true,
          "internalType": "address",
          "name": "spender",
          "type": "address"
        },
        {
          "indexed": false,
          "internalType": "uint256",
          "name": "value",
          "type": "uint256"
        }
      ],
      "name": "Approval",
      "type": "event"
    },
    {
      "anonymous": false,
      "inputs": [
        {
          "indexed": true,
          "internalType": "address",
          "name": "from",
          "type": "address"
        },
        {
          "indexed": true,
          "internalType": "address",
          "name": "to",
          "type": "address"
        },
        {
          "indexed": false,
          "internalType": "uint256",
          "name": "value",
          "type": "uint256"
        }
      ],
      "name": "Transfer",
      "type": "event"
    },
    {
      "constant": true,
      "inputs": [
        {
          "internalType": "address",
          "name": "owner",
          "type": "address"
        },
        {
          "internalType": "address",
          "name": "spender",
          "type": "address"
        }
      ],
      "name": "allowance",
      "outputs": [
        {
          "internalType": "uint256",
          "name": "",
          "type": "uint256"
        }
      ],
      "payable": false,
      "stateMutability": "view",
      "type": "function"
    },
    {
      "constant": false,
      "inputs": [
        {
          "internalType": "address",
          "name": "spender",
          "type": "address"
        },
        {
          "internalType": "uint256",
          "name": "amount",
          "type": "uint256"
        }
      ],
      "name": "approve",
      "outputs": [
        {
          "internalType": "bool",
          "name": "",
          "type": "bool"
        }
      ],
      "payable": false,
      "stateMutability": "nonpayable",
      "type": "function"
    },
    {
      "constant": true,
      "inputs": [],
      "name": "availableLiquidity",
      "outputs": [
        {
          "internalType": "uint256",
          "name": "",
          "type": "uint256"
        }
      ],
      "payable": false,
      "stateMutability": "view",
      "type": "function"
    },
    {
      "constant": true,
      "inputs": [
        {
          "internalType": "address",
          "name": "who",
          "type": "address"
        }
      ],
      "name": "balanceInUnderlying",
      "outputs": [
        {
          "internalType": "uint256",
          "name": "",
          "type": "uint256"
        }
      ],
      "payable": false,
      "stateMutability": "view",
      "type": "function"
    },
    {
      "constant": true,
      "inputs": [
        {
          "internalType": "address",
          "name": "account",
          "type": "address"
        }
      ],
      "name": "balanceOf",
      "outputs": [
        {
          "internalType": "uint256",
          "name": "",
          "type": "uint256"
        }
      ],
      "payable": false,
      "stateMutability": "view",
      "type": "function"
    },
    {
      "constant": true,
      "inputs": [],
      "name": "decimals",
      "outputs": [
        {
          "internalType": "uint8",
          "name": "",
          "type": "uint8"
        }
      ],
      "payable": false,
      "stateMutability": "view",
      "type": "function"
    },
    {
      "constant": false,
      "inputs": [
        {
          "internalType": "address",
          "name": "spender",
          "type": "address"
        },
        {
          "internalType": "uint256",
          "name": "subtractedValue",
          "type": "uint256"
        }
      ],
      "name": "decreaseAllowance",
      "outputs": [
        {
          "internalType": "bool",
          "name": "",
          "type": "bool"
        }
      ],
      "payable": false,
      "stateMutability": "nonpayable",
      "type": "function"
    },
    {
      "constant": true,
      "inputs": [],
      "name": "dydxAddressesProvider",
      "outputs": [
        {
          "internalType": "address",
          "name": "",
          "type": "address"
        }
      ],
      "payable": false,
      "stateMutability": "view",
      "type": "function"
    },
    {
      "constant": false,
      "inputs": [
        {
          "internalType": "address",
          "name": "spender",
          "type": "address"
        },
        {
          "internalType": "uint256",
          "name": "addedValue",
          "type": "uint256"
        }
      ],
      "name": "increaseAllowance",
      "outputs": [
        {
          "internalType": "bool",
          "name": "",
          "type": "bool"
        }
      ],
      "payable": false,
      "stateMutability": "nonpayable",
      "type": "function"
    },
    {
      "constant": true,
      "inputs": [],
      "name": "marketId",
      "outputs": [
        {
          "internalType": "uint256",
          "name": "",
          "type": "uint256"
        }
      ],
      "payable": false,
      "stateMutability": "view",
      "type": "function"
    },
    {
      "constant": false,
      "inputs": [
        {
          "internalType": "uint256",
          "name": "_amount",
          "type": "uint256"
        }
      ],
      "name": "mint",
      "outputs": [
        {
          "internalType": "uint256",
          "name": "newTokens",
          "type": "uint256"
        }
      ],
      "payable": false,
      "stateMutability": "nonpayable",
      "type": "function"
    },
    {
      "constant": true,
      "inputs": [],
      "name": "name",
      "outputs": [
        {
          "internalType": "string",
          "name": "",
          "type": "string"
        }
      ],
      "payable": false,
      "stateMutability": "view",
      "type": "function"
    },
    {
      "constant": true,
      "inputs": [],
      "name": "price",
      "outputs": [
        {
          "internalType": "uint256",
          "name": "",
          "type": "uint256"
        }
      ],
      "payable": false,
      "stateMutability": "view",
      "type": "function"
    },
    {
      "constant": false,
      "inputs": [
        {
          "internalType": "uint256",
          "name": "_amount",
          "type": "uint256"
        },
        {
          "internalType": "address",
          "name": "_account",
          "type": "address"
        }
      ],
      "name": "redeem",
      "outputs": [
        {
          "internalType": "uint256",
          "name": "tokens",
          "type": "uint256"
        }
      ],
      "payable": false,
      "stateMutability": "nonpayable",
      "type": "function"
    },
    {
      "constant": true,
      "inputs": [],
      "name": "secondsInAYear",
      "outputs": [
        {
          "internalType": "uint256",
          "name": "",
          "type": "uint256"
        }
      ],
      "payable": false,
      "stateMutability": "view",
      "type": "function"
    },
    {
      "constant": true,
      "inputs": [],
      "name": "symbol",
      "outputs": [
        {
          "internalType": "string",
          "name": "",
          "type": "string"
        }
      ],
      "payable": false,
      "stateMutability": "view",
      "type": "function"
    },
    {
      "constant": true,
      "inputs": [],
      "name": "totalSupply",
      "outputs": [
        {
          "internalType": "uint256",
          "name": "",
          "type": "uint256"
        }
      ],
      "payable": false,
      "stateMutability": "view",
      "type": "function"
    },
    {
      "constant": false,
      "inputs": [
        {
          "internalType": "address",
          "name": "recipient",
          "type": "address"
        },
        {
          "internalType": "uint256",
          "name": "amount",
          "type": "uint256"
        }
      ],
      "name": "transfer",
      "outputs": [
        {
          "internalType": "bool",
          "name": "",
          "type": "bool"
        }
      ],
      "payable": false,
      "stateMutability": "nonpayable",
      "type": "function"
    },
    {
      "constant": false,
      "inputs": [
        {
          "internalType": "address",
          "name": "sender",
          "type": "address"
        },
        {
          "internalType": "address",
          "name": "recipient",
          "type": "address"
        },
        {
          "internalType": "uint256",
          "name": "amount",
          "type": "uint256"
        }
      ],
      "name": "transferFrom",
      "outputs": [
        {
          "internalType": "bool",
          "name": "",
          "type": "bool"
        }
      ],
      "payable": false,
      "stateMutability": "nonpayable",
      "type": "function"
    },
    {
      "constant": true,
      "inputs": [],
      "name": "underlying",
      "outputs": [
        {
          "internalType": "address",
          "name": "",
          "type": "address"
        }
      ],
      "payable": false,
      "stateMutability": "view",
      "type": "function"
    }
  ],
  "bytecode": "0x6080604052731e0447b19bb6ecfdae1e4ae1694b0c3659614e4e600960006101000a81548173ffffffffffffffffffffffffffffffffffffffff021916908373ffffffffffffffffffffffffffffffffffffffff1602179055503480156200006657600080fd5b50604051620036f7380380620036f783398181016040526200008c9190810190620003d4565b8282828260039080519060200190620000a79291906200026d565b508160049080519060200190620000c09291906200026d565b5080600560006101000a81548160ff021916908360ff160217905550505050600073ffffffffffffffffffffffffffffffffffffffff168573ffffffffffffffffffffffffffffffffffffffff16141562000152576040517f08c379a0000000000000000000000000000000000000000000000000000000008152600401620001499062000545565b60405180910390fd5b84600860006101000a81548173ffffffffffffffffffffffffffffffffffffffff021916908373ffffffffffffffffffffffffffffffffffffffff160217905550836006819055508473ffffffffffffffffffffffffffffffffffffffff1663095ea7b3731e0447b19bb6ecfdae1e4ae1694b0c3659614e4e7fffffffffffffffffffffffffffffffffffffffffffffffffffffffffffffffff6040518363ffffffff1660e01b81526004016200020b92919062000518565b602060405180830381600087803b1580156200022657600080fd5b505af11580156200023b573d6000803e3d6000fd5b505050506040513d601f19601f8201168201806040525062000261919081019062000488565b505050505050620006c8565b828054600181600116156101000203166002900490600052602060002090601f016020900481019282601f10620002b057805160ff1916838001178555620002e1565b82800160010185558215620002e1579182015b82811115620002e0578251825591602001919060010190620002c3565b5b509050620002f09190620002f4565b5090565b6200031991905b8082111562000315576000816000905550600101620002fb565b5090565b90565b6000815190506200032d8162000660565b92915050565b60008151905062000344816200067a565b92915050565b600082601f8301126200035c57600080fd5b8151620003736200036d8262000595565b62000567565b915080825260208301602083018583830111156200039057600080fd5b6200039d8382846200062a565b50505092915050565b600081519050620003b78162000694565b92915050565b600081519050620003ce81620006ae565b92915050565b600080600080600060a08688031215620003ed57600080fd5b6000620003fd888289016200031c565b95505060206200041088828901620003a6565b945050604086015167ffffffffffffffff8111156200042e57600080fd5b6200043c888289016200034a565b935050606086015167ffffffffffffffff8111156200045a57600080fd5b62000468888289016200034a565b92505060806200047b88828901620003bd565b9150509295509295909350565b6000602082840312156200049b57600080fd5b6000620004ab8482850162000333565b91505092915050565b620004bf81620005d3565b82525050565b6000620004d4600f83620005c2565b91507f556e6465726c79696e67206973203000000000000000000000000000000000006000830152602082019050919050565b620005128162000613565b82525050565b60006040820190506200052f6000830185620004b4565b6200053e602083018462000507565b9392505050565b600060208201905081810360008301526200056081620004c5565b9050919050565b6000604051905081810181811067ffffffffffffffff821117156200058b57600080fd5b8060405250919050565b600067ffffffffffffffff821115620005ad57600080fd5b601f19601f8301169050602081019050919050565b600082825260208201905092915050565b6000620005e082620005f3565b9050919050565b60008115159050919050565b600073ffffffffffffffffffffffffffffffffffffffff82169050919050565b6000819050919050565b600060ff82169050919050565b60005b838110156200064a5780820151818401526020810190506200062d565b838111156200065a576000848401525b50505050565b6200066b81620005d3565b81146200067757600080fd5b50565b6200068581620005e7565b81146200069157600080fd5b50565b6200069f8162000613565b8114620006ab57600080fd5b50565b620006b9816200061d565b8114620006c557600080fd5b50565b61301f80620006d86000396000f3fe608060405234801561001057600080fd5b506004361061012c5760003560e01c806370a08231116100ad578063a0712d6811610071578063a0712d681461034d578063a457c2d71461037d578063a9059cbb146103ad578063dc361a13146103dd578063dd62ed3e1461040d5761012c565b806370a082311461029357806374375359146102c35780637bde82f2146102e157806395d89b4114610311578063a035b1fe1461032f5761012c565b806339509351116100f457806339509351146101eb5780634eb82b561461021b5780636cb3281d146102395780636ed71ede146102575780636f307dc3146102755761012c565b806306fdde0314610131578063095ea7b31461014f57806318160ddd1461017f57806323b872dd1461019d578063313ce567146101cd575b600080fd5b61013961043d565b6040516101469190612aff565b60405180910390f35b61016960048036036101649190810190612148565b6104df565b6040516101769190612ae4565b60405180910390f35b6101876104fd565b6040516101949190612caa565b60405180910390f35b6101b760048036036101b291908101906120f9565b610507565b6040516101c49190612ae4565b60405180910390f35b6101d56105e0565b6040516101e29190612cc5565b60405180910390f35b61020560048036036102009190810190612148565b6105f7565b6040516102129190612ae4565b60405180910390f35b6102236106aa565b6040516102309190612caa565b60405180910390f35b6102416106b0565b60405161024e9190612a32565b60405180910390f35b61025f6106c8565b60405161026c9190612caa565b60405180910390f35b61027d6106ce565b60405161028a9190612a32565b60405180910390f35b6102ad60048036036102a89190810190612094565b6106f4565b6040516102ba9190612caa565b60405180910390f35b6102cb61073c565b6040516102d89190612caa565b60405180910390f35b6102fb60048036036102f6919081019061223b565b610802565b6040516103089190612caa565b60405180910390f35b6103196108fb565b6040516103269190612aff565b60405180910390f35b61033761099d565b6040516103449190612caa565b60405180910390f35b610367600480360361036291908101906121e9565b610a56565b6040516103749190612caa565b60405180910390f35b61039760048036036103929190810190612148565b610ae7565b6040516103a49190612ae4565b60405180910390f35b6103c760048036036103c29190810190612148565b610bb4565b6040516103d49190612ae4565b60405180910390f35b6103f760048036036103f29190810190612094565b610bd2565b6040516104049190612caa565b60405180910390f35b610427600480360361042291908101906120bd565b610c17565b6040516104349190612caa565b60405180910390f35b606060038054600181600116156101000203166002900480601f0160208091040260200160405190810160405280929190818152602001828054600181600116156101000203166002900480156104d55780601f106104aa576101008083540402835291602001916104d5565b820191906000526020600020905b8154815290600101906020018083116104b857829003601f168201915b5050505050905090565b60006104f36104ec610c9e565b8484610ca6565b6001905092915050565b6000600254905090565b6000610514848484610e71565b6105d584610520610c9e565b6105d085604051806060016040528060288152602001612f9060289139600160008b73ffffffffffffffffffffffffffffffffffffffff1673ffffffffffffffffffffffffffffffffffffffff1681526020019081526020016000206000610586610c9e565b73ffffffffffffffffffffffffffffffffffffffff1673ffffffffffffffffffffffffffffffffffffffff168152602001908152602001600020546110fb9092919063ffffffff16565b610ca6565b600190509392505050565b6000600560009054906101000a900460ff16905090565b60006106a0610604610c9e565b8461069b8560016000610615610c9e565b73ffffffffffffffffffffffffffffffffffffffff1673ffffffffffffffffffffffffffffffffffffffff16815260200190815260200160002060008973ffffffffffffffffffffffffffffffffffffffff1673ffffffffffffffffffffffffffffffffffffffff1681526020019081526020016000205461115690919063ffffffff16565b610ca6565b6001905092915050565b60075481565b731e0447b19bb6ecfdae1e4ae1694b0c3659614e4e81565b60065481565b600860009054906101000a900473ffffffffffffffffffffffffffffffffffffffff1681565b60008060008373ffffffffffffffffffffffffffffffffffffffff1673ffffffffffffffffffffffffffffffffffffffff168152602001908152602001600020549050919050565b6000600860009054906101000a900473ffffffffffffffffffffffffffffffffffffffff1673ffffffffffffffffffffffffffffffffffffffff166370a08231731e0447b19bb6ecfdae1e4ae1694b0c3659614e4e6040518263ffffffff1660e01b81526004016107ad9190612a32565b60206040518083038186803b1580156107c557600080fd5b505afa1580156107d9573d6000803e3d6000fd5b505050506040513d601f19601f820116820180604052506107fd9190810190612212565b905090565b600061080d836111ab565b6000600860009054906101000a900473ffffffffffffffffffffffffffffffffffffffff1690508073ffffffffffffffffffffffffffffffffffffffff166370a08231306040518263ffffffff1660e01b815260040161086d9190612a32565b60206040518083038186803b15801561088557600080fd5b505afa158015610899573d6000803e3d6000fd5b505050506040513d601f19601f820116820180604052506108bd9190810190612212565b91506108ea83838373ffffffffffffffffffffffffffffffffffffffff166113e59092919063ffffffff16565b6108f43385611484565b5092915050565b606060048054600181600116156101000203166002900480601f0160208091040260200160405190810160405280929190818152602001828054600181600116156101000203166002900480156109935780601f1061096857610100808354040283529160200191610993565b820191906000526020600020905b81548152906001019060200180831161097657829003601f168201915b5050505050905090565b600080600960009054906101000a900473ffffffffffffffffffffffffffffffffffffffff1673ffffffffffffffffffffffffffffffffffffffff166356ea84b26006546040518263ffffffff1660e01b81526004016109fd9190612caa565b604080518083038186803b158015610a1457600080fd5b505afa158015610a28573d6000803e3d6000fd5b505050506040513d601f19601f82011682018060405250610a4c9190810190612277565b9150508091505090565b600080610a61611626565b9050610ab2333085600860009054906101000a900473ffffffffffffffffffffffffffffffffffffffff1673ffffffffffffffffffffffffffffffffffffffff1661171e909392919063ffffffff16565b610abb836117c0565b610ad581610ac7611626565b6119fb90919063ffffffff16565b9150610ae13383611a45565b50919050565b6000610baa610af4610c9e565b84610ba585604051806060016040528060258152602001612fb86025913960016000610b1e610c9e565b73ffffffffffffffffffffffffffffffffffffffff1673ffffffffffffffffffffffffffffffffffffffff16815260200190815260200160002060008a73ffffffffffffffffffffffffffffffffffffffff1673ffffffffffffffffffffffffffffffffffffffff168152602001908152602001600020546110fb9092919063ffffffff16565b610ca6565b6001905092915050565b6000610bc8610bc1610c9e565b8484610e71565b6001905092915050565b6000610c10670de0b6b3a7640000610c02610beb61099d565b610bf4866106f4565b611bcd90919063ffffffff16565b611c3d90919063ffffffff16565b9050919050565b6000600160008473ffffffffffffffffffffffffffffffffffffffff1673ffffffffffffffffffffffffffffffffffffffff16815260200190815260200160002060008373ffffffffffffffffffffffffffffffffffffffff1673ffffffffffffffffffffffffffffffffffffffff16815260200190815260200160002054905092915050565b600033905090565b600073ffffffffffffffffffffffffffffffffffffffff168373ffffffffffffffffffffffffffffffffffffffff161415610d16576040517f08c379a0000000000000000000000000000000000000000000000000000000008152600401610d0d90612c01565b60405180910390fd5b600073ffffffffffffffffffffffffffffffffffffffff168273ffffffffffffffffffffffffffffffffffffffff161415610d86576040517f08c379a0000000000000000000000000000000000000000000000000000000008152600401610d7d90612b41565b60405180910390fd5b80600160008573ffffffffffffffffffffffffffffffffffffffff1673ffffffffffffffffffffffffffffffffffffffff16815260200190815260200160002060008473ffffffffffffffffffffffffffffffffffffffff1673ffffffffffffffffffffffffffffffffffffffff168152602001908152602001600020819055508173ffffffffffffffffffffffffffffffffffffffff168373ffffffffffffffffffffffffffffffffffffffff167f8c5be1e5ebec7d5bd14f71427d1e84f3dd0314c0f7b2291e5b200ac8c7c3b92583604051610e649190612caa565b60405180910390a3505050565b600073ffffffffffffffffffffffffffffffffffffffff168373ffffffffffffffffffffffffffffffffffffffff161415610ee1576040517f08c379a0000000000000000000000000000000000000000000000000000000008152600401610ed890612be1565b60405180910390fd5b600073ffffffffffffffffffffffffffffffffffffffff168273ffffffffffffffffffffffffffffffffffffffff161415610f51576040517f08c379a0000000000000000000000000000000000000000000000000000000008152600401610f4890612b21565b60405180910390fd5b610fbc81604051806060016040528060268152602001612f6a602691396000808773ffffffffffffffffffffffffffffffffffffffff1673ffffffffffffffffffffffffffffffffffffffff168152602001908152602001600020546110fb9092919063ffffffff16565b6000808573ffffffffffffffffffffffffffffffffffffffff1673ffffffffffffffffffffffffffffffffffffffff1681526020019081526020016000208190555061104f816000808573ffffffffffffffffffffffffffffffffffffffff1673ffffffffffffffffffffffffffffffffffffffff1681526020019081526020016000205461115690919063ffffffff16565b6000808473ffffffffffffffffffffffffffffffffffffffff1673ffffffffffffffffffffffffffffffffffffffff168152602001908152602001600020819055508173ffffffffffffffffffffffffffffffffffffffff168373ffffffffffffffffffffffffffffffffffffffff167fddf252ad1be2c89b69c2b068fc378daa952ba7f163c4a11628f55a4df523b3ef836040516110ee9190612caa565b60405180910390a3505050565b6000838311158290611143576040517f08c379a000000000000000000000000000000000000000000000000000000000815260040161113a9190612aff565b60405180910390fd5b5060008385039050809150509392505050565b6000808284019050838110156111a1576040517f08c379a000000000000000000000000000000000000000000000000000000000815260040161119890612b61565b60405180910390fd5b8091505092915050565b606060016040519080825280602002602001820160405280156111e857816020015b6111d5611ea5565b8152602001906001900390816111cd5790505b50905060405180604001604052803073ffffffffffffffffffffffffffffffffffffffff16815260200160008152508160008151811061122457fe5b6020026020010181905250611237611ed5565b604051806080016040528060001515815260200160018081111561125757fe5b815260200160008081111561126857fe5b815260200184815250905061127b611f14565b60018160000190600881111561128d57fe5b9081600881111561129a57fe5b815250506000816020018181525050818160400181905250600654816060018181525050308160a0019073ffffffffffffffffffffffffffffffffffffffff16908173ffffffffffffffffffffffffffffffffffffffff16815250506060600160405190808252806020026020018201604052801561133357816020015b611320611f80565b8152602001906001900390816113185790505b509050818160008151811061134457fe5b6020026020010181905250600960009054906101000a900473ffffffffffffffffffffffffffffffffffffffff1673ffffffffffffffffffffffffffffffffffffffff1663a67a6a4585836040518363ffffffff1660e01b81526004016113ac929190612aad565b600060405180830381600087803b1580156113c657600080fd5b505af11580156113da573d6000803e3d6000fd5b505050505050505050565b61147f838473ffffffffffffffffffffffffffffffffffffffff1663a9059cbb905060e01b848460405160240161141d929190612a84565b604051602081830303815290604052907bffffffffffffffffffffffffffffffffffffffffffffffffffffffff19166020820180517bffffffffffffffffffffffffffffffffffffffffffffffffffffffff8381831617835250505050611c87565b505050565b600073ffffffffffffffffffffffffffffffffffffffff168273ffffffffffffffffffffffffffffffffffffffff1614156114f4576040517f08c379a00000000000000000000000000000000000000000000000000000000081526004016114eb90612bc1565b60405180910390fd5b61155f81604051806060016040528060228152602001612f48602291396000808673ffffffffffffffffffffffffffffffffffffffff1673ffffffffffffffffffffffffffffffffffffffff168152602001908152602001600020546110fb9092919063ffffffff16565b6000808473ffffffffffffffffffffffffffffffffffffffff1673ffffffffffffffffffffffffffffffffffffffff168152602001908152602001600020819055506115b6816002546119fb90919063ffffffff16565b600281905550600073ffffffffffffffffffffffffffffffffffffffff168273ffffffffffffffffffffffffffffffffffffffff167fddf252ad1be2c89b69c2b068fc378daa952ba7f163c4a11628f55a4df523b3ef8360405161161a9190612caa565b60405180910390a35050565b600080600960009054906101000a900473ffffffffffffffffffffffffffffffffffffffff1673ffffffffffffffffffffffffffffffffffffffff166347d1b53c60405180604001604052803073ffffffffffffffffffffffffffffffffffffffff16815260200160008152506006546040518363ffffffff1660e01b81526004016116b3929190612c81565b604080518083038186803b1580156116ca57600080fd5b505afa1580156116de573d6000803e3d6000fd5b505050506040513d601f19601f8201168201806040525061170291908101906121ad565b915050806fffffffffffffffffffffffffffffffff1691505090565b6117ba848573ffffffffffffffffffffffffffffffffffffffff166323b872dd905060e01b85858560405160240161175893929190612a4d565b604051602081830303815290604052907bffffffffffffffffffffffffffffffffffffffffffffffffffffffff19166020820180517bffffffffffffffffffffffffffffffffffffffffffffffffffffffff8381831617835250505050611c87565b50505050565b606060016040519080825280602002602001820160405280156117fd57816020015b6117ea611ea5565b8152602001906001900390816117e25790505b50905060405180604001604052803073ffffffffffffffffffffffffffffffffffffffff16815260200160008152508160008151811061183957fe5b602002602001018190525061184c611ed5565b60405180608001604052806001151581526020016000600181111561186d57fe5b815260200160008081111561187e57fe5b8152602001848152509050611891611f14565b6000816000019060088111156118a357fe5b908160088111156118b057fe5b815250506000816020018181525050818160400181905250600654816060018181525050308160a0019073ffffffffffffffffffffffffffffffffffffffff16908173ffffffffffffffffffffffffffffffffffffffff16815250506060600160405190808252806020026020018201604052801561194957816020015b611936611f80565b81526020019060019003908161192e5790505b509050818160008151811061195a57fe5b6020026020010181905250600960009054906101000a900473ffffffffffffffffffffffffffffffffffffffff1673ffffffffffffffffffffffffffffffffffffffff1663a67a6a4585836040518363ffffffff1660e01b81526004016119c2929190612aad565b600060405180830381600087803b1580156119dc57600080fd5b505af11580156119f0573d6000803e3d6000fd5b505050505050505050565b6000611a3d83836040518060400160405280601e81526020017f536166654d6174683a207375627472616374696f6e206f766572666c6f7700008152506110fb565b905092915050565b600073ffffffffffffffffffffffffffffffffffffffff168273ffffffffffffffffffffffffffffffffffffffff161415611ab5576040517f08c379a0000000000000000000000000000000000000000000000000000000008152600401611aac90612c61565b60405180910390fd5b611aca8160025461115690919063ffffffff16565b600281905550611b21816000808573ffffffffffffffffffffffffffffffffffffffff1673ffffffffffffffffffffffffffffffffffffffff1681526020019081526020016000205461115690919063ffffffff16565b6000808473ffffffffffffffffffffffffffffffffffffffff1673ffffffffffffffffffffffffffffffffffffffff168152602001908152602001600020819055508173ffffffffffffffffffffffffffffffffffffffff16600073ffffffffffffffffffffffffffffffffffffffff167fddf252ad1be2c89b69c2b068fc378daa952ba7f163c4a11628f55a4df523b3ef83604051611bc19190612caa565b60405180910390a35050565b600080831415611be05760009050611c37565b6000828402905082848281611bf157fe5b0414611c32576040517f08c379a0000000000000000000000000000000000000000000000000000000008152600401611c2990612ba1565b60405180910390fd5b809150505b92915050565b6000611c7f83836040518060400160405280601a81526020017f536166654d6174683a206469766973696f6e206279207a65726f000000000000815250611df9565b905092915050565b611ca68273ffffffffffffffffffffffffffffffffffffffff16611e5a565b611ce5576040517f08c379a0000000000000000000000000000000000000000000000000000000008152600401611cdc90612c41565b60405180910390fd5b600060608373ffffffffffffffffffffffffffffffffffffffff1683604051611d0e9190612a1b565b6000604051808303816000865af19150503d8060008114611d4b576040519150601f19603f3d011682016040523d82523d6000602084013e611d50565b606091505b509150915081611d95576040517f08c379a0000000000000000000000000000000000000000000000000000000008152600401611d8c90612b81565b60405180910390fd5b600081511115611df35780806020019051611db39190810190612184565b611df2576040517f08c379a0000000000000000000000000000000000000000000000000000000008152600401611de990612c21565b60405180910390fd5b5b50505050565b60008083118290611e40576040517f08c379a0000000000000000000000000000000000000000000000000000000008152600401611e379190612aff565b60405180910390fd5b506000838581611e4c57fe5b049050809150509392505050565b60008060007fc5d2460186f7233c927e7db2dcc703c0e500b653ca82273b7bfad8045d85a47060001b9050833f9150808214158015611e9c57506000801b8214155b92505050919050565b6040518060400160405280600073ffffffffffffffffffffffffffffffffffffffff168152602001600081525090565b604051806080016040528060001515815260200160006001811115611ef657fe5b8152602001600080811115611f0757fe5b8152602001600081525090565b60405180610100016040528060006008811115611f2d57fe5b815260200160008152602001611f41611fec565b81526020016000815260200160008152602001600073ffffffffffffffffffffffffffffffffffffffff16815260200160008152602001606081525090565b60405180610100016040528060006008811115611f9957fe5b815260200160008152602001611fad611fec565b81526020016000815260200160008152602001600073ffffffffffffffffffffffffffffffffffffffff16815260200160008152602001606081525090565b60405180608001604052806000151581526020016000600181111561200d57fe5b815260200160008081111561201e57fe5b8152602001600081525090565b60008135905061203a81612eeb565b92915050565b60008151905061204f81612f02565b92915050565b60008151905061206481612f19565b92915050565b60008135905061207981612f30565b92915050565b60008151905061208e81612f30565b92915050565b6000602082840312156120a657600080fd5b60006120b48482850161202b565b91505092915050565b600080604083850312156120d057600080fd5b60006120de8582860161202b565b92505060206120ef8582860161202b565b9150509250929050565b60008060006060848603121561210e57600080fd5b600061211c8682870161202b565b935050602061212d8682870161202b565b925050604061213e8682870161206a565b9150509250925092565b6000806040838503121561215b57600080fd5b60006121698582860161202b565b925050602061217a8582860161206a565b9150509250929050565b60006020828403121561219657600080fd5b60006121a484828501612040565b91505092915050565b600080604083850312156121c057600080fd5b60006121ce85828601612040565b92505060206121df85828601612055565b9150509250929050565b6000602082840312156121fb57600080fd5b60006122098482850161206a565b91505092915050565b60006020828403121561222457600080fd5b60006122328482850161207f565b91505092915050565b6000806040838503121561224e57600080fd5b600061225c8582860161206a565b925050602061226d8582860161202b565b9150509250929050565b6000806040838503121561228a57600080fd5b60006122988582860161207f565b92505060206122a98582860161207f565b9150509250929050565b60006122bf8383612888565b905092915050565b60006122d38383612990565b60408301905092915050565b6122e881612da0565b82525050565b6122f781612da0565b82525050565b600061230882612d00565b6123128185612d51565b93508360208202850161232485612ce0565b8060005b85811015612360578484038952815161234185826122b3565b945061234c83612d37565b925060208a01995050600181019050612328565b50829750879550505050505092915050565b600061237d82612d0b565b6123878185612d62565b935061239283612cf0565b8060005b838110156123c35781516123aa88826122c7565b97506123b583612d44565b925050600181019050612396565b5085935050505092915050565b6123d981612db2565b82525050565b6123e881612db2565b82525050565b60006123f982612d21565b6124038185612d84565b9350612413818560208601612e80565b80840191505092915050565b600061242a82612d16565b6124348185612d73565b9350612444818560208601612e80565b61244d81612eb3565b840191505092915050565b61246181612e4a565b82525050565b61247081612e5c565b82525050565b61247f81612e6e565b82525050565b600061249082612d2c565b61249a8185612d8f565b93506124aa818560208601612e80565b6124b381612eb3565b840191505092915050565b60006124cb602383612d8f565b91507f45524332303a207472616e7366657220746f20746865207a65726f206164647260008301527f65737300000000000000000000000000000000000000000000000000000000006020830152604082019050919050565b6000612531602283612d8f565b91507f45524332303a20617070726f766520746f20746865207a65726f20616464726560008301527f73730000000000000000000000000000000000000000000000000000000000006020830152604082019050919050565b6000612597601b83612d8f565b91507f536166654d6174683a206164646974696f6e206f766572666c6f7700000000006000830152602082019050919050565b60006125d7602083612d8f565b91507f5361666545524332303a206c6f772d6c6576656c2063616c6c206661696c65646000830152602082019050919050565b6000612617602183612d8f565b91507f536166654d6174683a206d756c7469706c69636174696f6e206f766572666c6f60008301527f77000000000000000000000000000000000000000000000000000000000000006020830152604082019050919050565b600061267d602183612d8f565b91507f45524332303a206275726e2066726f6d20746865207a65726f2061646472657360008301527f73000000000000000000000000000000000000000000000000000000000000006020830152604082019050919050565b60006126e3602583612d8f565b91507f45524332303a207472616e736665722066726f6d20746865207a65726f20616460008301527f64726573730000000000000000000000000000000000000000000000000000006020830152604082019050919050565b6000612749602483612d8f565b91507f45524332303a20617070726f76652066726f6d20746865207a65726f2061646460008301527f72657373000000000000000000000000000000000000000000000000000000006020830152604082019050919050565b60006127af602a83612d8f565b91507f5361666545524332303a204552433230206f7065726174696f6e20646964206e60008301527f6f742073756363656564000000000000000000000000000000000000000000006020830152604082019050919050565b6000612815601f83612d8f565b91507f5361666545524332303a2063616c6c20746f206e6f6e2d636f6e7472616374006000830152602082019050919050565b6000612855601f83612d8f565b91507f45524332303a206d696e7420746f20746865207a65726f2061646472657373006000830152602082019050919050565b6000610160830160008301516128a16000860182612458565b5060208301516128b460208601826129ee565b5060408301516128c7604086018261293b565b5060608301516128da60c08601826129ee565b5060808301516128ed60e08601826129ee565b5060a08301516129016101008601826122df565b5060c08301516129156101208601826129ee565b5060e083015184820361014086015261292e828261241f565b9150508091505092915050565b60808201600082015161295160008501826123d0565b5060208201516129646020850182612467565b5060408201516129776040850182612476565b50606082015161298a60608501826129ee565b50505050565b6040820160008201516129a660008501826122df565b5060208201516129b960208501826129ee565b50505050565b6040820160008201516129d560008501826122df565b5060208201516129e860208501826129ee565b50505050565b6129f781612e33565b82525050565b612a0681612e33565b82525050565b612a1581612e3d565b82525050565b6000612a2782846123ee565b915081905092915050565b6000602082019050612a4760008301846122ee565b92915050565b6000606082019050612a6260008301866122ee565b612a6f60208301856122ee565b612a7c60408301846129fd565b949350505050565b6000604082019050612a9960008301856122ee565b612aa660208301846129fd565b9392505050565b60006040820190508181036000830152612ac78185612372565b90508181036020830152612adb81846122fd565b90509392505050565b6000602082019050612af960008301846123df565b92915050565b60006020820190508181036000830152612b198184612485565b905092915050565b60006020820190508181036000830152612b3a816124be565b9050919050565b60006020820190508181036000830152612b5a81612524565b9050919050565b60006020820190508181036000830152612b7a8161258a565b9050919050565b60006020820190508181036000830152612b9a816125ca565b9050919050565b60006020820190508181036000830152612bba8161260a565b9050919050565b60006020820190508181036000830152612bda81612670565b9050919050565b60006020820190508181036000830152612bfa816126d6565b9050919050565b60006020820190508181036000830152612c1a8161273c565b9050919050565b60006020820190508181036000830152612c3a816127a2565b9050919050565b60006020820190508181036000830152612c5a81612808565b9050919050565b60006020820190508181036000830152612c7a81612848565b9050919050565b6000606082019050612c9660008301856129bf565b612ca360408301846129fd565b9392505050565b6000602082019050612cbf60008301846129fd565b92915050565b6000602082019050612cda6000830184612a0c565b92915050565b6000819050602082019050919050565b6000819050602082019050919050565b600081519050919050565b600081519050919050565b600081519050919050565b600081519050919050565b600081519050919050565b6000602082019050919050565b6000602082019050919050565b600082825260208201905092915050565b600082825260208201905092915050565b600082825260208201905092915050565b600081905092915050565b600082825260208201905092915050565b6000612dab82612e13565b9050919050565b60008115159050919050565b6000819050612dcc82612ec4565b919050565b6000819050612ddf82612ed1565b919050565b6000819050612df282612ede565b919050565b60006fffffffffffffffffffffffffffffffff82169050919050565b600073ffffffffffffffffffffffffffffffffffffffff82169050919050565b6000819050919050565b600060ff82169050919050565b6000612e5582612dbe565b9050919050565b6000612e6782612dd1565b9050919050565b6000612e7982612de4565b9050919050565b60005b83811015612e9e578082015181840152602081019050612e83565b83811115612ead576000848401525b50505050565b6000601f19601f8301169050919050565b60098110612ece57fe5b50565b60028110612edb57fe5b50565b60018110612ee857fe5b50565b612ef481612da0565b8114612eff57600080fd5b50565b612f0b81612db2565b8114612f1657600080fd5b50565b612f2281612df7565b8114612f2d57600080fd5b50565b612f3981612e33565b8114612f4457600080fd5b5056fe45524332303a206275726e20616d6f756e7420657863656564732062616c616e636545524332303a207472616e7366657220616d6f756e7420657863656564732062616c616e636545524332303a207472616e7366657220616d6f756e74206578636565647320616c6c6f77616e636545524332303a2064656372656173656420616c6c6f77616e63652062656c6f77207a65726fa365627a7a723158204212be8cd3de90961b49c7cc0686eaa48949f600b31f79b2d1c08bd17dc7ac806c6578706572696d656e74616cf564736f6c63430005100040",
  "linkReferences": {},
  "deployedLinkReferences": {}
}