{
  "_format": "hh-sol-artifact-1",
  "contractName": "DyDxMock",
  "sourceName": "contracts/mocks/DyDxMock.sol",
  "abi": [
    {
      "inputs": [
        {
          "internalType": "address",
          "name": "_token",
          "type": "address"
        }
      ],
      "payable": false,
      "stateMutability": "nonpayable",
      "type": "constructor"
    },
    {
      "constant": true,
      "inputs": [
        {
          "components": [
            {
              "internalType": "address",
              "name": "owner",
              "type": "address"
            },
            {
              "internalType": "uint256",
              "name": "number",
              "type": "uint256"
            }
          ],
          "internalType": "struct DyDxStructs.Info",
          "name": "",
          "type": "tuple"
        },
        {
          "internalType": "uint256",
          "name": "",
          "type": "uint256"
        }
      ],
      "name": "getAccountPar",
      "outputs": [
        {
          "internalType": "bool",
          "name": "",
          "type": "bool"
        },
        {
          "internalType": "uint128",
          "name": "",
          "type": "uint128"
        }
      ],
      "payable": false,
      "stateMutability": "view",
      "type": "function"
    },
    {
      "constant": true,
      "inputs": [
        {
          "components": [
            {
              "internalType": "address",
              "name": "owner",
              "type": "address"
            },
            {
              "internalType": "uint256",
              "name": "number",
              "type": "uint256"
            }
          ],
          "internalType": "struct DyDxStructs.Info",
          "name": "",
          "type": "tuple"
        },
        {
          "internalType": "uint256",
          "name": "",
          "type": "uint256"
        }
      ],
      "name": "getAccountWei",
      "outputs": [
        {
          "components": [
            {
              "internalType": "bool",
              "name": "sign",
              "type": "bool"
            },
            {
              "internalType": "uint256",
              "name": "value",
              "type": "uint256"
            }
          ],
          "internalType": "struct DyDxStructs.Wei",
          "name": "",
          "type": "tuple"
        }
      ],
      "payable": false,
      "stateMutability": "view",
      "type": "function"
    },
    {
      "constant": true,
      "inputs": [],
      "name": "getEarningsRate",
      "outputs": [
        {
          "internalType": "uint256",
          "name": "",
          "type": "uint256"
        }
      ],
      "payable": false,
      "stateMutability": "view",
      "type": "function"
    },
    {
      "constant": true,
      "inputs": [
        {
          "internalType": "uint256",
          "name": "",
          "type": "uint256"
        }
      ],
      "name": "getMarketCurrentIndex",
      "outputs": [
        {
          "internalType": "uint256",
          "name": "",
          "type": "uint256"
        },
        {
          "internalType": "uint256",
          "name": "",
          "type": "uint256"
        }
      ],
      "payable": false,
      "stateMutability": "view",
      "type": "function"
    },
    {
      "constant": true,
      "inputs": [
        {
          "internalType": "uint256",
          "name": "",
          "type": "uint256"
        }
      ],
      "name": "getMarketInterestRate",
      "outputs": [
        {
          "internalType": "uint256",
          "name": "",
          "type": "uint256"
        }
      ],
      "payable": false,
      "stateMutability": "view",
      "type": "function"
    },
    {
      "constant": true,
      "inputs": [
        {
          "internalType": "uint256",
          "name": "",
          "type": "uint256"
        }
      ],
      "name": "getMarketInterestSetter",
      "outputs": [
        {
          "internalType": "address",
          "name": "",
          "type": "address"
        }
      ],
      "payable": false,
      "stateMutability": "view",
      "type": "function"
    },
    {
      "constant": true,
      "inputs": [
        {
          "internalType": "uint256",
          "name": "",
          "type": "uint256"
        }
      ],
      "name": "getMarketTotalPar",
      "outputs": [
        {
          "internalType": "uint256",
          "name": "",
          "type": "uint256"
        },
        {
          "internalType": "uint256",
          "name": "",
          "type": "uint256"
        }
      ],
      "payable": false,
      "stateMutability": "view",
      "type": "function"
    },
    {
      "constant": false,
      "inputs": [
        {
          "components": [
            {
              "internalType": "address",
              "name": "owner",
              "type": "address"
            },
            {
              "internalType": "uint256",
              "name": "number",
              "type": "uint256"
            }
          ],
          "internalType": "struct DyDxStructs.Info[]",
          "name": "infos",
          "type": "tuple[]"
        },
        {
          "components": [
            {
              "internalType": "enum DyDxStructs.ActionType",
              "name": "actionType",
              "type": "uint8"
            },
            {
              "internalType": "uint256",
              "name": "accountId",
              "type": "uint256"
            },
            {
              "components": [
                {
                  "internalType": "bool",
                  "name": "sign",
                  "type": "bool"
                },
                {
                  "internalType": "enum DyDxStructs.AssetDenomination",
                  "name": "denomination",
                  "type": "uint8"
                },
                {
                  "internalType": "enum DyDxStructs.AssetReference",
                  "name": "ref",
                  "type": "uint8"
                },
                {
                  "internalType": "uint256",
                  "name": "value",
                  "type": "uint256"
                }
              ],
              "internalType": "struct DyDxStructs.AssetAmount",
              "name": "amount",
              "type": "tuple"
            },
            {
              "internalType": "uint256",
              "name": "primaryMarketId",
              "type": "uint256"
            },
            {
              "internalType": "uint256",
              "name": "secondaryMarketId",
              "type": "uint256"
            },
            {
              "internalType": "address",
              "name": "otherAddress",
              "type": "address"
            },
            {
              "internalType": "uint256",
              "name": "otherAccountId",
              "type": "uint256"
            },
            {
              "internalType": "bytes",
              "name": "data",
              "type": "bytes"
            }
          ],
          "internalType": "struct DyDxStructs.ActionArgs[]",
          "name": "args",
          "type": "tuple[]"
        }
      ],
      "name": "operate",
      "outputs": [],
      "payable": false,
      "stateMutability": "nonpayable",
      "type": "function"
    },
    {
      "constant": false,
      "inputs": [
        {
          "internalType": "uint256",
          "name": "_balance",
          "type": "uint256"
        }
      ],
      "name": "setAccountPar",
      "outputs": [],
      "payable": false,
      "stateMutability": "nonpayable",
      "type": "function"
    },
    {
      "constant": false,
      "inputs": [
        {
          "internalType": "uint256",
          "name": "_balance",
          "type": "uint256"
        }
      ],
      "name": "setAccountWei",
      "outputs": [],
      "payable": false,
      "stateMutability": "nonpayable",
      "type": "function"
    },
    {
      "constant": false,
      "inputs": [
        {
          "internalType": "uint256",
          "name": "value",
          "type": "uint256"
        }
      ],
      "name": "setEarningsRate",
      "outputs": [],
      "payable": false,
      "stateMutability": "nonpayable",
      "type": "function"
    },
    {
      "constant": false,
      "inputs": [
        {
          "internalType": "uint256",
          "name": "_borrow",
          "type": "uint256"
        },
        {
          "internalType": "uint256",
          "name": "_supply",
          "type": "uint256"
        }
      ],
      "name": "setMarketCurrentIndex",
      "outputs": [],
      "payable": false,
      "stateMutability": "nonpayable",
      "type": "function"
    },
    {
      "constant": false,
      "inputs": [
        {
          "internalType": "uint256",
          "name": "value",
          "type": "uint256"
        }
      ],
      "name": "setMarketInterestRate",
      "outputs": [],
      "payable": false,
      "stateMutability": "nonpayable",
      "type": "function"
    },
    {
      "constant": false,
      "inputs": [
        {
          "internalType": "address",
          "name": "_interestSetter",
          "type": "address"
        }
      ],
      "name": "setMarketInterestSetter",
      "outputs": [],
      "payable": false,
      "stateMutability": "nonpayable",
      "type": "function"
    },
    {
      "constant": false,
      "inputs": [
        {
          "internalType": "uint256",
          "name": "_borrow",
          "type": "uint256"
        },
        {
          "internalType": "uint256",
          "name": "_supply",
          "type": "uint256"
        }
      ],
      "name": "setMarketTotalPar",
      "outputs": [],
      "payable": false,
      "stateMutability": "nonpayable",
      "type": "function"
    },
    {
      "constant": true,
      "inputs": [],
      "name": "token",
      "outputs": [
        {
          "internalType": "address",
          "name": "",
          "type": "address"
        }
      ],
      "payable": false,
      "stateMutability": "view",
      "type": "function"
    },
    {
      "constant": true,
      "inputs": [
        {
          "internalType": "address",
          "name": "",
          "type": "address"
        }
      ],
      "name": "transfers",
      "outputs": [
        {
          "internalType": "address",
          "name": "account",
          "type": "address"
        },
        {
          "internalType": "uint256",
          "name": "value",
          "type": "uint256"
        },
        {
          "internalType": "bool",
          "name": "isDeposit",
          "type": "bool"
        },
        {
          "internalType": "uint256",
          "name": "marketId",
          "type": "uint256"
        }
      ],
      "payable": false,
      "stateMutability": "view",
      "type": "function"
    }
  ],
  "bytecode": "0x60806040523480156200001157600080fd5b50604051620014e0380380620014e0833981810160405262000037919081019062000096565b80600a60006101000a81548173ffffffffffffffffffffffffffffffffffffffff021916908373ffffffffffffffffffffffffffffffffffffffff1602179055505062000110565b6000815190506200009081620000f6565b92915050565b600060208284031215620000a957600080fd5b6000620000b9848285016200007f565b91505092915050565b6000620000cf82620000d6565b9050919050565b600073ffffffffffffffffffffffffffffffffffffffff82169050919050565b6200010181620000c2565b81146200010d57600080fd5b50565b6113c080620001206000396000f3fe608060405234801561001057600080fd5b506004361061010a5760003560e01c8063a96af30c116100a2578063cb04a34c11610071578063cb04a34c146102c8578063e37b68df146102f9578063e552022814610315578063fc0c546a14610333578063fd47eda6146103515761010a565b8063a96af30c1461022d578063bdff43ee14610249578063c190c2ec1461027c578063c4d108b5146102ac5761010a565b806347d1b53c116100de57806347d1b53c1461019357806356ea84b2146101c45780639b2c25c3146101f5578063a67a6a45146102115761010a565b8062eab8d51461010f578063197f0f051461012b578063367c35101461015b5780633a1e3f7714610177575b600080fd5b61012960048036036101249190810190610ea6565b610381565b005b61014560048036036101409190810190610ea6565b61038b565b60405161015291906110c2565b60405180910390f35b61017560048036036101709190810190610d7a565b6103b7565b005b610191600480360361018c9190810190610ea6565b6103fb565b005b6101ad60048036036101a89190810190610e6a565b610405565b6040516101bb929190611182565b60405180910390f35b6101de60048036036101d99190810190610ea6565b610418565b6040516101ec929190611241565b60405180910390f35b61020f600480360361020a9190810190610ecf565b61042a565b005b61022b60048036036102269190810190610da3565b61043c565b005b61024760048036036102429190810190610ea6565b61080b565b005b610263600480360361025e9190810190610d7a565b610815565b604051610273949392919061113d565b60405180910390f35b61029660048036036102919190810190610e6a565b610872565b6040516102a3919061120b565b60405180910390f35b6102c660048036036102c19190810190610ecf565b6108b4565b005b6102e260048036036102dd9190810190610ea6565b6108c6565b6040516102f0929190611241565b60405180910390f35b610313600480360361030e9190810190610ea6565b6108d8565b005b61031d610921565b60405161032a9190611226565b60405180910390f35b61033b61092b565b60405161034891906110c2565b60405180910390f35b61036b60048036036103669190810190610ea6565b610951565b6040516103789190611226565b60405180910390f35b8060048190555050565b6000600960009054906101000a900473ffffffffffffffffffffffffffffffffffffffff169050919050565b80600960006101000a81548173ffffffffffffffffffffffffffffffffffffffff021916908373ffffffffffffffffffffffffffffffffffffffff16021790555050565b8060038190555050565b6000806001600254915091509250929050565b60008060055460065491509150915091565b81600781905550806008819055505050565b60008282600081811061044b57fe5b90506020028101803560016101600383360303811261046957600080fd5b8083019250505060400160600135905060008383600081811061048857fe5b9050602002810180356001610160038336030381126104a657600080fd5b8083019250505060c001359050600060088111156104c057fe5b848460008181106104cd57fe5b9050602002810180356001610160038336030381126104eb57600080fd5b8083019250505060000160206105049190810190610e41565b600881111561050f57fe5b141561068f57610564333084600a60009054906101000a900473ffffffffffffffffffffffffffffffffffffffff1673ffffffffffffffffffffffffffffffffffffffff1661095d909392919063ffffffff16565b816002540160028190555060405180608001604052808787600081811061058757fe5b905060400201600001602061059f9190810190610d7a565b73ffffffffffffffffffffffffffffffffffffffff16815260200183815260200160011515815260200182815250600b60003373ffffffffffffffffffffffffffffffffffffffff1673ffffffffffffffffffffffffffffffffffffffff16815260200190815260200160002060008201518160000160006101000a81548173ffffffffffffffffffffffffffffffffffffffff021916908373ffffffffffffffffffffffffffffffffffffffff1602179055506020820151816001015560408201518160020160006101000a81548160ff02191690831515021790555060608201518160030155905050610803565b6106dc3383600a60009054906101000a900473ffffffffffffffffffffffffffffffffffffffff1673ffffffffffffffffffffffffffffffffffffffff166109ff9092919063ffffffff16565b81600254036002819055506040518060800160405280878760008181106106ff57fe5b90506040020160000160206107179190810190610d7a565b73ffffffffffffffffffffffffffffffffffffffff16815260200183815260200160001515815260200182815250600b60003373ffffffffffffffffffffffffffffffffffffffff1673ffffffffffffffffffffffffffffffffffffffff16815260200190815260200160002060008201518160000160006101000a81548173ffffffffffffffffffffffffffffffffffffffff021916908373ffffffffffffffffffffffffffffffffffffffff1602179055506020820151816001015560408201518160020160006101000a81548160ff021916908315150217905550606082015181600301559050505b505050505050565b8060028190555050565b600b6020528060005260406000206000915090508060000160009054906101000a900473ffffffffffffffffffffffffffffffffffffffff16908060010154908060020160009054906101000a900460ff16908060030154905084565b61087a610c5b565b60006040518060400160405290816000820160009054906101000a900460ff16151515158152602001600182015481525050905092915050565b81600581905550806006819055505050565b60008060075460085491509150915091565b6040518060400160405280600115158152602001828152506000808201518160000160006101000a81548160ff0219169083151502179055506020820151816001015590505050565b6000600354905090565b600a60009054906101000a900473ffffffffffffffffffffffffffffffffffffffff1681565b60006004549050919050565b6109f9848573ffffffffffffffffffffffffffffffffffffffff166323b872dd905060e01b858585604051602401610997939291906110dd565b604051602081830303815290604052907bffffffffffffffffffffffffffffffffffffffffffffffffffffffff19166020820180517bffffffffffffffffffffffffffffffffffffffffffffffffffffffff8381831617835250505050610a9e565b50505050565b610a99838473ffffffffffffffffffffffffffffffffffffffff1663a9059cbb905060e01b8484604051602401610a37929190611114565b604051602081830303815290604052907bffffffffffffffffffffffffffffffffffffffffffffffffffffffff19166020820180517bffffffffffffffffffffffffffffffffffffffffffffffffffffffff8381831617835250505050610a9e565b505050565b610abd8273ffffffffffffffffffffffffffffffffffffffff16610c10565b610afc576040517f08c379a0000000000000000000000000000000000000000000000000000000008152600401610af3906111eb565b60405180910390fd5b600060608373ffffffffffffffffffffffffffffffffffffffff1683604051610b2591906110ab565b6000604051808303816000865af19150503d8060008114610b62576040519150601f19603f3d011682016040523d82523d6000602084013e610b67565b606091505b509150915081610bac576040517f08c379a0000000000000000000000000000000000000000000000000000000008152600401610ba3906111ab565b60405180910390fd5b600081511115610c0a5780806020019051610bca9190810190610e18565b610c09576040517f08c379a0000000000000000000000000000000000000000000000000000000008152600401610c00906111cb565b60405180910390fd5b5b50505050565b60008060007fc5d2460186f7233c927e7db2dcc703c0e500b653ca82273b7bfad8045d85a47060001b9050833f9150808214158015610c5257506000801b8214155b92505050919050565b6040518060400160405280600015158152602001600081525090565b600081359050610c8681611328565b92915050565b60008083601f840112610c9e57600080fd5b8235905067ffffffffffffffff811115610cb757600080fd5b602083019150836020820283011115610ccf57600080fd5b9250929050565b60008083601f840112610ce857600080fd5b8235905067ffffffffffffffff811115610d0157600080fd5b602083019150836040820283011115610d1957600080fd5b9250929050565b600081519050610d2f8161133f565b92915050565b600081359050610d4481611356565b92915050565b600060408284031215610d5c57600080fd5b81905092915050565b600081359050610d7481611366565b92915050565b600060208284031215610d8c57600080fd5b6000610d9a84828501610c77565b91505092915050565b60008060008060408587031215610db957600080fd5b600085013567ffffffffffffffff811115610dd357600080fd5b610ddf87828801610cd6565b9450945050602085013567ffffffffffffffff811115610dfe57600080fd5b610e0a87828801610c8c565b925092505092959194509250565b600060208284031215610e2a57600080fd5b6000610e3884828501610d20565b91505092915050565b600060208284031215610e5357600080fd5b6000610e6184828501610d35565b91505092915050565b60008060608385031215610e7d57600080fd5b6000610e8b85828601610d4a565b9250506040610e9c85828601610d65565b9150509250929050565b600060208284031215610eb857600080fd5b6000610ec684828501610d65565b91505092915050565b60008060408385031215610ee257600080fd5b6000610ef085828601610d65565b9250506020610f0185828601610d65565b9150509250929050565b610f1481611291565b82525050565b610f23816112a3565b82525050565b610f32816112a3565b82525050565b6000610f438261126a565b610f4d8185611275565b9350610f5d8185602086016112f5565b80840191505092915050565b6000610f76602083611280565b91507f5361666545524332303a206c6f772d6c6576656c2063616c6c206661696c65646000830152602082019050919050565b6000610fb6602a83611280565b91507f5361666545524332303a204552433230206f7065726174696f6e20646964206e60008301527f6f742073756363656564000000000000000000000000000000000000000000006020830152604082019050919050565b600061101c601f83611280565b91507f5361666545524332303a2063616c6c20746f206e6f6e2d636f6e7472616374006000830152602082019050919050565b6040820160008201516110656000850182610f1a565b506020820151611078602085018261108d565b50505050565b611087816112af565b82525050565b611096816112eb565b82525050565b6110a5816112eb565b82525050565b60006110b78284610f38565b915081905092915050565b60006020820190506110d76000830184610f0b565b92915050565b60006060820190506110f26000830186610f0b565b6110ff6020830185610f0b565b61110c604083018461109c565b949350505050565b60006040820190506111296000830185610f0b565b611136602083018461109c565b9392505050565b60006080820190506111526000830187610f0b565b61115f602083018661109c565b61116c6040830185610f29565b611179606083018461109c565b95945050505050565b60006040820190506111976000830185610f29565b6111a4602083018461107e565b9392505050565b600060208201905081810360008301526111c481610f69565b9050919050565b600060208201905081810360008301526111e481610fa9565b9050919050565b600060208201905081810360008301526112048161100f565b9050919050565b6000604082019050611220600083018461104f565b92915050565b600060208201905061123b600083018461109c565b92915050565b6000604082019050611256600083018561109c565b611263602083018461109c565b9392505050565b600081519050919050565b600081905092915050565b600082825260208201905092915050565b600061129c826112cb565b9050919050565b60008115159050919050565b60006fffffffffffffffffffffffffffffffff82169050919050565b600073ffffffffffffffffffffffffffffffffffffffff82169050919050565b6000819050919050565b60005b838110156113135780820151818401526020810190506112f8565b83811115611322576000848401525b50505050565b61133181611291565b811461133c57600080fd5b50565b611348816112a3565b811461135357600080fd5b50565b6009811061136357600080fd5b50565b61136f816112eb565b811461137a57600080fd5b5056fea365627a7a72315820057c253ac25d95593b240444bae96b27946e0f21f1db77aca90aa3409d2c76db6c6578706572696d656e74616cf564736f6c63430005100040",
  "linkReferences": {},
  "deployedLinkReferences": {}
}