{
  "_format": "hh-sol-artifact-1",
  "contractName": "aaveInterestRateStrategyMock",
  "sourceName": "contracts/mocks/aaveInterestRateStrategyMock.sol",
  "abi": [
    {
      "inputs": [],
      "payable": false,
      "stateMutability": "nonpayable",
      "type": "constructor"
    },
    {
      "constant": false,
      "inputs": [
        {
          "internalType": "uint256",
          "name": "_borrowRate",
          "type": "uint256"
        }
      ],
      "name": "_setBorrowRate",
      "outputs": [],
      "payable": false,
      "stateMutability": "nonpayable",
      "type": "function"
    },
    {
      "constant": false,
      "inputs": [
        {
          "internalType": "uint256",
          "name": "_supplyRate",
          "type": "uint256"
        }
      ],
      "name": "_setSupplyRate",
      "outputs": [],
      "payable": false,
      "stateMutability": "nonpayable",
      "type": "function"
    },
    {
      "constant": true,
      "inputs": [],
      "name": "borrowRate",
      "outputs": [
        {
          "internalType": "uint256",
          "name": "",
          "type": "uint256"
        }
      ],
      "payable": false,
      "stateMutability": "view",
      "type": "function"
    },
    {
      "constant": true,
      "inputs": [
        {
          "internalType": "address",
          "name": "",
          "type": "address"
        },
        {
          "internalType": "uint256",
          "name": "",
          "type": "uint256"
        },
        {
          "internalType": "uint256",
          "name": "",
          "type": "uint256"
        },
        {
          "internalType": "uint256",
          "name": "",
          "type": "uint256"
        },
        {
          "internalType": "uint256",
          "name": "",
          "type": "uint256"
        }
      ],
      "name": "calculateInterestRates",
      "outputs": [
        {
          "internalType": "uint256",
          "name": "",
          "type": "uint256"
        },
        {
          "internalType": "uint256",
          "name": "",
          "type": "uint256"
        },
        {
          "internalType": "uint256",
          "name": "",
          "type": "uint256"
        }
      ],
      "payable": false,
      "stateMutability": "view",
      "type": "function"
    },
    {
      "constant": true,
      "inputs": [],
      "name": "getBaseVariableBorrowRate",
      "outputs": [
        {
          "internalType": "uint256",
          "name": "",
          "type": "uint256"
        }
      ],
      "payable": false,
      "stateMutability": "view",
      "type": "function"
    },
    {
      "constant": true,
      "inputs": [],
      "name": "supplyRate",
      "outputs": [
        {
          "internalType": "uint256",
          "name": "",
          "type": "uint256"
        }
      ],
      "payable": false,
      "stateMutability": "view",
      "type": "function"
    }
  ],
  "bytecode": "0x608060405234801561001057600080fd5b50610228806100206000396000f3fe608060405234801561001057600080fd5b50600436106100625760003560e01c806334762ca51461006757806357e37af01461008557806382c7f95814610113578063ab27722714610141578063ad2961a31461016f578063c914b4371461018d575b600080fd5b61006f6101ab565b6040518082815260200191505060405180910390f35b6100ef600480360360a081101561009b57600080fd5b81019080803573ffffffffffffffffffffffffffffffffffffffff169060200190929190803590602001909291908035906020019092919080359060200190929190803590602001909291905050506101b4565b60405180848152602001838152602001828152602001935050505060405180910390f35b61013f6004803603602081101561012957600080fd5b81019080803590602001909291905050506101d3565b005b61016d6004803603602081101561015757600080fd5b81019080803590602001909291905050506101dd565b005b6101776101e7565b6040518082815260200191505060405180910390f35b6101956101ed565b6040518082815260200191505060405180910390f35b60008054905090565b6000806000600154600054600054925092509250955095509592505050565b8060008190555050565b8060018190555050565b60015481565b6000548156fea265627a7a7231582073b82f8c21dfa81aefdb95a324219c603197d5896e27c786cf8febb3ae29140d64736f6c63430005100032",
  "linkReferences": {},
  "deployedLinkReferences": {}
}