{
  "_format": "hh-sol-artifact-1",
  "contractName": "IdleTokenV3_1NoConst",
  "sourceName": "contracts/mocks/IdleTokenV3_1NoConst.sol",
  "abi": [
    {
      "anonymous": false,
      "inputs": [
        {
          "indexed": true,
          "internalType": "address",
          "name": "owner",
          "type": "address"
        },
        {
          "indexed": true,
          "internalType": "address",
          "name": "spender",
          "type": "address"
        },
        {
          "indexed": false,
          "internalType": "uint256",
          "name": "value",
          "type": "uint256"
        }
      ],
      "name": "Approval",
      "type": "event"
    },
    {
      "anonymous": false,
      "inputs": [
        {
          "indexed": true,
          "internalType": "address",
          "name": "previousOwner",
          "type": "address"
        },
        {
          "indexed": true,
          "internalType": "address",
          "name": "newOwner",
          "type": "address"
        }
      ],
      "name": "OwnershipTransferred",
      "type": "event"
    },
    {
      "anonymous": false,
      "inputs": [
        {
          "indexed": false,
          "internalType": "address",
          "name": "account",
          "type": "address"
        }
      ],
      "name": "Paused",
      "type": "event"
    },
    {
      "anonymous": false,
      "inputs": [
        {
          "indexed": true,
          "internalType": "address",
          "name": "account",
          "type": "address"
        }
      ],
      "name": "PauserAdded",
      "type": "event"
    },
    {
      "anonymous": false,
      "inputs": [
        {
          "indexed": true,
          "internalType": "address",
          "name": "account",
          "type": "address"
        }
      ],
      "name": "PauserRemoved",
      "type": "event"
    },
    {
      "anonymous": false,
      "inputs": [
        {
          "indexed": false,
          "internalType": "address",
          "name": "_rebalancer",
          "type": "address"
        },
        {
          "indexed": false,
          "internalType": "uint256",
          "name": "_amount",
          "type": "uint256"
        }
      ],
      "name": "Rebalance",
      "type": "event"
    },
    {
      "anonymous": false,
      "inputs": [
        {
          "indexed": false,
          "internalType": "uint256",
          "name": "_amount",
          "type": "uint256"
        },
        {
          "indexed": false,
          "internalType": "address",
          "name": "_ref",
          "type": "address"
        }
      ],
      "name": "Referral",
      "type": "event"
    },
    {
      "anonymous": false,
      "inputs": [
        {
          "indexed": true,
          "internalType": "address",
          "name": "from",
          "type": "address"
        },
        {
          "indexed": true,
          "internalType": "address",
          "name": "to",
          "type": "address"
        },
        {
          "indexed": false,
          "internalType": "uint256",
          "name": "value",
          "type": "uint256"
        }
      ],
      "name": "Transfer",
      "type": "event"
    },
    {
      "anonymous": false,
      "inputs": [
        {
          "indexed": false,
          "internalType": "address",
          "name": "account",
          "type": "address"
        }
      ],
      "name": "Unpaused",
      "type": "event"
    },
    {
      "constant": true,
      "inputs": [],
      "name": "COMP",
      "outputs": [
        {
          "internalType": "address",
          "name": "",
          "type": "address"
        }
      ],
      "payable": false,
      "stateMutability": "view",
      "type": "function"
    },
    {
      "constant": true,
      "inputs": [],
      "name": "IDLE",
      "outputs": [
        {
          "internalType": "address",
          "name": "",
          "type": "address"
        }
      ],
      "payable": false,
      "stateMutability": "view",
      "type": "function"
    },
    {
      "constant": false,
      "inputs": [
        {
          "internalType": "address",
          "name": "account",
          "type": "address"
        }
      ],
      "name": "addPauser",
      "outputs": [],
      "payable": false,
      "stateMutability": "nonpayable",
      "type": "function"
    },
    {
      "constant": true,
      "inputs": [
        {
          "internalType": "uint256",
          "name": "",
          "type": "uint256"
        }
      ],
      "name": "allAvailableTokens",
      "outputs": [
        {
          "internalType": "address",
          "name": "",
          "type": "address"
        }
      ],
      "payable": false,
      "stateMutability": "view",
      "type": "function"
    },
    {
      "constant": true,
      "inputs": [
        {
          "internalType": "address",
          "name": "owner",
          "type": "address"
        },
        {
          "internalType": "address",
          "name": "spender",
          "type": "address"
        }
      ],
      "name": "allowance",
      "outputs": [
        {
          "internalType": "uint256",
          "name": "",
          "type": "uint256"
        }
      ],
      "payable": false,
      "stateMutability": "view",
      "type": "function"
    },
    {
      "constant": false,
      "inputs": [
        {
          "internalType": "address",
          "name": "spender",
          "type": "address"
        },
        {
          "internalType": "uint256",
          "name": "amount",
          "type": "uint256"
        }
      ],
      "name": "approve",
      "outputs": [
        {
          "internalType": "bool",
          "name": "",
          "type": "bool"
        }
      ],
      "payable": false,
      "stateMutability": "nonpayable",
      "type": "function"
    },
    {
      "constant": true,
      "inputs": [
        {
          "internalType": "address",
          "name": "account",
          "type": "address"
        }
      ],
      "name": "balanceOf",
      "outputs": [
        {
          "internalType": "uint256",
          "name": "",
          "type": "uint256"
        }
      ],
      "payable": false,
      "stateMutability": "view",
      "type": "function"
    },
    {
      "constant": true,
      "inputs": [],
      "name": "decimals",
      "outputs": [
        {
          "internalType": "uint8",
          "name": "",
          "type": "uint8"
        }
      ],
      "payable": false,
      "stateMutability": "view",
      "type": "function"
    },
    {
      "constant": false,
      "inputs": [
        {
          "internalType": "address",
          "name": "spender",
          "type": "address"
        },
        {
          "internalType": "uint256",
          "name": "subtractedValue",
          "type": "uint256"
        }
      ],
      "name": "decreaseAllowance",
      "outputs": [
        {
          "internalType": "bool",
          "name": "",
          "type": "bool"
        }
      ],
      "payable": false,
      "stateMutability": "nonpayable",
      "type": "function"
    },
    {
      "constant": true,
      "inputs": [],
      "name": "fee",
      "outputs": [
        {
          "internalType": "uint256",
          "name": "",
          "type": "uint256"
        }
      ],
      "payable": false,
      "stateMutability": "view",
      "type": "function"
    },
    {
      "constant": true,
      "inputs": [],
      "name": "feeAddress",
      "outputs": [
        {
          "internalType": "address",
          "name": "",
          "type": "address"
        }
      ],
      "payable": false,
      "stateMutability": "view",
      "type": "function"
    },
    {
      "constant": true,
      "inputs": [],
      "name": "getAPRs",
      "outputs": [
        {
          "internalType": "address[]",
          "name": "addresses",
          "type": "address[]"
        },
        {
          "internalType": "uint256[]",
          "name": "aprs",
          "type": "uint256[]"
        }
      ],
      "payable": false,
      "stateMutability": "view",
      "type": "function"
    },
    {
      "constant": true,
      "inputs": [],
      "name": "getAllocations",
      "outputs": [
        {
          "internalType": "uint256[]",
          "name": "",
          "type": "uint256[]"
        }
      ],
      "payable": false,
      "stateMutability": "view",
      "type": "function"
    },
    {
      "constant": true,
      "inputs": [],
      "name": "getAvgAPR",
      "outputs": [
        {
          "internalType": "uint256",
          "name": "",
          "type": "uint256"
        }
      ],
      "payable": false,
      "stateMutability": "view",
      "type": "function"
    },
    {
      "constant": true,
      "inputs": [
        {
          "internalType": "address",
          "name": "_usr",
          "type": "address"
        }
      ],
      "name": "getGovTokensAmounts",
      "outputs": [
        {
          "internalType": "uint256[]",
          "name": "_amounts",
          "type": "uint256[]"
        }
      ],
      "payable": false,
      "stateMutability": "view",
      "type": "function"
    },
    {
      "constant": true,
      "inputs": [
        {
          "internalType": "uint256",
          "name": "",
          "type": "uint256"
        }
      ],
      "name": "govTokens",
      "outputs": [
        {
          "internalType": "address",
          "name": "",
          "type": "address"
        }
      ],
      "payable": false,
      "stateMutability": "view",
      "type": "function"
    },
    {
      "constant": true,
      "inputs": [
        {
          "internalType": "address",
          "name": "",
          "type": "address"
        }
      ],
      "name": "govTokensIndexes",
      "outputs": [
        {
          "internalType": "uint256",
          "name": "",
          "type": "uint256"
        }
      ],
      "payable": false,
      "stateMutability": "view",
      "type": "function"
    },
    {
      "constant": true,
      "inputs": [
        {
          "internalType": "address",
          "name": "",
          "type": "address"
        }
      ],
      "name": "govTokensLastBalances",
      "outputs": [
        {
          "internalType": "uint256",
          "name": "",
          "type": "uint256"
        }
      ],
      "payable": false,
      "stateMutability": "view",
      "type": "function"
    },
    {
      "constant": true,
      "inputs": [],
      "name": "gst2",
      "outputs": [
        {
          "internalType": "contract GasToken",
          "name": "",
          "type": "address"
        }
      ],
      "payable": false,
      "stateMutability": "view",
      "type": "function"
    },
    {
      "constant": true,
      "inputs": [],
      "name": "idleController",
      "outputs": [
        {
          "internalType": "address",
          "name": "",
          "type": "address"
        }
      ],
      "payable": false,
      "stateMutability": "view",
      "type": "function"
    },
    {
      "constant": false,
      "inputs": [
        {
          "internalType": "address",
          "name": "spender",
          "type": "address"
        },
        {
          "internalType": "uint256",
          "name": "addedValue",
          "type": "uint256"
        }
      ],
      "name": "increaseAllowance",
      "outputs": [
        {
          "internalType": "bool",
          "name": "",
          "type": "bool"
        }
      ],
      "payable": false,
      "stateMutability": "nonpayable",
      "type": "function"
    },
    {
      "constant": false,
      "inputs": [
        {
          "internalType": "string",
          "name": "name",
          "type": "string"
        },
        {
          "internalType": "string",
          "name": "symbol",
          "type": "string"
        },
        {
          "internalType": "uint8",
          "name": "decimals",
          "type": "uint8"
        }
      ],
      "name": "initialize",
      "outputs": [],
      "payable": false,
      "stateMutability": "nonpayable",
      "type": "function"
    },
    {
      "constant": false,
      "inputs": [],
      "name": "initialize",
      "outputs": [],
      "payable": false,
      "stateMutability": "nonpayable",
      "type": "function"
    },
    {
      "constant": false,
      "inputs": [
        {
          "internalType": "address",
          "name": "sender",
          "type": "address"
        }
      ],
      "name": "initialize",
      "outputs": [],
      "payable": false,
      "stateMutability": "nonpayable",
      "type": "function"
    },
    {
      "constant": true,
      "inputs": [],
      "name": "isOwner",
      "outputs": [
        {
          "internalType": "bool",
          "name": "",
          "type": "bool"
        }
      ],
      "payable": false,
      "stateMutability": "view",
      "type": "function"
    },
    {
      "constant": true,
      "inputs": [
        {
          "internalType": "address",
          "name": "account",
          "type": "address"
        }
      ],
      "name": "isPauser",
      "outputs": [
        {
          "internalType": "bool",
          "name": "",
          "type": "bool"
        }
      ],
      "payable": false,
      "stateMutability": "view",
      "type": "function"
    },
    {
      "constant": true,
      "inputs": [],
      "name": "isRiskAdjusted",
      "outputs": [
        {
          "internalType": "bool",
          "name": "",
          "type": "bool"
        }
      ],
      "payable": false,
      "stateMutability": "view",
      "type": "function"
    },
    {
      "constant": true,
      "inputs": [
        {
          "internalType": "uint256",
          "name": "",
          "type": "uint256"
        }
      ],
      "name": "lastAllocations",
      "outputs": [
        {
          "internalType": "uint256",
          "name": "",
          "type": "uint256"
        }
      ],
      "payable": false,
      "stateMutability": "view",
      "type": "function"
    },
    {
      "constant": true,
      "inputs": [],
      "name": "lastITokenPrice",
      "outputs": [
        {
          "internalType": "uint256",
          "name": "",
          "type": "uint256"
        }
      ],
      "payable": false,
      "stateMutability": "view",
      "type": "function"
    },
    {
      "constant": false,
      "inputs": [
        {
          "internalType": "address[]",
          "name": "_newGovTokens",
          "type": "address[]"
        },
        {
          "internalType": "address[]",
          "name": "_protocolTokens",
          "type": "address[]"
        },
        {
          "internalType": "address[]",
          "name": "_wrappers",
          "type": "address[]"
        },
        {
          "internalType": "uint256[]",
          "name": "_lastRebalancerAllocations",
          "type": "uint256[]"
        },
        {
          "internalType": "bool",
          "name": "_isRiskAdjusted",
          "type": "bool"
        }
      ],
      "name": "manualInitialize",
      "outputs": [],
      "payable": false,
      "stateMutability": "nonpayable",
      "type": "function"
    },
    {
      "constant": true,
      "inputs": [],
      "name": "maxUnlentPerc",
      "outputs": [
        {
          "internalType": "uint256",
          "name": "",
          "type": "uint256"
        }
      ],
      "payable": false,
      "stateMutability": "view",
      "type": "function"
    },
    {
      "constant": false,
      "inputs": [
        {
          "internalType": "uint256",
          "name": "_amount",
          "type": "uint256"
        },
        {
          "internalType": "bool",
          "name": "_skipRebalance",
          "type": "bool"
        },
        {
          "internalType": "address",
          "name": "_referral",
          "type": "address"
        }
      ],
      "name": "mintIdleToken",
      "outputs": [
        {
          "internalType": "uint256",
          "name": "mintedTokens",
          "type": "uint256"
        }
      ],
      "payable": false,
      "stateMutability": "nonpayable",
      "type": "function"
    },
    {
      "constant": true,
      "inputs": [],
      "name": "name",
      "outputs": [
        {
          "internalType": "string",
          "name": "",
          "type": "string"
        }
      ],
      "payable": false,
      "stateMutability": "view",
      "type": "function"
    },
    {
      "constant": false,
      "inputs": [
        {
          "internalType": "uint256[]",
          "name": "_newAllocations",
          "type": "uint256[]"
        }
      ],
      "name": "openRebalance",
      "outputs": [
        {
          "internalType": "bool",
          "name": "",
          "type": "bool"
        },
        {
          "internalType": "uint256",
          "name": "avgApr",
          "type": "uint256"
        }
      ],
      "payable": false,
      "stateMutability": "nonpayable",
      "type": "function"
    },
    {
      "constant": true,
      "inputs": [],
      "name": "oracle",
      "outputs": [
        {
          "internalType": "address",
          "name": "",
          "type": "address"
        }
      ],
      "payable": false,
      "stateMutability": "view",
      "type": "function"
    },
    {
      "constant": true,
      "inputs": [],
      "name": "owner",
      "outputs": [
        {
          "internalType": "address",
          "name": "",
          "type": "address"
        }
      ],
      "payable": false,
      "stateMutability": "view",
      "type": "function"
    },
    {
      "constant": false,
      "inputs": [],
      "name": "pause",
      "outputs": [],
      "payable": false,
      "stateMutability": "nonpayable",
      "type": "function"
    },
    {
      "constant": true,
      "inputs": [],
      "name": "paused",
      "outputs": [
        {
          "internalType": "bool",
          "name": "",
          "type": "bool"
        }
      ],
      "payable": false,
      "stateMutability": "view",
      "type": "function"
    },
    {
      "constant": true,
      "inputs": [
        {
          "internalType": "address",
          "name": "",
          "type": "address"
        }
      ],
      "name": "protocolWrappers",
      "outputs": [
        {
          "internalType": "address",
          "name": "",
          "type": "address"
        }
      ],
      "payable": false,
      "stateMutability": "view",
      "type": "function"
    },
    {
      "constant": false,
      "inputs": [],
      "name": "rebalance",
      "outputs": [
        {
          "internalType": "bool",
          "name": "",
          "type": "bool"
        }
      ],
      "payable": false,
      "stateMutability": "nonpayable",
      "type": "function"
    },
    {
      "constant": false,
      "inputs": [],
      "name": "rebalanceWithGST",
      "outputs": [
        {
          "internalType": "bool",
          "name": "",
          "type": "bool"
        }
      ],
      "payable": false,
      "stateMutability": "nonpayable",
      "type": "function"
    },
    {
      "constant": true,
      "inputs": [],
      "name": "rebalancer",
      "outputs": [
        {
          "internalType": "address",
          "name": "",
          "type": "address"
        }
      ],
      "payable": false,
      "stateMutability": "view",
      "type": "function"
    },
    {
      "constant": false,
      "inputs": [
        {
          "internalType": "uint256",
          "name": "_amount",
          "type": "uint256"
        }
      ],
      "name": "redeemIdleToken",
      "outputs": [
        {
          "internalType": "uint256",
          "name": "redeemedTokens",
          "type": "uint256"
        }
      ],
      "payable": false,
      "stateMutability": "nonpayable",
      "type": "function"
    },
    {
      "constant": false,
      "inputs": [
        {
          "internalType": "uint256",
          "name": "_amount",
          "type": "uint256"
        }
      ],
      "name": "redeemInterestBearingTokens",
      "outputs": [],
      "payable": false,
      "stateMutability": "nonpayable",
      "type": "function"
    },
    {
      "constant": false,
      "inputs": [],
      "name": "renounceOwnership",
      "outputs": [],
      "payable": false,
      "stateMutability": "nonpayable",
      "type": "function"
    },
    {
      "constant": false,
      "inputs": [],
      "name": "renouncePauser",
      "outputs": [],
      "payable": false,
      "stateMutability": "nonpayable",
      "type": "function"
    },
    {
      "constant": false,
      "inputs": [
        {
          "internalType": "address[]",
          "name": "protocolTokens",
          "type": "address[]"
        },
        {
          "internalType": "address[]",
          "name": "wrappers",
          "type": "address[]"
        },
        {
          "internalType": "uint256[]",
          "name": "allocations",
          "type": "uint256[]"
        },
        {
          "internalType": "bool",
          "name": "keepAllocations",
          "type": "bool"
        }
      ],
      "name": "setAllAvailableTokensAndWrappers",
      "outputs": [],
      "payable": false,
      "stateMutability": "nonpayable",
      "type": "function"
    },
    {
      "constant": false,
      "inputs": [
        {
          "internalType": "uint256[]",
          "name": "_allocations",
          "type": "uint256[]"
        }
      ],
      "name": "setAllocations",
      "outputs": [],
      "payable": false,
      "stateMutability": "nonpayable",
      "type": "function"
    },
    {
      "constant": false,
      "inputs": [
        {
          "internalType": "uint256",
          "name": "_fee",
          "type": "uint256"
        }
      ],
      "name": "setFee",
      "outputs": [],
      "payable": false,
      "stateMutability": "nonpayable",
      "type": "function"
    },
    {
      "constant": false,
      "inputs": [
        {
          "internalType": "address",
          "name": "_feeAddress",
          "type": "address"
        }
      ],
      "name": "setFeeAddress",
      "outputs": [],
      "payable": false,
      "stateMutability": "nonpayable",
      "type": "function"
    },
    {
      "constant": false,
      "inputs": [
        {
          "internalType": "address[]",
          "name": "_newGovTokens",
          "type": "address[]"
        },
        {
          "internalType": "address[]",
          "name": "_protocolTokens",
          "type": "address[]"
        }
      ],
      "name": "setGovTokens",
      "outputs": [],
      "payable": false,
      "stateMutability": "nonpayable",
      "type": "function"
    },
    {
      "constant": false,
      "inputs": [
        {
          "internalType": "bool",
          "name": "_isRiskAdjusted",
          "type": "bool"
        }
      ],
      "name": "setIsRiskAdjusted",
      "outputs": [],
      "payable": false,
      "stateMutability": "nonpayable",
      "type": "function"
    },
    {
      "constant": false,
      "inputs": [
        {
          "internalType": "address",
          "name": "_rebalancer",
          "type": "address"
        }
      ],
      "name": "setRebalancer",
      "outputs": [],
      "payable": false,
      "stateMutability": "nonpayable",
      "type": "function"
    },
    {
      "constant": true,
      "inputs": [],
      "name": "symbol",
      "outputs": [
        {
          "internalType": "string",
          "name": "",
          "type": "string"
        }
      ],
      "payable": false,
      "stateMutability": "view",
      "type": "function"
    },
    {
      "constant": true,
      "inputs": [],
      "name": "token",
      "outputs": [
        {
          "internalType": "address",
          "name": "",
          "type": "address"
        }
      ],
      "payable": false,
      "stateMutability": "view",
      "type": "function"
    },
    {
      "constant": true,
      "inputs": [],
      "name": "tokenPrice",
      "outputs": [
        {
          "internalType": "uint256",
          "name": "",
          "type": "uint256"
        }
      ],
      "payable": false,
      "stateMutability": "view",
      "type": "function"
    },
    {
      "constant": true,
      "inputs": [],
      "name": "totalSupply",
      "outputs": [
        {
          "internalType": "uint256",
          "name": "",
          "type": "uint256"
        }
      ],
      "payable": false,
      "stateMutability": "view",
      "type": "function"
    },
    {
      "constant": false,
      "inputs": [
        {
          "internalType": "address",
          "name": "recipient",
          "type": "address"
        },
        {
          "internalType": "uint256",
          "name": "amount",
          "type": "uint256"
        }
      ],
      "name": "transfer",
      "outputs": [
        {
          "internalType": "bool",
          "name": "",
          "type": "bool"
        }
      ],
      "payable": false,
      "stateMutability": "nonpayable",
      "type": "function"
    },
    {
      "constant": false,
      "inputs": [
        {
          "internalType": "address",
          "name": "sender",
          "type": "address"
        },
        {
          "internalType": "address",
          "name": "recipient",
          "type": "address"
        },
        {
          "internalType": "uint256",
          "name": "amount",
          "type": "uint256"
        }
      ],
      "name": "transferFrom",
      "outputs": [
        {
          "internalType": "bool",
          "name": "",
          "type": "bool"
        }
      ],
      "payable": false,
      "stateMutability": "nonpayable",
      "type": "function"
    },
    {
      "constant": false,
      "inputs": [
        {
          "internalType": "address",
          "name": "newOwner",
          "type": "address"
        }
      ],
      "name": "transferOwnership",
      "outputs": [],
      "payable": false,
      "stateMutability": "nonpayable",
      "type": "function"
    },
    {
      "constant": false,
      "inputs": [],
      "name": "unpause",
      "outputs": [],
      "payable": false,
      "stateMutability": "nonpayable",
      "type": "function"
    },
    {
      "constant": true,
      "inputs": [
        {
          "internalType": "address",
          "name": "",
          "type": "address"
        }
      ],
      "name": "userAvgPrices",
      "outputs": [
        {
          "internalType": "uint256",
          "name": "",
          "type": "uint256"
        }
      ],
      "payable": false,
      "stateMutability": "view",
      "type": "function"
    },
    {
      "constant": true,
      "inputs": [
        {
          "internalType": "address",
          "name": "",
          "type": "address"
        },
        {
          "internalType": "address",
          "name": "",
          "type": "address"
        }
      ],
      "name": "usersGovTokensIndexes",
      "outputs": [
        {
          "internalType": "uint256",
          "name": "",
          "type": "uint256"
        }
      ],
      "payable": false,
      "stateMutability": "view",
      "type": "function"
    }
  ],
  "bytecode": "0x608060405273875773784af8135ea0ef43b5a374aad105c5d39e61017d60006101000a81548173ffffffffffffffffffffffffffffffffffffffff021916908373ffffffffffffffffffffffffffffffffffffffff16021790555073c00e94cb662c3520282e6f5717214004a7f2688861017e60006101000a81548173ffffffffffffffffffffffffffffffffffffffff021916908373ffffffffffffffffffffffffffffffffffffffff16021790555073275da8e61ea8e02d51edd8d0dc5c0e62b4cdb0be61017f60006101000a81548173ffffffffffffffffffffffffffffffffffffffff021916908373ffffffffffffffffffffffffffffffffffffffff16021790555061a4a780620001166000396000f3fe608060405234801561001057600080fd5b50600436106103c55760003560e01c80637d7c2a1c116101ff578063afdd3fc31161011a578063da5163cc116100ad578063effffebc1161007c578063effffebc1461177a578063f2d50ba6146118fe578063f2fde38b1461191c578063fc0c546a14611960576103c5565b8063da5163cc1461162a578063dba2d85d146116c2578063dd62ed3e146116e4578063ddca3f431461175c576103c5565b8063c4d66de8116100e9578063c4d66de814611465578063cb390f97146114a9578063cb506488146114cb578063d05be735146114fb576103c5565b8063afdd3fc3146112b9578063b13bd491146112fb578063b71501bc146113a2578063c498c515146113ec576103c5565b80638b30b516116101925780639602e9f8116101615780639602e9f81461114b578063a457c2d714611195578063a9059cbb146111fb578063aaa48e9f14611261576103c5565b80638b30b5161461101a5780638da5cb5b1461105c5780638f32d59b146110a657806395d89b41146110c8576103c5565b806382dc1ec4116101ce57806382dc1ec414610f105780638456cb5914610f545780638705fcd414610f5e5780638a279e8a14610fa2576103c5565b80637d7c2a1c14610e7c5780637dc0d1d014610e9e5780637ff9b59614610ee85780638129fc1c14610f06576103c5565b806341275358116102ef57806364d553a1116102825780636ef8d66d116102515780636ef8d66d14610da257806370a0823114610dac578063715018a614610e04578063746daa4e14610e0e576103c5565b806364d553a114610c0357806365ed6e2314610cd157806369fe0e2d14610d305780636cfd155314610d5e576103c5565b80635478786c116102be5780635478786c14610b215780635492450714610b6b5780635c975abb14610b895780636287fe2114610bab576103c5565b8063412753581461095e57806345c8026c146109a857806346fbf68e14610a2c57806350b28af714610a88576103c5565b80631f80b18a11610367578063313ce56711610336578063313ce5671461085c57806336a000821461088057806339509351146108ee5780633f4ba83a14610954576103c5565b80631f80b18a1461070057806323b872dd1461071e57806323d39ab5146107a45780632befabbf146107ee576103c5565b80630df94ef2116103a35780630df94ef2146104fd5780631624f6c61461055557806318160ddd146106b4578063194a62a8146106d2576103c5565b806301d22ccd146103ca57806306fdde0314610414578063095ea7b314610497575b600080fd5b6103d26119aa565b604051808273ffffffffffffffffffffffffffffffffffffffff1673ffffffffffffffffffffffffffffffffffffffff16815260200191505060405180910390f35b61041c6119d1565b6040518080602001828103825283818151815260200191508051906020019080838360005b8381101561045c578082015181840152602081019050610441565b50505050905090810190601f1680156104895780820380516001836020036101000a031916815260200191505b509250505060405180910390f35b6104e3600480360360408110156104ad57600080fd5b81019080803573ffffffffffffffffffffffffffffffffffffffff16906020019092919080359060200190929190505050611a73565b604051808215151515815260200191505060405180910390f35b61053f6004803603602081101561051357600080fd5b81019080803573ffffffffffffffffffffffffffffffffffffffff169060200190929190505050611a91565b6040518082815260200191505060405180910390f35b6106b26004803603606081101561056b57600080fd5b810190808035906020019064010000000081111561058857600080fd5b82018360208201111561059a57600080fd5b803590602001918460018302840111640100000000831117156105bc57600080fd5b91908080601f016020809104026020016040519081016040528093929190818152602001838380828437600081840152601f19601f8201169050808301925050505050505091929192908035906020019064010000000081111561061f57600080fd5b82018360208201111561063157600080fd5b8035906020019184600183028401116401000000008311171561065357600080fd5b91908080601f016020809104026020016040519081016040528093929190818152602001838380828437600081840152601f19601f820116905080830192505050505050509192919290803560ff169060200190929190505050611aaa565b005b6106bc611bf5565b6040518082815260200191505060405180910390f35b6106fe600480360360208110156106e857600080fd5b8101908080359060200190929190505050611bff565b005b610708611ff1565b6040518082815260200191505060405180910390f35b61078a6004803603606081101561073457600080fd5b81019080803573ffffffffffffffffffffffffffffffffffffffff169060200190929190803573ffffffffffffffffffffffffffffffffffffffff16906020019092919080359060200190929190505050612000565b604051808215151515815260200191505060405180910390f35b6107ac6120af565b604051808273ffffffffffffffffffffffffffffffffffffffff1673ffffffffffffffffffffffffffffffffffffffff16815260200191505060405180910390f35b6108466004803603606081101561080457600080fd5b8101908080359060200190929190803515159060200190929190803573ffffffffffffffffffffffffffffffffffffffff1690602001909291905050506120d6565b6040518082815260200191505060405180910390f35b6108646123bd565b604051808260ff1660ff16815260200191505060405180910390f35b6108ac6004803603602081101561089657600080fd5b81019080803590602001909291905050506123d4565b604051808273ffffffffffffffffffffffffffffffffffffffff1673ffffffffffffffffffffffffffffffffffffffff16815260200191505060405180910390f35b61093a6004803603604081101561090457600080fd5b81019080803573ffffffffffffffffffffffffffffffffffffffff16906020019092919080359060200190929190505050612411565b604051808215151515815260200191505060405180910390f35b61095c6124c4565b005b610966612634565b604051808273ffffffffffffffffffffffffffffffffffffffff1673ffffffffffffffffffffffffffffffffffffffff16815260200191505060405180910390f35b6109ea600480360360208110156109be57600080fd5b81019080803573ffffffffffffffffffffffffffffffffffffffff16906020019092919050505061265b565b604051808273ffffffffffffffffffffffffffffffffffffffff1673ffffffffffffffffffffffffffffffffffffffff16815260200191505060405180910390f35b610a6e60048036036020811015610a4257600080fd5b81019080803573ffffffffffffffffffffffffffffffffffffffff16906020019092919050505061268f565b604051808215151515815260200191505060405180910390f35b610aca60048036036020811015610a9e57600080fd5b81019080803573ffffffffffffffffffffffffffffffffffffffff1690602001909291905050506126ad565b6040518080602001828103825283818151815260200191508051906020019060200280838360005b83811015610b0d578082015181840152602081019050610af2565b505050509050019250505060405180910390f35b610b29612868565b604051808273ffffffffffffffffffffffffffffffffffffffff1673ffffffffffffffffffffffffffffffffffffffff16815260200191505060405180910390f35b610b7361288f565b6040518082815260200191505060405180910390f35b610b91612896565b604051808215151515815260200191505060405180910390f35b610bed60048036036020811015610bc157600080fd5b81019080803573ffffffffffffffffffffffffffffffffffffffff1690602001909291905050506128ae565b6040518082815260200191505060405180910390f35b610ccf60048036036040811015610c1957600080fd5b8101908080359060200190640100000000811115610c3657600080fd5b820183602082011115610c4857600080fd5b80359060200191846020830284011164010000000083111715610c6a57600080fd5b909192939192939080359060200190640100000000811115610c8b57600080fd5b820183602082011115610c9d57600080fd5b80359060200191846020830284011164010000000083111715610cbf57600080fd5b90919293919293905050506128c7565b005b610cd9612bae565b6040518080602001828103825283818151815260200191508051906020019060200280838360005b83811015610d1c578082015181840152602081019050610d01565b505050509050019250505060405180910390f35b610d5c60048036036020811015610d4657600080fd5b8101908080359060200190929190505050612c07565b005b610da060048036036020811015610d7457600080fd5b81019080803573ffffffffffffffffffffffffffffffffffffffff169060200190929190505050612d04565b005b610daa612e66565b005b610dee60048036036020811015610dc257600080fd5b81019080803573ffffffffffffffffffffffffffffffffffffffff169060200190929190505050612e78565b6040518082815260200191505060405180910390f35b610e0c612ec1565b005b610e3a60048036036020811015610e2457600080fd5b8101908080359060200190929190505050612ffc565b604051808273ffffffffffffffffffffffffffffffffffffffff1673ffffffffffffffffffffffffffffffffffffffff16815260200191505060405180910390f35b610e84613039565b604051808215151515815260200191505060405180910390f35b610ea6613048565b604051808273ffffffffffffffffffffffffffffffffffffffff1673ffffffffffffffffffffffffffffffffffffffff16815260200191505060405180910390f35b610ef061306f565b6040518082815260200191505060405180910390f35b610f0e61307e565b005b610f5260048036036020811015610f2657600080fd5b81019080803573ffffffffffffffffffffffffffffffffffffffff1690602001909291905050506131ce565b005b610f5c61323f565b005b610fa060048036036020811015610f7457600080fd5b81019080803573ffffffffffffffffffffffffffffffffffffffff1690602001909291905050506133b0565b005b61100460048036036040811015610fb857600080fd5b81019080803573ffffffffffffffffffffffffffffffffffffffff169060200190929190803573ffffffffffffffffffffffffffffffffffffffff169060200190929190505050613512565b6040518082815260200191505060405180910390f35b6110466004803603602081101561103057600080fd5b8101908080359060200190929190505050613538565b6040518082815260200191505060405180910390f35b611064613916565b604051808273ffffffffffffffffffffffffffffffffffffffff1673ffffffffffffffffffffffffffffffffffffffff16815260200191505060405180910390f35b6110ae613940565b604051808215151515815260200191505060405180910390f35b6110d061399f565b6040518080602001828103825283818151815260200191508051906020019080838360005b838110156111105780820151818401526020810190506110f5565b50505050905090810190601f16801561113d5780820380516001836020036101000a031916815260200191505b509250505060405180910390f35b611153613a41565b604051808273ffffffffffffffffffffffffffffffffffffffff1673ffffffffffffffffffffffffffffffffffffffff16815260200191505060405180910390f35b6111e1600480360360408110156111ab57600080fd5b81019080803573ffffffffffffffffffffffffffffffffffffffff16906020019092919080359060200190929190505050613a68565b604051808215151515815260200191505060405180910390f35b6112476004803603604081101561121157600080fd5b81019080803573ffffffffffffffffffffffffffffffffffffffff16906020019092919080359060200190929190505050613b35565b604051808215151515815260200191505060405180910390f35b6112a36004803603602081101561127757600080fd5b81019080803573ffffffffffffffffffffffffffffffffffffffff169060200190929190505050613ba3565b6040518082815260200191505060405180910390f35b6112e5600480360360208110156112cf57600080fd5b8101908080359060200190929190505050613bbc565b6040518082815260200191505060405180910390f35b611303613bde565b604051808060200180602001838103835285818151815260200191508051906020019060200280838360005b8381101561134a57808201518184015260208101905061132f565b50505050905001838103825284818151815260200191508051906020019060200280838360005b8381101561138c578082015181840152602081019050611371565b5050505090500194505050505060405180910390f35b6113aa613df5565b604051808273ffffffffffffffffffffffffffffffffffffffff1673ffffffffffffffffffffffffffffffffffffffff16815260200191505060405180910390f35b6114636004803603602081101561140257600080fd5b810190808035906020019064010000000081111561141f57600080fd5b82018360208201111561143157600080fd5b8035906020019184602083028401116401000000008311171561145357600080fd5b9091929391929390505050613e1c565b005b6114a76004803603602081101561147b57600080fd5b81019080803573ffffffffffffffffffffffffffffffffffffffff169060200190929190505050613f6b565b005b6114b1614090565b604051808215151515815260200191505060405180910390f35b6114f9600480360360208110156114e157600080fd5b810190808035151590602001909291905050506140a4565b005b6116286004803603608081101561151157600080fd5b810190808035906020019064010000000081111561152e57600080fd5b82018360208201111561154057600080fd5b8035906020019184602083028401116401000000008311171561156257600080fd5b90919293919293908035906020019064010000000081111561158357600080fd5b82018360208201111561159557600080fd5b803590602001918460208302840111640100000000831117156115b757600080fd5b9091929391929390803590602001906401000000008111156115d857600080fd5b8201836020820111156115ea57600080fd5b8035906020019184602083028401116401000000008311171561160c57600080fd5b909192939192939080351515906020019092919050505061413c565b005b6116a16004803603602081101561164057600080fd5b810190808035906020019064010000000081111561165d57600080fd5b82018360208201111561166f57600080fd5b8035906020019184602083028401116401000000008311171561169157600080fd5b9091929391929390505050614554565b60405180831515151581526020018281526020019250505060405180910390f35b6116ca614752565b604051808215151515815260200191505060405180910390f35b611746600480360360408110156116fa57600080fd5b81019080803573ffffffffffffffffffffffffffffffffffffffff169060200190929190803573ffffffffffffffffffffffffffffffffffffffff169060200190929190505050614775565b6040518082815260200191505060405180910390f35b6117646147fc565b6040518082815260200191505060405180910390f35b6118fc600480360360a081101561179057600080fd5b81019080803590602001906401000000008111156117ad57600080fd5b8201836020820111156117bf57600080fd5b803590602001918460208302840111640100000000831117156117e157600080fd5b90919293919293908035906020019064010000000081111561180257600080fd5b82018360208201111561181457600080fd5b8035906020019184602083028401116401000000008311171561183657600080fd5b90919293919293908035906020019064010000000081111561185757600080fd5b82018360208201111561186957600080fd5b8035906020019184602083028401116401000000008311171561188b57600080fd5b9091929391929390803590602001906401000000008111156118ac57600080fd5b8201836020820111156118be57600080fd5b803590602001918460208302840111640100000000831117156118e057600080fd5b9091929391929390803515159060200190929190505050614803565b005b611906614c6a565b6040518082815260200191505060405180910390f35b61195e6004803603602081101561193257600080fd5b81019080803573ffffffffffffffffffffffffffffffffffffffff169060200190929190505050614c71565b005b611968614cf7565b604051808273ffffffffffffffffffffffffffffffffffffffff1673ffffffffffffffffffffffffffffffffffffffff16815260200191505060405180910390f35b61016d60009054906101000a900473ffffffffffffffffffffffffffffffffffffffff1681565b606060688054600181600116156101000203166002900480601f016020809104026020016040519081016040528092919081815260200182805460018160011615610100020316600290048015611a695780601f10611a3e57610100808354040283529160200191611a69565b820191906000526020600020905b815481529060010190602001808311611a4c57829003601f168201915b5050505050905090565b6000611a87611a80614d1e565b8484614d26565b6001905092915050565b6101766020528060005260406000206000915090505481565b600060019054906101000a900460ff1680611ac95750611ac8614f1d565b5b80611ae057506000809054906101000a900460ff16155b611b35576040517f08c379a000000000000000000000000000000000000000000000000000000000815260040180806020018281038252602e81526020018061a38c602e913960400191505060405180910390fd5b60008060019054906101000a900460ff161590508015611b85576001600060016101000a81548160ff02191690831515021790555060016000806101000a81548160ff0219169083151502179055505b8360689080519060200190611b9b929190619fd9565b508260699080519060200190611bb2929190619fd9565b5081606a60006101000a81548160ff021916908360ff1602179055508015611bef5760008060016101000a81548160ff0219169083151502179055505b50505050565b6000603554905090565b6001609d600082825401925050819055506000609d54905061013660009054906101000a900460ff16611c9a576040517f08c379a00000000000000000000000000000000000000000000000000000000081526004018080602001828103825260148152602001807f5061757361626c653a206e6f742070617573656400000000000000000000000081525060200191505060405180910390fd5b611ca2614f34565b611cad33600061500c565b6000611cb7611bf5565b9050600080600090505b61017380549050811015611e1d576101738181548110611cdd57fe5b9060005260206000200160009054906101000a900473ffffffffffffffffffffffffffffffffffffffff169150611e1033611dea85611ddc8673ffffffffffffffffffffffffffffffffffffffff166370a08231306040518263ffffffff1660e01b8152600401808273ffffffffffffffffffffffffffffffffffffffff1673ffffffffffffffffffffffffffffffffffffffff16815260200191505060206040518083038186803b158015611d9257600080fd5b505afa158015611da6573d6000803e3d6000fd5b505050506040513d6020811015611dbc57600080fd5b81019080805190602001909291905050508a6158d490919063ffffffff16565b61595a90919063ffffffff16565b8473ffffffffffffffffffffffffffffffffffffffff166159a49092919063ffffffff16565b8080600101915050611cc1565b50611f6a33611f2184611f1361016a60009054906101000a900473ffffffffffffffffffffffffffffffffffffffff1673ffffffffffffffffffffffffffffffffffffffff166370a08231306040518263ffffffff1660e01b8152600401808273ffffffffffffffffffffffffffffffffffffffff1673ffffffffffffffffffffffffffffffffffffffff16815260200191505060206040518083038186803b158015611ec957600080fd5b505afa158015611edd573d6000803e3d6000fd5b505050506040513d6020811015611ef357600080fd5b8101908080519060200190929190505050896158d490919063ffffffff16565b61595a90919063ffffffff16565b61016a60009054906101000a900473ffffffffffffffffffffffffffffffffffffffff1673ffffffffffffffffffffffffffffffffffffffff166159a49092919063ffffffff16565b611f743385615a75565b5050609d548114611fed576040517f08c379a000000000000000000000000000000000000000000000000000000000815260040180806020018281038252601f8152602001807f5265656e7472616e637947756172643a207265656e7472616e742063616c6c0081525060200191505060405180910390fd5b5050565b6000611ffb615c2f565b905090565b600061200d848484615ee9565b6120188484846162fa565b61205884336120538560405180606001604052806028815260200161a342602891396120448a33614775565b6165b49092919063ffffffff16565b614d26565b6120a484848461017660008973ffffffffffffffffffffffffffffffffffffffff1673ffffffffffffffffffffffffffffffffffffffff16815260200190815260200160002054616674565b600190509392505050565b61016960009054906101000a900473ffffffffffffffffffffffffffffffffffffffff1681565b60006001609d600082825401925050819055506000609d54905061013660009054906101000a900460ff1615612174576040517f08c379a00000000000000000000000000000000000000000000000000000000081526004018080602001828103825260108152602001807f5061757361626c653a207061757365640000000000000000000000000000000081525060200191505060405180910390fd5b3243604051602001808373ffffffffffffffffffffffffffffffffffffffff1673ffffffffffffffffffffffffffffffffffffffff1660601b8152601401828152602001925050506040516020818303038152906040528051906020012061017c819055506121e433600061500c565b60006121ee616a02565b905061224033308861016a60009054906101000a900473ffffffffffffffffffffffffffffffffffffffff1673ffffffffffffffffffffffffffffffffffffffff16616d58909392919063ffffffff16565b8461224f5761224d616e5e565b505b61227c8161226e670de0b6b3a7640000896158d490919063ffffffff16565b61595a90919063ffffffff16565b925061228833846175d7565b612293338483617794565b61229d3384617981565b600073ffffffffffffffffffffffffffffffffffffffff168473ffffffffffffffffffffffffffffffffffffffff161461233d577f496d589d8b7eb829a8d7b30e24a326ac33991f5cea96429b69231a6b15b54b1d8685604051808381526020018273ffffffffffffffffffffffffffffffffffffffff1673ffffffffffffffffffffffffffffffffffffffff1681526020019250505060405180910390a15b50609d5481146123b5576040517f08c379a000000000000000000000000000000000000000000000000000000000815260040180806020018281038252601f8152602001807f5265656e7472616e637947756172643a207265656e7472616e742063616c6c0081525060200191505060405180910390fd5b509392505050565b6000606a60009054906101000a900460ff16905090565b61017381815481106123e257fe5b906000526020600020016000915054906101000a900473ffffffffffffffffffffffffffffffffffffffff1681565b60006124ba61241e614d1e565b846124b5856034600061242f614d1e565b73ffffffffffffffffffffffffffffffffffffffff1673ffffffffffffffffffffffffffffffffffffffff16815260200190815260200160002060008973ffffffffffffffffffffffffffffffffffffffff1673ffffffffffffffffffffffffffffffffffffffff16815260200190815260200160002054617b9690919063ffffffff16565b614d26565b6001905092915050565b6124d46124cf614d1e565b61268f565b612529576040517f08c379a000000000000000000000000000000000000000000000000000000000815260040180806020018281038252603081526020018061a2626030913960400191505060405180910390fd5b61013660009054906101000a900460ff166125ac576040517f08c379a00000000000000000000000000000000000000000000000000000000081526004018080602001828103825260148152602001807f5061757361626c653a206e6f742070617573656400000000000000000000000081525060200191505060405180910390fd5b600061013660006101000a81548160ff0219169083151502179055507f5db9ee0a495bf2e6ff9c91a7834c1ba4fdd244a5e8aa4e537bd38aeae4b073aa6125f1614d1e565b604051808273ffffffffffffffffffffffffffffffffffffffff1673ffffffffffffffffffffffffffffffffffffffff16815260200191505060405180910390a1565b61016e60009054906101000a900473ffffffffffffffffffffffffffffffffffffffff1681565b6101776020528060005260406000206000915054906101000a900473ffffffffffffffffffffffffffffffffffffffff1681565b60006126a682610103617c1e90919063ffffffff16565b9050919050565b60606000806126bb84612e78565b9050610174805490506040519080825280602002602001820160405280156126f25781602001602082028038833980820191505090505b50925060008090505b835181101561286057610174818154811061271257fe5b9060005260206000200160009054906101000a900473ffffffffffffffffffffffffffffffffffffffff16925061283b670de0b6b3a764000061282d61281e61017960008873ffffffffffffffffffffffffffffffffffffffff1673ffffffffffffffffffffffffffffffffffffffff16815260200190815260200160002060008a73ffffffffffffffffffffffffffffffffffffffff1673ffffffffffffffffffffffffffffffffffffffff1681526020019081526020016000205461017a60008973ffffffffffffffffffffffffffffffffffffffff1673ffffffffffffffffffffffffffffffffffffffff16815260200190815260200160002054617cfc90919063ffffffff16565b856158d490919063ffffffff16565b61595a90919063ffffffff16565b84828151811061284757fe5b60200260200101818152505080806001019150506126fb565b505050919050565b61017d60009054906101000a900473ffffffffffffffffffffffffffffffffffffffff1681565b6101715481565b600061013660009054906101000a900460ff16905090565b6101786020528060005260406000206000915090505481565b6128cf613940565b612941576040517f08c379a00000000000000000000000000000000000000000000000000000000081526004018080602001828103825260208152602001807f4f776e61626c653a2063616c6c6572206973206e6f7420746865206f776e657281525060200191505060405180910390fd5b8383610174919061295392919061a059565b5060008090505b61017380549050811015612a2d5760006101816000610173848154811061297d57fe5b9060005260206000200160009054906101000a900473ffffffffffffffffffffffffffffffffffffffff1673ffffffffffffffffffffffffffffffffffffffff1673ffffffffffffffffffffffffffffffffffffffff16815260200190815260200160002060006101000a81548173ffffffffffffffffffffffffffffffffffffffff021916908373ffffffffffffffffffffffffffffffffffffffff160217905550808060010191505061295a565b5060008090505b82829050811015612ba7576000858583818110612a4d57fe5b9050602002013573ffffffffffffffffffffffffffffffffffffffff16905061017d60009054906101000a900473ffffffffffffffffffffffffffffffffffffffff1673ffffffffffffffffffffffffffffffffffffffff168173ffffffffffffffffffffffffffffffffffffffff161415612ac95750612b9a565b858583818110612ad557fe5b9050602002013573ffffffffffffffffffffffffffffffffffffffff166101816000868686818110612b0357fe5b9050602002013573ffffffffffffffffffffffffffffffffffffffff1673ffffffffffffffffffffffffffffffffffffffff1673ffffffffffffffffffffffffffffffffffffffff16815260200190815260200160002060006101000a81548173ffffffffffffffffffffffffffffffffffffffff021916908373ffffffffffffffffffffffffffffffffffffffff160217905550505b8080600101915050612a34565b5050505050565b6060610183805480602002602001604051908101604052809291908181526020018280548015612bfd57602002820191906000526020600020905b815481526020019060010190808311612be9575b5050505050905090565b612c0f613940565b612c81576040517f08c379a00000000000000000000000000000000000000000000000000000000081526004018080602001828103825260208152602001807f4f776e61626c653a2063616c6c6572206973206e6f7420746865206f776e657281525060200191505060405180910390fd5b612710811115612cf9576040517f08c379a000000000000000000000000000000000000000000000000000000000815260040180806020018281038252600d8152602001807f49444c453a544f4f5f484947480000000000000000000000000000000000000081525060200191505060405180910390fd5b806101728190555050565b612d0c613940565b612d7e576040517f08c379a00000000000000000000000000000000000000000000000000000000081526004018080602001828103825260208152602001807f4f776e61626c653a2063616c6c6572206973206e6f7420746865206f776e657281525060200191505060405180910390fd5b600073ffffffffffffffffffffffffffffffffffffffff168173ffffffffffffffffffffffffffffffffffffffff161415612e21576040517f08c379a00000000000000000000000000000000000000000000000000000000081526004018080602001828103825260098152602001807f49444c453a49535f30000000000000000000000000000000000000000000000081525060200191505060405180910390fd5b8061016d60006101000a81548173ffffffffffffffffffffffffffffffffffffffff021916908373ffffffffffffffffffffffffffffffffffffffff16021790555050565b612e76612e71614d1e565b617d46565b565b6000603360008373ffffffffffffffffffffffffffffffffffffffff1673ffffffffffffffffffffffffffffffffffffffff168152602001908152602001600020549050919050565b612ec9613940565b612f3b576040517f08c379a00000000000000000000000000000000000000000000000000000000081526004018080602001828103825260208152602001807f4f776e61626c653a2063616c6c6572206973206e6f7420746865206f776e657281525060200191505060405180910390fd5b600073ffffffffffffffffffffffffffffffffffffffff1660d060009054906101000a900473ffffffffffffffffffffffffffffffffffffffff1673ffffffffffffffffffffffffffffffffffffffff167f8be0079c531659141344cd1fd0a4f28419497f9722a3daafe3b4186f6b6457e060405160405180910390a3600060d060006101000a81548173ffffffffffffffffffffffffffffffffffffffff021916908373ffffffffffffffffffffffffffffffffffffffff160217905550565b610174818154811061300a57fe5b906000526020600020016000915054906101000a900473ffffffffffffffffffffffffffffffffffffffff1681565b6000613043616e5e565b905090565b61018060009054906101000a900473ffffffffffffffffffffffffffffffffffffffff1681565b6000613079616a02565b905090565b600060019054906101000a900460ff168061309d575061309c614f1d565b5b806130b457506000809054906101000a900460ff16155b613109576040517f08c379a000000000000000000000000000000000000000000000000000000000815260040180806020018281038252602e81526020018061a38c602e913960400191505060405180910390fd5b60008060019054906101000a900460ff161590508015613159576001600060016101000a81548160ff02191690831515021790555060016000806101000a81548160ff0219169083151502179055505b6eb3f879cb30fe243b4dfee438691c0461016960006101000a81548173ffffffffffffffffffffffffffffffffffffffff021916908373ffffffffffffffffffffffffffffffffffffffff16021790555080156131cb5760008060016101000a81548160ff0219169083151502179055505b50565b6131de6131d9614d1e565b61268f565b613233576040517f08c379a000000000000000000000000000000000000000000000000000000000815260040180806020018281038252603081526020018061a2626030913960400191505060405180910390fd5b61323c81617da1565b50565b61324f61324a614d1e565b61268f565b6132a4576040517f08c379a000000000000000000000000000000000000000000000000000000000815260040180806020018281038252603081526020018061a2626030913960400191505060405180910390fd5b61013660009054906101000a900460ff1615613328576040517f08c379a00000000000000000000000000000000000000000000000000000000081526004018080602001828103825260108152602001807f5061757361626c653a207061757365640000000000000000000000000000000081525060200191505060405180910390fd5b600161013660006101000a81548160ff0219169083151502179055507f62e78cea01bee320cd4e420270b5ea74000d11b0c9f74754ebdbfc544b05a25861336d614d1e565b604051808273ffffffffffffffffffffffffffffffffffffffff1673ffffffffffffffffffffffffffffffffffffffff16815260200191505060405180910390a1565b6133b8613940565b61342a576040517f08c379a00000000000000000000000000000000000000000000000000000000081526004018080602001828103825260208152602001807f4f776e61626c653a2063616c6c6572206973206e6f7420746865206f776e657281525060200191505060405180910390fd5b600073ffffffffffffffffffffffffffffffffffffffff168173ffffffffffffffffffffffffffffffffffffffff1614156134cd576040517f08c379a00000000000000000000000000000000000000000000000000000000081526004018080602001828103825260098152602001807f49444c453a49535f30000000000000000000000000000000000000000000000081525060200191505060405180910390fd5b8061016e60006101000a81548173ffffffffffffffffffffffffffffffffffffffff021916908373ffffffffffffffffffffffffffffffffffffffff16021790555050565b610179602052816000526040600020602052806000526040600020600091509150505481565b60006001609d600082825401925050819055506000609d54905061355a614f34565b61356533600061500c565b600061356f616a02565b905060006135a0670de0b6b3a764000061359284886158d490919063ffffffff16565b61595a90919063ffffffff16565b9050600061016a60009054906101000a900473ffffffffffffffffffffffffffffffffffffffff1673ffffffffffffffffffffffffffffffffffffffff166370a08231306040518263ffffffff1660e01b8152600401808273ffffffffffffffffffffffffffffffffffffffff1673ffffffffffffffffffffffffffffffffffffffff16815260200191505060206040518083038186803b15801561364457600080fd5b505afa158015613658573d6000803e3d6000fd5b505050506040513d602081101561366e57600080fd5b81019080805190602001909291905050509050600061368b611bf5565b905081831161369c57829550613830565b600080600090505b610173805490508110156137f45761017381815481106136c057fe5b9060005260206000200160009054906101000a900473ffffffffffffffffffffffffffffffffffffffff1691506137e56137d6836137d0866137c28773ffffffffffffffffffffffffffffffffffffffff166370a08231306040518263ffffffff1660e01b8152600401808273ffffffffffffffffffffffffffffffffffffffff1673ffffffffffffffffffffffffffffffffffffffff16815260200191505060206040518083038186803b15801561377857600080fd5b505afa15801561378c573d6000803e3d6000fd5b505050506040513d60208110156137a257600080fd5b81019080805190602001909291905050508f6158d490919063ffffffff16565b61595a90919063ffffffff16565b30617dfc565b89617b9690919063ffffffff16565b975080806001019150506136a4565b5061382c61381d8361380f868c6158d490919063ffffffff16565b61595a90919063ffffffff16565b88617b9690919063ffffffff16565b9650505b61383b878786617fbd565b95506138473388615a75565b613895338761016a60009054906101000a900473ffffffffffffffffffffffffffffffffffffffff1673ffffffffffffffffffffffffffffffffffffffff166159a49092919063ffffffff16565b50505050609d548114613910576040517f08c379a000000000000000000000000000000000000000000000000000000000815260040180806020018281038252601f8152602001807f5265656e7472616e637947756172643a207265656e7472616e742063616c6c0081525060200191505060405180910390fd5b50919050565b600060d060009054906101000a900473ffffffffffffffffffffffffffffffffffffffff16905090565b600060d060009054906101000a900473ffffffffffffffffffffffffffffffffffffffff1673ffffffffffffffffffffffffffffffffffffffff16613983614d1e565b73ffffffffffffffffffffffffffffffffffffffff1614905090565b606060698054600181600116156101000203166002900480601f016020809104026020016040519081016040528092919081815260200182805460018160011615610100020316600290048015613a375780601f10613a0c57610100808354040283529160200191613a37565b820191906000526020600020905b815481529060010190602001808311613a1a57829003601f168201915b5050505050905090565b61017f60009054906101000a900473ffffffffffffffffffffffffffffffffffffffff1681565b6000613b2b613a75614d1e565b84613b268560405180606001604052806025815260200161a44e6025913960346000613a9f614d1e565b73ffffffffffffffffffffffffffffffffffffffff1673ffffffffffffffffffffffffffffffffffffffff16815260200190815260200160002060008a73ffffffffffffffffffffffffffffffffffffffff1673ffffffffffffffffffffffffffffffffffffffff168152602001908152602001600020546165b49092919063ffffffff16565b614d26565b6001905092915050565b6000613b42338484615ee9565b613b4d3384846162fa565b613b9933848461017660003373ffffffffffffffffffffffffffffffffffffffff1673ffffffffffffffffffffffffffffffffffffffff16815260200190815260200160002054616674565b6001905092915050565b61017a6020528060005260406000206000915090505481565b6101758181548110613bca57fe5b906000526020600020016000915090505481565b606080600061017380549050604051908082528060200260200182016040528015613c185781602001602082028038833980820191505090505b50925061017380549050604051908082528060200260200182016040528015613c505781602001602082028038833980820191505090505b50915060008090505b61017380549050811015613def576101738181548110613c7557fe5b9060005260206000200160009054906101000a900473ffffffffffffffffffffffffffffffffffffffff16915081848281518110613caf57fe5b602002602001019073ffffffffffffffffffffffffffffffffffffffff16908173ffffffffffffffffffffffffffffffffffffffff168152505061017760008373ffffffffffffffffffffffffffffffffffffffff1673ffffffffffffffffffffffffffffffffffffffff16815260200190815260200160002060009054906101000a900473ffffffffffffffffffffffffffffffffffffffff1673ffffffffffffffffffffffffffffffffffffffff1663c89d5b8b6040518163ffffffff1660e01b815260040160206040518083038186803b158015613d8f57600080fd5b505afa158015613da3573d6000803e3d6000fd5b505050506040513d6020811015613db957600080fd5b8101908080519060200190929190505050838281518110613dd657fe5b6020026020010181815250508080600101915050613c59565b50509091565b61017e60009054906101000a900473ffffffffffffffffffffffffffffffffffffffff1681565b61016d60009054906101000a900473ffffffffffffffffffffffffffffffffffffffff1673ffffffffffffffffffffffffffffffffffffffff163373ffffffffffffffffffffffffffffffffffffffff161480613eab5750613e7c613916565b73ffffffffffffffffffffffffffffffffffffffff163373ffffffffffffffffffffffffffffffffffffffff16145b613f1d576040517f08c379a000000000000000000000000000000000000000000000000000000000815260040180806020018281038252600a8152602001807f49444c453a21415554480000000000000000000000000000000000000000000081525060200191505060405180910390fd5b613f67828280806020026020016040519081016040528093929190818152602001838360200280828437600081840152601f19601f82011690508083019250505050505050618278565b5050565b600060019054906101000a900460ff1680613f8a5750613f89614f1d565b5b80613fa157506000809054906101000a900460ff16155b613ff6576040517f08c379a000000000000000000000000000000000000000000000000000000000815260040180806020018281038252602e81526020018061a38c602e913960400191505060405180910390fd5b60008060019054906101000a900460ff161590508015614046576001600060016101000a81548160ff02191690831515021790555060016000806101000a81548160ff0219169083151502179055505b61404f826183cf565b600061013660006101000a81548160ff021916908315150217905550801561408c5760008060016101000a81548160ff0219169083151502179055505b5050565b61018260009054906101000a900460ff1681565b6140ac613940565b61411e576040517f08c379a00000000000000000000000000000000000000000000000000000000081526004018080602001828103825260208152602001807f4f776e61626c653a2063616c6c6572206973206e6f7420746865206f776e657281525060200191505060405180910390fd5b8061018260006101000a81548160ff02191690831515021790555050565b614144613940565b6141b6576040517f08c379a00000000000000000000000000000000000000000000000000000000081526004018080602001828103825260208152602001807f4f776e61626c653a2063616c6c6572206973206e6f7420746865206f776e657281525060200191505060405180910390fd5b84849050878790501480156141d85750848490508383905014806141d75750805b5b61424a576040517f08c379a000000000000000000000000000000000000000000000000000000000815260040180806020018281038252600d8152602001807f49444c453a4c454e5f444946460000000000000000000000000000000000000081525060200191505060405180910390fd5b60008090505b8787905081101561446357600073ffffffffffffffffffffffffffffffffffffffff1688888381811061427f57fe5b9050602002013573ffffffffffffffffffffffffffffffffffffffff1673ffffffffffffffffffffffffffffffffffffffff16141580156143155750600073ffffffffffffffffffffffffffffffffffffffff168686838181106142df57fe5b9050602002013573ffffffffffffffffffffffffffffffffffffffff1673ffffffffffffffffffffffffffffffffffffffff1614155b614387576040517f08c379a00000000000000000000000000000000000000000000000000000000081526004018080602001828103825260098152602001807f49444c453a49535f30000000000000000000000000000000000000000000000081525060200191505060405180910390fd5b85858281811061439357fe5b9050602002013573ffffffffffffffffffffffffffffffffffffffff1661017760008a8a858181106143c157fe5b9050602002013573ffffffffffffffffffffffffffffffffffffffff1673ffffffffffffffffffffffffffffffffffffffff1673ffffffffffffffffffffffffffffffffffffffff16815260200190815260200160002060006101000a81548173ffffffffffffffffffffffffffffffffffffffff021916908373ffffffffffffffffffffffffffffffffffffffff1602179055508080600101915050614250565b508686610173919061447692919061a059565b508015614500576101738054905087879050146144fb576040517f08c379a000000000000000000000000000000000000000000000000000000000815260040180806020018281038252600e8152602001807f49444c453a4c454e5f444946463200000000000000000000000000000000000081525060200191505060405180910390fd5b61454b565b61454a838380806020026020016040519081016040528093929190818152602001838360200280828437600081840152601f19601f82011690508083019250505050505050618278565b5b50505050505050565b60008061013660009054906101000a900460ff16156145db576040517f08c379a00000000000000000000000000000000000000000000000000000000081526004018080602001828103825260108152602001807f5061757361626c653a207061757365640000000000000000000000000000000081525060200191505060405180910390fd5b61018260009054906101000a900460ff161561465f576040517f08c379a00000000000000000000000000000000000000000000000000000000081526004018080602001828103825260108152602001807f49444c453a4e4f545f414c4c4f5745440000000000000000000000000000000081525060200191505060405180910390fd5b6000614669615c2f565b90506146b5858580806020026020016040519081016040528093929190818152602001838360200280828437600081840152601f19601f82011690508083019250505050505050618278565b60006146bf616e5e565b905060006146cb615c2f565b9050828111614742576040517f08c379a000000000000000000000000000000000000000000000000000000000815260040180806020018281038252600f8152602001807f49444c453a4e4f545f494d50524f56000000000000000000000000000000000081525060200191505060405180910390fd5b8181945094505050509250929050565b60003360005a9050614762616e5e565b92506147705a8203836184e6565b505090565b6000603460008473ffffffffffffffffffffffffffffffffffffffff1673ffffffffffffffffffffffffffffffffffffffff16815260200190815260200160002060008373ffffffffffffffffffffffffffffffffffffffff1673ffffffffffffffffffffffffffffffffffffffff16815260200190815260200160002054905092915050565b6101725481565b61480b613940565b61487d576040517f08c379a00000000000000000000000000000000000000000000000000000000081526004018080602001828103825260208152602001807f4f776e61626c653a2063616c6c6572206973206e6f7420746865206f776e657281525060200191505060405180910390fd5b73972a64d108e250df98dbeac8170678501f5ef18161018060006101000a81548173ffffffffffffffffffffffffffffffffffffffff021916908373ffffffffffffffffffffffffffffffffffffffff1602179055508061018260006101000a81548160ff0219169083151502179055508686610173919061490092919061a059565b508888610174919061491392919061a059565b50600080600090505b88889050811015614b3e5786868281811061493357fe5b9050602002013573ffffffffffffffffffffffffffffffffffffffff1661017760008b8b8581811061496157fe5b9050602002013573ffffffffffffffffffffffffffffffffffffffff1673ffffffffffffffffffffffffffffffffffffffff1673ffffffffffffffffffffffffffffffffffffffff16815260200190815260200160002060006101000a81548173ffffffffffffffffffffffffffffffffffffffff021916908373ffffffffffffffffffffffffffffffffffffffff1602179055508a8a9050811015614b30578a8a82818110614a0d57fe5b9050602002013573ffffffffffffffffffffffffffffffffffffffff16915061017d60009054906101000a900473ffffffffffffffffffffffffffffffffffffffff1673ffffffffffffffffffffffffffffffffffffffff168273ffffffffffffffffffffffffffffffffffffffff161415614a8857614b31565b8161018160008b8b85818110614a9a57fe5b9050602002013573ffffffffffffffffffffffffffffffffffffffff1673ffffffffffffffffffffffffffffffffffffffff1673ffffffffffffffffffffffffffffffffffffffff16815260200190815260200160002060006101000a81548173ffffffffffffffffffffffffffffffffffffffff021916908373ffffffffffffffffffffffffffffffffffffffff1602179055505b5b808060010191505061491c565b507369a62c24f16d4914a48919613e8ee330641bcb9461016e60006101000a81548173ffffffffffffffffffffffffffffffffffffffff021916908373ffffffffffffffffffffffffffffffffffffffff160217905550600061016b60006101000a81548173ffffffffffffffffffffffffffffffffffffffff021916908373ffffffffffffffffffffffffffffffffffffffff16021790555073b3c8e5534f0063545cbbb7ce86854bf42db8872b61016d60006101000a81548173ffffffffffffffffffffffffffffffffffffffff021916908373ffffffffffffffffffffffffffffffffffffffff16021790555083836101839190614c4092919061a0f9565b50614c5e73ada343cb6820f4f5001749892f6caa9920129f2a6131ce565b50505050505050505050565b61016f5481565b614c79613940565b614ceb576040517f08c379a00000000000000000000000000000000000000000000000000000000081526004018080602001828103825260208152602001807f4f776e61626c653a2063616c6c6572206973206e6f7420746865206f776e657281525060200191505060405180910390fd5b614cf48161861f565b50565b61016a60009054906101000a900473ffffffffffffffffffffffffffffffffffffffff1681565b600033905090565b600073ffffffffffffffffffffffffffffffffffffffff168373ffffffffffffffffffffffffffffffffffffffff161415614dac576040517f08c379a000000000000000000000000000000000000000000000000000000000815260040180806020018281038252602481526020018061a4006024913960400191505060405180910390fd5b600073ffffffffffffffffffffffffffffffffffffffff168273ffffffffffffffffffffffffffffffffffffffff161415614e32576040517f08c379a000000000000000000000000000000000000000000000000000000000815260040180806020018281038252602281526020018061a2b86022913960400191505060405180910390fd5b80603460008573ffffffffffffffffffffffffffffffffffffffff1673ffffffffffffffffffffffffffffffffffffffff16815260200190815260200160002060008473ffffffffffffffffffffffffffffffffffffffff1673ffffffffffffffffffffffffffffffffffffffff168152602001908152602001600020819055508173ffffffffffffffffffffffffffffffffffffffff168373ffffffffffffffffffffffffffffffffffffffff167f8c5be1e5ebec7d5bd14f71427d1e84f3dd0314c0f7b2291e5b200ac8c7c3b925836040518082815260200191505060405180910390a3505050565b6000803090506000813b9050600081149250505090565b61017c543243604051602001808373ffffffffffffffffffffffffffffffffffffffff1673ffffffffffffffffffffffffffffffffffffffff1660601b81526014018281526020019250505060405160208183030381529060405280519060200120141561500a576040517f08c379a000000000000000000000000000000000000000000000000000000000815260040180806020018281038252600b8152602001807f49444c453a5245454e545200000000000000000000000000000000000000000081525060200191505060405180910390fd5b565b6000610174805490501415615020576158d0565b600061502a611bf5565b9050600061503784612e78565b9050600080600090505b610174805490508110156158cb57610174818154811061505d57fe5b9060005260206000200160009054906101000a900473ffffffffffffffffffffffffffffffffffffffff16915060008411156152c457846150a2576150a182618765565b5b60008273ffffffffffffffffffffffffffffffffffffffff166370a08231306040518263ffffffff1660e01b8152600401808273ffffffffffffffffffffffffffffffffffffffff1673ffffffffffffffffffffffffffffffffffffffff16815260200191505060206040518083038186803b15801561512157600080fd5b505afa158015615135573d6000803e3d6000fd5b505050506040513d602081101561514b57600080fd5b8101908080519060200190929190505050905060008111156152c2576152386151e9866151db670de0b6b3a76400006151cd61017860008a73ffffffffffffffffffffffffffffffffffffffff1673ffffffffffffffffffffffffffffffffffffffff1681526020019081526020016000205487617cfc90919063ffffffff16565b6158d490919063ffffffff16565b61595a90919063ffffffff16565b61017a60008673ffffffffffffffffffffffffffffffffffffffff1673ffffffffffffffffffffffffffffffffffffffff16815260200190815260200160002054617b9690919063ffffffff16565b61017a60008573ffffffffffffffffffffffffffffffffffffffff1673ffffffffffffffffffffffffffffffffffffffff168152602001908152602001600020819055508061017860008573ffffffffffffffffffffffffffffffffffffffff1673ffffffffffffffffffffffffffffffffffffffff168152602001908152602001600020819055505b505b60008311156157fa57846157f557600061017960008473ffffffffffffffffffffffffffffffffffffffff1673ffffffffffffffffffffffffffffffffffffffff16815260200190815260200160002060008873ffffffffffffffffffffffffffffffffffffffff1673ffffffffffffffffffffffffffffffffffffffff16815260200190815260200160002054905061017a60008473ffffffffffffffffffffffffffffffffffffffff1673ffffffffffffffffffffffffffffffffffffffff1681526020019081526020016000205461017960008573ffffffffffffffffffffffffffffffffffffffff1673ffffffffffffffffffffffffffffffffffffffff16815260200190815260200160002060008973ffffffffffffffffffffffffffffffffffffffff1673ffffffffffffffffffffffffffffffffffffffff16815260200190815260200160002081905550600061546b8261017a60008773ffffffffffffffffffffffffffffffffffffffff1673ffffffffffffffffffffffffffffffffffffffff16815260200190815260200160002054617cfc90919063ffffffff16565b9050600081141561547d5750506158be565b60006154ac670de0b6b3a764000061549e84896158d490919063ffffffff16565b61595a90919063ffffffff16565b905060008573ffffffffffffffffffffffffffffffffffffffff166370a08231306040518263ffffffff1660e01b8152600401808273ffffffffffffffffffffffffffffffffffffffff1673ffffffffffffffffffffffffffffffffffffffff16815260200191505060206040518083038186803b15801561552d57600080fd5b505afa158015615541573d6000803e3d6000fd5b505050506040513d602081101561555757600080fd5b8101908080519060200190929190505050905080821115615576578091505b60008073ffffffffffffffffffffffffffffffffffffffff1661016e60009054906101000a900473ffffffffffffffffffffffffffffffffffffffff1673ffffffffffffffffffffffffffffffffffffffff16141580156155da5750600061017254115b8015615635575061017d60009054906101000a900473ffffffffffffffffffffffffffffffffffffffff1673ffffffffffffffffffffffffffffffffffffffff168773ffffffffffffffffffffffffffffffffffffffff1614155b156156b657615665620186a061565761017254866158d490919063ffffffff16565b61595a90919063ffffffff16565b90506156b561016e60009054906101000a900473ffffffffffffffffffffffffffffffffffffffff16828973ffffffffffffffffffffffffffffffffffffffff166159a49092919063ffffffff16565b5b6156f38b6156cd8386617cfc90919063ffffffff16565b8973ffffffffffffffffffffffffffffffffffffffff166159a49092919063ffffffff16565b8673ffffffffffffffffffffffffffffffffffffffff166370a08231306040518263ffffffff1660e01b8152600401808273ffffffffffffffffffffffffffffffffffffffff1673ffffffffffffffffffffffffffffffffffffffff16815260200191505060206040518083038186803b15801561577057600080fd5b505afa158015615784573d6000803e3d6000fd5b505050506040513d602081101561579a57600080fd5b810190808051906020019092919050505061017860008973ffffffffffffffffffffffffffffffffffffffff1673ffffffffffffffffffffffffffffffffffffffff1681526020019081526020016000208190555050505050505b6158bd565b61017a60008373ffffffffffffffffffffffffffffffffffffffff1673ffffffffffffffffffffffffffffffffffffffff1681526020019081526020016000205461017960008473ffffffffffffffffffffffffffffffffffffffff1673ffffffffffffffffffffffffffffffffffffffff16815260200190815260200160002060008873ffffffffffffffffffffffffffffffffffffffff1673ffffffffffffffffffffffffffffffffffffffff168152602001908152602001600020819055505b5b8080600101915050615041565b505050505b5050565b6000808314156158e75760009050615954565b60008284029050828482816158f857fe5b041461594f576040517f08c379a000000000000000000000000000000000000000000000000000000000815260040180806020018281038252602181526020018061a3216021913960400191505060405180910390fd5b809150505b92915050565b600061599c83836040518060400160405280601a81526020017f536166654d6174683a206469766973696f6e206279207a65726f000000000000815250618d01565b905092915050565b615a70838473ffffffffffffffffffffffffffffffffffffffff1663a9059cbb905060e01b8484604051602401808373ffffffffffffffffffffffffffffffffffffffff1673ffffffffffffffffffffffffffffffffffffffff16815260200182815260200192505050604051602081830303815290604052907bffffffffffffffffffffffffffffffffffffffffffffffffffffffff19166020820180517bffffffffffffffffffffffffffffffffffffffffffffffffffffffff8381831617835250505050618dc7565b505050565b600073ffffffffffffffffffffffffffffffffffffffff168273ffffffffffffffffffffffffffffffffffffffff161415615afb576040517f08c379a000000000000000000000000000000000000000000000000000000000815260040180806020018281038252602181526020018061a3ba6021913960400191505060405180910390fd5b615b678160405180606001604052806022815260200161a24060229139603360008673ffffffffffffffffffffffffffffffffffffffff1673ffffffffffffffffffffffffffffffffffffffff168152602001908152602001600020546165b49092919063ffffffff16565b603360008473ffffffffffffffffffffffffffffffffffffffff1673ffffffffffffffffffffffffffffffffffffffff16815260200190815260200160002081905550615bbf81603554617cfc90919063ffffffff16565b603581905550600073ffffffffffffffffffffffffffffffffffffffff168273ffffffffffffffffffffffffffffffffffffffff167fddf252ad1be2c89b69c2b068fc378daa952ba7f163c4a11628f55a4df523b3ef836040518082815260200191505060405180910390a35050565b600060606000615c3d619012565b925092505060008090505b61017380549050811015615ece576000838281518110615c6457fe5b60200260200101511415615c7757615ec1565b60006101738281548110615c8757fe5b9060005260206000200160009054906101000a900473ffffffffffffffffffffffffffffffffffffffff169050615dcc615dbd858481518110615cc657fe5b602002602001015161017760008573ffffffffffffffffffffffffffffffffffffffff1673ffffffffffffffffffffffffffffffffffffffff16815260200190815260200160002060009054906101000a900473ffffffffffffffffffffffffffffffffffffffff1673ffffffffffffffffffffffffffffffffffffffff1663c89d5b8b6040518163ffffffff1660e01b815260040160206040518083038186803b158015615d7457600080fd5b505afa158015615d88573d6000803e3d6000fd5b505050506040513d6020811015615d9e57600080fd5b81019080805190602001909291905050506158d490919063ffffffff16565b86617b9690919063ffffffff16565b9450600061018160008373ffffffffffffffffffffffffffffffffffffffff1673ffffffffffffffffffffffffffffffffffffffff16815260200190815260200160002060009054906101000a900473ffffffffffffffffffffffffffffffffffffffff169050600061017480549050118015615e765750600073ffffffffffffffffffffffffffffffffffffffff168173ffffffffffffffffffffffffffffffffffffffff1614155b15615ebe57615ebb615eac615e8a83619345565b878681518110615e9657fe5b60200260200101516158d490919063ffffffff16565b87617b9690919063ffffffff16565b95505b50505b8080600101915050615c48565b50615ee2818461595a90919063ffffffff16565b9250505090565b6000806000806000615efa87612e78565b905060008090505b610174805490508110156162ef576101748181548110615f1e57fe5b9060005260206000200160009054906101000a900473ffffffffffffffffffffffffffffffffffffffff16955060008214156160585761017960008773ffffffffffffffffffffffffffffffffffffffff1673ffffffffffffffffffffffffffffffffffffffff16815260200190815260200160002060008a73ffffffffffffffffffffffffffffffffffffffff1673ffffffffffffffffffffffffffffffffffffffff1681526020019081526020016000205461017960008873ffffffffffffffffffffffffffffffffffffffff1673ffffffffffffffffffffffffffffffffffffffff16815260200190815260200160002060008a73ffffffffffffffffffffffffffffffffffffffff1673ffffffffffffffffffffffffffffffffffffffff168152602001908152602001600020819055506162e2565b61017a60008773ffffffffffffffffffffffffffffffffffffffff1673ffffffffffffffffffffffffffffffffffffffff16815260200190815260200160002054945061612b61017960008873ffffffffffffffffffffffffffffffffffffffff1673ffffffffffffffffffffffffffffffffffffffff16815260200190815260200160002060008b73ffffffffffffffffffffffffffffffffffffffff1673ffffffffffffffffffffffffffffffffffffffff1681526020019081526020016000205486617cfc90919063ffffffff16565b93506161e9670de0b6b3a76400006161db6161cc61017960008b73ffffffffffffffffffffffffffffffffffffffff1673ffffffffffffffffffffffffffffffffffffffff16815260200190815260200160002060008d73ffffffffffffffffffffffffffffffffffffffff1673ffffffffffffffffffffffffffffffffffffffff1681526020019081526020016000205489617cfc90919063ffffffff16565b856158d490919063ffffffff16565b61595a90919063ffffffff16565b92506162606162516162048985617b9690919063ffffffff16565b61624361621a8b896158d490919063ffffffff16565b616235670de0b6b3a7640000896158d490919063ffffffff16565b617b9690919063ffffffff16565b61595a90919063ffffffff16565b86617cfc90919063ffffffff16565b61017960008873ffffffffffffffffffffffffffffffffffffffff1673ffffffffffffffffffffffffffffffffffffffff16815260200190815260200160002060008a73ffffffffffffffffffffffffffffffffffffffff1673ffffffffffffffffffffffffffffffffffffffff168152602001908152602001600020819055505b8080600101915050615f02565b505050505050505050565b600073ffffffffffffffffffffffffffffffffffffffff168373ffffffffffffffffffffffffffffffffffffffff161415616380576040517f08c379a000000000000000000000000000000000000000000000000000000000815260040180806020018281038252602581526020018061a3db6025913960400191505060405180910390fd5b600073ffffffffffffffffffffffffffffffffffffffff168273ffffffffffffffffffffffffffffffffffffffff161415616406576040517f08c379a000000000000000000000000000000000000000000000000000000000815260040180806020018281038252602381526020018061a21d6023913960400191505060405180910390fd5b6164728160405180606001604052806026815260200161a2da60269139603360008773ffffffffffffffffffffffffffffffffffffffff1673ffffffffffffffffffffffffffffffffffffffff168152602001908152602001600020546165b49092919063ffffffff16565b603360008573ffffffffffffffffffffffffffffffffffffffff1673ffffffffffffffffffffffffffffffffffffffff1681526020019081526020016000208190555061650781603360008573ffffffffffffffffffffffffffffffffffffffff1673ffffffffffffffffffffffffffffffffffffffff16815260200190815260200160002054617b9690919063ffffffff16565b603360008473ffffffffffffffffffffffffffffffffffffffff1673ffffffffffffffffffffffffffffffffffffffff168152602001908152602001600020819055508173ffffffffffffffffffffffffffffffffffffffff168373ffffffffffffffffffffffffffffffffffffffff167fddf252ad1be2c89b69c2b068fc378daa952ba7f163c4a11628f55a4df523b3ef836040518082815260200191505060405180910390a3505050565b6000838311158290616661576040517f08c379a00000000000000000000000000000000000000000000000000000000081526004018080602001828103825283818151815260200191508051906020019080838360005b8381101561662657808201518184015260208101905061660b565b50505050905090810190601f1680156166535780820380516001836020036101000a031916815260200191505b509250505060405180910390fd5b5060008385039050809150509392505050565b600061017b60008673ffffffffffffffffffffffffffffffffffffffff1673ffffffffffffffffffffffffffffffffffffffff1681526020019081526020016000205490508281106167b4576166d38382617cfc90919063ffffffff16565b61017b60008773ffffffffffffffffffffffffffffffffffffffff1673ffffffffffffffffffffffffffffffffffffffff1681526020019081526020016000208190555061676a8361017b60008773ffffffffffffffffffffffffffffffffffffffff1673ffffffffffffffffffffffffffffffffffffffff16815260200190815260200160002054617b9690919063ffffffff16565b61017b60008673ffffffffffffffffffffffffffffffffffffffff1673ffffffffffffffffffffffffffffffffffffffff16815260200190815260200160002081905550506169fc565b600061682361017b60008773ffffffffffffffffffffffffffffffffffffffff1673ffffffffffffffffffffffffffffffffffffffff168152602001908152602001600020546168158661680789612e78565b617cfc90919063ffffffff16565b617cfc90919063ffffffff16565b9050600061683a8386617cfc90919063ffffffff16565b90506168d76168528284617b9690919063ffffffff16565b6168c961686884886158d490919063ffffffff16565b6168bb8661017660008d73ffffffffffffffffffffffffffffffffffffffff1673ffffffffffffffffffffffffffffffffffffffff168152602001908152602001600020546158d490919063ffffffff16565b617b9690919063ffffffff16565b61595a90919063ffffffff16565b61017660008873ffffffffffffffffffffffffffffffffffffffff1673ffffffffffffffffffffffffffffffffffffffff16815260200190815260200160002081905550600061017b60008973ffffffffffffffffffffffffffffffffffffffff1673ffffffffffffffffffffffffffffffffffffffff168152602001908152602001600020819055506169b48361017b60008973ffffffffffffffffffffffffffffffffffffffff1673ffffffffffffffffffffffffffffffffffffffff16815260200190815260200160002054617b9690919063ffffffff16565b61017b60008873ffffffffffffffffffffffffffffffffffffffff1673ffffffffffffffffffffffffffffffffffffffff168152602001908152602001600020819055505050505b50505050565b600080616a0d611bf5565b90506000811415616a275761017054600a0a915050616d55565b600080616b1f670de0b6b3a764000061016a60009054906101000a900473ffffffffffffffffffffffffffffffffffffffff1673ffffffffffffffffffffffffffffffffffffffff166370a08231306040518263ffffffff1660e01b8152600401808273ffffffffffffffffffffffffffffffffffffffff1673ffffffffffffffffffffffffffffffffffffffff16815260200191505060206040518083038186803b158015616ad657600080fd5b505afa158015616aea573d6000803e3d6000fd5b505050506040513d6020811015616b0057600080fd5b81019080805190602001909291905050506158d490919063ffffffff16565b905060008090505b61017380549050811015616d3b576101738181548110616b4357fe5b9060005260206000200160009054906101000a900473ffffffffffffffffffffffffffffffffffffffff169250616d2c616d1d8473ffffffffffffffffffffffffffffffffffffffff166370a08231306040518263ffffffff1660e01b8152600401808273ffffffffffffffffffffffffffffffffffffffff1673ffffffffffffffffffffffffffffffffffffffff16815260200191505060206040518083038186803b158015616bf357600080fd5b505afa158015616c07573d6000803e3d6000fd5b505050506040513d6020811015616c1d57600080fd5b810190808051906020019092919050505061017760008773ffffffffffffffffffffffffffffffffffffffff1673ffffffffffffffffffffffffffffffffffffffff16815260200190815260200160002060009054906101000a900473ffffffffffffffffffffffffffffffffffffffff1673ffffffffffffffffffffffffffffffffffffffff166302bbce466040518163ffffffff1660e01b815260040160206040518083038186803b158015616cd457600080fd5b505afa158015616ce8573d6000803e3d6000fd5b505050506040513d6020811015616cfe57600080fd5b81019080805190602001909291905050506158d490919063ffffffff16565b83617b9690919063ffffffff16565b91508080600101915050616b27565b50616d4f838261595a90919063ffffffff16565b93505050505b90565b616e58848573ffffffffffffffffffffffffffffffffffffffff166323b872dd905060e01b858585604051602401808473ffffffffffffffffffffffffffffffffffffffff1673ffffffffffffffffffffffffffffffffffffffff1681526020018373ffffffffffffffffffffffffffffffffffffffff1673ffffffffffffffffffffffffffffffffffffffff1681526020018281526020019350505050604051602081830303815290604052907bffffffffffffffffffffffffffffffffffffffffffffffffffffffff19166020820180517bffffffffffffffffffffffffffffffffffffffffffffffffffffffff8381831617835250505050618dc7565b50505050565b600061013660009054906101000a900460ff1615616ee4576040517f08c379a00000000000000000000000000000000000000000000000000000000081526004018080602001828103825260108152602001807f5061757361626c653a207061757365640000000000000000000000000000000081525060200191505060405180910390fd5b6060610183805480602002602001604051908101604052809291908181526020018280548015616f3357602002820191906000526020600020905b815481526020019060010190808311616f1f575b5050505050905060006101758054905082511490508015616fb55760008090505b61017580549050811080616f66575081155b15616fb357828181518110616f7757fe5b60200260200101516101758281548110616f8d57fe5b906000526020600020015414616fa65760009150616fb3565b8080600101915050616f54565b505b600061016a60009054906101000a900473ffffffffffffffffffffffffffffffffffffffff1673ffffffffffffffffffffffffffffffffffffffff166370a08231306040518263ffffffff1660e01b8152600401808273ffffffffffffffffffffffffffffffffffffffff1673ffffffffffffffffffffffffffffffffffffffff16815260200191505060206040518083038186803b15801561705757600080fd5b505afa15801561706b573d6000803e3d6000fd5b505050506040513d602081101561708157600080fd5b8101908080519060200190929190505050905060008280156170a35750600082145b156170b55760009450505050506175d4565b60008211156171d0576170f0620186a06170e2610171546170d461955c565b6158d490919063ffffffff16565b61595a90919063ffffffff16565b9050600061017580549050141561711a5783610175908051906020019061711892919061a146565b505b808211156171cf576171ce6101738054806020026020016040519081016040528092919081815260200182805480156171a857602002820191906000526020600020905b8160009054906101000a900473ffffffffffffffffffffffffffffffffffffffff1673ffffffffffffffffffffffffffffffffffffffff168152602001906001019080831161715e575b50505050506171c9866171c48587617cfc90919063ffffffff16565b619887565b61998f565b5b5b82156171e35760009450505050506175d4565b60608060006171f0619012565b9250925092506000851480156172095750600061017154115b1561725557617252617243620186a06172356101715461722761955c565b6158d490919063ffffffff16565b61595a90919063ffffffff16565b82617cfc90919063ffffffff16565b90505b60606172618883619887565b90506060600080617273878786619b22565b925092509250806172a657610175600061728d919061a193565b8a61017590805190602001906172a492919061a146565b505b6000881480156172b95750600061017154115b156172f3576172f0620186a06172e2610171546172d461955c565b6158d490919063ffffffff16565b61595a90919063ffffffff16565b97505b600061016a60009054906101000a900473ffffffffffffffffffffffffffffffffffffffff1673ffffffffffffffffffffffffffffffffffffffff166370a08231306040518263ffffffff1660e01b8152600401808273ffffffffffffffffffffffffffffffffffffffff1673ffffffffffffffffffffffffffffffffffffffff16815260200191505060206040518083038186803b15801561739557600080fd5b505afa1580156173a9573d6000803e3d6000fd5b505050506040513d60208110156173bf57600080fd5b810190808051906020019092919050505090508881116173ee5760009c505050505050505050505050506175d4565b606084516040519080825280602002602001820160405280156174205781602001602082028038833980820191505090505b50905060008090505b85518110156174925761746d8561745f620186a089858151811061744957fe5b60200260200101516158d490919063ffffffff16565b61595a90919063ffffffff16565b82828151811061747957fe5b6020026020010181815250508080600101915050617429565b5060606174b1826174ac8d86617cfc90919063ffffffff16565b619887565b905061754461017380548060200260200160405190810160405280929190818152602001828054801561753957602002820191906000526020600020905b8160009054906101000a900473ffffffffffffffffffffffffffffffffffffffff1673ffffffffffffffffffffffffffffffffffffffff16815260200190600101908083116174ef575b50505050508261998f565b7f4217d9fab39dbadacf1dad6c889aec1caa02e8a6cb59ddd4ce34f3e0ef158b55336175798d8b617b9690919063ffffffff16565b604051808373ffffffffffffffffffffffffffffffffffffffff1673ffffffffffffffffffffffffffffffffffffffff1681526020018281526020019250505060405180910390a160019e5050505050505050505050505050505b90565b600073ffffffffffffffffffffffffffffffffffffffff168273ffffffffffffffffffffffffffffffffffffffff16141561767a576040517f08c379a000000000000000000000000000000000000000000000000000000000815260040180806020018281038252601f8152602001807f45524332303a206d696e7420746f20746865207a65726f20616464726573730081525060200191505060405180910390fd5b61768f81603554617b9690919063ffffffff16565b6035819055506176e781603360008573ffffffffffffffffffffffffffffffffffffffff1673ffffffffffffffffffffffffffffffffffffffff16815260200190815260200160002054617b9690919063ffffffff16565b603360008473ffffffffffffffffffffffffffffffffffffffff1673ffffffffffffffffffffffffffffffffffffffff168152602001908152602001600020819055508173ffffffffffffffffffffffffffffffffffffffff16600073ffffffffffffffffffffffffffffffffffffffff167fddf252ad1be2c89b69c2b068fc378daa952ba7f163c4a11628f55a4df523b3ef836040518082815260200191505060405180910390a35050565b600061017254141561783c576177f38261017b60008673ffffffffffffffffffffffffffffffffffffffff1673ffffffffffffffffffffffffffffffffffffffff16815260200190815260200160002054617b9690919063ffffffff16565b61017b60008573ffffffffffffffffffffffffffffffffffffffff1673ffffffffffffffffffffffffffffffffffffffff1681526020019081526020016000208190555061797c565b600061789961017b60008673ffffffffffffffffffffffffffffffffffffffff1673ffffffffffffffffffffffffffffffffffffffff1681526020019081526020016000205461788b86612e78565b617cfc90919063ffffffff16565b9050617936816179286178b586866158d490919063ffffffff16565b61791a6178cb8887617cfc90919063ffffffff16565b61017660008b73ffffffffffffffffffffffffffffffffffffffff1673ffffffffffffffffffffffffffffffffffffffff168152602001908152602001600020546158d490919063ffffffff16565b617b9690919063ffffffff16565b61595a90919063ffffffff16565b61017660008673ffffffffffffffffffffffffffffffffffffffff1673ffffffffffffffffffffffffffffffffffffffff16815260200190815260200160002081905550505b505050565b60008061798d84612e78565b905060008060008090505b61017480549050811015617b8d5761017481815481106179b457fe5b9060005260206000200160009054906101000a900473ffffffffffffffffffffffffffffffffffffffff16945061017a60008673ffffffffffffffffffffffffffffffffffffffff1673ffffffffffffffffffffffffffffffffffffffff16815260200190815260200160002054925061017960008673ffffffffffffffffffffffffffffffffffffffff1673ffffffffffffffffffffffffffffffffffffffff16815260200190815260200160002060008873ffffffffffffffffffffffffffffffffffffffff1673ffffffffffffffffffffffffffffffffffffffff168152602001908152602001600020549150617aff84617af1617ad0617ac18688617cfc90919063ffffffff16565b8a6158d490919063ffffffff16565b617ae386896158d490919063ffffffff16565b617b9690919063ffffffff16565b61595a90919063ffffffff16565b61017960008773ffffffffffffffffffffffffffffffffffffffff1673ffffffffffffffffffffffffffffffffffffffff16815260200190815260200160002060008973ffffffffffffffffffffffffffffffffffffffff1673ffffffffffffffffffffffffffffffffffffffff168152602001908152602001600020819055508080600101915050617998565b50505050505050565b600080828401905083811015617c14576040517f08c379a000000000000000000000000000000000000000000000000000000000815260040180806020018281038252601b8152602001807f536166654d6174683a206164646974696f6e206f766572666c6f77000000000081525060200191505060405180910390fd5b8091505092915050565b60008073ffffffffffffffffffffffffffffffffffffffff168273ffffffffffffffffffffffffffffffffffffffff161415617ca5576040517f08c379a000000000000000000000000000000000000000000000000000000000815260040180806020018281038252602281526020018061a36a6022913960400191505060405180910390fd5b8260000160008373ffffffffffffffffffffffffffffffffffffffff1673ffffffffffffffffffffffffffffffffffffffff16815260200190815260200160002060009054906101000a900460ff16905092915050565b6000617d3e83836040518060400160405280601e81526020017f536166654d6174683a207375627472616374696f6e206f766572666c6f7700008152506165b4565b905092915050565b617d5b81610103619df690919063ffffffff16565b8073ffffffffffffffffffffffffffffffffffffffff167fcd265ebaf09df2871cc7bd4133404a235ba12eff2041bb89d9c714a2621c7c7e60405160405180910390a250565b617db681610103619eb390919063ffffffff16565b8073ffffffffffffffffffffffffffffffffffffffff167f6719d08c1888103bea251a4ed56406bd0c3e69723c8a1686e017e7bbe159b6f860405160405180910390a250565b600080831415617e0e57809050617fb6565b617e9961017760008673ffffffffffffffffffffffffffffffffffffffff1673ffffffffffffffffffffffffffffffffffffffff16815260200190815260200160002060009054906101000a900473ffffffffffffffffffffffffffffffffffffffff16848673ffffffffffffffffffffffffffffffffffffffff166159a49092919063ffffffff16565b61017760008573ffffffffffffffffffffffffffffffffffffffff1673ffffffffffffffffffffffffffffffffffffffff16815260200190815260200160002060009054906101000a900473ffffffffffffffffffffffffffffffffffffffff1673ffffffffffffffffffffffffffffffffffffffff166395a2251f836040518263ffffffff1660e01b8152600401808273ffffffffffffffffffffffffffffffffffffffff1673ffffffffffffffffffffffffffffffffffffffff168152602001915050602060405180830381600087803b158015617f7857600080fd5b505af1158015617f8c573d6000803e3d6000fd5b505050506040513d6020811015617fa257600080fd5b810190808051906020019092919050505090505b9392505050565b60008061017b60003373ffffffffffffffffffffffffffffffffffffffff1673ffffffffffffffffffffffffffffffffffffffff1681526020019081526020016000205490506000858210159050600061017254148061801a5750805b1561808d578061802b57600061803f565b61803e8683617cfc90919063ffffffff16565b5b61017b60003373ffffffffffffffffffffffffffffffffffffffff1673ffffffffffffffffffffffffffffffffffffffff168152602001908152602001600020819055508492505050618271565b600061017b60003373ffffffffffffffffffffffffffffffffffffffff1673ffffffffffffffffffffffffffffffffffffffff16815260200190815260200160002081905550600061017660003373ffffffffffffffffffffffffffffffffffffffff1673ffffffffffffffffffffffffffffffffffffffff1681526020019081526020016000205485106181b2576181ad670de0b6b3a764000061819f61817e61017660003373ffffffffffffffffffffffffffffffffffffffff1673ffffffffffffffffffffffffffffffffffffffff1681526020019081526020016000205489617cfc90919063ffffffff16565b618191878c617cfc90919063ffffffff16565b6158d490919063ffffffff16565b61595a90919063ffffffff16565b6181b5565b60005b905060006181e4620186a06181d661017254856158d490919063ffffffff16565b61595a90919063ffffffff16565b905061825761016e60009054906101000a900473ffffffffffffffffffffffffffffffffffffffff168261016a60009054906101000a900473ffffffffffffffffffffffffffffffffffffffff1673ffffffffffffffffffffffffffffffffffffffff166159a49092919063ffffffff16565b61826a8188617cfc90919063ffffffff16565b9450505050505b9392505050565b610173805490508151146182f4576040517f08c379a000000000000000000000000000000000000000000000000000000000815260040180806020018281038252600c8152602001807f49444c453a2145515f4c454e000000000000000000000000000000000000000081525060200191505060405180910390fd5b600080600090505b825181101561833a5761832b83828151811061831457fe5b602002602001015183617b9690919063ffffffff16565b915080806001019150506182fc565b5081610183908051906020019061835292919061a146565b50620186a081146183cb576040517f08c379a000000000000000000000000000000000000000000000000000000000815260040180806020018281038252600c8152602001807f49444c453a2145515f544f54000000000000000000000000000000000000000081525060200191505060405180910390fd5b5050565b600060019054906101000a900460ff16806183ee57506183ed614f1d565b5b8061840557506000809054906101000a900460ff16155b61845a576040517f08c379a000000000000000000000000000000000000000000000000000000000815260040180806020018281038252602e81526020018061a38c602e913960400191505060405180910390fd5b60008060019054906101000a900460ff1615905080156184aa576001600060016101000a81548160ff02191690831515021790555060016000806101000a81548160ff0219169083151502179055505b6184b38261268f565b6184c1576184c082617da1565b5b80156184e25760008060016101000a81548160ff0219169083151502179055505b5050565b600061a0aa61374a8401816184f757fe5b0490506000805a9050616c3e811061851c57611b6c616c3e82038161851857fe5b0491505b81831115618528578192505b60008311156186185761016960009054906101000a900473ffffffffffffffffffffffffffffffffffffffff1673ffffffffffffffffffffffffffffffffffffffff1663079d229f85856040518363ffffffff1660e01b8152600401808373ffffffffffffffffffffffffffffffffffffffff1673ffffffffffffffffffffffffffffffffffffffff16815260200182815260200192505050602060405180830381600087803b1580156185db57600080fd5b505af11580156185ef573d6000803e3d6000fd5b505050506040513d602081101561860557600080fd5b8101908080519060200190929190505050505b5050505050565b600073ffffffffffffffffffffffffffffffffffffffff168173ffffffffffffffffffffffffffffffffffffffff1614156186a5576040517f08c379a000000000000000000000000000000000000000000000000000000000815260040180806020018281038252602681526020018061a2926026913960400191505060405180910390fd5b8073ffffffffffffffffffffffffffffffffffffffff1660d060009054906101000a900473ffffffffffffffffffffffffffffffffffffffff1673ffffffffffffffffffffffffffffffffffffffff167f8be0079c531659141344cd1fd0a4f28419497f9722a3daafe3b4186f6b6457e060405160405180910390a38060d060006101000a81548173ffffffffffffffffffffffffffffffffffffffff021916908373ffffffffffffffffffffffffffffffffffffffff16021790555050565b61017e60009054906101000a900473ffffffffffffffffffffffffffffffffffffffff1673ffffffffffffffffffffffffffffffffffffffff168173ffffffffffffffffffffffffffffffffffffffff161480618810575061017d60009054906101000a900473ffffffffffffffffffffffffffffffffffffffff1673ffffffffffffffffffffffffffffffffffffffff168173ffffffffffffffffffffffffffffffffffffffff16145b15618cfd57606060016040519080825280602002602001820160405280156188475781602001602082028038833980820191505090505b5090506060600160405190808252806020026020018201604052801561887c5781602001602082028038833980820191505090505b509050308260008151811061888d57fe5b602002602001019073ffffffffffffffffffffffffffffffffffffffff16908173ffffffffffffffffffffffffffffffffffffffff168152505061017d60009054906101000a900473ffffffffffffffffffffffffffffffffffffffff1673ffffffffffffffffffffffffffffffffffffffff168373ffffffffffffffffffffffffffffffffffffffff161415618a8557308160008151811061892c57fe5b602002602001019073ffffffffffffffffffffffffffffffffffffffff16908173ffffffffffffffffffffffffffffffffffffffff168152505061017f60009054906101000a900473ffffffffffffffffffffffffffffffffffffffff1673ffffffffffffffffffffffffffffffffffffffff1663fc245d4a83836040518363ffffffff1660e01b8152600401808060200180602001838103835285818151815260200191508051906020019060200280838360005b838110156189fd5780820151818401526020810190506189e2565b50505050905001838103825284818151815260200191508051906020019060200280838360005b83811015618a3f578082015181840152602081019050618a24565b50505050905001945050505050600060405180830381600087803b158015618a6657600080fd5b505af1158015618a7a573d6000803e3d6000fd5b505050505050618cfe565b600073ffffffffffffffffffffffffffffffffffffffff1661016c60009054906101000a900473ffffffffffffffffffffffffffffffffffffffff1673ffffffffffffffffffffffffffffffffffffffff1614618cfa5761016c60009054906101000a900473ffffffffffffffffffffffffffffffffffffffff1681600081518110618b0d57fe5b602002602001019073ffffffffffffffffffffffffffffffffffffffff16908173ffffffffffffffffffffffffffffffffffffffff168152505061016c60009054906101000a900473ffffffffffffffffffffffffffffffffffffffff1673ffffffffffffffffffffffffffffffffffffffff16635fe3b5676040518163ffffffff1660e01b815260040160206040518083038186803b158015618bb057600080fd5b505afa158015618bc4573d6000803e3d6000fd5b505050506040513d6020811015618bda57600080fd5b810190808051906020019092919050505073ffffffffffffffffffffffffffffffffffffffff16636810dfa68383600060016040518563ffffffff1660e01b81526004018080602001806020018515151515815260200184151515158152602001838103835287818151815260200191508051906020019060200280838360005b83811015618c76578082015181840152602081019050618c5b565b50505050905001838103825286818151815260200191508051906020019060200280838360005b83811015618cb8578082015181840152602081019050618c9d565b505050509050019650505050505050600060405180830381600087803b158015618ce157600080fd5b505af1158015618cf5573d6000803e3d6000fd5b505050505b50505b5b50565b60008083118290618dad576040517f08c379a00000000000000000000000000000000000000000000000000000000081526004018080602001828103825283818151815260200191508051906020019080838360005b83811015618d72578082015181840152602081019050618d57565b50505050905090810190601f168015618d9f5780820380516001836020036101000a031916815260200191505b509250505060405180910390fd5b506000838581618db957fe5b049050809150509392505050565b618de68273ffffffffffffffffffffffffffffffffffffffff16619f8e565b618e58576040517f08c379a000000000000000000000000000000000000000000000000000000000815260040180806020018281038252601f8152602001807f5361666545524332303a2063616c6c20746f206e6f6e2d636f6e74726163740081525060200191505060405180910390fd5b600060608373ffffffffffffffffffffffffffffffffffffffff16836040518082805190602001908083835b60208310618ea75780518252602082019150602081019050602083039250618e84565b6001836020036101000a0380198251168184511680821785525050505050509050019150506000604051808303816000865af19150503d8060008114618f09576040519150601f19603f3d011682016040523d82523d6000602084013e618f0e565b606091505b509150915081618f86576040517f08c379a00000000000000000000000000000000000000000000000000000000081526004018080602001828103825260208152602001807f5361666545524332303a206c6f772d6c6576656c2063616c6c206661696c656481525060200191505060405180910390fd5b60008151111561900c57808060200190516020811015618fa557600080fd5b810190808051906020019092919050505061900b576040517f08c379a000000000000000000000000000000000000000000000000000000000815260040180806020018281038252602a81526020018061a424602a913960400191505060405180910390fd5b5b50505050565b60608060006101738054905060405190808252806020026020018201604052801561904c5781602001602082028038833980820191505090505b509250610173805490506040519080825280602002602001820160405280156190845781602001602082028038833980820191505090505b50915060008060008090505b610173805490508110156193345761017381815481106190ac57fe5b9060005260206000200160009054906101000a900473ffffffffffffffffffffffffffffffffffffffff169250828682815181106190e657fe5b602002602001019073ffffffffffffffffffffffffffffffffffffffff16908173ffffffffffffffffffffffffffffffffffffffff168152505061017760008473ffffffffffffffffffffffffffffffffffffffff1673ffffffffffffffffffffffffffffffffffffffff16815260200190815260200160002060009054906101000a900473ffffffffffffffffffffffffffffffffffffffff1673ffffffffffffffffffffffffffffffffffffffff166302bbce466040518163ffffffff1660e01b815260040160206040518083038186803b1580156191c657600080fd5b505afa1580156191da573d6000803e3d6000fd5b505050506040513d60208110156191f057600080fd5b810190808051906020019092919050505091506192e7670de0b6b3a76400006192d98573ffffffffffffffffffffffffffffffffffffffff166370a08231306040518263ffffffff1660e01b8152600401808273ffffffffffffffffffffffffffffffffffffffff1673ffffffffffffffffffffffffffffffffffffffff16815260200191505060206040518083038186803b15801561928f57600080fd5b505afa1580156192a3573d6000803e3d6000fd5b505050506040513d60208110156192b957600080fd5b8101908080519060200190929190505050856158d490919063ffffffff16565b61595a90919063ffffffff16565b8582815181106192f357fe5b60200260200101818152505061932585828151811061930e57fe5b602002602001015185617b9690919063ffffffff16565b93508080600101915050619090565b508484849450945094505050909192565b600061017e60009054906101000a900473ffffffffffffffffffffffffffffffffffffffff1673ffffffffffffffffffffffffffffffffffffffff168273ffffffffffffffffffffffffffffffffffffffff161480156193f55750600073ffffffffffffffffffffffffffffffffffffffff1661016c60009054906101000a900473ffffffffffffffffffffffffffffffffffffffff1673ffffffffffffffffffffffffffffffffffffffff1614155b156195565761018060009054906101000a900473ffffffffffffffffffffffffffffffffffffffff1673ffffffffffffffffffffffffffffffffffffffff1663d297128f61016c60009054906101000a900473ffffffffffffffffffffffffffffffffffffffff1661016a60009054906101000a900473ffffffffffffffffffffffffffffffffffffffff166040518363ffffffff1660e01b8152600401808373ffffffffffffffffffffffffffffffffffffffff1673ffffffffffffffffffffffffffffffffffffffff1681526020018273ffffffffffffffffffffffffffffffffffffffff1673ffffffffffffffffffffffffffffffffffffffff1681526020019250505060206040518083038186803b15801561951457600080fd5b505afa158015619528573d6000803e3d6000fd5b505050506040513d602081101561953e57600080fd5b81019080805190602001909291905050509050619557565b5b919050565b60008060008090505b6101738054905081101561979357610173818154811061958157fe5b9060005260206000200160009054906101000a900473ffffffffffffffffffffffffffffffffffffffff169150619784619775670de0b6b3a76400006197678573ffffffffffffffffffffffffffffffffffffffff166370a08231306040518263ffffffff1660e01b8152600401808273ffffffffffffffffffffffffffffffffffffffff1673ffffffffffffffffffffffffffffffffffffffff16815260200191505060206040518083038186803b15801561963d57600080fd5b505afa158015619651573d6000803e3d6000fd5b505050506040513d602081101561966757600080fd5b810190808051906020019092919050505061017760008873ffffffffffffffffffffffffffffffffffffffff1673ffffffffffffffffffffffffffffffffffffffff16815260200190815260200160002060009054906101000a900473ffffffffffffffffffffffffffffffffffffffff1673ffffffffffffffffffffffffffffffffffffffff166302bbce466040518163ffffffff1660e01b815260040160206040518083038186803b15801561971e57600080fd5b505afa158015619732573d6000803e3d6000fd5b505050506040513d602081101561974857600080fd5b81019080805190602001909291905050506158d490919063ffffffff16565b61595a90919063ffffffff16565b84617b9690919063ffffffff16565b92508080600101915050619565565b5061988161016a60009054906101000a900473ffffffffffffffffffffffffffffffffffffffff1673ffffffffffffffffffffffffffffffffffffffff166370a08231306040518263ffffffff1660e01b8152600401808273ffffffffffffffffffffffffffffffffffffffff1673ffffffffffffffffffffffffffffffffffffffff16815260200191505060206040518083038186803b15801561983757600080fd5b505afa15801561984b573d6000803e3d6000fd5b505050506040513d602081101561986157600080fd5b810190808051906020019092919050505083617b9690919063ffffffff16565b91505090565b606082516040519080825280602002602001820160405280156198b95781602001602082028038833980820191505090505b50905060008060008090505b855181101561998357600186510381141561990a576198ed8286617cfc90919063ffffffff16565b8482815181106198f957fe5b602002602001018181525050619976565b619945620186a061993788848151811061992057fe5b6020026020010151886158d490919063ffffffff16565b61595a90919063ffffffff16565b925061995a8383617b9690919063ffffffff16565b91508284828151811061996957fe5b6020026020010181815250505b80806001019150506198c5565b50829250505092915050565b60008060008090505b8351811015619b1b578381815181106199ad57fe5b6020026020010151925060008314156199c557619b0e565b61017760008683815181106199d657fe5b602002602001015173ffffffffffffffffffffffffffffffffffffffff1673ffffffffffffffffffffffffffffffffffffffff16815260200190815260200160002060009054906101000a900473ffffffffffffffffffffffffffffffffffffffff169150619a89828461016a60009054906101000a900473ffffffffffffffffffffffffffffffffffffffff1673ffffffffffffffffffffffffffffffffffffffff166159a49092919063ffffffff16565b8173ffffffffffffffffffffffffffffffffffffffff16631249c58b6040518163ffffffff1660e01b8152600401602060405180830381600087803b158015619ad157600080fd5b505af1158015619ae5573d6000803e3d6000fd5b505050506040513d6020811015619afb57600080fd5b8101908080519060200190929190505050505b8080600101915050619998565b5050505050565b60606000808451604051908082528060200260200182016040528015619b575781602001602082028038833980820191505090505b50925060008060008060008090505b8951811015619de8578a8181518110619b7b57fe5b60200260200101519150888181518110619b9157fe5b60200260200101519250898181518110619ba757fe5b6020026020010151935061017760008373ffffffffffffffffffffffffffffffffffffffff1673ffffffffffffffffffffffffffffffffffffffff16815260200190815260200160002060009054906101000a900473ffffffffffffffffffffffffffffffffffffffff16945082841115619d87576000619c318486617cfc90919063ffffffff16565b905060008673ffffffffffffffffffffffffffffffffffffffff1663743753596040518163ffffffff1660e01b815260040160206040518083038186803b158015619c7b57600080fd5b505afa158015619c8f573d6000803e3d6000fd5b505050506040513d6020811015619ca557600080fd5b8101908080519060200190929190505050905081811015619cc857600197508091505b619d7f84619d798973ffffffffffffffffffffffffffffffffffffffff166302bbce466040518163ffffffff1660e01b815260040160206040518083038186803b158015619d1557600080fd5b505afa158015619d29573d6000803e3d6000fd5b505050506040513d6020811015619d3f57600080fd5b8101908080519060200190929190505050619d6b670de0b6b3a7640000876158d490919063ffffffff16565b61595a90919063ffffffff16565b30617dfc565b505050619ddb565b619d9a8484617cfc90919063ffffffff16565b888281518110619da657fe5b602002602001018181525050619dd8888281518110619dc157fe5b602002602001015188617b9690919063ffffffff16565b96505b8080600101915050619b66565b505050505093509350939050565b619e008282617c1e565b619e55576040517f08c379a000000000000000000000000000000000000000000000000000000000815260040180806020018281038252602181526020018061a3006021913960400191505060405180910390fd5b60008260000160008373ffffffffffffffffffffffffffffffffffffffff1673ffffffffffffffffffffffffffffffffffffffff16815260200190815260200160002060006101000a81548160ff0219169083151502179055505050565b619ebd8282617c1e565b15619f30576040517f08c379a000000000000000000000000000000000000000000000000000000000815260040180806020018281038252601f8152602001807f526f6c65733a206163636f756e7420616c72656164792068617320726f6c650081525060200191505060405180910390fd5b60018260000160008373ffffffffffffffffffffffffffffffffffffffff1673ffffffffffffffffffffffffffffffffffffffff16815260200190815260200160002060006101000a81548160ff0219169083151502179055505050565b60008060007fc5d2460186f7233c927e7db2dcc703c0e500b653ca82273b7bfad8045d85a47060001b9050833f9150808214158015619fd057506000801b8214155b92505050919050565b828054600181600116156101000203166002900490600052602060002090601f016020900481019282601f1061a01a57805160ff191683800117855561a048565b8280016001018555821561a048579182015b8281111561a04757825182559160200191906001019061a02c565b5b50905061a055919061a1b4565b5090565b82805482825590600052602060002090810192821561a0e8579160200282015b8281111561a0e757823573ffffffffffffffffffffffffffffffffffffffff168260006101000a81548173ffffffffffffffffffffffffffffffffffffffff021916908373ffffffffffffffffffffffffffffffffffffffff1602179055509160200191906001019061a079565b5b50905061a0f5919061a1d9565b5090565b82805482825590600052602060002090810192821561a135579160200282015b8281111561a13457823582559160200191906001019061a119565b5b50905061a142919061a1b4565b5090565b82805482825590600052602060002090810192821561a182579160200282015b8281111561a18157825182559160200191906001019061a166565b5b50905061a18f919061a1b4565b5090565b508054600082559060005260206000209081019061a1b1919061a1b4565b50565b61a1d691905b8082111561a1d257600081600090555060010161a1ba565b5090565b90565b61a21991905b8082111561a21557600081816101000a81549073ffffffffffffffffffffffffffffffffffffffff02191690555060010161a1df565b5090565b9056fe45524332303a207472616e7366657220746f20746865207a65726f206164647265737345524332303a206275726e20616d6f756e7420657863656564732062616c616e6365506175736572526f6c653a2063616c6c657220646f6573206e6f742068617665207468652050617573657220726f6c654f776e61626c653a206e6577206f776e657220697320746865207a65726f206164647265737345524332303a20617070726f766520746f20746865207a65726f206164647265737345524332303a207472616e7366657220616d6f756e7420657863656564732062616c616e6365526f6c65733a206163636f756e7420646f6573206e6f74206861766520726f6c65536166654d6174683a206d756c7469706c69636174696f6e206f766572666c6f7745524332303a207472616e7366657220616d6f756e74206578636565647320616c6c6f77616e6365526f6c65733a206163636f756e7420697320746865207a65726f2061646472657373436f6e747261637420696e7374616e63652068617320616c7265616479206265656e20696e697469616c697a656445524332303a206275726e2066726f6d20746865207a65726f206164647265737345524332303a207472616e736665722066726f6d20746865207a65726f206164647265737345524332303a20617070726f76652066726f6d20746865207a65726f20616464726573735361666545524332303a204552433230206f7065726174696f6e20646964206e6f74207375636365656445524332303a2064656372656173656420616c6c6f77616e63652062656c6f77207a65726fa265627a7a72315820f1cb6f7bd723380116bf55794047e805ff41c7a8997be75948f2370c2a634a7164736f6c63430005100032",
  "linkReferences": {},
  "deployedLinkReferences": {}
}