{
  "_format": "hh-sol-artifact-1",
  "contractName": "DSMath",
  "sourceName": "contracts/libraries/DSMath.sol",
  "abi": [
    {
      "constant": true,
      "inputs": [
        {
          "internalType": "uint256",
          "name": "x",
          "type": "uint256"
        },
        {
          "internalType": "uint256",
          "name": "n",
          "type": "uint256"
        },
        {
          "internalType": "uint256",
          "name": "base",
          "type": "uint256"
        }
      ],
      "name": "rpow",
      "outputs": [
        {
          "internalType": "uint256",
          "name": "z",
          "type": "uint256"
        }
      ],
      "payable": false,
      "stateMutability": "pure",
      "type": "function"
    }
  ],
  "bytecode": "0x608060405234801561001057600080fd5b50610181806100206000396000f3fe608060405234801561001057600080fd5b506004361061002b5760003560e01c806367b870af14610030575b600080fd5b6100706004803603606081101561004657600080fd5b81019080803590602001909291908035906020019092919080359060200190929190505050610086565b6040518082815260200191505060405180910390f35b6000836000811461012c5760028406600081146100a5578592506100a9565b8392505b50600283046002850494505b84156101265785860286878204146100cc57600080fd5b818101818110156100dc57600080fd5b8581049750600287061561011957878502858982041415891515161561010157600080fd5b8381018181101561011157600080fd5b878104965050505b50506002850494506100b5565b50610144565b836000811461013e5760009250610142565b8392505b505b50939250505056fea265627a7a72315820bddb24acd717ed2aae368120a50d3918d7e105bf760395bd634cfd4078b609f064736f6c63430005100032",
  "linkReferences": {},
  "deployedLinkReferences": {}
}