{
  "_format": "hh-sol-artifact-1",
  "contractName": "BasicMetaTransaction",
  "sourceName": "contracts/others/BasicMetaTransaction.sol",
  "abi": [
    {
      "anonymous": false,
      "inputs": [
        {
          "indexed": false,
          "internalType": "address",
          "name": "userAddress",
          "type": "address"
        },
        {
          "indexed": false,
          "internalType": "address payable",
          "name": "relayerAddress",
          "type": "address"
        },
        {
          "indexed": false,
          "internalType": "bytes",
          "name": "functionSignature",
          "type": "bytes"
        }
      ],
      "name": "MetaTransactionExecuted",
      "type": "event"
    },
    {
      "constant": false,
      "inputs": [
        {
          "internalType": "address",
          "name": "userAddress",
          "type": "address"
        },
        {
          "internalType": "bytes",
          "name": "functionSignature",
          "type": "bytes"
        },
        {
          "internalType": "bytes32",
          "name": "sigR",
          "type": "bytes32"
        },
        {
          "internalType": "bytes32",
          "name": "sigS",
          "type": "bytes32"
        },
        {
          "internalType": "uint8",
          "name": "sigV",
          "type": "uint8"
        }
      ],
      "name": "executeMetaTransaction",
      "outputs": [
        {
          "internalType": "bytes",
          "name": "",
          "type": "bytes"
        }
      ],
      "payable": true,
      "stateMutability": "payable",
      "type": "function"
    },
    {
      "constant": true,
      "inputs": [],
      "name": "getChainID",
      "outputs": [
        {
          "internalType": "uint256",
          "name": "",
          "type": "uint256"
        }
      ],
      "payable": false,
      "stateMutability": "pure",
      "type": "function"
    },
    {
      "constant": true,
      "inputs": [
        {
          "internalType": "address",
          "name": "user",
          "type": "address"
        }
      ],
      "name": "getNonce",
      "outputs": [
        {
          "internalType": "uint256",
          "name": "nonce",
          "type": "uint256"
        }
      ],
      "payable": false,
      "stateMutability": "view",
      "type": "function"
    },
    {
      "constant": true,
      "inputs": [
        {
          "internalType": "address",
          "name": "owner",
          "type": "address"
        },
        {
          "internalType": "uint256",
          "name": "nonce",
          "type": "uint256"
        },
        {
          "internalType": "uint256",
          "name": "chainID",
          "type": "uint256"
        },
        {
          "internalType": "bytes",
          "name": "functionSignature",
          "type": "bytes"
        },
        {
          "internalType": "bytes32",
          "name": "sigR",
          "type": "bytes32"
        },
        {
          "internalType": "bytes32",
          "name": "sigS",
          "type": "bytes32"
        },
        {
          "internalType": "uint8",
          "name": "sigV",
          "type": "uint8"
        }
      ],
      "name": "verify",
      "outputs": [
        {
          "internalType": "bool",
          "name": "",
          "type": "bool"
        }
      ],
      "payable": false,
      "stateMutability": "view",
      "type": "function"
    }
  ],
  "bytecode": "0x608060405234801561001057600080fd5b50610e7f806100206000396000f3fe60806040526004361061003f5760003560e01c80630c53c51c146100445780632d0335ab14610074578063564b81ef146100b15780636281133d146100dc575b600080fd5b61005e60048036036100599190810190610642565b610119565b60405161006b9190610b5a565b60405180910390f35b34801561008057600080fd5b5061009b60048036036100969190810190610619565b61035c565b6040516100a89190610bfc565b60405180910390f35b3480156100bd57600080fd5b506100c66103a4565b6040516100d39190610bfc565b60405180910390f35b3480156100e857600080fd5b5061010360048036036100fe91908101906106d1565b6103b1565b6040516101109190610afa565b60405180910390f35b606061016f866000808973ffffffffffffffffffffffffffffffffffffffff1673ffffffffffffffffffffffffffffffffffffffff168152602001908152602001600020546101666103a4565b888888886103b1565b6101ae576040517f08c379a00000000000000000000000000000000000000000000000000000000081526004016101a590610bdc565b60405180910390fd5b61020060016000808973ffffffffffffffffffffffffffffffffffffffff1673ffffffffffffffffffffffffffffffffffffffff168152602001908152602001600020546104ec90919063ffffffff16565b6000808873ffffffffffffffffffffffffffffffffffffffff1673ffffffffffffffffffffffffffffffffffffffff16815260200190815260200160002081905550600060603073ffffffffffffffffffffffffffffffffffffffff168789604051602001610270929190610a24565b60405160208183030381529060405260405161028c9190610a0d565b6000604051808303816000865af19150503d80600081146102c9576040519150601f19603f3d011682016040523d82523d6000602084013e6102ce565b606091505b509150915081610313576040517f08c379a000000000000000000000000000000000000000000000000000000000815260040161030a90610b9c565b60405180910390fd5b7f5845892132946850460bff5a0083f71031bc5bf9aadcd40f1de79423eac9b10b88338960405161034693929190610abc565b60405180910390a1809250505095945050505050565b60008060008373ffffffffffffffffffffffffffffffffffffffff1673ffffffffffffffffffffffffffffffffffffffff168152602001908152602001600020549050919050565b6000804690508091505090565b6000806103e9883089896040516020016103ce9493929190610a72565b60405160208183030381529060405280519060200120610541565b90506000600182858888604051600081526020016040526040516104109493929190610b15565b6020604051602081039080840390855afa158015610432573d6000803e3d6000fd5b505050602060405103519050600073ffffffffffffffffffffffffffffffffffffffff168173ffffffffffffffffffffffffffffffffffffffff1614156104ae576040517f08c379a00000000000000000000000000000000000000000000000000000000081526004016104a590610bbc565b60405180910390fd5b8073ffffffffffffffffffffffffffffffffffffffff168a73ffffffffffffffffffffffffffffffffffffffff161492505050979650505050505050565b600080828401905083811015610537576040517f08c379a000000000000000000000000000000000000000000000000000000000815260040161052e90610b7c565b60405180910390fd5b8091505092915050565b6000816040516020016105549190610a4c565b604051602081830303815290604052805190602001209050919050565b60008135905061058081610de0565b92915050565b60008135905061059581610df7565b92915050565b600082601f8301126105ac57600080fd5b81356105bf6105ba82610c44565b610c17565b915080825260208301602083018583830111156105db57600080fd5b6105e6838284610d48565b50505092915050565b6000813590506105fe81610e0e565b92915050565b60008135905061061381610e25565b92915050565b60006020828403121561062b57600080fd5b600061063984828501610571565b91505092915050565b600080600080600060a0868803121561065a57600080fd5b600061066888828901610571565b955050602086013567ffffffffffffffff81111561068557600080fd5b6106918882890161059b565b94505060406106a288828901610586565b93505060606106b388828901610586565b92505060806106c488828901610604565b9150509295509295909350565b600080600080600080600060e0888a0312156106ec57600080fd5b60006106fa8a828b01610571565b975050602061070b8a828b016105ef565b965050604061071c8a828b016105ef565b955050606088013567ffffffffffffffff81111561073957600080fd5b6107458a828b0161059b565b94505060806107568a828b01610586565b93505060a06107678a828b01610586565b92505060c06107788a828b01610604565b91505092959891949750929550565b61079081610cc5565b82525050565b61079f81610cb3565b82525050565b6107b66107b182610cb3565b610d8a565b82525050565b6107c581610cd7565b82525050565b6107d481610ce3565b82525050565b6107eb6107e682610ce3565b610d9c565b82525050565b60006107fc82610c70565b6108068185610c7b565b9350610816818560208601610d57565b61081f81610dc2565b840191505092915050565b600061083582610c70565b61083f8185610c8c565b935061084f818560208601610d57565b80840191505092915050565b61086c61086782610d24565b610d8a565b82525050565b600061087f601c83610ca8565b91507f19457468657265756d205369676e6564204d6573736167653a0a3332000000006000830152601c82019050919050565b60006108bf601b83610c97565b91507f536166654d6174683a206164646974696f6e206f766572666c6f7700000000006000830152602082019050919050565b60006108ff601d83610c97565b91507f46756e6374696f6e2063616c6c206e6f74207375636365737366756c6c0000006000830152602082019050919050565b600061093f601183610c97565b91507f496e76616c6964207369676e61747572650000000000000000000000000000006000830152602082019050919050565b600061097f602183610c97565b91507f5369676e657220616e64207369676e617475726520646f206e6f74206d61746360008301527f68000000000000000000000000000000000000000000000000000000000000006020830152604082019050919050565b6109e181610d0d565b82525050565b6109f86109f382610d0d565b610db8565b82525050565b610a0781610d17565b82525050565b6000610a19828461082a565b915081905092915050565b6000610a30828561082a565b9150610a3c82846107a5565b6014820191508190509392505050565b6000610a5782610872565b9150610a6382846107da565b60208201915081905092915050565b6000610a7e82876109e7565b602082019150610a8e828661085b565b601482019150610a9e82856109e7565b602082019150610aae828461082a565b915081905095945050505050565b6000606082019050610ad16000830186610796565b610ade6020830185610787565b8181036040830152610af081846107f1565b9050949350505050565b6000602082019050610b0f60008301846107bc565b92915050565b6000608082019050610b2a60008301876107cb565b610b3760208301866109fe565b610b4460408301856107cb565b610b5160608301846107cb565b95945050505050565b60006020820190508181036000830152610b7481846107f1565b905092915050565b60006020820190508181036000830152610b95816108b2565b9050919050565b60006020820190508181036000830152610bb5816108f2565b9050919050565b60006020820190508181036000830152610bd581610932565b9050919050565b60006020820190508181036000830152610bf581610972565b9050919050565b6000602082019050610c1160008301846109d8565b92915050565b6000604051905081810181811067ffffffffffffffff82111715610c3a57600080fd5b8060405250919050565b600067ffffffffffffffff821115610c5b57600080fd5b601f19601f8301169050602081019050919050565b600081519050919050565b600082825260208201905092915050565b600081905092915050565b600082825260208201905092915050565b600081905092915050565b6000610cbe82610ced565b9050919050565b6000610cd082610ced565b9050919050565b60008115159050919050565b6000819050919050565b600073ffffffffffffffffffffffffffffffffffffffff82169050919050565b6000819050919050565b600060ff82169050919050565b6000610d2f82610d36565b9050919050565b6000610d4182610ced565b9050919050565b82818337600083830152505050565b60005b83811015610d75578082015181840152602081019050610d5a565b83811115610d84576000848401525b50505050565b6000610d9582610da6565b9050919050565b6000819050919050565b6000610db182610dd3565b9050919050565b6000819050919050565b6000601f19601f8301169050919050565b60008160601b9050919050565b610de981610cb3565b8114610df457600080fd5b50565b610e0081610ce3565b8114610e0b57600080fd5b50565b610e1781610d0d565b8114610e2257600080fd5b50565b610e2e81610d17565b8114610e3957600080fd5b5056fea365627a7a723158203fef4913a9bcc24cd1973a955452213867c95f31fb56d3b2c1bf04bd0234a77b6c6578706572696d656e74616cf564736f6c63430005100040",
  "linkReferences": {},
  "deployedLinkReferences": {}
}