{
  "_format": "hh-sol-artifact-1",
  "contractName": "yxTokenNoConst",
  "sourceName": "contracts/mocks/yxTokenNoConst.sol",
  "abi": [
    {
      "inputs": [
        {
          "internalType": "address",
          "name": "_underlying",
          "type": "address"
        },
        {
          "internalType": "uint256",
          "name": "_marketId",
          "type": "uint256"
        },
        {
          "internalType": "string",
          "name": "_name",
          "type": "string"
        },
        {
          "internalType": "string",
          "name": "_symbol",
          "type": "string"
        },
        {
          "internalType": "uint8",
          "name": "_decimals",
          "type": "uint8"
        }
      ],
      "payable": false,
      "stateMutability": "nonpayable",
      "type": "constructor"
    },
    {
      "anonymous": false,
      "inputs": [
        {
          "indexed": true,
          "internalType": "address",
          "name": "owner",
          "type": "address"
        },
        {
          "indexed": true,
          "internalType": "address",
          "name": "spender",
          "type": "address"
        },
        {
          "indexed": false,
          "internalType": "uint256",
          "name": "value",
          "type": "uint256"
        }
      ],
      "name": "Approval",
      "type": "event"
    },
    {
      "anonymous": false,
      "inputs": [
        {
          "indexed": true,
          "internalType": "address",
          "name": "from",
          "type": "address"
        },
        {
          "indexed": true,
          "internalType": "address",
          "name": "to",
          "type": "address"
        },
        {
          "indexed": false,
          "internalType": "uint256",
          "name": "value",
          "type": "uint256"
        }
      ],
      "name": "Transfer",
      "type": "event"
    },
    {
      "constant": true,
      "inputs": [
        {
          "internalType": "address",
          "name": "owner",
          "type": "address"
        },
        {
          "internalType": "address",
          "name": "spender",
          "type": "address"
        }
      ],
      "name": "allowance",
      "outputs": [
        {
          "internalType": "uint256",
          "name": "",
          "type": "uint256"
        }
      ],
      "payable": false,
      "stateMutability": "view",
      "type": "function"
    },
    {
      "constant": false,
      "inputs": [
        {
          "internalType": "address",
          "name": "spender",
          "type": "address"
        },
        {
          "internalType": "uint256",
          "name": "amount",
          "type": "uint256"
        }
      ],
      "name": "approve",
      "outputs": [
        {
          "internalType": "bool",
          "name": "",
          "type": "bool"
        }
      ],
      "payable": false,
      "stateMutability": "nonpayable",
      "type": "function"
    },
    {
      "constant": true,
      "inputs": [],
      "name": "availableLiquidity",
      "outputs": [
        {
          "internalType": "uint256",
          "name": "",
          "type": "uint256"
        }
      ],
      "payable": false,
      "stateMutability": "view",
      "type": "function"
    },
    {
      "constant": true,
      "inputs": [
        {
          "internalType": "address",
          "name": "who",
          "type": "address"
        }
      ],
      "name": "balanceInUnderlying",
      "outputs": [
        {
          "internalType": "uint256",
          "name": "",
          "type": "uint256"
        }
      ],
      "payable": false,
      "stateMutability": "view",
      "type": "function"
    },
    {
      "constant": true,
      "inputs": [
        {
          "internalType": "address",
          "name": "account",
          "type": "address"
        }
      ],
      "name": "balanceOf",
      "outputs": [
        {
          "internalType": "uint256",
          "name": "",
          "type": "uint256"
        }
      ],
      "payable": false,
      "stateMutability": "view",
      "type": "function"
    },
    {
      "constant": true,
      "inputs": [],
      "name": "decimals",
      "outputs": [
        {
          "internalType": "uint8",
          "name": "",
          "type": "uint8"
        }
      ],
      "payable": false,
      "stateMutability": "view",
      "type": "function"
    },
    {
      "constant": false,
      "inputs": [
        {
          "internalType": "address",
          "name": "spender",
          "type": "address"
        },
        {
          "internalType": "uint256",
          "name": "subtractedValue",
          "type": "uint256"
        }
      ],
      "name": "decreaseAllowance",
      "outputs": [
        {
          "internalType": "bool",
          "name": "",
          "type": "bool"
        }
      ],
      "payable": false,
      "stateMutability": "nonpayable",
      "type": "function"
    },
    {
      "constant": true,
      "inputs": [],
      "name": "dydxAddressesProvider",
      "outputs": [
        {
          "internalType": "address",
          "name": "",
          "type": "address"
        }
      ],
      "payable": false,
      "stateMutability": "view",
      "type": "function"
    },
    {
      "constant": false,
      "inputs": [
        {
          "internalType": "address",
          "name": "spender",
          "type": "address"
        },
        {
          "internalType": "uint256",
          "name": "addedValue",
          "type": "uint256"
        }
      ],
      "name": "increaseAllowance",
      "outputs": [
        {
          "internalType": "bool",
          "name": "",
          "type": "bool"
        }
      ],
      "payable": false,
      "stateMutability": "nonpayable",
      "type": "function"
    },
    {
      "constant": true,
      "inputs": [],
      "name": "marketId",
      "outputs": [
        {
          "internalType": "uint256",
          "name": "",
          "type": "uint256"
        }
      ],
      "payable": false,
      "stateMutability": "view",
      "type": "function"
    },
    {
      "constant": false,
      "inputs": [
        {
          "internalType": "uint256",
          "name": "_amount",
          "type": "uint256"
        }
      ],
      "name": "mint",
      "outputs": [
        {
          "internalType": "uint256",
          "name": "newTokens",
          "type": "uint256"
        }
      ],
      "payable": false,
      "stateMutability": "nonpayable",
      "type": "function"
    },
    {
      "constant": true,
      "inputs": [],
      "name": "name",
      "outputs": [
        {
          "internalType": "string",
          "name": "",
          "type": "string"
        }
      ],
      "payable": false,
      "stateMutability": "view",
      "type": "function"
    },
    {
      "constant": true,
      "inputs": [],
      "name": "price",
      "outputs": [
        {
          "internalType": "uint256",
          "name": "",
          "type": "uint256"
        }
      ],
      "payable": false,
      "stateMutability": "view",
      "type": "function"
    },
    {
      "constant": false,
      "inputs": [
        {
          "internalType": "uint256",
          "name": "_amount",
          "type": "uint256"
        },
        {
          "internalType": "address",
          "name": "_account",
          "type": "address"
        }
      ],
      "name": "redeem",
      "outputs": [
        {
          "internalType": "uint256",
          "name": "tokens",
          "type": "uint256"
        }
      ],
      "payable": false,
      "stateMutability": "nonpayable",
      "type": "function"
    },
    {
      "constant": true,
      "inputs": [],
      "name": "secondsInAYear",
      "outputs": [
        {
          "internalType": "uint256",
          "name": "",
          "type": "uint256"
        }
      ],
      "payable": false,
      "stateMutability": "view",
      "type": "function"
    },
    {
      "constant": true,
      "inputs": [],
      "name": "symbol",
      "outputs": [
        {
          "internalType": "string",
          "name": "",
          "type": "string"
        }
      ],
      "payable": false,
      "stateMutability": "view",
      "type": "function"
    },
    {
      "constant": true,
      "inputs": [],
      "name": "totalSupply",
      "outputs": [
        {
          "internalType": "uint256",
          "name": "",
          "type": "uint256"
        }
      ],
      "payable": false,
      "stateMutability": "view",
      "type": "function"
    },
    {
      "constant": false,
      "inputs": [
        {
          "internalType": "address",
          "name": "recipient",
          "type": "address"
        },
        {
          "internalType": "uint256",
          "name": "amount",
          "type": "uint256"
        }
      ],
      "name": "transfer",
      "outputs": [
        {
          "internalType": "bool",
          "name": "",
          "type": "bool"
        }
      ],
      "payable": false,
      "stateMutability": "nonpayable",
      "type": "function"
    },
    {
      "constant": false,
      "inputs": [
        {
          "internalType": "address",
          "name": "sender",
          "type": "address"
        },
        {
          "internalType": "address",
          "name": "recipient",
          "type": "address"
        },
        {
          "internalType": "uint256",
          "name": "amount",
          "type": "uint256"
        }
      ],
      "name": "transferFrom",
      "outputs": [
        {
          "internalType": "bool",
          "name": "",
          "type": "bool"
        }
      ],
      "payable": false,
      "stateMutability": "nonpayable",
      "type": "function"
    },
    {
      "constant": true,
      "inputs": [],
      "name": "underlying",
      "outputs": [
        {
          "internalType": "address",
          "name": "",
          "type": "address"
        }
      ],
      "payable": false,
      "stateMutability": "view",
      "type": "function"
    }
  ],
  "bytecode": "0x6080604052731e0447b19bb6ecfdae1e4ae1694b0c3659614e4e600960006101000a81548173ffffffffffffffffffffffffffffffffffffffff021916908373ffffffffffffffffffffffffffffffffffffffff160217905550600960009054906101000a900473ffffffffffffffffffffffffffffffffffffffff16600a60006101000a81548173ffffffffffffffffffffffffffffffffffffffff021916908373ffffffffffffffffffffffffffffffffffffffff160217905550348015620000c957600080fd5b5060405162003784380380620037848339818101604052620000ef919081019062000445565b82828282600390805190602001906200010a929190620002de565b50816004908051906020019062000123929190620002de565b5080600560006101000a81548160ff021916908360ff160217905550505050600073ffffffffffffffffffffffffffffffffffffffff168573ffffffffffffffffffffffffffffffffffffffff161415620001b5576040517f08c379a0000000000000000000000000000000000000000000000000000000008152600401620001ac90620005b6565b60405180910390fd5b84600860006101000a81548173ffffffffffffffffffffffffffffffffffffffff021916908373ffffffffffffffffffffffffffffffffffffffff160217905550836006819055508473ffffffffffffffffffffffffffffffffffffffff1663095ea7b3600960009054906101000a900473ffffffffffffffffffffffffffffffffffffffff167fffffffffffffffffffffffffffffffffffffffffffffffffffffffffffffffff6040518363ffffffff1660e01b81526004016200027c92919062000589565b602060405180830381600087803b1580156200029757600080fd5b505af1158015620002ac573d6000803e3d6000fd5b505050506040513d601f19601f82011682018060405250620002d29190810190620004f9565b50505050505062000739565b828054600181600116156101000203166002900490600052602060002090601f016020900481019282601f106200032157805160ff191683800117855562000352565b8280016001018555821562000352579182015b828111156200035157825182559160200191906001019062000334565b5b50905062000361919062000365565b5090565b6200038a91905b80821115620003865760008160009055506001016200036c565b5090565b90565b6000815190506200039e81620006d1565b92915050565b600081519050620003b581620006eb565b92915050565b600082601f830112620003cd57600080fd5b8151620003e4620003de8262000606565b620005d8565b915080825260208301602083018583830111156200040157600080fd5b6200040e8382846200069b565b50505092915050565b600081519050620004288162000705565b92915050565b6000815190506200043f816200071f565b92915050565b600080600080600060a086880312156200045e57600080fd5b60006200046e888289016200038d565b9550506020620004818882890162000417565b945050604086015167ffffffffffffffff8111156200049f57600080fd5b620004ad88828901620003bb565b935050606086015167ffffffffffffffff811115620004cb57600080fd5b620004d988828901620003bb565b9250506080620004ec888289016200042e565b9150509295509295909350565b6000602082840312156200050c57600080fd5b60006200051c84828501620003a4565b91505092915050565b620005308162000644565b82525050565b600062000545600f8362000633565b91507f556e6465726c79696e67206973203000000000000000000000000000000000006000830152602082019050919050565b620005838162000684565b82525050565b6000604082019050620005a0600083018562000525565b620005af602083018462000578565b9392505050565b60006020820190508181036000830152620005d18162000536565b9050919050565b6000604051905081810181811067ffffffffffffffff82111715620005fc57600080fd5b8060405250919050565b600067ffffffffffffffff8211156200061e57600080fd5b601f19601f8301169050602081019050919050565b600082825260208201905092915050565b6000620006518262000664565b9050919050565b60008115159050919050565b600073ffffffffffffffffffffffffffffffffffffffff82169050919050565b6000819050919050565b600060ff82169050919050565b60005b83811015620006bb5780820151818401526020810190506200069e565b83811115620006cb576000848401525b50505050565b620006dc8162000644565b8114620006e857600080fd5b50565b620006f68162000658565b81146200070257600080fd5b50565b620007108162000684565b81146200071c57600080fd5b50565b6200072a816200068e565b81146200073657600080fd5b50565b61303b80620007496000396000f3fe608060405234801561001057600080fd5b506004361061012c5760003560e01c806370a08231116100ad578063a0712d6811610071578063a0712d681461034d578063a457c2d71461037d578063a9059cbb146103ad578063dc361a13146103dd578063dd62ed3e1461040d5761012c565b806370a082311461029357806374375359146102c35780637bde82f2146102e157806395d89b4114610311578063a035b1fe1461032f5761012c565b806339509351116100f457806339509351146101eb5780634eb82b561461021b5780636cb3281d146102395780636ed71ede146102575780636f307dc3146102755761012c565b806306fdde0314610131578063095ea7b31461014f57806318160ddd1461017f57806323b872dd1461019d578063313ce567146101cd575b600080fd5b61013961043d565b6040516101469190612b1b565b60405180910390f35b61016960048036036101649190810190612164565b6104df565b6040516101769190612b00565b60405180910390f35b6101876104fd565b6040516101949190612cc6565b60405180910390f35b6101b760048036036101b29190810190612115565b610507565b6040516101c49190612b00565b60405180910390f35b6101d56105e0565b6040516101e29190612ce1565b60405180910390f35b61020560048036036102009190810190612164565b6105f7565b6040516102129190612b00565b60405180910390f35b6102236106aa565b6040516102309190612cc6565b60405180910390f35b6102416106b0565b60405161024e9190612a4e565b60405180910390f35b61025f6106d6565b60405161026c9190612cc6565b60405180910390f35b61027d6106dc565b60405161028a9190612a4e565b60405180910390f35b6102ad60048036036102a891908101906120b0565b610702565b6040516102ba9190612cc6565b60405180910390f35b6102cb61074a565b6040516102d89190612cc6565b60405180910390f35b6102fb60048036036102f69190810190612257565b61081e565b6040516103089190612cc6565b60405180910390f35b610319610917565b6040516103269190612b1b565b60405180910390f35b6103376109b9565b6040516103449190612cc6565b60405180910390f35b61036760048036036103629190810190612205565b610a72565b6040516103749190612cc6565b60405180910390f35b61039760048036036103929190810190612164565b610b03565b6040516103a49190612b00565b60405180910390f35b6103c760048036036103c29190810190612164565b610bd0565b6040516103d49190612b00565b60405180910390f35b6103f760048036036103f291908101906120b0565b610bee565b6040516104049190612cc6565b60405180910390f35b610427600480360361042291908101906120d9565b610c33565b6040516104349190612cc6565b60405180910390f35b606060038054600181600116156101000203166002900480601f0160208091040260200160405190810160405280929190818152602001828054600181600116156101000203166002900480156104d55780601f106104aa576101008083540402835291602001916104d5565b820191906000526020600020905b8154815290600101906020018083116104b857829003601f168201915b5050505050905090565b60006104f36104ec610cba565b8484610cc2565b6001905092915050565b6000600254905090565b6000610514848484610e8d565b6105d584610520610cba565b6105d085604051806060016040528060288152602001612fac60289139600160008b73ffffffffffffffffffffffffffffffffffffffff1673ffffffffffffffffffffffffffffffffffffffff1681526020019081526020016000206000610586610cba565b73ffffffffffffffffffffffffffffffffffffffff1673ffffffffffffffffffffffffffffffffffffffff168152602001908152602001600020546111179092919063ffffffff16565b610cc2565b600190509392505050565b6000600560009054906101000a900460ff16905090565b60006106a0610604610cba565b8461069b8560016000610615610cba565b73ffffffffffffffffffffffffffffffffffffffff1673ffffffffffffffffffffffffffffffffffffffff16815260200190815260200160002060008973ffffffffffffffffffffffffffffffffffffffff1673ffffffffffffffffffffffffffffffffffffffff1681526020019081526020016000205461117290919063ffffffff16565b610cc2565b6001905092915050565b60075481565b600960009054906101000a900473ffffffffffffffffffffffffffffffffffffffff1681565b60065481565b600860009054906101000a900473ffffffffffffffffffffffffffffffffffffffff1681565b60008060008373ffffffffffffffffffffffffffffffffffffffff1673ffffffffffffffffffffffffffffffffffffffff168152602001908152602001600020549050919050565b6000600860009054906101000a900473ffffffffffffffffffffffffffffffffffffffff1673ffffffffffffffffffffffffffffffffffffffff166370a08231600960009054906101000a900473ffffffffffffffffffffffffffffffffffffffff166040518263ffffffff1660e01b81526004016107c99190612a4e565b60206040518083038186803b1580156107e157600080fd5b505afa1580156107f5573d6000803e3d6000fd5b505050506040513d601f19601f82011682018060405250610819919081019061222e565b905090565b6000610829836111c7565b6000600860009054906101000a900473ffffffffffffffffffffffffffffffffffffffff1690508073ffffffffffffffffffffffffffffffffffffffff166370a08231306040518263ffffffff1660e01b81526004016108899190612a4e565b60206040518083038186803b1580156108a157600080fd5b505afa1580156108b5573d6000803e3d6000fd5b505050506040513d601f19601f820116820180604052506108d9919081019061222e565b915061090683838373ffffffffffffffffffffffffffffffffffffffff166114019092919063ffffffff16565b61091033856114a0565b5092915050565b606060048054600181600116156101000203166002900480601f0160208091040260200160405190810160405280929190818152602001828054600181600116156101000203166002900480156109af5780601f10610984576101008083540402835291602001916109af565b820191906000526020600020905b81548152906001019060200180831161099257829003601f168201915b5050505050905090565b600080600a60009054906101000a900473ffffffffffffffffffffffffffffffffffffffff1673ffffffffffffffffffffffffffffffffffffffff166356ea84b26006546040518263ffffffff1660e01b8152600401610a199190612cc6565b604080518083038186803b158015610a3057600080fd5b505afa158015610a44573d6000803e3d6000fd5b505050506040513d601f19601f82011682018060405250610a689190810190612293565b9150508091505090565b600080610a7d611642565b9050610ace333085600860009054906101000a900473ffffffffffffffffffffffffffffffffffffffff1673ffffffffffffffffffffffffffffffffffffffff1661173a909392919063ffffffff16565b610ad7836117dc565b610af181610ae3611642565b611a1790919063ffffffff16565b9150610afd3383611a61565b50919050565b6000610bc6610b10610cba565b84610bc185604051806060016040528060258152602001612fd46025913960016000610b3a610cba565b73ffffffffffffffffffffffffffffffffffffffff1673ffffffffffffffffffffffffffffffffffffffff16815260200190815260200160002060008a73ffffffffffffffffffffffffffffffffffffffff1673ffffffffffffffffffffffffffffffffffffffff168152602001908152602001600020546111179092919063ffffffff16565b610cc2565b6001905092915050565b6000610be4610bdd610cba565b8484610e8d565b6001905092915050565b6000610c2c670de0b6b3a7640000610c1e610c076109b9565b610c1086610702565b611be990919063ffffffff16565b611c5990919063ffffffff16565b9050919050565b6000600160008473ffffffffffffffffffffffffffffffffffffffff1673ffffffffffffffffffffffffffffffffffffffff16815260200190815260200160002060008373ffffffffffffffffffffffffffffffffffffffff1673ffffffffffffffffffffffffffffffffffffffff16815260200190815260200160002054905092915050565b600033905090565b600073ffffffffffffffffffffffffffffffffffffffff168373ffffffffffffffffffffffffffffffffffffffff161415610d32576040517f08c379a0000000000000000000000000000000000000000000000000000000008152600401610d2990612c1d565b60405180910390fd5b600073ffffffffffffffffffffffffffffffffffffffff168273ffffffffffffffffffffffffffffffffffffffff161415610da2576040517f08c379a0000000000000000000000000000000000000000000000000000000008152600401610d9990612b5d565b60405180910390fd5b80600160008573ffffffffffffffffffffffffffffffffffffffff1673ffffffffffffffffffffffffffffffffffffffff16815260200190815260200160002060008473ffffffffffffffffffffffffffffffffffffffff1673ffffffffffffffffffffffffffffffffffffffff168152602001908152602001600020819055508173ffffffffffffffffffffffffffffffffffffffff168373ffffffffffffffffffffffffffffffffffffffff167f8c5be1e5ebec7d5bd14f71427d1e84f3dd0314c0f7b2291e5b200ac8c7c3b92583604051610e809190612cc6565b60405180910390a3505050565b600073ffffffffffffffffffffffffffffffffffffffff168373ffffffffffffffffffffffffffffffffffffffff161415610efd576040517f08c379a0000000000000000000000000000000000000000000000000000000008152600401610ef490612bfd565b60405180910390fd5b600073ffffffffffffffffffffffffffffffffffffffff168273ffffffffffffffffffffffffffffffffffffffff161415610f6d576040517f08c379a0000000000000000000000000000000000000000000000000000000008152600401610f6490612b3d565b60405180910390fd5b610fd881604051806060016040528060268152602001612f86602691396000808773ffffffffffffffffffffffffffffffffffffffff1673ffffffffffffffffffffffffffffffffffffffff168152602001908152602001600020546111179092919063ffffffff16565b6000808573ffffffffffffffffffffffffffffffffffffffff1673ffffffffffffffffffffffffffffffffffffffff1681526020019081526020016000208190555061106b816000808573ffffffffffffffffffffffffffffffffffffffff1673ffffffffffffffffffffffffffffffffffffffff1681526020019081526020016000205461117290919063ffffffff16565b6000808473ffffffffffffffffffffffffffffffffffffffff1673ffffffffffffffffffffffffffffffffffffffff168152602001908152602001600020819055508173ffffffffffffffffffffffffffffffffffffffff168373ffffffffffffffffffffffffffffffffffffffff167fddf252ad1be2c89b69c2b068fc378daa952ba7f163c4a11628f55a4df523b3ef8360405161110a9190612cc6565b60405180910390a3505050565b600083831115829061115f576040517f08c379a00000000000000000000000000000000000000000000000000000000081526004016111569190612b1b565b60405180910390fd5b5060008385039050809150509392505050565b6000808284019050838110156111bd576040517f08c379a00000000000000000000000000000000000000000000000000000000081526004016111b490612b7d565b60405180910390fd5b8091505092915050565b6060600160405190808252806020026020018201604052801561120457816020015b6111f1611ec1565b8152602001906001900390816111e95790505b50905060405180604001604052803073ffffffffffffffffffffffffffffffffffffffff16815260200160008152508160008151811061124057fe5b6020026020010181905250611253611ef1565b604051806080016040528060001515815260200160018081111561127357fe5b815260200160008081111561128457fe5b8152602001848152509050611297611f30565b6001816000019060088111156112a957fe5b908160088111156112b657fe5b815250506000816020018181525050818160400181905250600654816060018181525050308160a0019073ffffffffffffffffffffffffffffffffffffffff16908173ffffffffffffffffffffffffffffffffffffffff16815250506060600160405190808252806020026020018201604052801561134f57816020015b61133c611f9c565b8152602001906001900390816113345790505b509050818160008151811061136057fe5b6020026020010181905250600a60009054906101000a900473ffffffffffffffffffffffffffffffffffffffff1673ffffffffffffffffffffffffffffffffffffffff1663a67a6a4585836040518363ffffffff1660e01b81526004016113c8929190612ac9565b600060405180830381600087803b1580156113e257600080fd5b505af11580156113f6573d6000803e3d6000fd5b505050505050505050565b61149b838473ffffffffffffffffffffffffffffffffffffffff1663a9059cbb905060e01b8484604051602401611439929190612aa0565b604051602081830303815290604052907bffffffffffffffffffffffffffffffffffffffffffffffffffffffff19166020820180517bffffffffffffffffffffffffffffffffffffffffffffffffffffffff8381831617835250505050611ca3565b505050565b600073ffffffffffffffffffffffffffffffffffffffff168273ffffffffffffffffffffffffffffffffffffffff161415611510576040517f08c379a000000000000000000000000000000000000000000000000000000000815260040161150790612bdd565b60405180910390fd5b61157b81604051806060016040528060228152602001612f64602291396000808673ffffffffffffffffffffffffffffffffffffffff1673ffffffffffffffffffffffffffffffffffffffff168152602001908152602001600020546111179092919063ffffffff16565b6000808473ffffffffffffffffffffffffffffffffffffffff1673ffffffffffffffffffffffffffffffffffffffff168152602001908152602001600020819055506115d281600254611a1790919063ffffffff16565b600281905550600073ffffffffffffffffffffffffffffffffffffffff168273ffffffffffffffffffffffffffffffffffffffff167fddf252ad1be2c89b69c2b068fc378daa952ba7f163c4a11628f55a4df523b3ef836040516116369190612cc6565b60405180910390a35050565b600080600a60009054906101000a900473ffffffffffffffffffffffffffffffffffffffff1673ffffffffffffffffffffffffffffffffffffffff166347d1b53c60405180604001604052803073ffffffffffffffffffffffffffffffffffffffff16815260200160008152506006546040518363ffffffff1660e01b81526004016116cf929190612c9d565b604080518083038186803b1580156116e657600080fd5b505afa1580156116fa573d6000803e3d6000fd5b505050506040513d601f19601f8201168201806040525061171e91908101906121c9565b915050806fffffffffffffffffffffffffffffffff1691505090565b6117d6848573ffffffffffffffffffffffffffffffffffffffff166323b872dd905060e01b85858560405160240161177493929190612a69565b604051602081830303815290604052907bffffffffffffffffffffffffffffffffffffffffffffffffffffffff19166020820180517bffffffffffffffffffffffffffffffffffffffffffffffffffffffff8381831617835250505050611ca3565b50505050565b6060600160405190808252806020026020018201604052801561181957816020015b611806611ec1565b8152602001906001900390816117fe5790505b50905060405180604001604052803073ffffffffffffffffffffffffffffffffffffffff16815260200160008152508160008151811061185557fe5b6020026020010181905250611868611ef1565b60405180608001604052806001151581526020016000600181111561188957fe5b815260200160008081111561189a57fe5b81526020018481525090506118ad611f30565b6000816000019060088111156118bf57fe5b908160088111156118cc57fe5b815250506000816020018181525050818160400181905250600654816060018181525050308160a0019073ffffffffffffffffffffffffffffffffffffffff16908173ffffffffffffffffffffffffffffffffffffffff16815250506060600160405190808252806020026020018201604052801561196557816020015b611952611f9c565b81526020019060019003908161194a5790505b509050818160008151811061197657fe5b6020026020010181905250600a60009054906101000a900473ffffffffffffffffffffffffffffffffffffffff1673ffffffffffffffffffffffffffffffffffffffff1663a67a6a4585836040518363ffffffff1660e01b81526004016119de929190612ac9565b600060405180830381600087803b1580156119f857600080fd5b505af1158015611a0c573d6000803e3d6000fd5b505050505050505050565b6000611a5983836040518060400160405280601e81526020017f536166654d6174683a207375627472616374696f6e206f766572666c6f770000815250611117565b905092915050565b600073ffffffffffffffffffffffffffffffffffffffff168273ffffffffffffffffffffffffffffffffffffffff161415611ad1576040517f08c379a0000000000000000000000000000000000000000000000000000000008152600401611ac890612c7d565b60405180910390fd5b611ae68160025461117290919063ffffffff16565b600281905550611b3d816000808573ffffffffffffffffffffffffffffffffffffffff1673ffffffffffffffffffffffffffffffffffffffff1681526020019081526020016000205461117290919063ffffffff16565b6000808473ffffffffffffffffffffffffffffffffffffffff1673ffffffffffffffffffffffffffffffffffffffff168152602001908152602001600020819055508173ffffffffffffffffffffffffffffffffffffffff16600073ffffffffffffffffffffffffffffffffffffffff167fddf252ad1be2c89b69c2b068fc378daa952ba7f163c4a11628f55a4df523b3ef83604051611bdd9190612cc6565b60405180910390a35050565b600080831415611bfc5760009050611c53565b6000828402905082848281611c0d57fe5b0414611c4e576040517f08c379a0000000000000000000000000000000000000000000000000000000008152600401611c4590612bbd565b60405180910390fd5b809150505b92915050565b6000611c9b83836040518060400160405280601a81526020017f536166654d6174683a206469766973696f6e206279207a65726f000000000000815250611e15565b905092915050565b611cc28273ffffffffffffffffffffffffffffffffffffffff16611e76565b611d01576040517f08c379a0000000000000000000000000000000000000000000000000000000008152600401611cf890612c5d565b60405180910390fd5b600060608373ffffffffffffffffffffffffffffffffffffffff1683604051611d2a9190612a37565b6000604051808303816000865af19150503d8060008114611d67576040519150601f19603f3d011682016040523d82523d6000602084013e611d6c565b606091505b509150915081611db1576040517f08c379a0000000000000000000000000000000000000000000000000000000008152600401611da890612b9d565b60405180910390fd5b600081511115611e0f5780806020019051611dcf91908101906121a0565b611e0e576040517f08c379a0000000000000000000000000000000000000000000000000000000008152600401611e0590612c3d565b60405180910390fd5b5b50505050565b60008083118290611e5c576040517f08c379a0000000000000000000000000000000000000000000000000000000008152600401611e539190612b1b565b60405180910390fd5b506000838581611e6857fe5b049050809150509392505050565b60008060007fc5d2460186f7233c927e7db2dcc703c0e500b653ca82273b7bfad8045d85a47060001b9050833f9150808214158015611eb857506000801b8214155b92505050919050565b6040518060400160405280600073ffffffffffffffffffffffffffffffffffffffff168152602001600081525090565b604051806080016040528060001515815260200160006001811115611f1257fe5b8152602001600080811115611f2357fe5b8152602001600081525090565b60405180610100016040528060006008811115611f4957fe5b815260200160008152602001611f5d612008565b81526020016000815260200160008152602001600073ffffffffffffffffffffffffffffffffffffffff16815260200160008152602001606081525090565b60405180610100016040528060006008811115611fb557fe5b815260200160008152602001611fc9612008565b81526020016000815260200160008152602001600073ffffffffffffffffffffffffffffffffffffffff16815260200160008152602001606081525090565b60405180608001604052806000151581526020016000600181111561202957fe5b815260200160008081111561203a57fe5b8152602001600081525090565b60008135905061205681612f07565b92915050565b60008151905061206b81612f1e565b92915050565b60008151905061208081612f35565b92915050565b60008135905061209581612f4c565b92915050565b6000815190506120aa81612f4c565b92915050565b6000602082840312156120c257600080fd5b60006120d084828501612047565b91505092915050565b600080604083850312156120ec57600080fd5b60006120fa85828601612047565b925050602061210b85828601612047565b9150509250929050565b60008060006060848603121561212a57600080fd5b600061213886828701612047565b935050602061214986828701612047565b925050604061215a86828701612086565b9150509250925092565b6000806040838503121561217757600080fd5b600061218585828601612047565b925050602061219685828601612086565b9150509250929050565b6000602082840312156121b257600080fd5b60006121c08482850161205c565b91505092915050565b600080604083850312156121dc57600080fd5b60006121ea8582860161205c565b92505060206121fb85828601612071565b9150509250929050565b60006020828403121561221757600080fd5b600061222584828501612086565b91505092915050565b60006020828403121561224057600080fd5b600061224e8482850161209b565b91505092915050565b6000806040838503121561226a57600080fd5b600061227885828601612086565b925050602061228985828601612047565b9150509250929050565b600080604083850312156122a657600080fd5b60006122b48582860161209b565b92505060206122c58582860161209b565b9150509250929050565b60006122db83836128a4565b905092915050565b60006122ef83836129ac565b60408301905092915050565b61230481612dbc565b82525050565b61231381612dbc565b82525050565b600061232482612d1c565b61232e8185612d6d565b93508360208202850161234085612cfc565b8060005b8581101561237c578484038952815161235d85826122cf565b945061236883612d53565b925060208a01995050600181019050612344565b50829750879550505050505092915050565b600061239982612d27565b6123a38185612d7e565b93506123ae83612d0c565b8060005b838110156123df5781516123c688826122e3565b97506123d183612d60565b9250506001810190506123b2565b5085935050505092915050565b6123f581612dce565b82525050565b61240481612dce565b82525050565b600061241582612d3d565b61241f8185612da0565b935061242f818560208601612e9c565b80840191505092915050565b600061244682612d32565b6124508185612d8f565b9350612460818560208601612e9c565b61246981612ecf565b840191505092915050565b61247d81612e66565b82525050565b61248c81612e78565b82525050565b61249b81612e8a565b82525050565b60006124ac82612d48565b6124b68185612dab565b93506124c6818560208601612e9c565b6124cf81612ecf565b840191505092915050565b60006124e7602383612dab565b91507f45524332303a207472616e7366657220746f20746865207a65726f206164647260008301527f65737300000000000000000000000000000000000000000000000000000000006020830152604082019050919050565b600061254d602283612dab565b91507f45524332303a20617070726f766520746f20746865207a65726f20616464726560008301527f73730000000000000000000000000000000000000000000000000000000000006020830152604082019050919050565b60006125b3601b83612dab565b91507f536166654d6174683a206164646974696f6e206f766572666c6f7700000000006000830152602082019050919050565b60006125f3602083612dab565b91507f5361666545524332303a206c6f772d6c6576656c2063616c6c206661696c65646000830152602082019050919050565b6000612633602183612dab565b91507f536166654d6174683a206d756c7469706c69636174696f6e206f766572666c6f60008301527f77000000000000000000000000000000000000000000000000000000000000006020830152604082019050919050565b6000612699602183612dab565b91507f45524332303a206275726e2066726f6d20746865207a65726f2061646472657360008301527f73000000000000000000000000000000000000000000000000000000000000006020830152604082019050919050565b60006126ff602583612dab565b91507f45524332303a207472616e736665722066726f6d20746865207a65726f20616460008301527f64726573730000000000000000000000000000000000000000000000000000006020830152604082019050919050565b6000612765602483612dab565b91507f45524332303a20617070726f76652066726f6d20746865207a65726f2061646460008301527f72657373000000000000000000000000000000000000000000000000000000006020830152604082019050919050565b60006127cb602a83612dab565b91507f5361666545524332303a204552433230206f7065726174696f6e20646964206e60008301527f6f742073756363656564000000000000000000000000000000000000000000006020830152604082019050919050565b6000612831601f83612dab565b91507f5361666545524332303a2063616c6c20746f206e6f6e2d636f6e7472616374006000830152602082019050919050565b6000612871601f83612dab565b91507f45524332303a206d696e7420746f20746865207a65726f2061646472657373006000830152602082019050919050565b6000610160830160008301516128bd6000860182612474565b5060208301516128d06020860182612a0a565b5060408301516128e36040860182612957565b5060608301516128f660c0860182612a0a565b50608083015161290960e0860182612a0a565b5060a083015161291d6101008601826122fb565b5060c0830151612931610120860182612a0a565b5060e083015184820361014086015261294a828261243b565b9150508091505092915050565b60808201600082015161296d60008501826123ec565b5060208201516129806020850182612483565b5060408201516129936040850182612492565b5060608201516129a66060850182612a0a565b50505050565b6040820160008201516129c260008501826122fb565b5060208201516129d56020850182612a0a565b50505050565b6040820160008201516129f160008501826122fb565b506020820151612a046020850182612a0a565b50505050565b612a1381612e4f565b82525050565b612a2281612e4f565b82525050565b612a3181612e59565b82525050565b6000612a43828461240a565b915081905092915050565b6000602082019050612a63600083018461230a565b92915050565b6000606082019050612a7e600083018661230a565b612a8b602083018561230a565b612a986040830184612a19565b949350505050565b6000604082019050612ab5600083018561230a565b612ac26020830184612a19565b9392505050565b60006040820190508181036000830152612ae3818561238e565b90508181036020830152612af78184612319565b90509392505050565b6000602082019050612b1560008301846123fb565b92915050565b60006020820190508181036000830152612b3581846124a1565b905092915050565b60006020820190508181036000830152612b56816124da565b9050919050565b60006020820190508181036000830152612b7681612540565b9050919050565b60006020820190508181036000830152612b96816125a6565b9050919050565b60006020820190508181036000830152612bb6816125e6565b9050919050565b60006020820190508181036000830152612bd681612626565b9050919050565b60006020820190508181036000830152612bf68161268c565b9050919050565b60006020820190508181036000830152612c16816126f2565b9050919050565b60006020820190508181036000830152612c3681612758565b9050919050565b60006020820190508181036000830152612c56816127be565b9050919050565b60006020820190508181036000830152612c7681612824565b9050919050565b60006020820190508181036000830152612c9681612864565b9050919050565b6000606082019050612cb260008301856129db565b612cbf6040830184612a19565b9392505050565b6000602082019050612cdb6000830184612a19565b92915050565b6000602082019050612cf66000830184612a28565b92915050565b6000819050602082019050919050565b6000819050602082019050919050565b600081519050919050565b600081519050919050565b600081519050919050565b600081519050919050565b600081519050919050565b6000602082019050919050565b6000602082019050919050565b600082825260208201905092915050565b600082825260208201905092915050565b600082825260208201905092915050565b600081905092915050565b600082825260208201905092915050565b6000612dc782612e2f565b9050919050565b60008115159050919050565b6000819050612de882612ee0565b919050565b6000819050612dfb82612eed565b919050565b6000819050612e0e82612efa565b919050565b60006fffffffffffffffffffffffffffffffff82169050919050565b600073ffffffffffffffffffffffffffffffffffffffff82169050919050565b6000819050919050565b600060ff82169050919050565b6000612e7182612dda565b9050919050565b6000612e8382612ded565b9050919050565b6000612e9582612e00565b9050919050565b60005b83811015612eba578082015181840152602081019050612e9f565b83811115612ec9576000848401525b50505050565b6000601f19601f8301169050919050565b60098110612eea57fe5b50565b60028110612ef757fe5b50565b60018110612f0457fe5b50565b612f1081612dbc565b8114612f1b57600080fd5b50565b612f2781612dce565b8114612f3257600080fd5b50565b612f3e81612e13565b8114612f4957600080fd5b50565b612f5581612e4f565b8114612f6057600080fd5b5056fe45524332303a206275726e20616d6f756e7420657863656564732062616c616e636545524332303a207472616e7366657220616d6f756e7420657863656564732062616c616e636545524332303a207472616e7366657220616d6f756e74206578636565647320616c6c6f77616e636545524332303a2064656372656173656420616c6c6f77616e63652062656c6f77207a65726fa365627a7a72315820f3e5f44a3f738125f66ee8a6576fd0b5810b03cc1cafcd27332e6165512bc2b36c6578706572696d656e74616cf564736f6c63430005100040",
  "linkReferences": {},
  "deployedLinkReferences": {}
}