{
  "_format": "hh-sol-artifact-1",
  "contractName": "IdleCreamDAI",
  "sourceName": "contracts/wrappers/IdleCreamDAI.sol",
  "abi": [
    {
      "anonymous": false,
      "inputs": [
        {
          "indexed": true,
          "internalType": "address",
          "name": "previousOwner",
          "type": "address"
        },
        {
          "indexed": true,
          "internalType": "address",
          "name": "newOwner",
          "type": "address"
        }
      ],
      "name": "OwnershipTransferred",
      "type": "event"
    },
    {
      "constant": true,
      "inputs": [],
      "name": "availableLiquidity",
      "outputs": [
        {
          "internalType": "uint256",
          "name": "",
          "type": "uint256"
        }
      ],
      "payable": false,
      "stateMutability": "view",
      "type": "function"
    },
    {
      "constant": true,
      "inputs": [],
      "name": "getAPR",
      "outputs": [
        {
          "internalType": "uint256",
          "name": "",
          "type": "uint256"
        }
      ],
      "payable": false,
      "stateMutability": "view",
      "type": "function"
    },
    {
      "constant": true,
      "inputs": [],
      "name": "getPriceInToken",
      "outputs": [
        {
          "internalType": "uint256",
          "name": "",
          "type": "uint256"
        }
      ],
      "payable": false,
      "stateMutability": "view",
      "type": "function"
    },
    {
      "constant": true,
      "inputs": [],
      "name": "idleToken",
      "outputs": [
        {
          "internalType": "address",
          "name": "",
          "type": "address"
        }
      ],
      "payable": false,
      "stateMutability": "view",
      "type": "function"
    },
    {
      "constant": false,
      "inputs": [
        {
          "internalType": "address",
          "name": "_token",
          "type": "address"
        },
        {
          "internalType": "address",
          "name": "_idleToken",
          "type": "address"
        }
      ],
      "name": "initialize",
      "outputs": [],
      "payable": false,
      "stateMutability": "nonpayable",
      "type": "function"
    },
    {
      "constant": true,
      "inputs": [],
      "name": "initialized",
      "outputs": [
        {
          "internalType": "bool",
          "name": "",
          "type": "bool"
        }
      ],
      "payable": false,
      "stateMutability": "view",
      "type": "function"
    },
    {
      "constant": true,
      "inputs": [],
      "name": "isOwner",
      "outputs": [
        {
          "internalType": "bool",
          "name": "",
          "type": "bool"
        }
      ],
      "payable": false,
      "stateMutability": "view",
      "type": "function"
    },
    {
      "constant": false,
      "inputs": [],
      "name": "mint",
      "outputs": [
        {
          "internalType": "uint256",
          "name": "crDAITokens",
          "type": "uint256"
        }
      ],
      "payable": false,
      "stateMutability": "nonpayable",
      "type": "function"
    },
    {
      "constant": true,
      "inputs": [
        {
          "internalType": "uint256",
          "name": "_amount",
          "type": "uint256"
        }
      ],
      "name": "nextSupplyRate",
      "outputs": [
        {
          "internalType": "uint256",
          "name": "",
          "type": "uint256"
        }
      ],
      "payable": false,
      "stateMutability": "view",
      "type": "function"
    },
    {
      "constant": true,
      "inputs": [
        {
          "internalType": "uint256[]",
          "name": "params",
          "type": "uint256[]"
        }
      ],
      "name": "nextSupplyRateWithParams",
      "outputs": [
        {
          "internalType": "uint256",
          "name": "",
          "type": "uint256"
        }
      ],
      "payable": false,
      "stateMutability": "view",
      "type": "function"
    },
    {
      "constant": true,
      "inputs": [],
      "name": "owner",
      "outputs": [
        {
          "internalType": "address",
          "name": "",
          "type": "address"
        }
      ],
      "payable": false,
      "stateMutability": "view",
      "type": "function"
    },
    {
      "constant": false,
      "inputs": [
        {
          "internalType": "address",
          "name": "_account",
          "type": "address"
        }
      ],
      "name": "redeem",
      "outputs": [
        {
          "internalType": "uint256",
          "name": "tokens",
          "type": "uint256"
        }
      ],
      "payable": false,
      "stateMutability": "nonpayable",
      "type": "function"
    },
    {
      "constant": false,
      "inputs": [],
      "name": "renounceOwnership",
      "outputs": [],
      "payable": false,
      "stateMutability": "nonpayable",
      "type": "function"
    },
    {
      "constant": true,
      "inputs": [],
      "name": "token",
      "outputs": [
        {
          "internalType": "address",
          "name": "",
          "type": "address"
        }
      ],
      "payable": false,
      "stateMutability": "view",
      "type": "function"
    },
    {
      "constant": false,
      "inputs": [
        {
          "internalType": "address",
          "name": "newOwner",
          "type": "address"
        }
      ],
      "name": "transferOwnership",
      "outputs": [],
      "payable": false,
      "stateMutability": "nonpayable",
      "type": "function"
    },
    {
      "constant": true,
      "inputs": [],
      "name": "underlying",
      "outputs": [
        {
          "internalType": "address",
          "name": "",
          "type": "address"
        }
      ],
      "payable": false,
      "stateMutability": "view",
      "type": "function"
    }
  ],
  "bytecode": "0x608060405260006100146100b760201b60201c565b9050806000806101000a81548173ffffffffffffffffffffffffffffffffffffffff021916908373ffffffffffffffffffffffffffffffffffffffff1602179055508073ffffffffffffffffffffffffffffffffffffffff16600073ffffffffffffffffffffffffffffffffffffffff167f8be0079c531659141344cd1fd0a4f28419497f9722a3daafe3b4186f6b6457e060405160405180910390a3506100bf565b600033905090565b6125bd806100ce6000396000f3fe608060405234801561001057600080fd5b50600436106101005760003560e01c80638da5cb5b11610097578063c89d5b8b11610066578063c89d5b8b1461027b578063ccdd014914610299578063f2fde38b146102c9578063fc0c546a146102e557610100565b80638da5cb5b146101df5780638f32d59b146101fd57806393fd92191461021b57806395a2251f1461024b57610100565b8063485cc955116100d3578063485cc9551461017d5780636f307dc314610199578063715018a6146101b757806374375359146101c157610100565b806302bbce46146101055780631249c58b14610123578063158ef93e146101415780632dd60c5e1461015f575b600080fd5b61010d610303565b60405161011a91906123d0565b60405180910390f35b61012b61030f565b60405161013891906123d0565b60405180910390f35b61014961060f565b6040516101569190612233565b60405180910390f35b610167610622565b60405161017491906121c6565b60405180910390f35b61019760048036036101929190810190611cc8565b610648565b005b6101a16108d4565b6040516101ae91906121c6565b60405180910390f35b6101bf6108fa565b005b6101c9610a00565b6040516101d691906123d0565b60405180910390f35b6101e7610ad4565b6040516101f491906121c6565b60405180910390f35b610205610afd565b6040516102129190612233565b60405180910390f35b61023560048036036102309190810190611d04565b610b5b565b60405161024291906123d0565b60405180910390f35b61026560048036036102609190810190611c9f565b610dfe565b60405161027291906123d0565b60405180910390f35b6102836110cb565b60405161029091906123d0565b60405180910390f35b6102b360048036036102ae9190810190611d6e565b6110dc565b6040516102c091906123d0565b60405180910390f35b6102e360048036036102de9190810190611c9f565b611431565b005b6102ed611484565b6040516102fa91906121c6565b60405180910390f35b60006305f5e100905090565b6000600360009054906101000a900473ffffffffffffffffffffffffffffffffffffffff1673ffffffffffffffffffffffffffffffffffffffff163373ffffffffffffffffffffffffffffffffffffffff16146103a1576040517f08c379a000000000000000000000000000000000000000000000000000000000815260040161039890612270565b60405180910390fd5b6000600260009054906101000a900473ffffffffffffffffffffffffffffffffffffffff1673ffffffffffffffffffffffffffffffffffffffff166370a08231306040518263ffffffff1660e01b81526004016103fe91906121c6565b60206040518083038186803b15801561041657600080fd5b505afa15801561042a573d6000803e3d6000fd5b505050506040513d601f19601f8201168201806040525061044e9190810190611d97565b90506000811415610462578191505061060c565b600160009054906101000a900473ffffffffffffffffffffffffffffffffffffffff1673ffffffffffffffffffffffffffffffffffffffff1663a0712d68826040518263ffffffff1660e01b81526004016104bd91906123d0565b602060405180830381600087803b1580156104d757600080fd5b505af11580156104eb573d6000803e3d6000fd5b505050506040513d601f19601f8201168201806040525061050f9190810190611d97565b50600160009054906101000a900473ffffffffffffffffffffffffffffffffffffffff1673ffffffffffffffffffffffffffffffffffffffff166370a08231306040518263ffffffff1660e01b815260040161056b91906121c6565b60206040518083038186803b15801561058357600080fd5b505afa158015610597573d6000803e3d6000fd5b505050506040513d601f19601f820116820180604052506105bb9190810190611d97565b915061060a3383600160009054906101000a900473ffffffffffffffffffffffffffffffffffffffff1673ffffffffffffffffffffffffffffffffffffffff166114aa9092919063ffffffff16565b505b90565b600360149054906101000a900460ff1681565b600360009054906101000a900473ffffffffffffffffffffffffffffffffffffffff1681565b600360149054906101000a900460ff1615610698576040517f08c379a000000000000000000000000000000000000000000000000000000000815260040161068f90612350565b60405180910390fd5b600073ffffffffffffffffffffffffffffffffffffffff168273ffffffffffffffffffffffffffffffffffffffff161415610708576040517f08c379a00000000000000000000000000000000000000000000000000000000081526004016106ff90612290565b60405180910390fd5b81600160006101000a81548173ffffffffffffffffffffffffffffffffffffffff021916908373ffffffffffffffffffffffffffffffffffffffff1602179055508173ffffffffffffffffffffffffffffffffffffffff16636f307dc36040518163ffffffff1660e01b815260040160206040518083038186803b15801561078f57600080fd5b505afa1580156107a3573d6000803e3d6000fd5b505050506040513d601f19601f820116820180604052506107c79190810190611d97565b600260006101000a81548173ffffffffffffffffffffffffffffffffffffffff021916908373ffffffffffffffffffffffffffffffffffffffff16021790555080600360006101000a81548173ffffffffffffffffffffffffffffffffffffffff021916908373ffffffffffffffffffffffffffffffffffffffff1602179055506108b5827fffffffffffffffffffffffffffffffffffffffffffffffffffffffffffffffff600260009054906101000a900473ffffffffffffffffffffffffffffffffffffffff1673ffffffffffffffffffffffffffffffffffffffff166115499092919063ffffffff16565b6001600360146101000a81548160ff0219169083151502179055505050565b600260009054906101000a900473ffffffffffffffffffffffffffffffffffffffff1681565b610902610afd565b610941576040517f08c379a000000000000000000000000000000000000000000000000000000000815260040161093890612330565b60405180910390fd5b600073ffffffffffffffffffffffffffffffffffffffff166000809054906101000a900473ffffffffffffffffffffffffffffffffffffffff1673ffffffffffffffffffffffffffffffffffffffff167f8be0079c531659141344cd1fd0a4f28419497f9722a3daafe3b4186f6b6457e060405160405180910390a360008060006101000a81548173ffffffffffffffffffffffffffffffffffffffff021916908373ffffffffffffffffffffffffffffffffffffffff160217905550565b6000600260009054906101000a900473ffffffffffffffffffffffffffffffffffffffff1673ffffffffffffffffffffffffffffffffffffffff166370a08231600160009054906101000a900473ffffffffffffffffffffffffffffffffffffffff166040518263ffffffff1660e01b8152600401610a7f91906121c6565b60206040518083038186803b158015610a9757600080fd5b505afa158015610aab573d6000803e3d6000fd5b505050506040513d601f19601f82011682018060405250610acf9190810190611d97565b905090565b60008060009054906101000a900473ffffffffffffffffffffffffffffffffffffffff16905090565b60008060009054906101000a900473ffffffffffffffffffffffffffffffffffffffff1673ffffffffffffffffffffffffffffffffffffffff16610b3f6116c0565b73ffffffffffffffffffffffffffffffffffffffff1614905090565b600080610b8d83600381518110610b6e57fe5b6020026020010151670de0b6b3a76400006116c890919063ffffffff16565b9050600073014872728e7d8b1c6781f96ecfbd262ea4d2e1a673ffffffffffffffffffffffffffffffffffffffff166315f2405385600081518110610bce57fe5b602002602001015186600181518110610be357fe5b602002602001015187600281518110610bf857fe5b60200260200101516040518463ffffffff1660e01b8152600401610c1e939291906123eb565b60206040518083038186803b158015610c3657600080fd5b505afa158015610c4a573d6000803e3d6000fd5b505050506040513d601f19601f82011682018060405250610c6e9190810190611d97565b90506000610c9f670de0b6b3a7640000610c91858561171290919063ffffffff16565b61178290919063ffffffff16565b90506000610dac670de0b6b3a7640000610d9e8473014872728e7d8b1c6781f96ecfbd262ea4d2e1a673ffffffffffffffffffffffffffffffffffffffff16636e71e2d88b600081518110610cf057fe5b60200260200101518c600181518110610d0557fe5b60200260200101518d600281518110610d1a57fe5b60200260200101516040518463ffffffff1660e01b8152600401610d40939291906123eb565b60206040518083038186803b158015610d5857600080fd5b505afa158015610d6c573d6000803e3d6000fd5b505050506040513d601f19601f82011682018060405250610d909190810190611d97565b61171290919063ffffffff16565b61178290919063ffffffff16565b90506000610def6064610de162201480610dd36305f5e1008761178290919063ffffffff16565b61171290919063ffffffff16565b61171290919063ffffffff16565b90508095505050505050919050565b6000600360009054906101000a900473ffffffffffffffffffffffffffffffffffffffff1673ffffffffffffffffffffffffffffffffffffffff163373ffffffffffffffffffffffffffffffffffffffff1614610e90576040517f08c379a0000000000000000000000000000000000000000000000000000000008152600401610e8790612270565b60405180910390fd5b600160009054906101000a900473ffffffffffffffffffffffffffffffffffffffff1673ffffffffffffffffffffffffffffffffffffffff1663db006a75600160009054906101000a900473ffffffffffffffffffffffffffffffffffffffff1673ffffffffffffffffffffffffffffffffffffffff166370a08231306040518263ffffffff1660e01b8152600401610f2991906121c6565b60206040518083038186803b158015610f4157600080fd5b505afa158015610f55573d6000803e3d6000fd5b505050506040513d601f19601f82011682018060405250610f799190810190611d97565b6040518263ffffffff1660e01b8152600401610f9591906123d0565b602060405180830381600087803b158015610faf57600080fd5b505af1158015610fc3573d6000803e3d6000fd5b505050506040513d601f19601f82011682018060405250610fe79190810190611d97565b506000600260009054906101000a900473ffffffffffffffffffffffffffffffffffffffff1690508073ffffffffffffffffffffffffffffffffffffffff166370a08231306040518263ffffffff1660e01b815260040161104891906121c6565b60206040518083038186803b15801561106057600080fd5b505afa158015611074573d6000803e3d6000fd5b505050506040513d601f19601f820116820180604052506110989190810190611d97565b91506110c583838373ffffffffffffffffffffffffffffffffffffffff166114aa9092919063ffffffff16565b50919050565b60006110d760006110dc565b905090565b600080600160009054906101000a900473ffffffffffffffffffffffffffffffffffffffff1673ffffffffffffffffffffffffffffffffffffffff16633b1d21a26040518163ffffffff1660e01b815260040160206040518083038186803b15801561114757600080fd5b505afa15801561115b573d6000803e3d6000fd5b505050506040513d601f19601f8201168201806040525061117f9190810190611d97565b90506000600160009054906101000a900473ffffffffffffffffffffffffffffffffffffffff1673ffffffffffffffffffffffffffffffffffffffff166347bd37186040518163ffffffff1660e01b815260040160206040518083038186803b1580156111eb57600080fd5b505afa1580156111ff573d6000803e3d6000fd5b505050506040513d601f19601f820116820180604052506112239190810190611d97565b905060006112d985600160009054906101000a900473ffffffffffffffffffffffffffffffffffffffff1673ffffffffffffffffffffffffffffffffffffffff16638f840ddd6040518163ffffffff1660e01b815260040160206040518083038186803b15801561129357600080fd5b505afa1580156112a7573d6000803e3d6000fd5b505050506040513d601f19601f820116820180604052506112cb9190810190611d97565b6117cc90919063ffffffff16565b90506000600160009054906101000a900473ffffffffffffffffffffffffffffffffffffffff1673ffffffffffffffffffffffffffffffffffffffff1663173b99046040518163ffffffff1660e01b815260040160206040518083038186803b15801561134557600080fd5b505afa158015611359573d6000803e3d6000fd5b505050506040513d601f19601f8201168201806040525061137d9190810190611d97565b9050606060046040519080825280602002602001820160405280156113b15781602001602082028038833980820191505090505b50905084816000815181106113c257fe5b60200260200101818152505083816001815181106113dc57fe5b60200260200101818152505082816002815181106113f657fe5b602002602001018181525050818160038151811061141057fe5b60200260200101818152505061142581610b5b565b95505050505050919050565b611439610afd565b611478576040517f08c379a000000000000000000000000000000000000000000000000000000000815260040161146f90612330565b60405180910390fd5b61148181611821565b50565b600160009054906101000a900473ffffffffffffffffffffffffffffffffffffffff1681565b611544838473ffffffffffffffffffffffffffffffffffffffff1663a9059cbb905060e01b84846040516024016114e292919061220a565b604051602081830303815290604052907bffffffffffffffffffffffffffffffffffffffffffffffffffffffff19166020820180517bffffffffffffffffffffffffffffffffffffffffffffffffffffffff838183161783525050505061194f565b505050565b60008114806115e2575060008373ffffffffffffffffffffffffffffffffffffffff1663dd62ed3e30856040518363ffffffff1660e01b81526004016115909291906121e1565b60206040518083038186803b1580156115a857600080fd5b505afa1580156115bc573d6000803e3d6000fd5b505050506040513d601f19601f820116820180604052506115e09190810190611d97565b145b611621576040517f08c379a000000000000000000000000000000000000000000000000000000000815260040161161890612390565b60405180910390fd5b6116bb838473ffffffffffffffffffffffffffffffffffffffff1663095ea7b3905060e01b848460405160240161165992919061220a565b604051602081830303815290604052907bffffffffffffffffffffffffffffffffffffffffffffffffffffffff19166020820180517bffffffffffffffffffffffffffffffffffffffffffffffffffffffff838183161783525050505061194f565b505050565b600033905090565b600061170a83836040518060400160405280601e81526020017f536166654d6174683a207375627472616374696f6e206f766572666c6f770000815250611ac1565b905092915050565b600080831415611725576000905061177c565b600082840290508284828161173657fe5b0414611777576040517f08c379a000000000000000000000000000000000000000000000000000000000815260040161176e90612310565b60405180910390fd5b809150505b92915050565b60006117c483836040518060400160405280601a81526020017f536166654d6174683a206469766973696f6e206279207a65726f000000000000815250611b1c565b905092915050565b600080828401905083811015611817576040517f08c379a000000000000000000000000000000000000000000000000000000000815260040161180e906122d0565b60405180910390fd5b8091505092915050565b600073ffffffffffffffffffffffffffffffffffffffff168173ffffffffffffffffffffffffffffffffffffffff161415611891576040517f08c379a0000000000000000000000000000000000000000000000000000000008152600401611888906122b0565b60405180910390fd5b8073ffffffffffffffffffffffffffffffffffffffff166000809054906101000a900473ffffffffffffffffffffffffffffffffffffffff1673ffffffffffffffffffffffffffffffffffffffff167f8be0079c531659141344cd1fd0a4f28419497f9722a3daafe3b4186f6b6457e060405160405180910390a3806000806101000a81548173ffffffffffffffffffffffffffffffffffffffff021916908373ffffffffffffffffffffffffffffffffffffffff16021790555050565b61196e8273ffffffffffffffffffffffffffffffffffffffff16611b7d565b6119ad576040517f08c379a00000000000000000000000000000000000000000000000000000000081526004016119a4906123b0565b60405180910390fd5b600060608373ffffffffffffffffffffffffffffffffffffffff16836040516119d691906121af565b6000604051808303816000865af19150503d8060008114611a13576040519150601f19603f3d011682016040523d82523d6000602084013e611a18565b606091505b509150915081611a5d576040517f08c379a0000000000000000000000000000000000000000000000000000000008152600401611a54906122f0565b60405180910390fd5b600081511115611abb5780806020019051611a7b9190810190611d45565b611aba576040517f08c379a0000000000000000000000000000000000000000000000000000000008152600401611ab190612370565b60405180910390fd5b5b50505050565b6000838311158290611b09576040517f08c379a0000000000000000000000000000000000000000000000000000000008152600401611b00919061224e565b60405180910390fd5b5060008385039050809150509392505050565b60008083118290611b63576040517f08c379a0000000000000000000000000000000000000000000000000000000008152600401611b5a919061224e565b60405180910390fd5b506000838581611b6f57fe5b049050809150509392505050565b60008060007fc5d2460186f7233c927e7db2dcc703c0e500b653ca82273b7bfad8045d85a47060001b9050833f9150808214158015611bbf57506000801b8214155b92505050919050565b600081359050611bd781612535565b92915050565b600082601f830112611bee57600080fd5b8135611c01611bfc8261244f565b612422565b91508181835260208401935060208101905083856020840282011115611c2657600080fd5b60005b83811015611c565781611c3c8882611c75565b845260208401935060208301925050600181019050611c29565b5050505092915050565b600081519050611c6f8161254c565b92915050565b600081359050611c8481612563565b92915050565b600081519050611c9981612563565b92915050565b600060208284031215611cb157600080fd5b6000611cbf84828501611bc8565b91505092915050565b60008060408385031215611cdb57600080fd5b6000611ce985828601611bc8565b9250506020611cfa85828601611bc8565b9150509250929050565b600060208284031215611d1657600080fd5b600082013567ffffffffffffffff811115611d3057600080fd5b611d3c84828501611bdd565b91505092915050565b600060208284031215611d5757600080fd5b6000611d6584828501611c60565b91505092915050565b600060208284031215611d8057600080fd5b6000611d8e84828501611c75565b91505092915050565b600060208284031215611da957600080fd5b6000611db784828501611c8a565b91505092915050565b611dc9816124a9565b82525050565b611dd8816124bb565b82525050565b6000611de982612477565b611df3818561248d565b9350611e038185602086016124f1565b80840191505092915050565b6000611e1a82612482565b611e248185612498565b9350611e348185602086016124f1565b611e3d81612524565b840191505092915050565b6000611e55602083612498565b91507f4f776e61626c653a2063616c6c6572206973206e6f742049646c65546f6b656e6000830152602082019050919050565b6000611e95601083612498565b91507f63724441493a20616464722069732030000000000000000000000000000000006000830152602082019050919050565b6000611ed5602683612498565b91507f4f776e61626c653a206e6577206f776e657220697320746865207a65726f206160008301527f64647265737300000000000000000000000000000000000000000000000000006020830152604082019050919050565b6000611f3b601b83612498565b91507f536166654d6174683a206164646974696f6e206f766572666c6f7700000000006000830152602082019050919050565b6000611f7b602083612498565b91507f5361666545524332303a206c6f772d6c6576656c2063616c6c206661696c65646000830152602082019050919050565b6000611fbb602183612498565b91507f536166654d6174683a206d756c7469706c69636174696f6e206f766572666c6f60008301527f77000000000000000000000000000000000000000000000000000000000000006020830152604082019050919050565b6000612021602083612498565b91507f4f776e61626c653a2063616c6c6572206973206e6f7420746865206f776e65726000830152602082019050919050565b6000612061601383612498565b91507f416c726561647920696e697469616c697a6564000000000000000000000000006000830152602082019050919050565b60006120a1602a83612498565b91507f5361666545524332303a204552433230206f7065726174696f6e20646964206e60008301527f6f742073756363656564000000000000000000000000000000000000000000006020830152604082019050919050565b6000612107603683612498565b91507f5361666545524332303a20617070726f76652066726f6d206e6f6e2d7a65726f60008301527f20746f206e6f6e2d7a65726f20616c6c6f77616e6365000000000000000000006020830152604082019050919050565b600061216d601f83612498565b91507f5361666545524332303a2063616c6c20746f206e6f6e2d636f6e7472616374006000830152602082019050919050565b6121a9816124e7565b82525050565b60006121bb8284611dde565b915081905092915050565b60006020820190506121db6000830184611dc0565b92915050565b60006040820190506121f66000830185611dc0565b6122036020830184611dc0565b9392505050565b600060408201905061221f6000830185611dc0565b61222c60208301846121a0565b9392505050565b60006020820190506122486000830184611dcf565b92915050565b600060208201905081810360008301526122688184611e0f565b905092915050565b6000602082019050818103600083015261228981611e48565b9050919050565b600060208201905081810360008301526122a981611e88565b9050919050565b600060208201905081810360008301526122c981611ec8565b9050919050565b600060208201905081810360008301526122e981611f2e565b9050919050565b6000602082019050818103600083015261230981611f6e565b9050919050565b6000602082019050818103600083015261232981611fae565b9050919050565b6000602082019050818103600083015261234981612014565b9050919050565b6000602082019050818103600083015261236981612054565b9050919050565b6000602082019050818103600083015261238981612094565b9050919050565b600060208201905081810360008301526123a9816120fa565b9050919050565b600060208201905081810360008301526123c981612160565b9050919050565b60006020820190506123e560008301846121a0565b92915050565b600060608201905061240060008301866121a0565b61240d60208301856121a0565b61241a60408301846121a0565b949350505050565b6000604051905081810181811067ffffffffffffffff8211171561244557600080fd5b8060405250919050565b600067ffffffffffffffff82111561246657600080fd5b602082029050602081019050919050565b600081519050919050565b600081519050919050565b600081905092915050565b600082825260208201905092915050565b60006124b4826124c7565b9050919050565b60008115159050919050565b600073ffffffffffffffffffffffffffffffffffffffff82169050919050565b6000819050919050565b60005b8381101561250f5780820151818401526020810190506124f4565b8381111561251e576000848401525b50505050565b6000601f19601f8301169050919050565b61253e816124a9565b811461254957600080fd5b50565b612555816124bb565b811461256057600080fd5b50565b61256c816124e7565b811461257757600080fd5b5056fea365627a7a7231582039d9fb7b47b06f365fab541723c6daa8d4a8cf1660a6e0545d49fb069084f7f06c6578706572696d656e74616cf564736f6c63430005100040",
  "linkReferences": {},
  "deployedLinkReferences": {}
}