{
  "_format": "hh-sol-artifact-1",
  "contractName": "IdleCreamDAI",
  "sourceName": "contracts/wrappers/IdleCreamDAI.sol",
  "abi": [
    {
      "anonymous": false,
      "inputs": [
        {
          "indexed": true,
          "internalType": "address",
          "name": "previousOwner",
          "type": "address"
        },
        {
          "indexed": true,
          "internalType": "address",
          "name": "newOwner",
          "type": "address"
        }
      ],
      "name": "OwnershipTransferred",
      "type": "event"
    },
    {
      "constant": true,
      "inputs": [],
      "name": "availableLiquidity",
      "outputs": [
        {
          "internalType": "uint256",
          "name": "",
          "type": "uint256"
        }
      ],
      "payable": false,
      "stateMutability": "view",
      "type": "function"
    },
    {
      "constant": true,
      "inputs": [],
      "name": "getAPR",
      "outputs": [
        {
          "internalType": "uint256",
          "name": "",
          "type": "uint256"
        }
      ],
      "payable": false,
      "stateMutability": "view",
      "type": "function"
    },
    {
      "constant": true,
      "inputs": [],
      "name": "getPriceInToken",
      "outputs": [
        {
          "internalType": "uint256",
          "name": "",
          "type": "uint256"
        }
      ],
      "payable": false,
      "stateMutability": "view",
      "type": "function"
    },
    {
      "constant": true,
      "inputs": [],
      "name": "idleToken",
      "outputs": [
        {
          "internalType": "address",
          "name": "",
          "type": "address"
        }
      ],
      "payable": false,
      "stateMutability": "view",
      "type": "function"
    },
    {
      "constant": false,
      "inputs": [
        {
          "internalType": "address",
          "name": "_token",
          "type": "address"
        },
        {
          "internalType": "address",
          "name": "_idleToken",
          "type": "address"
        }
      ],
      "name": "initialize",
      "outputs": [],
      "payable": false,
      "stateMutability": "nonpayable",
      "type": "function"
    },
    {
      "constant": true,
      "inputs": [],
      "name": "initialized",
      "outputs": [
        {
          "internalType": "bool",
          "name": "",
          "type": "bool"
        }
      ],
      "payable": false,
      "stateMutability": "view",
      "type": "function"
    },
    {
      "constant": true,
      "inputs": [],
      "name": "isOwner",
      "outputs": [
        {
          "internalType": "bool",
          "name": "",
          "type": "bool"
        }
      ],
      "payable": false,
      "stateMutability": "view",
      "type": "function"
    },
    {
      "constant": true,
      "inputs": [],
      "name": "jumpRateModelV2",
      "outputs": [
        {
          "internalType": "address",
          "name": "",
          "type": "address"
        }
      ],
      "payable": false,
      "stateMutability": "view",
      "type": "function"
    },
    {
      "constant": false,
      "inputs": [],
      "name": "mint",
      "outputs": [
        {
          "internalType": "uint256",
          "name": "crDAITokens",
          "type": "uint256"
        }
      ],
      "payable": false,
      "stateMutability": "nonpayable",
      "type": "function"
    },
    {
      "constant": true,
      "inputs": [
        {
          "internalType": "uint256",
          "name": "_amount",
          "type": "uint256"
        }
      ],
      "name": "nextSupplyRate",
      "outputs": [
        {
          "internalType": "uint256",
          "name": "",
          "type": "uint256"
        }
      ],
      "payable": false,
      "stateMutability": "view",
      "type": "function"
    },
    {
      "constant": true,
      "inputs": [
        {
          "internalType": "uint256[]",
          "name": "params",
          "type": "uint256[]"
        }
      ],
      "name": "nextSupplyRateWithParams",
      "outputs": [
        {
          "internalType": "uint256",
          "name": "",
          "type": "uint256"
        }
      ],
      "payable": false,
      "stateMutability": "view",
      "type": "function"
    },
    {
      "constant": true,
      "inputs": [],
      "name": "owner",
      "outputs": [
        {
          "internalType": "address",
          "name": "",
          "type": "address"
        }
      ],
      "payable": false,
      "stateMutability": "view",
      "type": "function"
    },
    {
      "constant": false,
      "inputs": [
        {
          "internalType": "address",
          "name": "_account",
          "type": "address"
        }
      ],
      "name": "redeem",
      "outputs": [
        {
          "internalType": "uint256",
          "name": "tokens",
          "type": "uint256"
        }
      ],
      "payable": false,
      "stateMutability": "nonpayable",
      "type": "function"
    },
    {
      "constant": false,
      "inputs": [],
      "name": "renounceOwnership",
      "outputs": [],
      "payable": false,
      "stateMutability": "nonpayable",
      "type": "function"
    },
    {
      "constant": true,
      "inputs": [],
      "name": "token",
      "outputs": [
        {
          "internalType": "address",
          "name": "",
          "type": "address"
        }
      ],
      "payable": false,
      "stateMutability": "view",
      "type": "function"
    },
    {
      "constant": false,
      "inputs": [
        {
          "internalType": "address",
          "name": "newOwner",
          "type": "address"
        }
      ],
      "name": "transferOwnership",
      "outputs": [],
      "payable": false,
      "stateMutability": "nonpayable",
      "type": "function"
    },
    {
      "constant": true,
      "inputs": [],
      "name": "underlying",
      "outputs": [
        {
          "internalType": "address",
          "name": "",
          "type": "address"
        }
      ],
      "payable": false,
      "stateMutability": "view",
      "type": "function"
    }
  ],
  "bytecode": "0x608060405273014872728e7d8b1c6781f96ecfbd262ea4d2e1a6600460006101000a81548173ffffffffffffffffffffffffffffffffffffffff021916908373ffffffffffffffffffffffffffffffffffffffff16021790555062201480600555600061007061011360201b60201c565b9050806000806101000a81548173ffffffffffffffffffffffffffffffffffffffff021916908373ffffffffffffffffffffffffffffffffffffffff1602179055508073ffffffffffffffffffffffffffffffffffffffff16600073ffffffffffffffffffffffffffffffffffffffff167f8be0079c531659141344cd1fd0a4f28419497f9722a3daafe3b4186f6b6457e060405160405180910390a35061011b565b600033905090565b6126c28061012a6000396000f3fe608060405234801561001057600080fd5b506004361061010b5760003560e01c806374375359116100a257806395a2251f1161007157806395a2251f14610274578063c89d5b8b146102a4578063ccdd0149146102c2578063f2fde38b146102f2578063fc0c546a1461030e5761010b565b806374375359146101ea5780638da5cb5b146102085780638f32d59b1461022657806393fd9219146102445761010b565b8063485cc955116100de578063485cc9551461018857806369c772e4146101a45780636f307dc3146101c2578063715018a6146101e05761010b565b806302bbce46146101105780631249c58b1461012e578063158ef93e1461014c5780632dd60c5e1461016a575b600080fd5b61011861032c565b60405161012591906124d5565b60405180910390f35b6101366103d3565b60405161014391906124d5565b60405180910390f35b6101546106d3565b6040516101619190612338565b60405180910390f35b6101726106e6565b60405161017f91906122cb565b60405180910390f35b6101a2600480360361019d9190810190611dcd565b61070c565b005b6101ac610998565b6040516101b991906122cb565b60405180910390f35b6101ca6109be565b6040516101d791906122cb565b60405180910390f35b6101e86109e4565b005b6101f2610aea565b6040516101ff91906124d5565b60405180910390f35b610210610bbe565b60405161021d91906122cb565b60405180910390f35b61022e610be7565b60405161023b9190612338565b60405180910390f35b61025e60048036036102599190810190611e09565b610c45565b60405161026b91906124d5565b60405180910390f35b61028e60048036036102899190810190611da4565b610f03565b60405161029b91906124d5565b60405180910390f35b6102ac6111d0565b6040516102b991906124d5565b60405180910390f35b6102dc60048036036102d79190810190611e73565b6111e1565b6040516102e991906124d5565b60405180910390f35b61030c60048036036103079190810190611da4565b611536565b005b610316611589565b60405161032391906122cb565b60405180910390f35b6000600160009054906101000a900473ffffffffffffffffffffffffffffffffffffffff1673ffffffffffffffffffffffffffffffffffffffff1663182df0f56040518163ffffffff1660e01b815260040160206040518083038186803b15801561039657600080fd5b505afa1580156103aa573d6000803e3d6000fd5b505050506040513d601f19601f820116820180604052506103ce9190810190611e9c565b905090565b6000600360009054906101000a900473ffffffffffffffffffffffffffffffffffffffff1673ffffffffffffffffffffffffffffffffffffffff163373ffffffffffffffffffffffffffffffffffffffff1614610465576040517f08c379a000000000000000000000000000000000000000000000000000000000815260040161045c90612375565b60405180910390fd5b6000600260009054906101000a900473ffffffffffffffffffffffffffffffffffffffff1673ffffffffffffffffffffffffffffffffffffffff166370a08231306040518263ffffffff1660e01b81526004016104c291906122cb565b60206040518083038186803b1580156104da57600080fd5b505afa1580156104ee573d6000803e3d6000fd5b505050506040513d601f19601f820116820180604052506105129190810190611e9c565b9050600081141561052657819150506106d0565b600160009054906101000a900473ffffffffffffffffffffffffffffffffffffffff1673ffffffffffffffffffffffffffffffffffffffff1663a0712d68826040518263ffffffff1660e01b815260040161058191906124d5565b602060405180830381600087803b15801561059b57600080fd5b505af11580156105af573d6000803e3d6000fd5b505050506040513d601f19601f820116820180604052506105d39190810190611e9c565b50600160009054906101000a900473ffffffffffffffffffffffffffffffffffffffff1673ffffffffffffffffffffffffffffffffffffffff166370a08231306040518263ffffffff1660e01b815260040161062f91906122cb565b60206040518083038186803b15801561064757600080fd5b505afa15801561065b573d6000803e3d6000fd5b505050506040513d601f19601f8201168201806040525061067f9190810190611e9c565b91506106ce3383600160009054906101000a900473ffffffffffffffffffffffffffffffffffffffff1673ffffffffffffffffffffffffffffffffffffffff166115af9092919063ffffffff16565b505b90565b600360149054906101000a900460ff1681565b600360009054906101000a900473ffffffffffffffffffffffffffffffffffffffff1681565b600360149054906101000a900460ff161561075c576040517f08c379a000000000000000000000000000000000000000000000000000000000815260040161075390612455565b60405180910390fd5b600073ffffffffffffffffffffffffffffffffffffffff168273ffffffffffffffffffffffffffffffffffffffff1614156107cc576040517f08c379a00000000000000000000000000000000000000000000000000000000081526004016107c390612395565b60405180910390fd5b81600160006101000a81548173ffffffffffffffffffffffffffffffffffffffff021916908373ffffffffffffffffffffffffffffffffffffffff1602179055508173ffffffffffffffffffffffffffffffffffffffff16636f307dc36040518163ffffffff1660e01b815260040160206040518083038186803b15801561085357600080fd5b505afa158015610867573d6000803e3d6000fd5b505050506040513d601f19601f8201168201806040525061088b9190810190611e9c565b600260006101000a81548173ffffffffffffffffffffffffffffffffffffffff021916908373ffffffffffffffffffffffffffffffffffffffff16021790555080600360006101000a81548173ffffffffffffffffffffffffffffffffffffffff021916908373ffffffffffffffffffffffffffffffffffffffff160217905550610979827fffffffffffffffffffffffffffffffffffffffffffffffffffffffffffffffff600260009054906101000a900473ffffffffffffffffffffffffffffffffffffffff1673ffffffffffffffffffffffffffffffffffffffff1661164e9092919063ffffffff16565b6001600360146101000a81548160ff0219169083151502179055505050565b600460009054906101000a900473ffffffffffffffffffffffffffffffffffffffff1681565b600260009054906101000a900473ffffffffffffffffffffffffffffffffffffffff1681565b6109ec610be7565b610a2b576040517f08c379a0000000000000000000000000000000000000000000000000000000008152600401610a2290612435565b60405180910390fd5b600073ffffffffffffffffffffffffffffffffffffffff166000809054906101000a900473ffffffffffffffffffffffffffffffffffffffff1673ffffffffffffffffffffffffffffffffffffffff167f8be0079c531659141344cd1fd0a4f28419497f9722a3daafe3b4186f6b6457e060405160405180910390a360008060006101000a81548173ffffffffffffffffffffffffffffffffffffffff021916908373ffffffffffffffffffffffffffffffffffffffff160217905550565b6000600260009054906101000a900473ffffffffffffffffffffffffffffffffffffffff1673ffffffffffffffffffffffffffffffffffffffff166370a08231600160009054906101000a900473ffffffffffffffffffffffffffffffffffffffff166040518263ffffffff1660e01b8152600401610b6991906122cb565b60206040518083038186803b158015610b8157600080fd5b505afa158015610b95573d6000803e3d6000fd5b505050506040513d601f19601f82011682018060405250610bb99190810190611e9c565b905090565b60008060009054906101000a900473ffffffffffffffffffffffffffffffffffffffff16905090565b60008060009054906101000a900473ffffffffffffffffffffffffffffffffffffffff1673ffffffffffffffffffffffffffffffffffffffff16610c296117c5565b73ffffffffffffffffffffffffffffffffffffffff1614905090565b600080610c7783600381518110610c5857fe5b6020026020010151670de0b6b3a76400006117cd90919063ffffffff16565b90506000600460009054906101000a900473ffffffffffffffffffffffffffffffffffffffff1673ffffffffffffffffffffffffffffffffffffffff166315f2405385600081518110610cc657fe5b602002602001015186600181518110610cdb57fe5b602002602001015187600281518110610cf057fe5b60200260200101516040518463ffffffff1660e01b8152600401610d16939291906124f0565b60206040518083038186803b158015610d2e57600080fd5b505afa158015610d42573d6000803e3d6000fd5b505050506040513d601f19601f82011682018060405250610d669190810190611e9c565b90506000610d97670de0b6b3a7640000610d89858561181790919063ffffffff16565b61188790919063ffffffff16565b90506000610eb2670de0b6b3a7640000610ea484600460009054906101000a900473ffffffffffffffffffffffffffffffffffffffff1673ffffffffffffffffffffffffffffffffffffffff16636e71e2d88b600081518110610df657fe5b60200260200101518c600181518110610e0b57fe5b60200260200101518d600281518110610e2057fe5b60200260200101516040518463ffffffff1660e01b8152600401610e46939291906124f0565b60206040518083038186803b158015610e5e57600080fd5b505afa158015610e72573d6000803e3d6000fd5b505050506040513d601f19601f82011682018060405250610e969190810190611e9c565b61181790919063ffffffff16565b61188790919063ffffffff16565b90506000610ef46064610ee6600554610ed86305f5e1008761188790919063ffffffff16565b61181790919063ffffffff16565b61181790919063ffffffff16565b90508095505050505050919050565b6000600360009054906101000a900473ffffffffffffffffffffffffffffffffffffffff1673ffffffffffffffffffffffffffffffffffffffff163373ffffffffffffffffffffffffffffffffffffffff1614610f95576040517f08c379a0000000000000000000000000000000000000000000000000000000008152600401610f8c90612375565b60405180910390fd5b600160009054906101000a900473ffffffffffffffffffffffffffffffffffffffff1673ffffffffffffffffffffffffffffffffffffffff1663db006a75600160009054906101000a900473ffffffffffffffffffffffffffffffffffffffff1673ffffffffffffffffffffffffffffffffffffffff166370a08231306040518263ffffffff1660e01b815260040161102e91906122cb565b60206040518083038186803b15801561104657600080fd5b505afa15801561105a573d6000803e3d6000fd5b505050506040513d601f19601f8201168201806040525061107e9190810190611e9c565b6040518263ffffffff1660e01b815260040161109a91906124d5565b602060405180830381600087803b1580156110b457600080fd5b505af11580156110c8573d6000803e3d6000fd5b505050506040513d601f19601f820116820180604052506110ec9190810190611e9c565b506000600260009054906101000a900473ffffffffffffffffffffffffffffffffffffffff1690508073ffffffffffffffffffffffffffffffffffffffff166370a08231306040518263ffffffff1660e01b815260040161114d91906122cb565b60206040518083038186803b15801561116557600080fd5b505afa158015611179573d6000803e3d6000fd5b505050506040513d601f19601f8201168201806040525061119d9190810190611e9c565b91506111ca83838373ffffffffffffffffffffffffffffffffffffffff166115af9092919063ffffffff16565b50919050565b60006111dc60006111e1565b905090565b600080600160009054906101000a900473ffffffffffffffffffffffffffffffffffffffff1673ffffffffffffffffffffffffffffffffffffffff16633b1d21a26040518163ffffffff1660e01b815260040160206040518083038186803b15801561124c57600080fd5b505afa158015611260573d6000803e3d6000fd5b505050506040513d601f19601f820116820180604052506112849190810190611e9c565b90506000600160009054906101000a900473ffffffffffffffffffffffffffffffffffffffff1673ffffffffffffffffffffffffffffffffffffffff166347bd37186040518163ffffffff1660e01b815260040160206040518083038186803b1580156112f057600080fd5b505afa158015611304573d6000803e3d6000fd5b505050506040513d601f19601f820116820180604052506113289190810190611e9c565b905060006113de85600160009054906101000a900473ffffffffffffffffffffffffffffffffffffffff1673ffffffffffffffffffffffffffffffffffffffff16638f840ddd6040518163ffffffff1660e01b815260040160206040518083038186803b15801561139857600080fd5b505afa1580156113ac573d6000803e3d6000fd5b505050506040513d601f19601f820116820180604052506113d09190810190611e9c565b6118d190919063ffffffff16565b90506000600160009054906101000a900473ffffffffffffffffffffffffffffffffffffffff1673ffffffffffffffffffffffffffffffffffffffff1663173b99046040518163ffffffff1660e01b815260040160206040518083038186803b15801561144a57600080fd5b505afa15801561145e573d6000803e3d6000fd5b505050506040513d601f19601f820116820180604052506114829190810190611e9c565b9050606060046040519080825280602002602001820160405280156114b65781602001602082028038833980820191505090505b50905084816000815181106114c757fe5b60200260200101818152505083816001815181106114e157fe5b60200260200101818152505082816002815181106114fb57fe5b602002602001018181525050818160038151811061151557fe5b60200260200101818152505061152a81610c45565b95505050505050919050565b61153e610be7565b61157d576040517f08c379a000000000000000000000000000000000000000000000000000000000815260040161157490612435565b60405180910390fd5b61158681611926565b50565b600160009054906101000a900473ffffffffffffffffffffffffffffffffffffffff1681565b611649838473ffffffffffffffffffffffffffffffffffffffff1663a9059cbb905060e01b84846040516024016115e792919061230f565b604051602081830303815290604052907bffffffffffffffffffffffffffffffffffffffffffffffffffffffff19166020820180517bffffffffffffffffffffffffffffffffffffffffffffffffffffffff8381831617835250505050611a54565b505050565b60008114806116e7575060008373ffffffffffffffffffffffffffffffffffffffff1663dd62ed3e30856040518363ffffffff1660e01b81526004016116959291906122e6565b60206040518083038186803b1580156116ad57600080fd5b505afa1580156116c1573d6000803e3d6000fd5b505050506040513d601f19601f820116820180604052506116e59190810190611e9c565b145b611726576040517f08c379a000000000000000000000000000000000000000000000000000000000815260040161171d90612495565b60405180910390fd5b6117c0838473ffffffffffffffffffffffffffffffffffffffff1663095ea7b3905060e01b848460405160240161175e92919061230f565b604051602081830303815290604052907bffffffffffffffffffffffffffffffffffffffffffffffffffffffff19166020820180517bffffffffffffffffffffffffffffffffffffffffffffffffffffffff8381831617835250505050611a54565b505050565b600033905090565b600061180f83836040518060400160405280601e81526020017f536166654d6174683a207375627472616374696f6e206f766572666c6f770000815250611bc6565b905092915050565b60008083141561182a5760009050611881565b600082840290508284828161183b57fe5b041461187c576040517f08c379a000000000000000000000000000000000000000000000000000000000815260040161187390612415565b60405180910390fd5b809150505b92915050565b60006118c983836040518060400160405280601a81526020017f536166654d6174683a206469766973696f6e206279207a65726f000000000000815250611c21565b905092915050565b60008082840190508381101561191c576040517f08c379a0000000000000000000000000000000000000000000000000000000008152600401611913906123d5565b60405180910390fd5b8091505092915050565b600073ffffffffffffffffffffffffffffffffffffffff168173ffffffffffffffffffffffffffffffffffffffff161415611996576040517f08c379a000000000000000000000000000000000000000000000000000000000815260040161198d906123b5565b60405180910390fd5b8073ffffffffffffffffffffffffffffffffffffffff166000809054906101000a900473ffffffffffffffffffffffffffffffffffffffff1673ffffffffffffffffffffffffffffffffffffffff167f8be0079c531659141344cd1fd0a4f28419497f9722a3daafe3b4186f6b6457e060405160405180910390a3806000806101000a81548173ffffffffffffffffffffffffffffffffffffffff021916908373ffffffffffffffffffffffffffffffffffffffff16021790555050565b611a738273ffffffffffffffffffffffffffffffffffffffff16611c82565b611ab2576040517f08c379a0000000000000000000000000000000000000000000000000000000008152600401611aa9906124b5565b60405180910390fd5b600060608373ffffffffffffffffffffffffffffffffffffffff1683604051611adb91906122b4565b6000604051808303816000865af19150503d8060008114611b18576040519150601f19603f3d011682016040523d82523d6000602084013e611b1d565b606091505b509150915081611b62576040517f08c379a0000000000000000000000000000000000000000000000000000000008152600401611b59906123f5565b60405180910390fd5b600081511115611bc05780806020019051611b809190810190611e4a565b611bbf576040517f08c379a0000000000000000000000000000000000000000000000000000000008152600401611bb690612475565b60405180910390fd5b5b50505050565b6000838311158290611c0e576040517f08c379a0000000000000000000000000000000000000000000000000000000008152600401611c059190612353565b60405180910390fd5b5060008385039050809150509392505050565b60008083118290611c68576040517f08c379a0000000000000000000000000000000000000000000000000000000008152600401611c5f9190612353565b60405180910390fd5b506000838581611c7457fe5b049050809150509392505050565b60008060007fc5d2460186f7233c927e7db2dcc703c0e500b653ca82273b7bfad8045d85a47060001b9050833f9150808214158015611cc457506000801b8214155b92505050919050565b600081359050611cdc8161263a565b92915050565b600082601f830112611cf357600080fd5b8135611d06611d0182612554565b612527565b91508181835260208401935060208101905083856020840282011115611d2b57600080fd5b60005b83811015611d5b5781611d418882611d7a565b845260208401935060208301925050600181019050611d2e565b5050505092915050565b600081519050611d7481612651565b92915050565b600081359050611d8981612668565b92915050565b600081519050611d9e81612668565b92915050565b600060208284031215611db657600080fd5b6000611dc484828501611ccd565b91505092915050565b60008060408385031215611de057600080fd5b6000611dee85828601611ccd565b9250506020611dff85828601611ccd565b9150509250929050565b600060208284031215611e1b57600080fd5b600082013567ffffffffffffffff811115611e3557600080fd5b611e4184828501611ce2565b91505092915050565b600060208284031215611e5c57600080fd5b6000611e6a84828501611d65565b91505092915050565b600060208284031215611e8557600080fd5b6000611e9384828501611d7a565b91505092915050565b600060208284031215611eae57600080fd5b6000611ebc84828501611d8f565b91505092915050565b611ece816125ae565b82525050565b611edd816125c0565b82525050565b6000611eee8261257c565b611ef88185612592565b9350611f088185602086016125f6565b80840191505092915050565b6000611f1f82612587565b611f29818561259d565b9350611f398185602086016125f6565b611f4281612629565b840191505092915050565b6000611f5a60208361259d565b91507f4f776e61626c653a2063616c6c6572206973206e6f742049646c65546f6b656e6000830152602082019050919050565b6000611f9a60108361259d565b91507f63724441493a20616464722069732030000000000000000000000000000000006000830152602082019050919050565b6000611fda60268361259d565b91507f4f776e61626c653a206e6577206f776e657220697320746865207a65726f206160008301527f64647265737300000000000000000000000000000000000000000000000000006020830152604082019050919050565b6000612040601b8361259d565b91507f536166654d6174683a206164646974696f6e206f766572666c6f7700000000006000830152602082019050919050565b600061208060208361259d565b91507f5361666545524332303a206c6f772d6c6576656c2063616c6c206661696c65646000830152602082019050919050565b60006120c060218361259d565b91507f536166654d6174683a206d756c7469706c69636174696f6e206f766572666c6f60008301527f77000000000000000000000000000000000000000000000000000000000000006020830152604082019050919050565b600061212660208361259d565b91507f4f776e61626c653a2063616c6c6572206973206e6f7420746865206f776e65726000830152602082019050919050565b600061216660138361259d565b91507f416c726561647920696e697469616c697a6564000000000000000000000000006000830152602082019050919050565b60006121a6602a8361259d565b91507f5361666545524332303a204552433230206f7065726174696f6e20646964206e60008301527f6f742073756363656564000000000000000000000000000000000000000000006020830152604082019050919050565b600061220c60368361259d565b91507f5361666545524332303a20617070726f76652066726f6d206e6f6e2d7a65726f60008301527f20746f206e6f6e2d7a65726f20616c6c6f77616e6365000000000000000000006020830152604082019050919050565b6000612272601f8361259d565b91507f5361666545524332303a2063616c6c20746f206e6f6e2d636f6e7472616374006000830152602082019050919050565b6122ae816125ec565b82525050565b60006122c08284611ee3565b915081905092915050565b60006020820190506122e06000830184611ec5565b92915050565b60006040820190506122fb6000830185611ec5565b6123086020830184611ec5565b9392505050565b60006040820190506123246000830185611ec5565b61233160208301846122a5565b9392505050565b600060208201905061234d6000830184611ed4565b92915050565b6000602082019050818103600083015261236d8184611f14565b905092915050565b6000602082019050818103600083015261238e81611f4d565b9050919050565b600060208201905081810360008301526123ae81611f8d565b9050919050565b600060208201905081810360008301526123ce81611fcd565b9050919050565b600060208201905081810360008301526123ee81612033565b9050919050565b6000602082019050818103600083015261240e81612073565b9050919050565b6000602082019050818103600083015261242e816120b3565b9050919050565b6000602082019050818103600083015261244e81612119565b9050919050565b6000602082019050818103600083015261246e81612159565b9050919050565b6000602082019050818103600083015261248e81612199565b9050919050565b600060208201905081810360008301526124ae816121ff565b9050919050565b600060208201905081810360008301526124ce81612265565b9050919050565b60006020820190506124ea60008301846122a5565b92915050565b600060608201905061250560008301866122a5565b61251260208301856122a5565b61251f60408301846122a5565b949350505050565b6000604051905081810181811067ffffffffffffffff8211171561254a57600080fd5b8060405250919050565b600067ffffffffffffffff82111561256b57600080fd5b602082029050602081019050919050565b600081519050919050565b600081519050919050565b600081905092915050565b600082825260208201905092915050565b60006125b9826125cc565b9050919050565b60008115159050919050565b600073ffffffffffffffffffffffffffffffffffffffff82169050919050565b6000819050919050565b60005b838110156126145780820151818401526020810190506125f9565b83811115612623576000848401525b50505050565b6000601f19601f8301169050919050565b612643816125ae565b811461264e57600080fd5b50565b61265a816125c0565b811461266557600080fd5b50565b612671816125ec565b811461267c57600080fd5b5056fea365627a7a72315820b9bb370c7fdaf60b9370174d7e4754393e99f75653d8470fba5a1b50125b45236c6578706572696d656e74616cf564736f6c63430005100040",
  "linkReferences": {},
  "deployedLinkReferences": {}
}