{
  "_format": "hh-sol-artifact-1",
  "contractName": "IdleCreamDAI",
  "sourceName": "contracts/wrappers/IdleCreamDAI.sol",
  "abi": [
    {
      "anonymous": false,
      "inputs": [
        {
          "indexed": true,
          "internalType": "address",
          "name": "previousOwner",
          "type": "address"
        },
        {
          "indexed": true,
          "internalType": "address",
          "name": "newOwner",
          "type": "address"
        }
      ],
      "name": "OwnershipTransferred",
      "type": "event"
    },
    {
      "constant": true,
      "inputs": [],
      "name": "availableLiquidity",
      "outputs": [
        {
          "internalType": "uint256",
          "name": "",
          "type": "uint256"
        }
      ],
      "payable": false,
      "stateMutability": "view",
      "type": "function"
    },
    {
      "constant": true,
      "inputs": [],
      "name": "getAPR",
      "outputs": [
        {
          "internalType": "uint256",
          "name": "",
          "type": "uint256"
        }
      ],
      "payable": false,
      "stateMutability": "view",
      "type": "function"
    },
    {
      "constant": true,
      "inputs": [],
      "name": "getPriceInToken",
      "outputs": [
        {
          "internalType": "uint256",
          "name": "",
          "type": "uint256"
        }
      ],
      "payable": false,
      "stateMutability": "view",
      "type": "function"
    },
    {
      "constant": true,
      "inputs": [],
      "name": "idleToken",
      "outputs": [
        {
          "internalType": "address",
          "name": "",
          "type": "address"
        }
      ],
      "payable": false,
      "stateMutability": "view",
      "type": "function"
    },
    {
      "constant": false,
      "inputs": [
        {
          "internalType": "address",
          "name": "_token",
          "type": "address"
        },
        {
          "internalType": "address",
          "name": "_idleToken",
          "type": "address"
        }
      ],
      "name": "initialize",
      "outputs": [],
      "payable": false,
      "stateMutability": "nonpayable",
      "type": "function"
    },
    {
      "constant": true,
      "inputs": [],
      "name": "initialized",
      "outputs": [
        {
          "internalType": "bool",
          "name": "",
          "type": "bool"
        }
      ],
      "payable": false,
      "stateMutability": "view",
      "type": "function"
    },
    {
      "constant": true,
      "inputs": [],
      "name": "isOwner",
      "outputs": [
        {
          "internalType": "bool",
          "name": "",
          "type": "bool"
        }
      ],
      "payable": false,
      "stateMutability": "view",
      "type": "function"
    },
    {
      "constant": false,
      "inputs": [],
      "name": "mint",
      "outputs": [
        {
          "internalType": "uint256",
          "name": "crDAITokens",
          "type": "uint256"
        }
      ],
      "payable": false,
      "stateMutability": "nonpayable",
      "type": "function"
    },
    {
      "constant": true,
      "inputs": [
        {
          "internalType": "uint256",
          "name": "_amount",
          "type": "uint256"
        }
      ],
      "name": "nextSupplyRate",
      "outputs": [
        {
          "internalType": "uint256",
          "name": "",
          "type": "uint256"
        }
      ],
      "payable": false,
      "stateMutability": "view",
      "type": "function"
    },
    {
      "constant": true,
      "inputs": [
        {
          "internalType": "uint256[]",
          "name": "params",
          "type": "uint256[]"
        }
      ],
      "name": "nextSupplyRateWithParams",
      "outputs": [
        {
          "internalType": "uint256",
          "name": "",
          "type": "uint256"
        }
      ],
      "payable": false,
      "stateMutability": "view",
      "type": "function"
    },
    {
      "constant": true,
      "inputs": [],
      "name": "owner",
      "outputs": [
        {
          "internalType": "address",
          "name": "",
          "type": "address"
        }
      ],
      "payable": false,
      "stateMutability": "view",
      "type": "function"
    },
    {
      "constant": false,
      "inputs": [
        {
          "internalType": "address",
          "name": "_account",
          "type": "address"
        }
      ],
      "name": "redeem",
      "outputs": [
        {
          "internalType": "uint256",
          "name": "tokens",
          "type": "uint256"
        }
      ],
      "payable": false,
      "stateMutability": "nonpayable",
      "type": "function"
    },
    {
      "constant": false,
      "inputs": [],
      "name": "renounceOwnership",
      "outputs": [],
      "payable": false,
      "stateMutability": "nonpayable",
      "type": "function"
    },
    {
      "constant": true,
      "inputs": [],
      "name": "token",
      "outputs": [
        {
          "internalType": "address",
          "name": "",
          "type": "address"
        }
      ],
      "payable": false,
      "stateMutability": "view",
      "type": "function"
    },
    {
      "constant": false,
      "inputs": [
        {
          "internalType": "address",
          "name": "newOwner",
          "type": "address"
        }
      ],
      "name": "transferOwnership",
      "outputs": [],
      "payable": false,
      "stateMutability": "nonpayable",
      "type": "function"
    },
    {
      "constant": true,
      "inputs": [],
      "name": "underlying",
      "outputs": [
        {
          "internalType": "address",
          "name": "",
          "type": "address"
        }
      ],
      "payable": false,
      "stateMutability": "view",
      "type": "function"
    }
  ],
  "bytecode": "0x608060405260006100146100b760201b60201c565b9050806000806101000a81548173ffffffffffffffffffffffffffffffffffffffff021916908373ffffffffffffffffffffffffffffffffffffffff1602179055508073ffffffffffffffffffffffffffffffffffffffff16600073ffffffffffffffffffffffffffffffffffffffff167f8be0079c531659141344cd1fd0a4f28419497f9722a3daafe3b4186f6b6457e060405160405180910390a3506100bf565b600033905090565b6125b8806100ce6000396000f3fe608060405234801561001057600080fd5b50600436106101005760003560e01c80638da5cb5b11610097578063c89d5b8b11610066578063c89d5b8b1461027b578063ccdd014914610299578063f2fde38b146102c9578063fc0c546a146102e557610100565b80638da5cb5b146101df5780638f32d59b146101fd57806393fd92191461021b57806395a2251f1461024b57610100565b8063485cc955116100d3578063485cc9551461017d5780636f307dc314610199578063715018a6146101b757806374375359146101c157610100565b806302bbce46146101055780631249c58b14610123578063158ef93e146101415780632dd60c5e1461015f575b600080fd5b61010d610303565b60405161011a91906123cb565b60405180910390f35b61012b610313565b60405161013891906123cb565b60405180910390f35b610149610613565b604051610156919061222e565b60405180910390f35b610167610626565b60405161017491906121c1565b60405180910390f35b61019760048036036101929190810190611cc3565b61064c565b005b6101a16108d8565b6040516101ae91906121c1565b60405180910390f35b6101bf6108fe565b005b6101c9610a04565b6040516101d691906123cb565b60405180910390f35b6101e7610ad8565b6040516101f491906121c1565b60405180910390f35b610205610b01565b604051610212919061222e565b60405180910390f35b61023560048036036102309190810190611cff565b610b5f565b60405161024291906123cb565b60405180910390f35b61026560048036036102609190810190611c9a565b610e02565b60405161027291906123cb565b60405180910390f35b6102836110cf565b60405161029091906123cb565b60405180910390f35b6102b360048036036102ae9190810190611d69565b6110d7565b6040516102c091906123cb565b60405180910390f35b6102e360048036036102de9190810190611c9a565b61142c565b005b6102ed61147f565b6040516102fa91906121c1565b60405180910390f35b6000670de0b6b3a7640000905090565b6000600360009054906101000a900473ffffffffffffffffffffffffffffffffffffffff1673ffffffffffffffffffffffffffffffffffffffff163373ffffffffffffffffffffffffffffffffffffffff16146103a5576040517f08c379a000000000000000000000000000000000000000000000000000000000815260040161039c9061226b565b60405180910390fd5b6000600260009054906101000a900473ffffffffffffffffffffffffffffffffffffffff1673ffffffffffffffffffffffffffffffffffffffff166370a08231306040518263ffffffff1660e01b815260040161040291906121c1565b60206040518083038186803b15801561041a57600080fd5b505afa15801561042e573d6000803e3d6000fd5b505050506040513d601f19601f820116820180604052506104529190810190611d92565b905060008114156104665781915050610610565b600160009054906101000a900473ffffffffffffffffffffffffffffffffffffffff1673ffffffffffffffffffffffffffffffffffffffff1663a0712d68826040518263ffffffff1660e01b81526004016104c191906123cb565b602060405180830381600087803b1580156104db57600080fd5b505af11580156104ef573d6000803e3d6000fd5b505050506040513d601f19601f820116820180604052506105139190810190611d92565b50600160009054906101000a900473ffffffffffffffffffffffffffffffffffffffff1673ffffffffffffffffffffffffffffffffffffffff166370a08231306040518263ffffffff1660e01b815260040161056f91906121c1565b60206040518083038186803b15801561058757600080fd5b505afa15801561059b573d6000803e3d6000fd5b505050506040513d601f19601f820116820180604052506105bf9190810190611d92565b915061060e3383600160009054906101000a900473ffffffffffffffffffffffffffffffffffffffff1673ffffffffffffffffffffffffffffffffffffffff166114a59092919063ffffffff16565b505b90565b600360149054906101000a900460ff1681565b600360009054906101000a900473ffffffffffffffffffffffffffffffffffffffff1681565b600360149054906101000a900460ff161561069c576040517f08c379a00000000000000000000000000000000000000000000000000000000081526004016106939061234b565b60405180910390fd5b600073ffffffffffffffffffffffffffffffffffffffff168273ffffffffffffffffffffffffffffffffffffffff16141561070c576040517f08c379a00000000000000000000000000000000000000000000000000000000081526004016107039061228b565b60405180910390fd5b81600160006101000a81548173ffffffffffffffffffffffffffffffffffffffff021916908373ffffffffffffffffffffffffffffffffffffffff1602179055508173ffffffffffffffffffffffffffffffffffffffff16636f307dc36040518163ffffffff1660e01b815260040160206040518083038186803b15801561079357600080fd5b505afa1580156107a7573d6000803e3d6000fd5b505050506040513d601f19601f820116820180604052506107cb9190810190611d92565b600260006101000a81548173ffffffffffffffffffffffffffffffffffffffff021916908373ffffffffffffffffffffffffffffffffffffffff16021790555080600360006101000a81548173ffffffffffffffffffffffffffffffffffffffff021916908373ffffffffffffffffffffffffffffffffffffffff1602179055506108b9827fffffffffffffffffffffffffffffffffffffffffffffffffffffffffffffffff600260009054906101000a900473ffffffffffffffffffffffffffffffffffffffff1673ffffffffffffffffffffffffffffffffffffffff166115449092919063ffffffff16565b6001600360146101000a81548160ff0219169083151502179055505050565b600260009054906101000a900473ffffffffffffffffffffffffffffffffffffffff1681565b610906610b01565b610945576040517f08c379a000000000000000000000000000000000000000000000000000000000815260040161093c9061232b565b60405180910390fd5b600073ffffffffffffffffffffffffffffffffffffffff166000809054906101000a900473ffffffffffffffffffffffffffffffffffffffff1673ffffffffffffffffffffffffffffffffffffffff167f8be0079c531659141344cd1fd0a4f28419497f9722a3daafe3b4186f6b6457e060405160405180910390a360008060006101000a81548173ffffffffffffffffffffffffffffffffffffffff021916908373ffffffffffffffffffffffffffffffffffffffff160217905550565b6000600260009054906101000a900473ffffffffffffffffffffffffffffffffffffffff1673ffffffffffffffffffffffffffffffffffffffff166370a08231600160009054906101000a900473ffffffffffffffffffffffffffffffffffffffff166040518263ffffffff1660e01b8152600401610a8391906121c1565b60206040518083038186803b158015610a9b57600080fd5b505afa158015610aaf573d6000803e3d6000fd5b505050506040513d601f19601f82011682018060405250610ad39190810190611d92565b905090565b60008060009054906101000a900473ffffffffffffffffffffffffffffffffffffffff16905090565b60008060009054906101000a900473ffffffffffffffffffffffffffffffffffffffff1673ffffffffffffffffffffffffffffffffffffffff16610b436116bb565b73ffffffffffffffffffffffffffffffffffffffff1614905090565b600080610b9183600381518110610b7257fe5b6020026020010151670de0b6b3a76400006116c390919063ffffffff16565b9050600073014872728e7d8b1c6781f96ecfbd262ea4d2e1a673ffffffffffffffffffffffffffffffffffffffff166315f2405385600081518110610bd257fe5b602002602001015186600181518110610be757fe5b602002602001015187600281518110610bfc57fe5b60200260200101516040518463ffffffff1660e01b8152600401610c22939291906123e6565b60206040518083038186803b158015610c3a57600080fd5b505afa158015610c4e573d6000803e3d6000fd5b505050506040513d601f19601f82011682018060405250610c729190810190611d92565b90506000610ca3670de0b6b3a7640000610c95858561170d90919063ffffffff16565b61177d90919063ffffffff16565b90506000610db0670de0b6b3a7640000610da28473014872728e7d8b1c6781f96ecfbd262ea4d2e1a673ffffffffffffffffffffffffffffffffffffffff16636e71e2d88b600081518110610cf457fe5b60200260200101518c600181518110610d0957fe5b60200260200101518d600281518110610d1e57fe5b60200260200101516040518463ffffffff1660e01b8152600401610d44939291906123e6565b60206040518083038186803b158015610d5c57600080fd5b505afa158015610d70573d6000803e3d6000fd5b505050506040513d601f19601f82011682018060405250610d949190810190611d92565b61170d90919063ffffffff16565b61177d90919063ffffffff16565b90506000610df36064610de562201480610dd76305f5e1008761177d90919063ffffffff16565b61170d90919063ffffffff16565b61170d90919063ffffffff16565b90508095505050505050919050565b6000600360009054906101000a900473ffffffffffffffffffffffffffffffffffffffff1673ffffffffffffffffffffffffffffffffffffffff163373ffffffffffffffffffffffffffffffffffffffff1614610e94576040517f08c379a0000000000000000000000000000000000000000000000000000000008152600401610e8b9061226b565b60405180910390fd5b600160009054906101000a900473ffffffffffffffffffffffffffffffffffffffff1673ffffffffffffffffffffffffffffffffffffffff1663db006a75600160009054906101000a900473ffffffffffffffffffffffffffffffffffffffff1673ffffffffffffffffffffffffffffffffffffffff166370a08231306040518263ffffffff1660e01b8152600401610f2d91906121c1565b60206040518083038186803b158015610f4557600080fd5b505afa158015610f59573d6000803e3d6000fd5b505050506040513d601f19601f82011682018060405250610f7d9190810190611d92565b6040518263ffffffff1660e01b8152600401610f9991906123cb565b602060405180830381600087803b158015610fb357600080fd5b505af1158015610fc7573d6000803e3d6000fd5b505050506040513d601f19601f82011682018060405250610feb9190810190611d92565b506000600260009054906101000a900473ffffffffffffffffffffffffffffffffffffffff1690508073ffffffffffffffffffffffffffffffffffffffff166370a08231306040518263ffffffff1660e01b815260040161104c91906121c1565b60206040518083038186803b15801561106457600080fd5b505afa158015611078573d6000803e3d6000fd5b505050506040513d601f19601f8201168201806040525061109c9190810190611d92565b91506110c983838373ffffffffffffffffffffffffffffffffffffffff166114a59092919063ffffffff16565b50919050565b600080905090565b600080600160009054906101000a900473ffffffffffffffffffffffffffffffffffffffff1673ffffffffffffffffffffffffffffffffffffffff16633b1d21a26040518163ffffffff1660e01b815260040160206040518083038186803b15801561114257600080fd5b505afa158015611156573d6000803e3d6000fd5b505050506040513d601f19601f8201168201806040525061117a9190810190611d92565b90506000600160009054906101000a900473ffffffffffffffffffffffffffffffffffffffff1673ffffffffffffffffffffffffffffffffffffffff166347bd37186040518163ffffffff1660e01b815260040160206040518083038186803b1580156111e657600080fd5b505afa1580156111fa573d6000803e3d6000fd5b505050506040513d601f19601f8201168201806040525061121e9190810190611d92565b905060006112d485600160009054906101000a900473ffffffffffffffffffffffffffffffffffffffff1673ffffffffffffffffffffffffffffffffffffffff16638f840ddd6040518163ffffffff1660e01b815260040160206040518083038186803b15801561128e57600080fd5b505afa1580156112a2573d6000803e3d6000fd5b505050506040513d601f19601f820116820180604052506112c69190810190611d92565b6117c790919063ffffffff16565b90506000600160009054906101000a900473ffffffffffffffffffffffffffffffffffffffff1673ffffffffffffffffffffffffffffffffffffffff1663173b99046040518163ffffffff1660e01b815260040160206040518083038186803b15801561134057600080fd5b505afa158015611354573d6000803e3d6000fd5b505050506040513d601f19601f820116820180604052506113789190810190611d92565b9050606060046040519080825280602002602001820160405280156113ac5781602001602082028038833980820191505090505b50905084816000815181106113bd57fe5b60200260200101818152505083816001815181106113d757fe5b60200260200101818152505082816002815181106113f157fe5b602002602001018181525050818160038151811061140b57fe5b60200260200101818152505061142081610b5f565b95505050505050919050565b611434610b01565b611473576040517f08c379a000000000000000000000000000000000000000000000000000000000815260040161146a9061232b565b60405180910390fd5b61147c8161181c565b50565b600160009054906101000a900473ffffffffffffffffffffffffffffffffffffffff1681565b61153f838473ffffffffffffffffffffffffffffffffffffffff1663a9059cbb905060e01b84846040516024016114dd929190612205565b604051602081830303815290604052907bffffffffffffffffffffffffffffffffffffffffffffffffffffffff19166020820180517bffffffffffffffffffffffffffffffffffffffffffffffffffffffff838183161783525050505061194a565b505050565b60008114806115dd575060008373ffffffffffffffffffffffffffffffffffffffff1663dd62ed3e30856040518363ffffffff1660e01b815260040161158b9291906121dc565b60206040518083038186803b1580156115a357600080fd5b505afa1580156115b7573d6000803e3d6000fd5b505050506040513d601f19601f820116820180604052506115db9190810190611d92565b145b61161c576040517f08c379a00000000000000000000000000000000000000000000000000000000081526004016116139061238b565b60405180910390fd5b6116b6838473ffffffffffffffffffffffffffffffffffffffff1663095ea7b3905060e01b8484604051602401611654929190612205565b604051602081830303815290604052907bffffffffffffffffffffffffffffffffffffffffffffffffffffffff19166020820180517bffffffffffffffffffffffffffffffffffffffffffffffffffffffff838183161783525050505061194a565b505050565b600033905090565b600061170583836040518060400160405280601e81526020017f536166654d6174683a207375627472616374696f6e206f766572666c6f770000815250611abc565b905092915050565b6000808314156117205760009050611777565b600082840290508284828161173157fe5b0414611772576040517f08c379a00000000000000000000000000000000000000000000000000000000081526004016117699061230b565b60405180910390fd5b809150505b92915050565b60006117bf83836040518060400160405280601a81526020017f536166654d6174683a206469766973696f6e206279207a65726f000000000000815250611b17565b905092915050565b600080828401905083811015611812576040517f08c379a0000000000000000000000000000000000000000000000000000000008152600401611809906122cb565b60405180910390fd5b8091505092915050565b600073ffffffffffffffffffffffffffffffffffffffff168173ffffffffffffffffffffffffffffffffffffffff16141561188c576040517f08c379a0000000000000000000000000000000000000000000000000000000008152600401611883906122ab565b60405180910390fd5b8073ffffffffffffffffffffffffffffffffffffffff166000809054906101000a900473ffffffffffffffffffffffffffffffffffffffff1673ffffffffffffffffffffffffffffffffffffffff167f8be0079c531659141344cd1fd0a4f28419497f9722a3daafe3b4186f6b6457e060405160405180910390a3806000806101000a81548173ffffffffffffffffffffffffffffffffffffffff021916908373ffffffffffffffffffffffffffffffffffffffff16021790555050565b6119698273ffffffffffffffffffffffffffffffffffffffff16611b78565b6119a8576040517f08c379a000000000000000000000000000000000000000000000000000000000815260040161199f906123ab565b60405180910390fd5b600060608373ffffffffffffffffffffffffffffffffffffffff16836040516119d191906121aa565b6000604051808303816000865af19150503d8060008114611a0e576040519150601f19603f3d011682016040523d82523d6000602084013e611a13565b606091505b509150915081611a58576040517f08c379a0000000000000000000000000000000000000000000000000000000008152600401611a4f906122eb565b60405180910390fd5b600081511115611ab65780806020019051611a769190810190611d40565b611ab5576040517f08c379a0000000000000000000000000000000000000000000000000000000008152600401611aac9061236b565b60405180910390fd5b5b50505050565b6000838311158290611b04576040517f08c379a0000000000000000000000000000000000000000000000000000000008152600401611afb9190612249565b60405180910390fd5b5060008385039050809150509392505050565b60008083118290611b5e576040517f08c379a0000000000000000000000000000000000000000000000000000000008152600401611b559190612249565b60405180910390fd5b506000838581611b6a57fe5b049050809150509392505050565b60008060007fc5d2460186f7233c927e7db2dcc703c0e500b653ca82273b7bfad8045d85a47060001b9050833f9150808214158015611bba57506000801b8214155b92505050919050565b600081359050611bd281612530565b92915050565b600082601f830112611be957600080fd5b8135611bfc611bf78261244a565b61241d565b91508181835260208401935060208101905083856020840282011115611c2157600080fd5b60005b83811015611c515781611c378882611c70565b845260208401935060208301925050600181019050611c24565b5050505092915050565b600081519050611c6a81612547565b92915050565b600081359050611c7f8161255e565b92915050565b600081519050611c948161255e565b92915050565b600060208284031215611cac57600080fd5b6000611cba84828501611bc3565b91505092915050565b60008060408385031215611cd657600080fd5b6000611ce485828601611bc3565b9250506020611cf585828601611bc3565b9150509250929050565b600060208284031215611d1157600080fd5b600082013567ffffffffffffffff811115611d2b57600080fd5b611d3784828501611bd8565b91505092915050565b600060208284031215611d5257600080fd5b6000611d6084828501611c5b565b91505092915050565b600060208284031215611d7b57600080fd5b6000611d8984828501611c70565b91505092915050565b600060208284031215611da457600080fd5b6000611db284828501611c85565b91505092915050565b611dc4816124a4565b82525050565b611dd3816124b6565b82525050565b6000611de482612472565b611dee8185612488565b9350611dfe8185602086016124ec565b80840191505092915050565b6000611e158261247d565b611e1f8185612493565b9350611e2f8185602086016124ec565b611e388161251f565b840191505092915050565b6000611e50602083612493565b91507f4f776e61626c653a2063616c6c6572206973206e6f742049646c65546f6b656e6000830152602082019050919050565b6000611e90601083612493565b91507f63724441493a20616464722069732030000000000000000000000000000000006000830152602082019050919050565b6000611ed0602683612493565b91507f4f776e61626c653a206e6577206f776e657220697320746865207a65726f206160008301527f64647265737300000000000000000000000000000000000000000000000000006020830152604082019050919050565b6000611f36601b83612493565b91507f536166654d6174683a206164646974696f6e206f766572666c6f7700000000006000830152602082019050919050565b6000611f76602083612493565b91507f5361666545524332303a206c6f772d6c6576656c2063616c6c206661696c65646000830152602082019050919050565b6000611fb6602183612493565b91507f536166654d6174683a206d756c7469706c69636174696f6e206f766572666c6f60008301527f77000000000000000000000000000000000000000000000000000000000000006020830152604082019050919050565b600061201c602083612493565b91507f4f776e61626c653a2063616c6c6572206973206e6f7420746865206f776e65726000830152602082019050919050565b600061205c601383612493565b91507f416c726561647920696e697469616c697a6564000000000000000000000000006000830152602082019050919050565b600061209c602a83612493565b91507f5361666545524332303a204552433230206f7065726174696f6e20646964206e60008301527f6f742073756363656564000000000000000000000000000000000000000000006020830152604082019050919050565b6000612102603683612493565b91507f5361666545524332303a20617070726f76652066726f6d206e6f6e2d7a65726f60008301527f20746f206e6f6e2d7a65726f20616c6c6f77616e6365000000000000000000006020830152604082019050919050565b6000612168601f83612493565b91507f5361666545524332303a2063616c6c20746f206e6f6e2d636f6e7472616374006000830152602082019050919050565b6121a4816124e2565b82525050565b60006121b68284611dd9565b915081905092915050565b60006020820190506121d66000830184611dbb565b92915050565b60006040820190506121f16000830185611dbb565b6121fe6020830184611dbb565b9392505050565b600060408201905061221a6000830185611dbb565b612227602083018461219b565b9392505050565b60006020820190506122436000830184611dca565b92915050565b600060208201905081810360008301526122638184611e0a565b905092915050565b6000602082019050818103600083015261228481611e43565b9050919050565b600060208201905081810360008301526122a481611e83565b9050919050565b600060208201905081810360008301526122c481611ec3565b9050919050565b600060208201905081810360008301526122e481611f29565b9050919050565b6000602082019050818103600083015261230481611f69565b9050919050565b6000602082019050818103600083015261232481611fa9565b9050919050565b600060208201905081810360008301526123448161200f565b9050919050565b600060208201905081810360008301526123648161204f565b9050919050565b600060208201905081810360008301526123848161208f565b9050919050565b600060208201905081810360008301526123a4816120f5565b9050919050565b600060208201905081810360008301526123c48161215b565b9050919050565b60006020820190506123e0600083018461219b565b92915050565b60006060820190506123fb600083018661219b565b612408602083018561219b565b612415604083018461219b565b949350505050565b6000604051905081810181811067ffffffffffffffff8211171561244057600080fd5b8060405250919050565b600067ffffffffffffffff82111561246157600080fd5b602082029050602081019050919050565b600081519050919050565b600081519050919050565b600081905092915050565b600082825260208201905092915050565b60006124af826124c2565b9050919050565b60008115159050919050565b600073ffffffffffffffffffffffffffffffffffffffff82169050919050565b6000819050919050565b60005b8381101561250a5780820151818401526020810190506124ef565b83811115612519576000848401525b50505050565b6000601f19601f8301169050919050565b612539816124a4565b811461254457600080fd5b50565b612550816124b6565b811461255b57600080fd5b50565b612567816124e2565b811461257257600080fd5b5056fea365627a7a72315820f292e876161bd0f3d44c2084fab9c4710b0cb0857692db6b8c4c0f3e2ba6e9766c6578706572696d656e74616cf564736f6c63430005100040",
  "linkReferences": {},
  "deployedLinkReferences": {}
}