{
  "_format": "hh-sol-artifact-1",
  "contractName": "yxTokenMock",
  "sourceName": "contracts/mocks/yxTokenMock.sol",
  "abi": [
    {
      "inputs": [
        {
          "internalType": "address",
          "name": "_underlying",
          "type": "address"
        },
        {
          "internalType": "uint256",
          "name": "_marketId",
          "type": "uint256"
        },
        {
          "internalType": "string",
          "name": "_name",
          "type": "string"
        },
        {
          "internalType": "string",
          "name": "_symbol",
          "type": "string"
        },
        {
          "internalType": "uint8",
          "name": "_decimals",
          "type": "uint8"
        },
        {
          "internalType": "address",
          "name": "someone",
          "type": "address"
        }
      ],
      "payable": false,
      "stateMutability": "nonpayable",
      "type": "constructor"
    },
    {
      "anonymous": false,
      "inputs": [
        {
          "indexed": true,
          "internalType": "address",
          "name": "owner",
          "type": "address"
        },
        {
          "indexed": true,
          "internalType": "address",
          "name": "spender",
          "type": "address"
        },
        {
          "indexed": false,
          "internalType": "uint256",
          "name": "value",
          "type": "uint256"
        }
      ],
      "name": "Approval",
      "type": "event"
    },
    {
      "anonymous": false,
      "inputs": [
        {
          "indexed": true,
          "internalType": "address",
          "name": "from",
          "type": "address"
        },
        {
          "indexed": true,
          "internalType": "address",
          "name": "to",
          "type": "address"
        },
        {
          "indexed": false,
          "internalType": "uint256",
          "name": "value",
          "type": "uint256"
        }
      ],
      "name": "Transfer",
      "type": "event"
    },
    {
      "constant": true,
      "inputs": [
        {
          "internalType": "address",
          "name": "owner",
          "type": "address"
        },
        {
          "internalType": "address",
          "name": "spender",
          "type": "address"
        }
      ],
      "name": "allowance",
      "outputs": [
        {
          "internalType": "uint256",
          "name": "",
          "type": "uint256"
        }
      ],
      "payable": false,
      "stateMutability": "view",
      "type": "function"
    },
    {
      "constant": false,
      "inputs": [
        {
          "internalType": "address",
          "name": "spender",
          "type": "address"
        },
        {
          "internalType": "uint256",
          "name": "amount",
          "type": "uint256"
        }
      ],
      "name": "approve",
      "outputs": [
        {
          "internalType": "bool",
          "name": "",
          "type": "bool"
        }
      ],
      "payable": false,
      "stateMutability": "nonpayable",
      "type": "function"
    },
    {
      "constant": true,
      "inputs": [],
      "name": "availableLiquidity",
      "outputs": [
        {
          "internalType": "uint256",
          "name": "",
          "type": "uint256"
        }
      ],
      "payable": false,
      "stateMutability": "view",
      "type": "function"
    },
    {
      "constant": true,
      "inputs": [
        {
          "internalType": "address",
          "name": "who",
          "type": "address"
        }
      ],
      "name": "balanceInUnderlying",
      "outputs": [
        {
          "internalType": "uint256",
          "name": "",
          "type": "uint256"
        }
      ],
      "payable": false,
      "stateMutability": "view",
      "type": "function"
    },
    {
      "constant": true,
      "inputs": [
        {
          "internalType": "address",
          "name": "account",
          "type": "address"
        }
      ],
      "name": "balanceOf",
      "outputs": [
        {
          "internalType": "uint256",
          "name": "",
          "type": "uint256"
        }
      ],
      "payable": false,
      "stateMutability": "view",
      "type": "function"
    },
    {
      "constant": true,
      "inputs": [],
      "name": "decimals",
      "outputs": [
        {
          "internalType": "uint8",
          "name": "",
          "type": "uint8"
        }
      ],
      "payable": false,
      "stateMutability": "view",
      "type": "function"
    },
    {
      "constant": false,
      "inputs": [
        {
          "internalType": "address",
          "name": "spender",
          "type": "address"
        },
        {
          "internalType": "uint256",
          "name": "subtractedValue",
          "type": "uint256"
        }
      ],
      "name": "decreaseAllowance",
      "outputs": [
        {
          "internalType": "bool",
          "name": "",
          "type": "bool"
        }
      ],
      "payable": false,
      "stateMutability": "nonpayable",
      "type": "function"
    },
    {
      "constant": true,
      "inputs": [],
      "name": "dydxAddressesProvider",
      "outputs": [
        {
          "internalType": "address",
          "name": "",
          "type": "address"
        }
      ],
      "payable": false,
      "stateMutability": "view",
      "type": "function"
    },
    {
      "constant": false,
      "inputs": [
        {
          "internalType": "address",
          "name": "spender",
          "type": "address"
        },
        {
          "internalType": "uint256",
          "name": "addedValue",
          "type": "uint256"
        }
      ],
      "name": "increaseAllowance",
      "outputs": [
        {
          "internalType": "bool",
          "name": "",
          "type": "bool"
        }
      ],
      "payable": false,
      "stateMutability": "nonpayable",
      "type": "function"
    },
    {
      "constant": true,
      "inputs": [],
      "name": "marketId",
      "outputs": [
        {
          "internalType": "uint256",
          "name": "",
          "type": "uint256"
        }
      ],
      "payable": false,
      "stateMutability": "view",
      "type": "function"
    },
    {
      "constant": false,
      "inputs": [
        {
          "internalType": "uint256",
          "name": "amount",
          "type": "uint256"
        }
      ],
      "name": "mint",
      "outputs": [
        {
          "internalType": "uint256",
          "name": "",
          "type": "uint256"
        }
      ],
      "payable": false,
      "stateMutability": "nonpayable",
      "type": "function"
    },
    {
      "constant": false,
      "inputs": [
        {
          "internalType": "uint256",
          "name": "_amount",
          "type": "uint256"
        }
      ],
      "name": "mintDyDx",
      "outputs": [],
      "payable": false,
      "stateMutability": "nonpayable",
      "type": "function"
    },
    {
      "constant": true,
      "inputs": [],
      "name": "name",
      "outputs": [
        {
          "internalType": "string",
          "name": "",
          "type": "string"
        }
      ],
      "payable": false,
      "stateMutability": "view",
      "type": "function"
    },
    {
      "constant": true,
      "inputs": [],
      "name": "price",
      "outputs": [
        {
          "internalType": "uint256",
          "name": "",
          "type": "uint256"
        }
      ],
      "payable": false,
      "stateMutability": "view",
      "type": "function"
    },
    {
      "constant": true,
      "inputs": [],
      "name": "priceFake",
      "outputs": [
        {
          "internalType": "uint256",
          "name": "",
          "type": "uint256"
        }
      ],
      "payable": false,
      "stateMutability": "view",
      "type": "function"
    },
    {
      "constant": false,
      "inputs": [
        {
          "internalType": "uint256",
          "name": "amount",
          "type": "uint256"
        },
        {
          "internalType": "address",
          "name": "_account",
          "type": "address"
        }
      ],
      "name": "redeem",
      "outputs": [
        {
          "internalType": "uint256",
          "name": "tokens",
          "type": "uint256"
        }
      ],
      "payable": false,
      "stateMutability": "nonpayable",
      "type": "function"
    },
    {
      "constant": false,
      "inputs": [
        {
          "internalType": "uint256",
          "name": "_amount",
          "type": "uint256"
        }
      ],
      "name": "redeemDyDx",
      "outputs": [],
      "payable": false,
      "stateMutability": "nonpayable",
      "type": "function"
    },
    {
      "constant": true,
      "inputs": [],
      "name": "secondsInAYear",
      "outputs": [
        {
          "internalType": "uint256",
          "name": "",
          "type": "uint256"
        }
      ],
      "payable": false,
      "stateMutability": "view",
      "type": "function"
    },
    {
      "constant": false,
      "inputs": [
        {
          "internalType": "address",
          "name": "_dydxAddressesProvider",
          "type": "address"
        }
      ],
      "name": "setDyDxProvider",
      "outputs": [],
      "payable": false,
      "stateMutability": "nonpayable",
      "type": "function"
    },
    {
      "constant": false,
      "inputs": [
        {
          "internalType": "uint256",
          "name": "_priceFake",
          "type": "uint256"
        }
      ],
      "name": "setPriceForTest",
      "outputs": [],
      "payable": false,
      "stateMutability": "nonpayable",
      "type": "function"
    },
    {
      "constant": true,
      "inputs": [],
      "name": "symbol",
      "outputs": [
        {
          "internalType": "string",
          "name": "",
          "type": "string"
        }
      ],
      "payable": false,
      "stateMutability": "view",
      "type": "function"
    },
    {
      "constant": true,
      "inputs": [],
      "name": "totalSupply",
      "outputs": [
        {
          "internalType": "uint256",
          "name": "",
          "type": "uint256"
        }
      ],
      "payable": false,
      "stateMutability": "view",
      "type": "function"
    },
    {
      "constant": false,
      "inputs": [
        {
          "internalType": "address",
          "name": "recipient",
          "type": "address"
        },
        {
          "internalType": "uint256",
          "name": "amount",
          "type": "uint256"
        }
      ],
      "name": "transfer",
      "outputs": [
        {
          "internalType": "bool",
          "name": "",
          "type": "bool"
        }
      ],
      "payable": false,
      "stateMutability": "nonpayable",
      "type": "function"
    },
    {
      "constant": false,
      "inputs": [
        {
          "internalType": "address",
          "name": "sender",
          "type": "address"
        },
        {
          "internalType": "address",
          "name": "recipient",
          "type": "address"
        },
        {
          "internalType": "uint256",
          "name": "amount",
          "type": "uint256"
        }
      ],
      "name": "transferFrom",
      "outputs": [
        {
          "internalType": "bool",
          "name": "",
          "type": "bool"
        }
      ],
      "payable": false,
      "stateMutability": "nonpayable",
      "type": "function"
    },
    {
      "constant": true,
      "inputs": [],
      "name": "underlying",
      "outputs": [
        {
          "internalType": "address",
          "name": "",
          "type": "address"
        }
      ],
      "payable": false,
      "stateMutability": "view",
      "type": "function"
    }
  ],
  "bytecode": "0x6080604052731e0447b19bb6ecfdae1e4ae1694b0c3659614e4e600960006101000a81548173ffffffffffffffffffffffffffffffffffffffff021916908373ffffffffffffffffffffffffffffffffffffffff160217905550600960009054906101000a900473ffffffffffffffffffffffffffffffffffffffff16600a60006101000a81548173ffffffffffffffffffffffffffffffffffffffff021916908373ffffffffffffffffffffffffffffffffffffffff160217905550348015620000c957600080fd5b5060405162003887380380620038878339818101604052620000ef91908101906200067b565b858585858582828282600390805190602001906200010f92919062000514565b5081600490805190602001906200012892919062000514565b5080600560006101000a81548160ff021916908360ff160217905550505050600073ffffffffffffffffffffffffffffffffffffffff168573ffffffffffffffffffffffffffffffffffffffff161415620001ba576040517f08c379a0000000000000000000000000000000000000000000000000000000008152600401620001b190620008a6565b60405180910390fd5b84600860006101000a81548173ffffffffffffffffffffffffffffffffffffffff021916908373ffffffffffffffffffffffffffffffffffffffff160217905550836006819055508473ffffffffffffffffffffffffffffffffffffffff1663095ea7b3600960009054906101000a900473ffffffffffffffffffffffffffffffffffffffff167fffffffffffffffffffffffffffffffffffffffffffffffffffffffffffffffff6040518363ffffffff1660e01b81526004016200028192919062000857565b602060405180830381600087803b1580156200029c57600080fd5b505af1158015620002b1573d6000803e3d6000fd5b505050506040513d601f19601f82011682018060405250620002d7919081019062000743565b505050505050620002f93069d3c21bcecceda10000006200032160201b60201c565b620003158169d3c21bcecceda10000006200032160201b60201c565b50505050505062000a68565b600073ffffffffffffffffffffffffffffffffffffffff168273ffffffffffffffffffffffffffffffffffffffff16141562000394576040517f08c379a00000000000000000000000000000000000000000000000000000000081526004016200038b90620008c8565b60405180910390fd5b620003b081600254620004bc60201b620014b71790919060201c565b6002819055506200040e816000808573ffffffffffffffffffffffffffffffffffffffff1673ffffffffffffffffffffffffffffffffffffffff16815260200190815260200160002054620004bc60201b620014b71790919060201c565b6000808473ffffffffffffffffffffffffffffffffffffffff1673ffffffffffffffffffffffffffffffffffffffff168152602001908152602001600020819055508173ffffffffffffffffffffffffffffffffffffffff16600073ffffffffffffffffffffffffffffffffffffffff167fddf252ad1be2c89b69c2b068fc378daa952ba7f163c4a11628f55a4df523b3ef83604051620004b09190620008ea565b60405180910390a35050565b6000808284019050838110156200050a576040517f08c379a0000000000000000000000000000000000000000000000000000000008152600401620005019062000884565b60405180910390fd5b8091505092915050565b828054600181600116156101000203166002900490600052602060002090601f016020900481019282601f106200055757805160ff191683800117855562000588565b8280016001018555821562000588579182015b82811115620005875782518255916020019190600101906200056a565b5b5090506200059791906200059b565b5090565b620005c091905b80821115620005bc576000816000905550600101620005a2565b5090565b90565b600081519050620005d48162000a00565b92915050565b600081519050620005eb8162000a1a565b92915050565b600082601f8301126200060357600080fd5b81516200061a620006148262000935565b62000907565b915080825260208301602083018583830111156200063757600080fd5b62000644838284620009ca565b50505092915050565b6000815190506200065e8162000a34565b92915050565b600081519050620006758162000a4e565b92915050565b60008060008060008060c087890312156200069557600080fd5b6000620006a589828a01620005c3565b9650506020620006b889828a016200064d565b955050604087015167ffffffffffffffff811115620006d657600080fd5b620006e489828a01620005f1565b945050606087015167ffffffffffffffff8111156200070257600080fd5b6200071089828a01620005f1565b93505060806200072389828a0162000664565b92505060a06200073689828a01620005c3565b9150509295509295509295565b6000602082840312156200075657600080fd5b60006200076684828501620005da565b91505092915050565b6200077a8162000973565b82525050565b60006200078f601b8362000962565b91507f536166654d6174683a206164646974696f6e206f766572666c6f7700000000006000830152602082019050919050565b6000620007d1600f8362000962565b91507f556e6465726c79696e67206973203000000000000000000000000000000000006000830152602082019050919050565b600062000813601f8362000962565b91507f45524332303a206d696e7420746f20746865207a65726f2061646472657373006000830152602082019050919050565b6200085181620009b3565b82525050565b60006040820190506200086e60008301856200076f565b6200087d602083018462000846565b9392505050565b600060208201905081810360008301526200089f8162000780565b9050919050565b60006020820190508181036000830152620008c181620007c2565b9050919050565b60006020820190508181036000830152620008e38162000804565b9050919050565b600060208201905062000901600083018462000846565b92915050565b6000604051905081810181811067ffffffffffffffff821117156200092b57600080fd5b8060405250919050565b600067ffffffffffffffff8211156200094d57600080fd5b601f19601f8301169050602081019050919050565b600082825260208201905092915050565b6000620009808262000993565b9050919050565b60008115159050919050565b600073ffffffffffffffffffffffffffffffffffffffff82169050919050565b6000819050919050565b600060ff82169050919050565b60005b83811015620009ea578082015181840152602081019050620009cd565b83811115620009fa576000848401525b50505050565b62000a0b8162000973565b811462000a1757600080fd5b50565b62000a258162000987565b811462000a3157600080fd5b50565b62000a3f81620009b3565b811462000a4b57600080fd5b50565b62000a5981620009bd565b811462000a6557600080fd5b50565b612e0f8062000a786000396000f3fe608060405234801561001057600080fd5b50600436106101735760003560e01c806374375359116100de578063a457c2d711610097578063c6f400d511610071578063c6f400d51461047a578063c741eba314610496578063dc361a13146104b2578063dd62ed3e146104e257610173565b8063a457c2d7146103fc578063a9059cbb1461042c578063c61a39a51461045c57610173565b806374375359146103265780637bde82f2146103445780637cdc8fc81461037457806395d89b4114610390578063a035b1fe146103ae578063a0712d68146103cc57610173565b80633950935111610130578063395093511461024e5780634eb82b561461027e5780636cb3281d1461029c5780636ed71ede146102ba5780636f307dc3146102d857806370a08231146102f657610173565b806306fdde0314610178578063095ea7b31461019657806318160ddd146101c657806323b872dd146101e4578063313ce567146102145780633549eb5314610232575b600080fd5b610180610512565b60405161018d919061294b565b60405180910390f35b6101b060048036036101ab919081019061209e565b6105b4565b6040516101bd9190612930565b60405180910390f35b6101ce6105d2565b6040516101db9190612aad565b60405180910390f35b6101fe60048036036101f9919081019061204f565b6105dc565b60405161020b9190612930565b60405180910390f35b61021c6106b5565b6040516102299190612ac8565b60405180910390f35b61024c60048036036102479190810190612103565b6106cc565b005b6102686004803603610263919081019061209e565b6106d6565b6040516102759190612930565b60405180910390f35b610286610789565b6040516102939190612aad565b60405180910390f35b6102a461078f565b6040516102b1919061287e565b60405180910390f35b6102c26107b5565b6040516102cf9190612aad565b60405180910390f35b6102e06107bb565b6040516102ed919061287e565b60405180910390f35b610310600480360361030b9190810190611fea565b6107e1565b60405161031d9190612aad565b60405180910390f35b61032e610829565b60405161033b9190612aad565b60405180910390f35b61035e60048036036103599190810190612155565b6108fd565b60405161036b9190612aad565b60405180910390f35b61038e60048036036103899190810190611fea565b610a2a565b005b610398610ba1565b6040516103a5919061294b565b60405180910390f35b6103b6610c43565b6040516103c39190612aad565b60405180910390f35b6103e660048036036103e19190810190612103565b610cfc565b6040516103f39190612aad565b60405180910390f35b6104166004803603610411919081019061209e565b610e2a565b6040516104239190612930565b60405180910390f35b6104466004803603610441919081019061209e565b610ef7565b6040516104539190612930565b60405180910390f35b610464610f15565b6040516104719190612aad565b60405180910390f35b610494600480360361048f9190810190612103565b610f1b565b005b6104b060048036036104ab9190810190612103565b610f27565b005b6104cc60048036036104c79190810190611fea565b610f33565b6040516104d99190612aad565b60405180910390f35b6104fc60048036036104f79190810190612013565b610f78565b6040516105099190612aad565b60405180910390f35b606060038054600181600116156101000203166002900480601f0160208091040260200160405190810160405280929190818152602001828054600181600116156101000203166002900480156105aa5780601f1061057f576101008083540402835291602001916105aa565b820191906000526020600020905b81548152906001019060200180831161058d57829003601f168201915b5050505050905090565b60006105c86105c1610fff565b8484611007565b6001905092915050565b6000600254905090565b60006105e98484846111d2565b6106aa846105f5610fff565b6106a585604051806060016040528060288152602001612d8060289139600160008b73ffffffffffffffffffffffffffffffffffffffff1673ffffffffffffffffffffffffffffffffffffffff168152602001908152602001600020600061065b610fff565b73ffffffffffffffffffffffffffffffffffffffff1673ffffffffffffffffffffffffffffffffffffffff1681526020019081526020016000205461145c9092919063ffffffff16565b611007565b600190509392505050565b6000600560009054906101000a900460ff16905090565b80600b8190555050565b600061077f6106e3610fff565b8461077a85600160006106f4610fff565b73ffffffffffffffffffffffffffffffffffffffff1673ffffffffffffffffffffffffffffffffffffffff16815260200190815260200160002060008973ffffffffffffffffffffffffffffffffffffffff1673ffffffffffffffffffffffffffffffffffffffff168152602001908152602001600020546114b790919063ffffffff16565b611007565b6001905092915050565b60075481565b600960009054906101000a900473ffffffffffffffffffffffffffffffffffffffff1681565b60065481565b600860009054906101000a900473ffffffffffffffffffffffffffffffffffffffff1681565b60008060008373ffffffffffffffffffffffffffffffffffffffff1673ffffffffffffffffffffffffffffffffffffffff168152602001908152602001600020549050919050565b6000600860009054906101000a900473ffffffffffffffffffffffffffffffffffffffff1673ffffffffffffffffffffffffffffffffffffffff166370a08231600960009054906101000a900473ffffffffffffffffffffffffffffffffffffffff166040518263ffffffff1660e01b81526004016108a8919061287e565b60206040518083038186803b1580156108c057600080fd5b505afa1580156108d4573d6000803e3d6000fd5b505050506040513d601f19601f820116820180604052506108f8919081019061212c565b905090565b6000610909338461150c565b600860009054906101000a900473ffffffffffffffffffffffffffffffffffffffff1673ffffffffffffffffffffffffffffffffffffffff1663a9059cbb83670de0b6b3a7640000600b5487028161095d57fe5b046040518363ffffffff1660e01b815260040161097b9291906128d0565b602060405180830381600087803b15801561099557600080fd5b505af11580156109a9573d6000803e3d6000fd5b505050506040513d601f19601f820116820180604052506109cd91908101906120da565b610a0c576040517f08c379a0000000000000000000000000000000000000000000000000000000008152600401610a03906129ad565b60405180910390fd5b670de0b6b3a7640000600b54840281610a2157fe5b04905092915050565b80600960006101000a81548173ffffffffffffffffffffffffffffffffffffffff021916908373ffffffffffffffffffffffffffffffffffffffff16021790555080600a60006101000a81548173ffffffffffffffffffffffffffffffffffffffff021916908373ffffffffffffffffffffffffffffffffffffffff160217905550600860009054906101000a900473ffffffffffffffffffffffffffffffffffffffff1673ffffffffffffffffffffffffffffffffffffffff1663095ea7b3600960009054906101000a900473ffffffffffffffffffffffffffffffffffffffff167fffffffffffffffffffffffffffffffffffffffffffffffffffffffffffffffff6040518363ffffffff1660e01b8152600401610b4b9291906128d0565b602060405180830381600087803b158015610b6557600080fd5b505af1158015610b79573d6000803e3d6000fd5b505050506040513d601f19601f82011682018060405250610b9d91908101906120da565b5050565b606060048054600181600116156101000203166002900480601f016020809104026020016040519081016040528092919081815260200182805460018160011615610100020316600290048015610c395780601f10610c0e57610100808354040283529160200191610c39565b820191906000526020600020905b815481529060010190602001808311610c1c57829003601f168201915b5050505050905090565b600080600a60009054906101000a900473ffffffffffffffffffffffffffffffffffffffff1673ffffffffffffffffffffffffffffffffffffffff166356ea84b26006546040518263ffffffff1660e01b8152600401610ca39190612aad565b604080518083038186803b158015610cba57600080fd5b505afa158015610cce573d6000803e3d6000fd5b505050506040513d601f19601f82011682018060405250610cf29190810190612191565b9150508091505090565b6000600860009054906101000a900473ffffffffffffffffffffffffffffffffffffffff1673ffffffffffffffffffffffffffffffffffffffff166323b872dd3330856040518463ffffffff1660e01b8152600401610d5d93929190612899565b602060405180830381600087803b158015610d7757600080fd5b505af1158015610d8b573d6000803e3d6000fd5b505050506040513d601f19601f82011682018060405250610daf91908101906120da565b610dee576040517f08c379a0000000000000000000000000000000000000000000000000000000008152600401610de590612a0d565b60405180910390fd5b610e0d33600b54670de0b6b3a7640000850281610e0757fe5b046116ae565b600b54670de0b6b3a7640000830281610e2257fe5b049050919050565b6000610eed610e37610fff565b84610ee885604051806060016040528060258152602001612da86025913960016000610e61610fff565b73ffffffffffffffffffffffffffffffffffffffff1673ffffffffffffffffffffffffffffffffffffffff16815260200190815260200160002060008a73ffffffffffffffffffffffffffffffffffffffff1673ffffffffffffffffffffffffffffffffffffffff1681526020019081526020016000205461145c9092919063ffffffff16565b611007565b6001905092915050565b6000610f0b610f04610fff565b84846111d2565b6001905092915050565b600b5481565b610f2481611836565b50565b610f3081611a70565b50565b6000610f71670de0b6b3a7640000610f63610f4c610c43565b610f55866107e1565b611cab90919063ffffffff16565b611d1b90919063ffffffff16565b9050919050565b6000600160008473ffffffffffffffffffffffffffffffffffffffff1673ffffffffffffffffffffffffffffffffffffffff16815260200190815260200160002060008373ffffffffffffffffffffffffffffffffffffffff1673ffffffffffffffffffffffffffffffffffffffff16815260200190815260200160002054905092915050565b600033905090565b600073ffffffffffffffffffffffffffffffffffffffff168373ffffffffffffffffffffffffffffffffffffffff161415611077576040517f08c379a000000000000000000000000000000000000000000000000000000000815260040161106e90612a6d565b60405180910390fd5b600073ffffffffffffffffffffffffffffffffffffffff168273ffffffffffffffffffffffffffffffffffffffff1614156110e7576040517f08c379a00000000000000000000000000000000000000000000000000000000081526004016110de9061298d565b60405180910390fd5b80600160008573ffffffffffffffffffffffffffffffffffffffff1673ffffffffffffffffffffffffffffffffffffffff16815260200190815260200160002060008473ffffffffffffffffffffffffffffffffffffffff1673ffffffffffffffffffffffffffffffffffffffff168152602001908152602001600020819055508173ffffffffffffffffffffffffffffffffffffffff168373ffffffffffffffffffffffffffffffffffffffff167f8c5be1e5ebec7d5bd14f71427d1e84f3dd0314c0f7b2291e5b200ac8c7c3b925836040516111c59190612aad565b60405180910390a3505050565b600073ffffffffffffffffffffffffffffffffffffffff168373ffffffffffffffffffffffffffffffffffffffff161415611242576040517f08c379a000000000000000000000000000000000000000000000000000000000815260040161123990612a4d565b60405180910390fd5b600073ffffffffffffffffffffffffffffffffffffffff168273ffffffffffffffffffffffffffffffffffffffff1614156112b2576040517f08c379a00000000000000000000000000000000000000000000000000000000081526004016112a99061296d565b60405180910390fd5b61131d81604051806060016040528060268152602001612d5a602691396000808773ffffffffffffffffffffffffffffffffffffffff1673ffffffffffffffffffffffffffffffffffffffff1681526020019081526020016000205461145c9092919063ffffffff16565b6000808573ffffffffffffffffffffffffffffffffffffffff1673ffffffffffffffffffffffffffffffffffffffff168152602001908152602001600020819055506113b0816000808573ffffffffffffffffffffffffffffffffffffffff1673ffffffffffffffffffffffffffffffffffffffff168152602001908152602001600020546114b790919063ffffffff16565b6000808473ffffffffffffffffffffffffffffffffffffffff1673ffffffffffffffffffffffffffffffffffffffff168152602001908152602001600020819055508173ffffffffffffffffffffffffffffffffffffffff168373ffffffffffffffffffffffffffffffffffffffff167fddf252ad1be2c89b69c2b068fc378daa952ba7f163c4a11628f55a4df523b3ef8360405161144f9190612aad565b60405180910390a3505050565b60008383111582906114a4576040517f08c379a000000000000000000000000000000000000000000000000000000000815260040161149b919061294b565b60405180910390fd5b5060008385039050809150509392505050565b600080828401905083811015611502576040517f08c379a00000000000000000000000000000000000000000000000000000000081526004016114f9906129cd565b60405180910390fd5b8091505092915050565b600073ffffffffffffffffffffffffffffffffffffffff168273ffffffffffffffffffffffffffffffffffffffff16141561157c576040517f08c379a000000000000000000000000000000000000000000000000000000000815260040161157390612a2d565b60405180910390fd5b6115e781604051806060016040528060228152602001612d38602291396000808673ffffffffffffffffffffffffffffffffffffffff1673ffffffffffffffffffffffffffffffffffffffff1681526020019081526020016000205461145c9092919063ffffffff16565b6000808473ffffffffffffffffffffffffffffffffffffffff1673ffffffffffffffffffffffffffffffffffffffff1681526020019081526020016000208190555061163e81600254611d6590919063ffffffff16565b600281905550600073ffffffffffffffffffffffffffffffffffffffff168273ffffffffffffffffffffffffffffffffffffffff167fddf252ad1be2c89b69c2b068fc378daa952ba7f163c4a11628f55a4df523b3ef836040516116a29190612aad565b60405180910390a35050565b600073ffffffffffffffffffffffffffffffffffffffff168273ffffffffffffffffffffffffffffffffffffffff16141561171e576040517f08c379a000000000000000000000000000000000000000000000000000000000815260040161171590612a8d565b60405180910390fd5b611733816002546114b790919063ffffffff16565b60028190555061178a816000808573ffffffffffffffffffffffffffffffffffffffff1673ffffffffffffffffffffffffffffffffffffffff168152602001908152602001600020546114b790919063ffffffff16565b6000808473ffffffffffffffffffffffffffffffffffffffff1673ffffffffffffffffffffffffffffffffffffffff168152602001908152602001600020819055508173ffffffffffffffffffffffffffffffffffffffff16600073ffffffffffffffffffffffffffffffffffffffff167fddf252ad1be2c89b69c2b068fc378daa952ba7f163c4a11628f55a4df523b3ef8360405161182a9190612aad565b60405180910390a35050565b6060600160405190808252806020026020018201604052801561187357816020015b611860611e10565b8152602001906001900390816118585790505b50905060405180604001604052803073ffffffffffffffffffffffffffffffffffffffff1681526020016000815250816000815181106118af57fe5b60200260200101819052506118c2611e40565b60405180608001604052806000151581526020016001808111156118e257fe5b81526020016000808111156118f357fe5b8152602001848152509050611906611e7f565b60018160000190600881111561191857fe5b9081600881111561192557fe5b815250506000816020018181525050818160400181905250600654816060018181525050308160a0019073ffffffffffffffffffffffffffffffffffffffff16908173ffffffffffffffffffffffffffffffffffffffff1681525050606060016040519080825280602002602001820160405280156119be57816020015b6119ab611eeb565b8152602001906001900390816119a35790505b50905081816000815181106119cf57fe5b6020026020010181905250600a60009054906101000a900473ffffffffffffffffffffffffffffffffffffffff1673ffffffffffffffffffffffffffffffffffffffff1663a67a6a4585836040518363ffffffff1660e01b8152600401611a379291906128f9565b600060405180830381600087803b158015611a5157600080fd5b505af1158015611a65573d6000803e3d6000fd5b505050505050505050565b60606001604051908082528060200260200182016040528015611aad57816020015b611a9a611e10565b815260200190600190039081611a925790505b50905060405180604001604052803073ffffffffffffffffffffffffffffffffffffffff168152602001600081525081600081518110611ae957fe5b6020026020010181905250611afc611e40565b604051806080016040528060011515815260200160006001811115611b1d57fe5b8152602001600080811115611b2e57fe5b8152602001848152509050611b41611e7f565b600081600001906008811115611b5357fe5b90816008811115611b6057fe5b815250506000816020018181525050818160400181905250600654816060018181525050308160a0019073ffffffffffffffffffffffffffffffffffffffff16908173ffffffffffffffffffffffffffffffffffffffff168152505060606001604051908082528060200260200182016040528015611bf957816020015b611be6611eeb565b815260200190600190039081611bde5790505b5090508181600081518110611c0a57fe5b6020026020010181905250600a60009054906101000a900473ffffffffffffffffffffffffffffffffffffffff1673ffffffffffffffffffffffffffffffffffffffff1663a67a6a4585836040518363ffffffff1660e01b8152600401611c729291906128f9565b600060405180830381600087803b158015611c8c57600080fd5b505af1158015611ca0573d6000803e3d6000fd5b505050505050505050565b600080831415611cbe5760009050611d15565b6000828402905082848281611ccf57fe5b0414611d10576040517f08c379a0000000000000000000000000000000000000000000000000000000008152600401611d07906129ed565b60405180910390fd5b809150505b92915050565b6000611d5d83836040518060400160405280601a81526020017f536166654d6174683a206469766973696f6e206279207a65726f000000000000815250611daf565b905092915050565b6000611da783836040518060400160405280601e81526020017f536166654d6174683a207375627472616374696f6e206f766572666c6f77000081525061145c565b905092915050565b60008083118290611df6576040517f08c379a0000000000000000000000000000000000000000000000000000000008152600401611ded919061294b565b60405180910390fd5b506000838581611e0257fe5b049050809150509392505050565b6040518060400160405280600073ffffffffffffffffffffffffffffffffffffffff168152602001600081525090565b604051806080016040528060001515815260200160006001811115611e6157fe5b8152602001600080811115611e7257fe5b8152602001600081525090565b60405180610100016040528060006008811115611e9857fe5b815260200160008152602001611eac611f57565b81526020016000815260200160008152602001600073ffffffffffffffffffffffffffffffffffffffff16815260200160008152602001606081525090565b60405180610100016040528060006008811115611f0457fe5b815260200160008152602001611f18611f57565b81526020016000815260200160008152602001600073ffffffffffffffffffffffffffffffffffffffff16815260200160008152602001606081525090565b604051806080016040528060001515815260200160006001811115611f7857fe5b8152602001600080811115611f8957fe5b8152602001600081525090565b600081359050611fa581612cf2565b92915050565b600081519050611fba81612d09565b92915050565b600081359050611fcf81612d20565b92915050565b600081519050611fe481612d20565b92915050565b600060208284031215611ffc57600080fd5b600061200a84828501611f96565b91505092915050565b6000806040838503121561202657600080fd5b600061203485828601611f96565b925050602061204585828601611f96565b9150509250929050565b60008060006060848603121561206457600080fd5b600061207286828701611f96565b935050602061208386828701611f96565b925050604061209486828701611fc0565b9150509250925092565b600080604083850312156120b157600080fd5b60006120bf85828601611f96565b92505060206120d085828601611fc0565b9150509250929050565b6000602082840312156120ec57600080fd5b60006120fa84828501611fab565b91505092915050565b60006020828403121561211557600080fd5b600061212384828501611fc0565b91505092915050565b60006020828403121561213e57600080fd5b600061214c84828501611fd5565b91505092915050565b6000806040838503121561216857600080fd5b600061217685828601611fc0565b925050602061218785828601611f96565b9150509250929050565b600080604083850312156121a457600080fd5b60006121b285828601611fd5565b92505060206121c385828601611fd5565b9150509250929050565b60006121d9838361271a565b905092915050565b60006121ed8383612822565b60408301905092915050565b61220281612c1b565b82525050565b61221181612b8d565b82525050565b61222081612b8d565b82525050565b600061223182612b03565b61223b8185612b49565b93508360208202850161224d85612ae3565b8060005b85811015612289578484038952815161226a85826121cd565b945061227583612b2f565b925060208a01995050600181019050612251565b50829750879550505050505092915050565b60006122a682612b0e565b6122b08185612b5a565b93506122bb83612af3565b8060005b838110156122ec5781516122d388826121e1565b97506122de83612b3c565b9250506001810190506122bf565b5085935050505092915050565b61230281612b9f565b82525050565b61231181612b9f565b82525050565b600061232282612b19565b61232c8185612b6b565b935061233c818560208601612c87565b61234581612cba565b840191505092915050565b61235981612c2d565b82525050565b61236881612c3f565b82525050565b61237781612c51565b82525050565b600061238882612b24565b6123928185612b7c565b93506123a2818560208601612c87565b6123ab81612cba565b840191505092915050565b60006123c3602383612b7c565b91507f45524332303a207472616e7366657220746f20746865207a65726f206164647260008301527f65737300000000000000000000000000000000000000000000000000000000006020830152604082019050919050565b6000612429602283612b7c565b91507f45524332303a20617070726f766520746f20746865207a65726f20616464726560008301527f73730000000000000000000000000000000000000000000000000000000000006020830152604082019050919050565b600061248f601583612b7c565b91507f4572726f7220647572696e67207472616e7366657200000000000000000000006000830152602082019050919050565b60006124cf601b83612b7c565b91507f536166654d6174683a206164646974696f6e206f766572666c6f7700000000006000830152602082019050919050565b600061250f602183612b7c565b91507f536166654d6174683a206d756c7469706c69636174696f6e206f766572666c6f60008301527f77000000000000000000000000000000000000000000000000000000000000006020830152604082019050919050565b6000612575601983612b7c565b91507f4572726f7220647572696e67207472616e7366657246726f6d000000000000006000830152602082019050919050565b60006125b5602183612b7c565b91507f45524332303a206275726e2066726f6d20746865207a65726f2061646472657360008301527f73000000000000000000000000000000000000000000000000000000000000006020830152604082019050919050565b600061261b602583612b7c565b91507f45524332303a207472616e736665722066726f6d20746865207a65726f20616460008301527f64726573730000000000000000000000000000000000000000000000000000006020830152604082019050919050565b6000612681602483612b7c565b91507f45524332303a20617070726f76652066726f6d20746865207a65726f2061646460008301527f72657373000000000000000000000000000000000000000000000000000000006020830152604082019050919050565b60006126e7601f83612b7c565b91507f45524332303a206d696e7420746f20746865207a65726f2061646472657373006000830152602082019050919050565b6000610160830160008301516127336000860182612350565b5060208301516127466020860182612851565b50604083015161275960408601826127cd565b50606083015161276c60c0860182612851565b50608083015161277f60e0860182612851565b5060a0830151612793610100860182612208565b5060c08301516127a7610120860182612851565b5060e08301518482036101408601526127c08282612317565b9150508091505092915050565b6080820160008201516127e360008501826122f9565b5060208201516127f6602085018261235f565b506040820151612809604085018261236e565b50606082015161281c6060850182612851565b50505050565b6040820160008201516128386000850182612208565b50602082015161284b6020850182612851565b50505050565b61285a81612c04565b82525050565b61286981612c04565b82525050565b61287881612c0e565b82525050565b60006020820190506128936000830184612217565b92915050565b60006060820190506128ae60008301866121f9565b6128bb6020830185612217565b6128c86040830184612860565b949350505050565b60006040820190506128e56000830185612217565b6128f26020830184612860565b9392505050565b60006040820190508181036000830152612913818561229b565b905081810360208301526129278184612226565b90509392505050565b60006020820190506129456000830184612308565b92915050565b60006020820190508181036000830152612965818461237d565b905092915050565b60006020820190508181036000830152612986816123b6565b9050919050565b600060208201905081810360008301526129a68161241c565b9050919050565b600060208201905081810360008301526129c681612482565b9050919050565b600060208201905081810360008301526129e6816124c2565b9050919050565b60006020820190508181036000830152612a0681612502565b9050919050565b60006020820190508181036000830152612a2681612568565b9050919050565b60006020820190508181036000830152612a46816125a8565b9050919050565b60006020820190508181036000830152612a668161260e565b9050919050565b60006020820190508181036000830152612a8681612674565b9050919050565b60006020820190508181036000830152612aa6816126da565b9050919050565b6000602082019050612ac26000830184612860565b92915050565b6000602082019050612add600083018461286f565b92915050565b6000819050602082019050919050565b6000819050602082019050919050565b600081519050919050565b600081519050919050565b600081519050919050565b600081519050919050565b6000602082019050919050565b6000602082019050919050565b600082825260208201905092915050565b600082825260208201905092915050565b600082825260208201905092915050565b600082825260208201905092915050565b6000612b9882612be4565b9050919050565b60008115159050919050565b6000819050612bb982612ccb565b919050565b6000819050612bcc82612cd8565b919050565b6000819050612bdf82612ce5565b919050565b600073ffffffffffffffffffffffffffffffffffffffff82169050919050565b6000819050919050565b600060ff82169050919050565b6000612c2682612c63565b9050919050565b6000612c3882612bab565b9050919050565b6000612c4a82612bbe565b9050919050565b6000612c5c82612bd1565b9050919050565b6000612c6e82612c75565b9050919050565b6000612c8082612be4565b9050919050565b60005b83811015612ca5578082015181840152602081019050612c8a565b83811115612cb4576000848401525b50505050565b6000601f19601f8301169050919050565b60098110612cd557fe5b50565b60028110612ce257fe5b50565b60018110612cef57fe5b50565b612cfb81612b8d565b8114612d0657600080fd5b50565b612d1281612b9f565b8114612d1d57600080fd5b50565b612d2981612c04565b8114612d3457600080fd5b5056fe45524332303a206275726e20616d6f756e7420657863656564732062616c616e636545524332303a207472616e7366657220616d6f756e7420657863656564732062616c616e636545524332303a207472616e7366657220616d6f756e74206578636565647320616c6c6f77616e636545524332303a2064656372656173656420616c6c6f77616e63652062656c6f77207a65726fa365627a7a72315820c7350e16554c40e9c42dba6483dbce3510327c646410ad28c46848cd024e80766c6578706572696d656e74616cf564736f6c63430005100040",
  "linkReferences": {},
  "deployedLinkReferences": {}
}