{
  "_format": "hh-sol-artifact-1",
  "contractName": "GST2ConsumerV2",
  "sourceName": "contracts/GST2ConsumerV2.sol",
  "abi": [
    {
      "constant": true,
      "inputs": [],
      "name": "gst2",
      "outputs": [
        {
          "internalType": "contract GasToken",
          "name": "",
          "type": "address"
        }
      ],
      "payable": false,
      "stateMutability": "view",
      "type": "function"
    },
    {
      "constant": false,
      "inputs": [],
      "name": "initialize",
      "outputs": [],
      "payable": false,
      "stateMutability": "nonpayable",
      "type": "function"
    }
  ],
  "bytecode": "0x608060405234801561001057600080fd5b5061027e806100206000396000f3fe608060405234801561001057600080fd5b50600436106100365760003560e01c806323d39ab51461003b5780638129fc1c14610085575b600080fd5b61004361008f565b604051808273ffffffffffffffffffffffffffffffffffffffff1673ffffffffffffffffffffffffffffffffffffffff16815260200191505060405180910390f35b61008d6100b5565b005b603360009054906101000a900473ffffffffffffffffffffffffffffffffffffffff1681565b600060019054906101000a900460ff16806100d457506100d3610204565b5b806100eb57506000809054906101000a900460ff16155b610140576040517f08c379a000000000000000000000000000000000000000000000000000000000815260040180806020018281038252602e81526020018061021c602e913960400191505060405180910390fd5b60008060019054906101000a900460ff161590508015610190576001600060016101000a81548160ff02191690831515021790555060016000806101000a81548160ff0219169083151502179055505b6eb3f879cb30fe243b4dfee438691c04603360006101000a81548173ffffffffffffffffffffffffffffffffffffffff021916908373ffffffffffffffffffffffffffffffffffffffff16021790555080156102015760008060016101000a81548160ff0219169083151502179055505b50565b6000803090506000813b905060008114925050509056fe436f6e747261637420696e7374616e63652068617320616c7265616479206265656e20696e697469616c697a6564a265627a7a72315820105c05b1a690cbeec82ddba067cd6f9d1ce886db59c780f3f7f8baafbfe4a0e564736f6c63430005100032",
  "linkReferences": {},
  "deployedLinkReferences": {}
}