{
  "_format": "hh-sol-artifact-1",
  "contractName": "IdleTokenGovernance",
  "sourceName": "contracts/IdleTokenGovernance.sol",
  "abi": [
    {
      "anonymous": false,
      "inputs": [
        {
          "indexed": true,
          "internalType": "address",
          "name": "owner",
          "type": "address"
        },
        {
          "indexed": true,
          "internalType": "address",
          "name": "spender",
          "type": "address"
        },
        {
          "indexed": false,
          "internalType": "uint256",
          "name": "value",
          "type": "uint256"
        }
      ],
      "name": "Approval",
      "type": "event"
    },
    {
      "anonymous": false,
      "inputs": [
        {
          "indexed": true,
          "internalType": "address",
          "name": "previousOwner",
          "type": "address"
        },
        {
          "indexed": true,
          "internalType": "address",
          "name": "newOwner",
          "type": "address"
        }
      ],
      "name": "OwnershipTransferred",
      "type": "event"
    },
    {
      "anonymous": false,
      "inputs": [
        {
          "indexed": false,
          "internalType": "address",
          "name": "account",
          "type": "address"
        }
      ],
      "name": "Paused",
      "type": "event"
    },
    {
      "anonymous": false,
      "inputs": [
        {
          "indexed": true,
          "internalType": "address",
          "name": "account",
          "type": "address"
        }
      ],
      "name": "PauserAdded",
      "type": "event"
    },
    {
      "anonymous": false,
      "inputs": [
        {
          "indexed": true,
          "internalType": "address",
          "name": "account",
          "type": "address"
        }
      ],
      "name": "PauserRemoved",
      "type": "event"
    },
    {
      "anonymous": false,
      "inputs": [
        {
          "indexed": false,
          "internalType": "address",
          "name": "_rebalancer",
          "type": "address"
        },
        {
          "indexed": false,
          "internalType": "uint256",
          "name": "_amount",
          "type": "uint256"
        }
      ],
      "name": "Rebalance",
      "type": "event"
    },
    {
      "anonymous": false,
      "inputs": [
        {
          "indexed": false,
          "internalType": "uint256",
          "name": "_amount",
          "type": "uint256"
        },
        {
          "indexed": false,
          "internalType": "address",
          "name": "_ref",
          "type": "address"
        }
      ],
      "name": "Referral",
      "type": "event"
    },
    {
      "anonymous": false,
      "inputs": [
        {
          "indexed": true,
          "internalType": "address",
          "name": "from",
          "type": "address"
        },
        {
          "indexed": true,
          "internalType": "address",
          "name": "to",
          "type": "address"
        },
        {
          "indexed": false,
          "internalType": "uint256",
          "name": "value",
          "type": "uint256"
        }
      ],
      "name": "Transfer",
      "type": "event"
    },
    {
      "anonymous": false,
      "inputs": [
        {
          "indexed": false,
          "internalType": "address",
          "name": "account",
          "type": "address"
        }
      ],
      "name": "Unpaused",
      "type": "event"
    },
    {
      "constant": true,
      "inputs": [],
      "name": "COMP",
      "outputs": [
        {
          "internalType": "address",
          "name": "",
          "type": "address"
        }
      ],
      "payable": false,
      "stateMutability": "view",
      "type": "function"
    },
    {
      "constant": true,
      "inputs": [],
      "name": "IDLE",
      "outputs": [
        {
          "internalType": "address",
          "name": "",
          "type": "address"
        }
      ],
      "payable": false,
      "stateMutability": "view",
      "type": "function"
    },
    {
      "constant": false,
      "inputs": [
        {
          "internalType": "address",
          "name": "account",
          "type": "address"
        }
      ],
      "name": "addPauser",
      "outputs": [],
      "payable": false,
      "stateMutability": "nonpayable",
      "type": "function"
    },
    {
      "constant": true,
      "inputs": [
        {
          "internalType": "uint256",
          "name": "",
          "type": "uint256"
        }
      ],
      "name": "allAvailableTokens",
      "outputs": [
        {
          "internalType": "address",
          "name": "",
          "type": "address"
        }
      ],
      "payable": false,
      "stateMutability": "view",
      "type": "function"
    },
    {
      "constant": true,
      "inputs": [
        {
          "internalType": "address",
          "name": "owner",
          "type": "address"
        },
        {
          "internalType": "address",
          "name": "spender",
          "type": "address"
        }
      ],
      "name": "allowance",
      "outputs": [
        {
          "internalType": "uint256",
          "name": "",
          "type": "uint256"
        }
      ],
      "payable": false,
      "stateMutability": "view",
      "type": "function"
    },
    {
      "constant": false,
      "inputs": [
        {
          "internalType": "address",
          "name": "spender",
          "type": "address"
        },
        {
          "internalType": "uint256",
          "name": "amount",
          "type": "uint256"
        }
      ],
      "name": "approve",
      "outputs": [
        {
          "internalType": "bool",
          "name": "",
          "type": "bool"
        }
      ],
      "payable": false,
      "stateMutability": "nonpayable",
      "type": "function"
    },
    {
      "constant": true,
      "inputs": [
        {
          "internalType": "address",
          "name": "account",
          "type": "address"
        }
      ],
      "name": "balanceOf",
      "outputs": [
        {
          "internalType": "uint256",
          "name": "",
          "type": "uint256"
        }
      ],
      "payable": false,
      "stateMutability": "view",
      "type": "function"
    },
    {
      "constant": true,
      "inputs": [],
      "name": "decimals",
      "outputs": [
        {
          "internalType": "uint8",
          "name": "",
          "type": "uint8"
        }
      ],
      "payable": false,
      "stateMutability": "view",
      "type": "function"
    },
    {
      "constant": false,
      "inputs": [
        {
          "internalType": "address",
          "name": "spender",
          "type": "address"
        },
        {
          "internalType": "uint256",
          "name": "subtractedValue",
          "type": "uint256"
        }
      ],
      "name": "decreaseAllowance",
      "outputs": [
        {
          "internalType": "bool",
          "name": "",
          "type": "bool"
        }
      ],
      "payable": false,
      "stateMutability": "nonpayable",
      "type": "function"
    },
    {
      "constant": true,
      "inputs": [],
      "name": "fee",
      "outputs": [
        {
          "internalType": "uint256",
          "name": "",
          "type": "uint256"
        }
      ],
      "payable": false,
      "stateMutability": "view",
      "type": "function"
    },
    {
      "constant": true,
      "inputs": [],
      "name": "feeAddress",
      "outputs": [
        {
          "internalType": "address",
          "name": "",
          "type": "address"
        }
      ],
      "payable": false,
      "stateMutability": "view",
      "type": "function"
    },
    {
      "constant": true,
      "inputs": [],
      "name": "getAPRs",
      "outputs": [
        {
          "internalType": "address[]",
          "name": "addresses",
          "type": "address[]"
        },
        {
          "internalType": "uint256[]",
          "name": "aprs",
          "type": "uint256[]"
        }
      ],
      "payable": false,
      "stateMutability": "view",
      "type": "function"
    },
    {
      "constant": true,
      "inputs": [],
      "name": "getAllocations",
      "outputs": [
        {
          "internalType": "uint256[]",
          "name": "",
          "type": "uint256[]"
        }
      ],
      "payable": false,
      "stateMutability": "view",
      "type": "function"
    },
    {
      "constant": true,
      "inputs": [],
      "name": "getAvgAPR",
      "outputs": [
        {
          "internalType": "uint256",
          "name": "",
          "type": "uint256"
        }
      ],
      "payable": false,
      "stateMutability": "view",
      "type": "function"
    },
    {
      "constant": true,
      "inputs": [
        {
          "internalType": "address",
          "name": "_usr",
          "type": "address"
        }
      ],
      "name": "getGovTokensAmounts",
      "outputs": [
        {
          "internalType": "uint256[]",
          "name": "_amounts",
          "type": "uint256[]"
        }
      ],
      "payable": false,
      "stateMutability": "view",
      "type": "function"
    },
    {
      "constant": true,
      "inputs": [
        {
          "internalType": "uint256",
          "name": "",
          "type": "uint256"
        }
      ],
      "name": "govTokens",
      "outputs": [
        {
          "internalType": "address",
          "name": "",
          "type": "address"
        }
      ],
      "payable": false,
      "stateMutability": "view",
      "type": "function"
    },
    {
      "constant": true,
      "inputs": [
        {
          "internalType": "address",
          "name": "",
          "type": "address"
        }
      ],
      "name": "govTokensIndexes",
      "outputs": [
        {
          "internalType": "uint256",
          "name": "",
          "type": "uint256"
        }
      ],
      "payable": false,
      "stateMutability": "view",
      "type": "function"
    },
    {
      "constant": true,
      "inputs": [
        {
          "internalType": "address",
          "name": "",
          "type": "address"
        }
      ],
      "name": "govTokensLastBalances",
      "outputs": [
        {
          "internalType": "uint256",
          "name": "",
          "type": "uint256"
        }
      ],
      "payable": false,
      "stateMutability": "view",
      "type": "function"
    },
    {
      "constant": true,
      "inputs": [],
      "name": "gst2",
      "outputs": [
        {
          "internalType": "contract GasToken",
          "name": "",
          "type": "address"
        }
      ],
      "payable": false,
      "stateMutability": "view",
      "type": "function"
    },
    {
      "constant": true,
      "inputs": [],
      "name": "idleController",
      "outputs": [
        {
          "internalType": "address",
          "name": "",
          "type": "address"
        }
      ],
      "payable": false,
      "stateMutability": "view",
      "type": "function"
    },
    {
      "constant": false,
      "inputs": [
        {
          "internalType": "address",
          "name": "spender",
          "type": "address"
        },
        {
          "internalType": "uint256",
          "name": "addedValue",
          "type": "uint256"
        }
      ],
      "name": "increaseAllowance",
      "outputs": [
        {
          "internalType": "bool",
          "name": "",
          "type": "bool"
        }
      ],
      "payable": false,
      "stateMutability": "nonpayable",
      "type": "function"
    },
    {
      "constant": false,
      "inputs": [
        {
          "internalType": "string",
          "name": "name",
          "type": "string"
        },
        {
          "internalType": "string",
          "name": "symbol",
          "type": "string"
        },
        {
          "internalType": "uint8",
          "name": "decimals",
          "type": "uint8"
        }
      ],
      "name": "initialize",
      "outputs": [],
      "payable": false,
      "stateMutability": "nonpayable",
      "type": "function"
    },
    {
      "constant": false,
      "inputs": [],
      "name": "initialize",
      "outputs": [],
      "payable": false,
      "stateMutability": "nonpayable",
      "type": "function"
    },
    {
      "constant": false,
      "inputs": [
        {
          "internalType": "address",
          "name": "sender",
          "type": "address"
        }
      ],
      "name": "initialize",
      "outputs": [],
      "payable": false,
      "stateMutability": "nonpayable",
      "type": "function"
    },
    {
      "constant": true,
      "inputs": [],
      "name": "isOwner",
      "outputs": [
        {
          "internalType": "bool",
          "name": "",
          "type": "bool"
        }
      ],
      "payable": false,
      "stateMutability": "view",
      "type": "function"
    },
    {
      "constant": true,
      "inputs": [
        {
          "internalType": "address",
          "name": "account",
          "type": "address"
        }
      ],
      "name": "isPauser",
      "outputs": [
        {
          "internalType": "bool",
          "name": "",
          "type": "bool"
        }
      ],
      "payable": false,
      "stateMutability": "view",
      "type": "function"
    },
    {
      "constant": true,
      "inputs": [],
      "name": "isRiskAdjusted",
      "outputs": [
        {
          "internalType": "bool",
          "name": "",
          "type": "bool"
        }
      ],
      "payable": false,
      "stateMutability": "view",
      "type": "function"
    },
    {
      "constant": true,
      "inputs": [
        {
          "internalType": "uint256",
          "name": "",
          "type": "uint256"
        }
      ],
      "name": "lastAllocations",
      "outputs": [
        {
          "internalType": "uint256",
          "name": "",
          "type": "uint256"
        }
      ],
      "payable": false,
      "stateMutability": "view",
      "type": "function"
    },
    {
      "constant": true,
      "inputs": [],
      "name": "lastITokenPrice",
      "outputs": [
        {
          "internalType": "uint256",
          "name": "",
          "type": "uint256"
        }
      ],
      "payable": false,
      "stateMutability": "view",
      "type": "function"
    },
    {
      "constant": true,
      "inputs": [],
      "name": "maxUnlentPerc",
      "outputs": [
        {
          "internalType": "uint256",
          "name": "",
          "type": "uint256"
        }
      ],
      "payable": false,
      "stateMutability": "view",
      "type": "function"
    },
    {
      "constant": false,
      "inputs": [
        {
          "internalType": "uint256",
          "name": "_amount",
          "type": "uint256"
        },
        {
          "internalType": "bool",
          "name": "_skipRebalance",
          "type": "bool"
        },
        {
          "internalType": "address",
          "name": "_referral",
          "type": "address"
        }
      ],
      "name": "mintIdleToken",
      "outputs": [
        {
          "internalType": "uint256",
          "name": "mintedTokens",
          "type": "uint256"
        }
      ],
      "payable": false,
      "stateMutability": "nonpayable",
      "type": "function"
    },
    {
      "constant": true,
      "inputs": [],
      "name": "name",
      "outputs": [
        {
          "internalType": "string",
          "name": "",
          "type": "string"
        }
      ],
      "payable": false,
      "stateMutability": "view",
      "type": "function"
    },
    {
      "constant": false,
      "inputs": [
        {
          "internalType": "uint256[]",
          "name": "_newAllocations",
          "type": "uint256[]"
        }
      ],
      "name": "openRebalance",
      "outputs": [
        {
          "internalType": "bool",
          "name": "",
          "type": "bool"
        },
        {
          "internalType": "uint256",
          "name": "avgApr",
          "type": "uint256"
        }
      ],
      "payable": false,
      "stateMutability": "nonpayable",
      "type": "function"
    },
    {
      "constant": true,
      "inputs": [],
      "name": "oracle",
      "outputs": [
        {
          "internalType": "address",
          "name": "",
          "type": "address"
        }
      ],
      "payable": false,
      "stateMutability": "view",
      "type": "function"
    },
    {
      "constant": true,
      "inputs": [],
      "name": "owner",
      "outputs": [
        {
          "internalType": "address",
          "name": "",
          "type": "address"
        }
      ],
      "payable": false,
      "stateMutability": "view",
      "type": "function"
    },
    {
      "constant": false,
      "inputs": [],
      "name": "pause",
      "outputs": [],
      "payable": false,
      "stateMutability": "nonpayable",
      "type": "function"
    },
    {
      "constant": true,
      "inputs": [],
      "name": "paused",
      "outputs": [
        {
          "internalType": "bool",
          "name": "",
          "type": "bool"
        }
      ],
      "payable": false,
      "stateMutability": "view",
      "type": "function"
    },
    {
      "constant": true,
      "inputs": [
        {
          "internalType": "address",
          "name": "",
          "type": "address"
        }
      ],
      "name": "protocolWrappers",
      "outputs": [
        {
          "internalType": "address",
          "name": "",
          "type": "address"
        }
      ],
      "payable": false,
      "stateMutability": "view",
      "type": "function"
    },
    {
      "constant": false,
      "inputs": [],
      "name": "rebalance",
      "outputs": [
        {
          "internalType": "bool",
          "name": "",
          "type": "bool"
        }
      ],
      "payable": false,
      "stateMutability": "nonpayable",
      "type": "function"
    },
    {
      "constant": false,
      "inputs": [],
      "name": "rebalanceWithGST",
      "outputs": [
        {
          "internalType": "bool",
          "name": "",
          "type": "bool"
        }
      ],
      "payable": false,
      "stateMutability": "nonpayable",
      "type": "function"
    },
    {
      "constant": true,
      "inputs": [],
      "name": "rebalancer",
      "outputs": [
        {
          "internalType": "address",
          "name": "",
          "type": "address"
        }
      ],
      "payable": false,
      "stateMutability": "view",
      "type": "function"
    },
    {
      "constant": false,
      "inputs": [
        {
          "internalType": "uint256",
          "name": "_amount",
          "type": "uint256"
        }
      ],
      "name": "redeemIdleToken",
      "outputs": [
        {
          "internalType": "uint256",
          "name": "redeemedTokens",
          "type": "uint256"
        }
      ],
      "payable": false,
      "stateMutability": "nonpayable",
      "type": "function"
    },
    {
      "constant": false,
      "inputs": [
        {
          "internalType": "uint256",
          "name": "_amount",
          "type": "uint256"
        }
      ],
      "name": "redeemInterestBearingTokens",
      "outputs": [],
      "payable": false,
      "stateMutability": "nonpayable",
      "type": "function"
    },
    {
      "constant": false,
      "inputs": [],
      "name": "renounceOwnership",
      "outputs": [],
      "payable": false,
      "stateMutability": "nonpayable",
      "type": "function"
    },
    {
      "constant": false,
      "inputs": [],
      "name": "renouncePauser",
      "outputs": [],
      "payable": false,
      "stateMutability": "nonpayable",
      "type": "function"
    },
    {
      "constant": false,
      "inputs": [
        {
          "internalType": "address[]",
          "name": "protocolTokens",
          "type": "address[]"
        },
        {
          "internalType": "address[]",
          "name": "wrappers",
          "type": "address[]"
        },
        {
          "internalType": "uint256[]",
          "name": "allocations",
          "type": "uint256[]"
        },
        {
          "internalType": "bool",
          "name": "keepAllocations",
          "type": "bool"
        }
      ],
      "name": "setAllAvailableTokensAndWrappers",
      "outputs": [],
      "payable": false,
      "stateMutability": "nonpayable",
      "type": "function"
    },
    {
      "constant": false,
      "inputs": [
        {
          "internalType": "uint256[]",
          "name": "_allocations",
          "type": "uint256[]"
        }
      ],
      "name": "setAllocations",
      "outputs": [],
      "payable": false,
      "stateMutability": "nonpayable",
      "type": "function"
    },
    {
      "constant": false,
      "inputs": [
        {
          "internalType": "uint256",
          "name": "_fee",
          "type": "uint256"
        }
      ],
      "name": "setFee",
      "outputs": [],
      "payable": false,
      "stateMutability": "nonpayable",
      "type": "function"
    },
    {
      "constant": false,
      "inputs": [
        {
          "internalType": "address",
          "name": "_feeAddress",
          "type": "address"
        }
      ],
      "name": "setFeeAddress",
      "outputs": [],
      "payable": false,
      "stateMutability": "nonpayable",
      "type": "function"
    },
    {
      "constant": false,
      "inputs": [
        {
          "internalType": "address[]",
          "name": "_newGovTokens",
          "type": "address[]"
        },
        {
          "internalType": "address[]",
          "name": "_protocolTokens",
          "type": "address[]"
        }
      ],
      "name": "setGovTokens",
      "outputs": [],
      "payable": false,
      "stateMutability": "nonpayable",
      "type": "function"
    },
    {
      "constant": false,
      "inputs": [
        {
          "internalType": "bool",
          "name": "_isRiskAdjusted",
          "type": "bool"
        }
      ],
      "name": "setIsRiskAdjusted",
      "outputs": [],
      "payable": false,
      "stateMutability": "nonpayable",
      "type": "function"
    },
    {
      "constant": false,
      "inputs": [
        {
          "internalType": "uint256",
          "name": "_perc",
          "type": "uint256"
        }
      ],
      "name": "setMaxUnlentPerc",
      "outputs": [],
      "payable": false,
      "stateMutability": "nonpayable",
      "type": "function"
    },
    {
      "constant": false,
      "inputs": [
        {
          "internalType": "address",
          "name": "_oracle",
          "type": "address"
        }
      ],
      "name": "setOracleAddress",
      "outputs": [],
      "payable": false,
      "stateMutability": "nonpayable",
      "type": "function"
    },
    {
      "constant": false,
      "inputs": [
        {
          "internalType": "address",
          "name": "_rebalancer",
          "type": "address"
        }
      ],
      "name": "setRebalancer",
      "outputs": [],
      "payable": false,
      "stateMutability": "nonpayable",
      "type": "function"
    },
    {
      "constant": true,
      "inputs": [],
      "name": "symbol",
      "outputs": [
        {
          "internalType": "string",
          "name": "",
          "type": "string"
        }
      ],
      "payable": false,
      "stateMutability": "view",
      "type": "function"
    },
    {
      "constant": true,
      "inputs": [],
      "name": "token",
      "outputs": [
        {
          "internalType": "address",
          "name": "",
          "type": "address"
        }
      ],
      "payable": false,
      "stateMutability": "view",
      "type": "function"
    },
    {
      "constant": true,
      "inputs": [],
      "name": "tokenPrice",
      "outputs": [
        {
          "internalType": "uint256",
          "name": "",
          "type": "uint256"
        }
      ],
      "payable": false,
      "stateMutability": "view",
      "type": "function"
    },
    {
      "constant": true,
      "inputs": [],
      "name": "totalSupply",
      "outputs": [
        {
          "internalType": "uint256",
          "name": "",
          "type": "uint256"
        }
      ],
      "payable": false,
      "stateMutability": "view",
      "type": "function"
    },
    {
      "constant": false,
      "inputs": [
        {
          "internalType": "address",
          "name": "recipient",
          "type": "address"
        },
        {
          "internalType": "uint256",
          "name": "amount",
          "type": "uint256"
        }
      ],
      "name": "transfer",
      "outputs": [
        {
          "internalType": "bool",
          "name": "",
          "type": "bool"
        }
      ],
      "payable": false,
      "stateMutability": "nonpayable",
      "type": "function"
    },
    {
      "constant": false,
      "inputs": [
        {
          "internalType": "address",
          "name": "sender",
          "type": "address"
        },
        {
          "internalType": "address",
          "name": "recipient",
          "type": "address"
        },
        {
          "internalType": "uint256",
          "name": "amount",
          "type": "uint256"
        }
      ],
      "name": "transferFrom",
      "outputs": [
        {
          "internalType": "bool",
          "name": "",
          "type": "bool"
        }
      ],
      "payable": false,
      "stateMutability": "nonpayable",
      "type": "function"
    },
    {
      "constant": false,
      "inputs": [
        {
          "internalType": "address",
          "name": "newOwner",
          "type": "address"
        }
      ],
      "name": "transferOwnership",
      "outputs": [],
      "payable": false,
      "stateMutability": "nonpayable",
      "type": "function"
    },
    {
      "constant": false,
      "inputs": [],
      "name": "unpause",
      "outputs": [],
      "payable": false,
      "stateMutability": "nonpayable",
      "type": "function"
    },
    {
      "constant": true,
      "inputs": [
        {
          "internalType": "address",
          "name": "",
          "type": "address"
        }
      ],
      "name": "userAvgPrices",
      "outputs": [
        {
          "internalType": "uint256",
          "name": "",
          "type": "uint256"
        }
      ],
      "payable": false,
      "stateMutability": "view",
      "type": "function"
    },
    {
      "constant": true,
      "inputs": [
        {
          "internalType": "address",
          "name": "",
          "type": "address"
        },
        {
          "internalType": "address",
          "name": "",
          "type": "address"
        }
      ],
      "name": "usersGovTokensIndexes",
      "outputs": [
        {
          "internalType": "uint256",
          "name": "",
          "type": "uint256"
        }
      ],
      "payable": false,
      "stateMutability": "view",
      "type": "function"
    }
  ],
  "bytecode": "0x608060405261a0b680620000146000396000f3fe608060405234801561001057600080fd5b50600436106103d05760003560e01c8063746daa4e116101ff578063aaa48e9f1161011a578063d05be735116100ad578063ddca3f431161007c578063ddca3f43146117d9578063f2d50ba6146117f7578063f2fde38b14611815578063fc0c546a14611859576103d0565b8063d05be73514611578578063da5163cc146116a7578063dba2d85d1461173f578063dd62ed3e14611761576103d0565b8063c498c515116100e9578063c498c51514611469578063c4d66de8146114e2578063cb390f9714611526578063cb50648814611548576103d0565b8063aaa48e9f146112de578063afdd3fc314611336578063b13bd49114611378578063b71501bc1461141f576103d0565b80638a279e8a1161019257806395d89b411161016157806395d89b41146111455780639602e9f8146111c8578063a457c2d714611212578063a9059cbb14611278576103d0565b80638a279e8a1461101f5780638b30b516146110975780638da5cb5b146110d95780638f32d59b14611123576103d0565b80638129fc1c116101ce5780638129fc1c14610f8357806382dc1ec414610f8d5780638456cb5914610fd15780638705fcd414610fdb576103d0565b8063746daa4e14610e8b5780637d7c2a1c14610ef95780637dc0d1d014610f1b5780637ff9b59614610f65576103d0565b806341275358116102ef5780636287fe21116102825780636cfd1553116102515780636cfd155314610ddb5780636ef8d66d14610e1f57806370a0823114610e29578063715018a614610e81576103d0565b80636287fe2114610c2857806364d553a114610c8057806365ed6e2314610d4e57806369fe0e2d14610dad576103d0565b806350b28af7116102be57806350b28af714610b055780635478786c14610b9e5780635492450714610be85780635c975abb14610c06576103d0565b8063412753581461099757806345c8026c146109e157806346fbf68e14610a655780634c69c00f14610ac1576103d0565b80631f80b18a11610367578063313ce56711610336578063313ce5671461089557806336a00082146108b957806339509351146109275780633f4ba83a1461098d576103d0565b80631f80b18a1461073957806323b872dd1461075757806323d39ab5146107dd5780632befabbf14610827576103d0565b80630df94ef2116103a35780630df94ef2146105365780631624f6c61461058e57806318160ddd146106ed578063194a62a81461070b576103d0565b806301d22ccd146103d557806306fdde031461041f578063095ea7b3146104a25780630b56d15714610508575b600080fd5b6103dd6118a3565b604051808273ffffffffffffffffffffffffffffffffffffffff1673ffffffffffffffffffffffffffffffffffffffff16815260200191505060405180910390f35b6104276118ca565b6040518080602001828103825283818151815260200191508051906020019080838360005b8381101561046757808201518184015260208101905061044c565b50505050905090810190601f1680156104945780820380516001836020036101000a031916815260200191505b509250505060405180910390f35b6104ee600480360360408110156104b857600080fd5b81019080803573ffffffffffffffffffffffffffffffffffffffff1690602001909291908035906020019092919050505061196c565b604051808215151515815260200191505060405180910390f35b6105346004803603602081101561051e57600080fd5b810190808035906020019092919050505061198a565b005b6105786004803603602081101561054c57600080fd5b81019080803573ffffffffffffffffffffffffffffffffffffffff169060200190929190505050611a88565b6040518082815260200191505060405180910390f35b6106eb600480360360608110156105a457600080fd5b81019080803590602001906401000000008111156105c157600080fd5b8201836020820111156105d357600080fd5b803590602001918460018302840111640100000000831117156105f557600080fd5b91908080601f016020809104026020016040519081016040528093929190818152602001838380828437600081840152601f19601f8201169050808301925050505050505091929192908035906020019064010000000081111561065857600080fd5b82018360208201111561066a57600080fd5b8035906020019184600183028401116401000000008311171561068c57600080fd5b91908080601f016020809104026020016040519081016040528093929190818152602001838380828437600081840152601f19601f820116905080830192505050505050509192919290803560ff169060200190929190505050611aa1565b005b6106f5611bec565b6040518082815260200191505060405180910390f35b6107376004803603602081101561072157600080fd5b8101908080359060200190929190505050611bf6565b005b610741611fe8565b6040518082815260200191505060405180910390f35b6107c36004803603606081101561076d57600080fd5b81019080803573ffffffffffffffffffffffffffffffffffffffff169060200190929190803573ffffffffffffffffffffffffffffffffffffffff16906020019092919080359060200190929190505050611ff7565b604051808215151515815260200191505060405180910390f35b6107e56120a6565b604051808273ffffffffffffffffffffffffffffffffffffffff1673ffffffffffffffffffffffffffffffffffffffff16815260200191505060405180910390f35b61087f6004803603606081101561083d57600080fd5b8101908080359060200190929190803515159060200190929190803573ffffffffffffffffffffffffffffffffffffffff1690602001909291905050506120cd565b6040518082815260200191505060405180910390f35b61089d6123b4565b604051808260ff1660ff16815260200191505060405180910390f35b6108e5600480360360208110156108cf57600080fd5b81019080803590602001909291905050506123cb565b604051808273ffffffffffffffffffffffffffffffffffffffff1673ffffffffffffffffffffffffffffffffffffffff16815260200191505060405180910390f35b6109736004803603604081101561093d57600080fd5b81019080803573ffffffffffffffffffffffffffffffffffffffff16906020019092919080359060200190929190505050612408565b604051808215151515815260200191505060405180910390f35b6109956124bb565b005b61099f61262b565b604051808273ffffffffffffffffffffffffffffffffffffffff1673ffffffffffffffffffffffffffffffffffffffff16815260200191505060405180910390f35b610a23600480360360208110156109f757600080fd5b81019080803573ffffffffffffffffffffffffffffffffffffffff169060200190929190505050612652565b604051808273ffffffffffffffffffffffffffffffffffffffff1673ffffffffffffffffffffffffffffffffffffffff16815260200191505060405180910390f35b610aa760048036036020811015610a7b57600080fd5b81019080803573ffffffffffffffffffffffffffffffffffffffff169060200190929190505050612686565b604051808215151515815260200191505060405180910390f35b610b0360048036036020811015610ad757600080fd5b81019080803573ffffffffffffffffffffffffffffffffffffffff1690602001909291905050506126a4565b005b610b4760048036036020811015610b1b57600080fd5b81019080803573ffffffffffffffffffffffffffffffffffffffff169060200190929190505050612806565b6040518080602001828103825283818151815260200191508051906020019060200280838360005b83811015610b8a578082015181840152602081019050610b6f565b505050509050019250505060405180910390f35b610ba66129c1565b604051808273ffffffffffffffffffffffffffffffffffffffff1673ffffffffffffffffffffffffffffffffffffffff16815260200191505060405180910390f35b610bf06129d9565b6040518082815260200191505060405180910390f35b610c0e6129e0565b604051808215151515815260200191505060405180910390f35b610c6a60048036036020811015610c3e57600080fd5b81019080803573ffffffffffffffffffffffffffffffffffffffff1690602001909291905050506129f8565b6040518082815260200191505060405180910390f35b610d4c60048036036040811015610c9657600080fd5b8101908080359060200190640100000000811115610cb357600080fd5b820183602082011115610cc557600080fd5b80359060200191846020830284011164010000000083111715610ce757600080fd5b909192939192939080359060200190640100000000811115610d0857600080fd5b820183602082011115610d1a57600080fd5b80359060200191846020830284011164010000000083111715610d3c57600080fd5b9091929391929390505050612a11565b005b610d56612ce9565b6040518080602001828103825283818151815260200191508051906020019060200280838360005b83811015610d99578082015181840152602081019050610d7e565b505050509050019250505060405180910390f35b610dd960048036036020811015610dc357600080fd5b8101908080359060200190929190505050612d42565b005b610e1d60048036036020811015610df157600080fd5b81019080803573ffffffffffffffffffffffffffffffffffffffff169060200190929190505050612e3f565b005b610e27612fa1565b005b610e6b60048036036020811015610e3f57600080fd5b81019080803573ffffffffffffffffffffffffffffffffffffffff169060200190929190505050612fb3565b6040518082815260200191505060405180910390f35b610e89612ffc565b005b610eb760048036036020811015610ea157600080fd5b8101908080359060200190929190505050613137565b604051808273ffffffffffffffffffffffffffffffffffffffff1673ffffffffffffffffffffffffffffffffffffffff16815260200191505060405180910390f35b610f01613174565b604051808215151515815260200191505060405180910390f35b610f23613183565b604051808273ffffffffffffffffffffffffffffffffffffffff1673ffffffffffffffffffffffffffffffffffffffff16815260200191505060405180910390f35b610f6d6131aa565b6040518082815260200191505060405180910390f35b610f8b6131b9565b005b610fcf60048036036020811015610fa357600080fd5b81019080803573ffffffffffffffffffffffffffffffffffffffff169060200190929190505050613309565b005b610fd961337a565b005b61101d60048036036020811015610ff157600080fd5b81019080803573ffffffffffffffffffffffffffffffffffffffff1690602001909291905050506134eb565b005b6110816004803603604081101561103557600080fd5b81019080803573ffffffffffffffffffffffffffffffffffffffff169060200190929190803573ffffffffffffffffffffffffffffffffffffffff16906020019092919050505061364d565b6040518082815260200191505060405180910390f35b6110c3600480360360208110156110ad57600080fd5b8101908080359060200190929190505050613673565b6040518082815260200191505060405180910390f35b6110e1613a51565b604051808273ffffffffffffffffffffffffffffffffffffffff1673ffffffffffffffffffffffffffffffffffffffff16815260200191505060405180910390f35b61112b613a7b565b604051808215151515815260200191505060405180910390f35b61114d613ada565b6040518080602001828103825283818151815260200191508051906020019080838360005b8381101561118d578082015181840152602081019050611172565b50505050905090810190601f1680156111ba5780820380516001836020036101000a031916815260200191505b509250505060405180910390f35b6111d0613b7c565b604051808273ffffffffffffffffffffffffffffffffffffffff1673ffffffffffffffffffffffffffffffffffffffff16815260200191505060405180910390f35b61125e6004803603604081101561122857600080fd5b81019080803573ffffffffffffffffffffffffffffffffffffffff16906020019092919080359060200190929190505050613b94565b604051808215151515815260200191505060405180910390f35b6112c46004803603604081101561128e57600080fd5b81019080803573ffffffffffffffffffffffffffffffffffffffff16906020019092919080359060200190929190505050613c61565b604051808215151515815260200191505060405180910390f35b611320600480360360208110156112f457600080fd5b81019080803573ffffffffffffffffffffffffffffffffffffffff169060200190929190505050613ccf565b6040518082815260200191505060405180910390f35b6113626004803603602081101561134c57600080fd5b8101908080359060200190929190505050613ce8565b6040518082815260200191505060405180910390f35b611380613d0a565b604051808060200180602001838103835285818151815260200191508051906020019060200280838360005b838110156113c75780820151818401526020810190506113ac565b50505050905001838103825284818151815260200191508051906020019060200280838360005b838110156114095780820151818401526020810190506113ee565b5050505090500194505050505060405180910390f35b611427613f21565b604051808273ffffffffffffffffffffffffffffffffffffffff1673ffffffffffffffffffffffffffffffffffffffff16815260200191505060405180910390f35b6114e06004803603602081101561147f57600080fd5b810190808035906020019064010000000081111561149c57600080fd5b8201836020820111156114ae57600080fd5b803590602001918460208302840111640100000000831117156114d057600080fd5b9091929391929390505050613f39565b005b611524600480360360208110156114f857600080fd5b81019080803573ffffffffffffffffffffffffffffffffffffffff169060200190929190505050614088565b005b61152e6141ad565b604051808215151515815260200191505060405180910390f35b6115766004803603602081101561155e57600080fd5b810190808035151590602001909291905050506141c1565b005b6116a56004803603608081101561158e57600080fd5b81019080803590602001906401000000008111156115ab57600080fd5b8201836020820111156115bd57600080fd5b803590602001918460208302840111640100000000831117156115df57600080fd5b90919293919293908035906020019064010000000081111561160057600080fd5b82018360208201111561161257600080fd5b8035906020019184602083028401116401000000008311171561163457600080fd5b90919293919293908035906020019064010000000081111561165557600080fd5b82018360208201111561166757600080fd5b8035906020019184602083028401116401000000008311171561168957600080fd5b9091929391929390803515159060200190929190505050614259565b005b61171e600480360360208110156116bd57600080fd5b81019080803590602001906401000000008111156116da57600080fd5b8201836020820111156116ec57600080fd5b8035906020019184602083028401116401000000008311171561170e57600080fd5b9091929391929390505050614671565b60405180831515151581526020018281526020019250505060405180910390f35b61174761486f565b604051808215151515815260200191505060405180910390f35b6117c36004803603604081101561177757600080fd5b81019080803573ffffffffffffffffffffffffffffffffffffffff169060200190929190803573ffffffffffffffffffffffffffffffffffffffff169060200190929190505050614892565b6040518082815260200191505060405180910390f35b6117e1614919565b6040518082815260200191505060405180910390f35b6117ff614920565b6040518082815260200191505060405180910390f35b6118576004803603602081101561182b57600080fd5b81019080803573ffffffffffffffffffffffffffffffffffffffff169060200190929190505050614927565b005b6118616149ad565b604051808273ffffffffffffffffffffffffffffffffffffffff1673ffffffffffffffffffffffffffffffffffffffff16815260200191505060405180910390f35b61016d60009054906101000a900473ffffffffffffffffffffffffffffffffffffffff1681565b606060688054600181600116156101000203166002900480601f0160208091040260200160405190810160405280929190818152602001828054600181600116156101000203166002900480156119625780601f1061193757610100808354040283529160200191611962565b820191906000526020600020905b81548152906001019060200180831161194557829003601f168201915b5050505050905090565b60006119806119796149d4565b84846149dc565b6001905092915050565b611992613a7b565b611a04576040517f08c379a00000000000000000000000000000000000000000000000000000000081526004018080602001828103825260208152602001807f4f776e61626c653a2063616c6c6572206973206e6f7420746865206f776e657281525060200191505060405180910390fd5b620186a0811115611a7d576040517f08c379a000000000000000000000000000000000000000000000000000000000815260040180806020018281038252600d8152602001807f49444c453a544f4f5f484947480000000000000000000000000000000000000081525060200191505060405180910390fd5b806101718190555050565b6101766020528060005260406000206000915090505481565b600060019054906101000a900460ff1680611ac05750611abf614bd3565b5b80611ad757506000809054906101000a900460ff16155b611b2c576040517f08c379a000000000000000000000000000000000000000000000000000000000815260040180806020018281038252602e815260200180619f9b602e913960400191505060405180910390fd5b60008060019054906101000a900460ff161590508015611b7c576001600060016101000a81548160ff02191690831515021790555060016000806101000a81548160ff0219169083151502179055505b8360689080519060200190611b92929190619c35565b508260699080519060200190611ba9929190619c35565b5081606a60006101000a81548160ff021916908360ff1602179055508015611be65760008060016101000a81548160ff0219169083151502179055505b50505050565b6000603554905090565b6001609d600082825401925050819055506000609d54905061013660009054906101000a900460ff16611c91576040517f08c379a00000000000000000000000000000000000000000000000000000000081526004018080602001828103825260148152602001807f5061757361626c653a206e6f742070617573656400000000000000000000000081525060200191505060405180910390fd5b611c99614bea565b611ca4336000614cc2565b6000611cae611bec565b9050600080600090505b61017380549050811015611e14576101738181548110611cd457fe5b9060005260206000200160009054906101000a900473ffffffffffffffffffffffffffffffffffffffff169150611e0733611de185611dd38673ffffffffffffffffffffffffffffffffffffffff166370a08231306040518263ffffffff1660e01b8152600401808273ffffffffffffffffffffffffffffffffffffffff1673ffffffffffffffffffffffffffffffffffffffff16815260200191505060206040518083038186803b158015611d8957600080fd5b505afa158015611d9d573d6000803e3d6000fd5b505050506040513d6020811015611db357600080fd5b81019080805190602001909291905050508a61557b90919063ffffffff16565b61560190919063ffffffff16565b8473ffffffffffffffffffffffffffffffffffffffff1661564b9092919063ffffffff16565b8080600101915050611cb8565b50611f6133611f1884611f0a61016a60009054906101000a900473ffffffffffffffffffffffffffffffffffffffff1673ffffffffffffffffffffffffffffffffffffffff166370a08231306040518263ffffffff1660e01b8152600401808273ffffffffffffffffffffffffffffffffffffffff1673ffffffffffffffffffffffffffffffffffffffff16815260200191505060206040518083038186803b158015611ec057600080fd5b505afa158015611ed4573d6000803e3d6000fd5b505050506040513d6020811015611eea57600080fd5b81019080805190602001909291905050508961557b90919063ffffffff16565b61560190919063ffffffff16565b61016a60009054906101000a900473ffffffffffffffffffffffffffffffffffffffff1673ffffffffffffffffffffffffffffffffffffffff1661564b9092919063ffffffff16565b611f6b338561571c565b5050609d548114611fe4576040517f08c379a000000000000000000000000000000000000000000000000000000000815260040180806020018281038252601f8152602001807f5265656e7472616e637947756172643a207265656e7472616e742063616c6c0081525060200191505060405180910390fd5b5050565b6000611ff26158d6565b905090565b6000612004848484615b90565b61200f848484615fa1565b61204f843361204a85604051806060016040528060288152602001619f516028913961203b8a33614892565b61625b9092919063ffffffff16565b6149dc565b61209b84848461017660008973ffffffffffffffffffffffffffffffffffffffff1673ffffffffffffffffffffffffffffffffffffffff1681526020019081526020016000205461631b565b600190509392505050565b61016960009054906101000a900473ffffffffffffffffffffffffffffffffffffffff1681565b60006001609d600082825401925050819055506000609d54905061013660009054906101000a900460ff161561216b576040517f08c379a00000000000000000000000000000000000000000000000000000000081526004018080602001828103825260108152602001807f5061757361626c653a207061757365640000000000000000000000000000000081525060200191505060405180910390fd5b3243604051602001808373ffffffffffffffffffffffffffffffffffffffff1673ffffffffffffffffffffffffffffffffffffffff1660601b8152601401828152602001925050506040516020818303038152906040528051906020012061017c819055506121db336000614cc2565b60006121e56166a9565b905061223733308861016a60009054906101000a900473ffffffffffffffffffffffffffffffffffffffff1673ffffffffffffffffffffffffffffffffffffffff166169ff909392919063ffffffff16565b8461224657612244616b05565b505b61227381612265670de0b6b3a76400008961557b90919063ffffffff16565b61560190919063ffffffff16565b925061227f338461727e565b61228a33848361743b565b6122943384617628565b600073ffffffffffffffffffffffffffffffffffffffff168473ffffffffffffffffffffffffffffffffffffffff1614612334577f496d589d8b7eb829a8d7b30e24a326ac33991f5cea96429b69231a6b15b54b1d8685604051808381526020018273ffffffffffffffffffffffffffffffffffffffff1673ffffffffffffffffffffffffffffffffffffffff1681526020019250505060405180910390a15b50609d5481146123ac576040517f08c379a000000000000000000000000000000000000000000000000000000000815260040180806020018281038252601f8152602001807f5265656e7472616e637947756172643a207265656e7472616e742063616c6c0081525060200191505060405180910390fd5b509392505050565b6000606a60009054906101000a900460ff16905090565b61017381815481106123d957fe5b906000526020600020016000915054906101000a900473ffffffffffffffffffffffffffffffffffffffff1681565b60006124b16124156149d4565b846124ac85603460006124266149d4565b73ffffffffffffffffffffffffffffffffffffffff1673ffffffffffffffffffffffffffffffffffffffff16815260200190815260200160002060008973ffffffffffffffffffffffffffffffffffffffff1673ffffffffffffffffffffffffffffffffffffffff1681526020019081526020016000205461783d90919063ffffffff16565b6149dc565b6001905092915050565b6124cb6124c66149d4565b612686565b612520576040517f08c379a0000000000000000000000000000000000000000000000000000000008152600401808060200182810382526030815260200180619e716030913960400191505060405180910390fd5b61013660009054906101000a900460ff166125a3576040517f08c379a00000000000000000000000000000000000000000000000000000000081526004018080602001828103825260148152602001807f5061757361626c653a206e6f742070617573656400000000000000000000000081525060200191505060405180910390fd5b600061013660006101000a81548160ff0219169083151502179055507f5db9ee0a495bf2e6ff9c91a7834c1ba4fdd244a5e8aa4e537bd38aeae4b073aa6125e86149d4565b604051808273ffffffffffffffffffffffffffffffffffffffff1673ffffffffffffffffffffffffffffffffffffffff16815260200191505060405180910390a1565b61016e60009054906101000a900473ffffffffffffffffffffffffffffffffffffffff1681565b6101776020528060005260406000206000915054906101000a900473ffffffffffffffffffffffffffffffffffffffff1681565b600061269d826101036178c590919063ffffffff16565b9050919050565b6126ac613a7b565b61271e576040517f08c379a00000000000000000000000000000000000000000000000000000000081526004018080602001828103825260208152602001807f4f776e61626c653a2063616c6c6572206973206e6f7420746865206f776e657281525060200191505060405180910390fd5b600073ffffffffffffffffffffffffffffffffffffffff168173ffffffffffffffffffffffffffffffffffffffff1614156127c1576040517f08c379a00000000000000000000000000000000000000000000000000000000081526004018080602001828103825260098152602001807f49444c453a49535f30000000000000000000000000000000000000000000000081525060200191505060405180910390fd5b8061017d60006101000a81548173ffffffffffffffffffffffffffffffffffffffff021916908373ffffffffffffffffffffffffffffffffffffffff16021790555050565b606060008061281484612fb3565b90506101748054905060405190808252806020026020018201604052801561284b5781602001602082028038833980820191505090505b50925060008090505b83518110156129b957610174818154811061286b57fe5b9060005260206000200160009054906101000a900473ffffffffffffffffffffffffffffffffffffffff169250612994670de0b6b3a764000061298661297761017960008873ffffffffffffffffffffffffffffffffffffffff1673ffffffffffffffffffffffffffffffffffffffff16815260200190815260200160002060008a73ffffffffffffffffffffffffffffffffffffffff1673ffffffffffffffffffffffffffffffffffffffff1681526020019081526020016000205461017a60008973ffffffffffffffffffffffffffffffffffffffff1673ffffffffffffffffffffffffffffffffffffffff168152602001908152602001600020546179a390919063ffffffff16565b8561557b90919063ffffffff16565b61560190919063ffffffff16565b8482815181106129a057fe5b6020026020010181815250508080600101915050612854565b505050919050565b73875773784af8135ea0ef43b5a374aad105c5d39e81565b6101715481565b600061013660009054906101000a900460ff16905090565b6101786020528060005260406000206000915090505481565b612a19613a7b565b612a8b576040517f08c379a00000000000000000000000000000000000000000000000000000000081526004018080602001828103825260208152602001807f4f776e61626c653a2063616c6c6572206973206e6f7420746865206f776e657281525060200191505060405180910390fd5b83836101749190612a9d929190619cb5565b5060008090505b61017380549050811015612b7757600061017e60006101738481548110612ac757fe5b9060005260206000200160009054906101000a900473ffffffffffffffffffffffffffffffffffffffff1673ffffffffffffffffffffffffffffffffffffffff1673ffffffffffffffffffffffffffffffffffffffff16815260200190815260200160002060006101000a81548173ffffffffffffffffffffffffffffffffffffffff021916908373ffffffffffffffffffffffffffffffffffffffff1602179055508080600101915050612aa4565b5060008090505b82829050811015612ce2576000858583818110612b9757fe5b9050602002013573ffffffffffffffffffffffffffffffffffffffff16905073875773784af8135ea0ef43b5a374aad105c5d39e73ffffffffffffffffffffffffffffffffffffffff168173ffffffffffffffffffffffffffffffffffffffff161415612c045750612cd5565b858583818110612c1057fe5b9050602002013573ffffffffffffffffffffffffffffffffffffffff1661017e6000868686818110612c3e57fe5b9050602002013573ffffffffffffffffffffffffffffffffffffffff1673ffffffffffffffffffffffffffffffffffffffff1673ffffffffffffffffffffffffffffffffffffffff16815260200190815260200160002060006101000a81548173ffffffffffffffffffffffffffffffffffffffff021916908373ffffffffffffffffffffffffffffffffffffffff160217905550505b8080600101915050612b7e565b5050505050565b6060610180805480602002602001604051908101604052809291908181526020018280548015612d3857602002820191906000526020600020905b815481526020019060010190808311612d24575b5050505050905090565b612d4a613a7b565b612dbc576040517f08c379a00000000000000000000000000000000000000000000000000000000081526004018080602001828103825260208152602001807f4f776e61626c653a2063616c6c6572206973206e6f7420746865206f776e657281525060200191505060405180910390fd5b612710811115612e34576040517f08c379a000000000000000000000000000000000000000000000000000000000815260040180806020018281038252600d8152602001807f49444c453a544f4f5f484947480000000000000000000000000000000000000081525060200191505060405180910390fd5b806101728190555050565b612e47613a7b565b612eb9576040517f08c379a00000000000000000000000000000000000000000000000000000000081526004018080602001828103825260208152602001807f4f776e61626c653a2063616c6c6572206973206e6f7420746865206f776e657281525060200191505060405180910390fd5b600073ffffffffffffffffffffffffffffffffffffffff168173ffffffffffffffffffffffffffffffffffffffff161415612f5c576040517f08c379a00000000000000000000000000000000000000000000000000000000081526004018080602001828103825260098152602001807f49444c453a49535f30000000000000000000000000000000000000000000000081525060200191505060405180910390fd5b8061016d60006101000a81548173ffffffffffffffffffffffffffffffffffffffff021916908373ffffffffffffffffffffffffffffffffffffffff16021790555050565b612fb1612fac6149d4565b6179ed565b565b6000603360008373ffffffffffffffffffffffffffffffffffffffff1673ffffffffffffffffffffffffffffffffffffffff168152602001908152602001600020549050919050565b613004613a7b565b613076576040517f08c379a00000000000000000000000000000000000000000000000000000000081526004018080602001828103825260208152602001807f4f776e61626c653a2063616c6c6572206973206e6f7420746865206f776e657281525060200191505060405180910390fd5b600073ffffffffffffffffffffffffffffffffffffffff1660d060009054906101000a900473ffffffffffffffffffffffffffffffffffffffff1673ffffffffffffffffffffffffffffffffffffffff167f8be0079c531659141344cd1fd0a4f28419497f9722a3daafe3b4186f6b6457e060405160405180910390a3600060d060006101000a81548173ffffffffffffffffffffffffffffffffffffffff021916908373ffffffffffffffffffffffffffffffffffffffff160217905550565b610174818154811061314557fe5b906000526020600020016000915054906101000a900473ffffffffffffffffffffffffffffffffffffffff1681565b600061317e616b05565b905090565b61017d60009054906101000a900473ffffffffffffffffffffffffffffffffffffffff1681565b60006131b46166a9565b905090565b600060019054906101000a900460ff16806131d857506131d7614bd3565b5b806131ef57506000809054906101000a900460ff16155b613244576040517f08c379a000000000000000000000000000000000000000000000000000000000815260040180806020018281038252602e815260200180619f9b602e913960400191505060405180910390fd5b60008060019054906101000a900460ff161590508015613294576001600060016101000a81548160ff02191690831515021790555060016000806101000a81548160ff0219169083151502179055505b6eb3f879cb30fe243b4dfee438691c0461016960006101000a81548173ffffffffffffffffffffffffffffffffffffffff021916908373ffffffffffffffffffffffffffffffffffffffff16021790555080156133065760008060016101000a81548160ff0219169083151502179055505b50565b6133196133146149d4565b612686565b61336e576040517f08c379a0000000000000000000000000000000000000000000000000000000008152600401808060200182810382526030815260200180619e716030913960400191505060405180910390fd5b61337781617a48565b50565b61338a6133856149d4565b612686565b6133df576040517f08c379a0000000000000000000000000000000000000000000000000000000008152600401808060200182810382526030815260200180619e716030913960400191505060405180910390fd5b61013660009054906101000a900460ff1615613463576040517f08c379a00000000000000000000000000000000000000000000000000000000081526004018080602001828103825260108152602001807f5061757361626c653a207061757365640000000000000000000000000000000081525060200191505060405180910390fd5b600161013660006101000a81548160ff0219169083151502179055507f62e78cea01bee320cd4e420270b5ea74000d11b0c9f74754ebdbfc544b05a2586134a86149d4565b604051808273ffffffffffffffffffffffffffffffffffffffff1673ffffffffffffffffffffffffffffffffffffffff16815260200191505060405180910390a1565b6134f3613a7b565b613565576040517f08c379a00000000000000000000000000000000000000000000000000000000081526004018080602001828103825260208152602001807f4f776e61626c653a2063616c6c6572206973206e6f7420746865206f776e657281525060200191505060405180910390fd5b600073ffffffffffffffffffffffffffffffffffffffff168173ffffffffffffffffffffffffffffffffffffffff161415613608576040517f08c379a00000000000000000000000000000000000000000000000000000000081526004018080602001828103825260098152602001807f49444c453a49535f30000000000000000000000000000000000000000000000081525060200191505060405180910390fd5b8061016e60006101000a81548173ffffffffffffffffffffffffffffffffffffffff021916908373ffffffffffffffffffffffffffffffffffffffff16021790555050565b610179602052816000526040600020602052806000526040600020600091509150505481565b60006001609d600082825401925050819055506000609d549050613695614bea565b6136a0336000614cc2565b60006136aa6166a9565b905060006136db670de0b6b3a76400006136cd848861557b90919063ffffffff16565b61560190919063ffffffff16565b9050600061016a60009054906101000a900473ffffffffffffffffffffffffffffffffffffffff1673ffffffffffffffffffffffffffffffffffffffff166370a08231306040518263ffffffff1660e01b8152600401808273ffffffffffffffffffffffffffffffffffffffff1673ffffffffffffffffffffffffffffffffffffffff16815260200191505060206040518083038186803b15801561377f57600080fd5b505afa158015613793573d6000803e3d6000fd5b505050506040513d60208110156137a957600080fd5b8101908080519060200190929190505050905060006137c6611bec565b90508183116137d75782955061396b565b600080600090505b6101738054905081101561392f5761017381815481106137fb57fe5b9060005260206000200160009054906101000a900473ffffffffffffffffffffffffffffffffffffffff1691506139206139118361390b866138fd8773ffffffffffffffffffffffffffffffffffffffff166370a08231306040518263ffffffff1660e01b8152600401808273ffffffffffffffffffffffffffffffffffffffff1673ffffffffffffffffffffffffffffffffffffffff16815260200191505060206040518083038186803b1580156138b357600080fd5b505afa1580156138c7573d6000803e3d6000fd5b505050506040513d60208110156138dd57600080fd5b81019080805190602001909291905050508f61557b90919063ffffffff16565b61560190919063ffffffff16565b30617aa3565b8961783d90919063ffffffff16565b975080806001019150506137df565b506139676139588361394a868c61557b90919063ffffffff16565b61560190919063ffffffff16565b8861783d90919063ffffffff16565b9650505b613976878786617c64565b9550613982338861571c565b6139d0338761016a60009054906101000a900473ffffffffffffffffffffffffffffffffffffffff1673ffffffffffffffffffffffffffffffffffffffff1661564b9092919063ffffffff16565b50505050609d548114613a4b576040517f08c379a000000000000000000000000000000000000000000000000000000000815260040180806020018281038252601f8152602001807f5265656e7472616e637947756172643a207265656e7472616e742063616c6c0081525060200191505060405180910390fd5b50919050565b600060d060009054906101000a900473ffffffffffffffffffffffffffffffffffffffff16905090565b600060d060009054906101000a900473ffffffffffffffffffffffffffffffffffffffff1673ffffffffffffffffffffffffffffffffffffffff16613abe6149d4565b73ffffffffffffffffffffffffffffffffffffffff1614905090565b606060698054600181600116156101000203166002900480601f016020809104026020016040519081016040528092919081815260200182805460018160011615610100020316600290048015613b725780601f10613b4757610100808354040283529160200191613b72565b820191906000526020600020905b815481529060010190602001808311613b5557829003601f168201915b5050505050905090565b73275da8e61ea8e02d51edd8d0dc5c0e62b4cdb0be81565b6000613c57613ba16149d4565b84613c528560405180606001604052806025815260200161a05d6025913960346000613bcb6149d4565b73ffffffffffffffffffffffffffffffffffffffff1673ffffffffffffffffffffffffffffffffffffffff16815260200190815260200160002060008a73ffffffffffffffffffffffffffffffffffffffff1673ffffffffffffffffffffffffffffffffffffffff1681526020019081526020016000205461625b9092919063ffffffff16565b6149dc565b6001905092915050565b6000613c6e338484615b90565b613c79338484615fa1565b613cc533848461017660003373ffffffffffffffffffffffffffffffffffffffff1673ffffffffffffffffffffffffffffffffffffffff1681526020019081526020016000205461631b565b6001905092915050565b61017a6020528060005260406000206000915090505481565b6101758181548110613cf657fe5b906000526020600020016000915090505481565b606080600061017380549050604051908082528060200260200182016040528015613d445781602001602082028038833980820191505090505b50925061017380549050604051908082528060200260200182016040528015613d7c5781602001602082028038833980820191505090505b50915060008090505b61017380549050811015613f1b576101738181548110613da157fe5b9060005260206000200160009054906101000a900473ffffffffffffffffffffffffffffffffffffffff16915081848281518110613ddb57fe5b602002602001019073ffffffffffffffffffffffffffffffffffffffff16908173ffffffffffffffffffffffffffffffffffffffff168152505061017760008373ffffffffffffffffffffffffffffffffffffffff1673ffffffffffffffffffffffffffffffffffffffff16815260200190815260200160002060009054906101000a900473ffffffffffffffffffffffffffffffffffffffff1673ffffffffffffffffffffffffffffffffffffffff1663c89d5b8b6040518163ffffffff1660e01b815260040160206040518083038186803b158015613ebb57600080fd5b505afa158015613ecf573d6000803e3d6000fd5b505050506040513d6020811015613ee557600080fd5b8101908080519060200190929190505050838281518110613f0257fe5b6020026020010181815250508080600101915050613d85565b50509091565b73c00e94cb662c3520282e6f5717214004a7f2688881565b61016d60009054906101000a900473ffffffffffffffffffffffffffffffffffffffff1673ffffffffffffffffffffffffffffffffffffffff163373ffffffffffffffffffffffffffffffffffffffff161480613fc85750613f99613a51565b73ffffffffffffffffffffffffffffffffffffffff163373ffffffffffffffffffffffffffffffffffffffff16145b61403a576040517f08c379a000000000000000000000000000000000000000000000000000000000815260040180806020018281038252600a8152602001807f49444c453a21415554480000000000000000000000000000000000000000000081525060200191505060405180910390fd5b614084828280806020026020016040519081016040528093929190818152602001838360200280828437600081840152601f19601f82011690508083019250505050505050617f1f565b5050565b600060019054906101000a900460ff16806140a757506140a6614bd3565b5b806140be57506000809054906101000a900460ff16155b614113576040517f08c379a000000000000000000000000000000000000000000000000000000000815260040180806020018281038252602e815260200180619f9b602e913960400191505060405180910390fd5b60008060019054906101000a900460ff161590508015614163576001600060016101000a81548160ff02191690831515021790555060016000806101000a81548160ff0219169083151502179055505b61416c82618076565b600061013660006101000a81548160ff02191690831515021790555080156141a95760008060016101000a81548160ff0219169083151502179055505b5050565b61017f60009054906101000a900460ff1681565b6141c9613a7b565b61423b576040517f08c379a00000000000000000000000000000000000000000000000000000000081526004018080602001828103825260208152602001807f4f776e61626c653a2063616c6c6572206973206e6f7420746865206f776e657281525060200191505060405180910390fd5b8061017f60006101000a81548160ff02191690831515021790555050565b614261613a7b565b6142d3576040517f08c379a00000000000000000000000000000000000000000000000000000000081526004018080602001828103825260208152602001807f4f776e61626c653a2063616c6c6572206973206e6f7420746865206f776e657281525060200191505060405180910390fd5b84849050878790501480156142f55750848490508383905014806142f45750805b5b614367576040517f08c379a000000000000000000000000000000000000000000000000000000000815260040180806020018281038252600d8152602001807f49444c453a4c454e5f444946460000000000000000000000000000000000000081525060200191505060405180910390fd5b60008090505b8787905081101561458057600073ffffffffffffffffffffffffffffffffffffffff1688888381811061439c57fe5b9050602002013573ffffffffffffffffffffffffffffffffffffffff1673ffffffffffffffffffffffffffffffffffffffff16141580156144325750600073ffffffffffffffffffffffffffffffffffffffff168686838181106143fc57fe5b9050602002013573ffffffffffffffffffffffffffffffffffffffff1673ffffffffffffffffffffffffffffffffffffffff1614155b6144a4576040517f08c379a00000000000000000000000000000000000000000000000000000000081526004018080602001828103825260098152602001807f49444c453a49535f30000000000000000000000000000000000000000000000081525060200191505060405180910390fd5b8585828181106144b057fe5b9050602002013573ffffffffffffffffffffffffffffffffffffffff1661017760008a8a858181106144de57fe5b9050602002013573ffffffffffffffffffffffffffffffffffffffff1673ffffffffffffffffffffffffffffffffffffffff1673ffffffffffffffffffffffffffffffffffffffff16815260200190815260200160002060006101000a81548173ffffffffffffffffffffffffffffffffffffffff021916908373ffffffffffffffffffffffffffffffffffffffff160217905550808060010191505061436d565b5086866101739190614593929190619cb5565b50801561461d57610173805490508787905014614618576040517f08c379a000000000000000000000000000000000000000000000000000000000815260040180806020018281038252600e8152602001807f49444c453a4c454e5f444946463200000000000000000000000000000000000081525060200191505060405180910390fd5b614668565b614667838380806020026020016040519081016040528093929190818152602001838360200280828437600081840152601f19601f82011690508083019250505050505050617f1f565b5b50505050505050565b60008061013660009054906101000a900460ff16156146f8576040517f08c379a00000000000000000000000000000000000000000000000000000000081526004018080602001828103825260108152602001807f5061757361626c653a207061757365640000000000000000000000000000000081525060200191505060405180910390fd5b61017f60009054906101000a900460ff161561477c576040517f08c379a00000000000000000000000000000000000000000000000000000000081526004018080602001828103825260108152602001807f49444c453a4e4f545f414c4c4f5745440000000000000000000000000000000081525060200191505060405180910390fd5b60006147866158d6565b90506147d2858580806020026020016040519081016040528093929190818152602001838360200280828437600081840152601f19601f82011690508083019250505050505050617f1f565b60006147dc616b05565b905060006147e86158d6565b905082811161485f576040517f08c379a000000000000000000000000000000000000000000000000000000000815260040180806020018281038252600f8152602001807f49444c453a4e4f545f494d50524f56000000000000000000000000000000000081525060200191505060405180910390fd5b8181945094505050509250929050565b60003360005a905061487f616b05565b925061488d5a82038361818d565b505090565b6000603460008473ffffffffffffffffffffffffffffffffffffffff1673ffffffffffffffffffffffffffffffffffffffff16815260200190815260200160002060008373ffffffffffffffffffffffffffffffffffffffff1673ffffffffffffffffffffffffffffffffffffffff16815260200190815260200160002054905092915050565b6101725481565b61016f5481565b61492f613a7b565b6149a1576040517f08c379a00000000000000000000000000000000000000000000000000000000081526004018080602001828103825260208152602001807f4f776e61626c653a2063616c6c6572206973206e6f7420746865206f776e657281525060200191505060405180910390fd5b6149aa816182c6565b50565b61016a60009054906101000a900473ffffffffffffffffffffffffffffffffffffffff1681565b600033905090565b600073ffffffffffffffffffffffffffffffffffffffff168373ffffffffffffffffffffffffffffffffffffffff161415614a62576040517f08c379a000000000000000000000000000000000000000000000000000000000815260040180806020018281038252602481526020018061a00f6024913960400191505060405180910390fd5b600073ffffffffffffffffffffffffffffffffffffffff168273ffffffffffffffffffffffffffffffffffffffff161415614ae8576040517f08c379a0000000000000000000000000000000000000000000000000000000008152600401808060200182810382526022815260200180619ec76022913960400191505060405180910390fd5b80603460008573ffffffffffffffffffffffffffffffffffffffff1673ffffffffffffffffffffffffffffffffffffffff16815260200190815260200160002060008473ffffffffffffffffffffffffffffffffffffffff1673ffffffffffffffffffffffffffffffffffffffff168152602001908152602001600020819055508173ffffffffffffffffffffffffffffffffffffffff168373ffffffffffffffffffffffffffffffffffffffff167f8c5be1e5ebec7d5bd14f71427d1e84f3dd0314c0f7b2291e5b200ac8c7c3b925836040518082815260200191505060405180910390a3505050565b6000803090506000813b9050600081149250505090565b61017c543243604051602001808373ffffffffffffffffffffffffffffffffffffffff1673ffffffffffffffffffffffffffffffffffffffff1660601b815260140182815260200192505050604051602081830303815290604052805190602001201415614cc0576040517f08c379a000000000000000000000000000000000000000000000000000000000815260040180806020018281038252600b8152602001807f49444c453a5245454e545200000000000000000000000000000000000000000081525060200191505060405180910390fd5b565b6000610174805490501415614cd657615577565b6000614ce0611bec565b90506000614ced84612fb3565b9050600080600090505b61017480549050811015615572576101748181548110614d1357fe5b9060005260206000200160009054906101000a900473ffffffffffffffffffffffffffffffffffffffff1691506000841115614f7a5784614d5857614d578261840c565b5b60008273ffffffffffffffffffffffffffffffffffffffff166370a08231306040518263ffffffff1660e01b8152600401808273ffffffffffffffffffffffffffffffffffffffff1673ffffffffffffffffffffffffffffffffffffffff16815260200191505060206040518083038186803b158015614dd757600080fd5b505afa158015614deb573d6000803e3d6000fd5b505050506040513d6020811015614e0157600080fd5b810190808051906020019092919050505090506000811115614f7857614eee614e9f86614e91670de0b6b3a7640000614e8361017860008a73ffffffffffffffffffffffffffffffffffffffff1673ffffffffffffffffffffffffffffffffffffffff16815260200190815260200160002054876179a390919063ffffffff16565b61557b90919063ffffffff16565b61560190919063ffffffff16565b61017a60008673ffffffffffffffffffffffffffffffffffffffff1673ffffffffffffffffffffffffffffffffffffffff1681526020019081526020016000205461783d90919063ffffffff16565b61017a60008573ffffffffffffffffffffffffffffffffffffffff1673ffffffffffffffffffffffffffffffffffffffff168152602001908152602001600020819055508061017860008573ffffffffffffffffffffffffffffffffffffffff1673ffffffffffffffffffffffffffffffffffffffff168152602001908152602001600020819055505b505b60008311156154a1578461549c57600061017960008473ffffffffffffffffffffffffffffffffffffffff1673ffffffffffffffffffffffffffffffffffffffff16815260200190815260200160002060008873ffffffffffffffffffffffffffffffffffffffff1673ffffffffffffffffffffffffffffffffffffffff16815260200190815260200160002054905061017a60008473ffffffffffffffffffffffffffffffffffffffff1673ffffffffffffffffffffffffffffffffffffffff1681526020019081526020016000205461017960008573ffffffffffffffffffffffffffffffffffffffff1673ffffffffffffffffffffffffffffffffffffffff16815260200190815260200160002060008973ffffffffffffffffffffffffffffffffffffffff1673ffffffffffffffffffffffffffffffffffffffff1681526020019081526020016000208190555060006151218261017a60008773ffffffffffffffffffffffffffffffffffffffff1673ffffffffffffffffffffffffffffffffffffffff168152602001908152602001600020546179a390919063ffffffff16565b90506000811415615133575050615565565b6000615162670de0b6b3a7640000615154848961557b90919063ffffffff16565b61560190919063ffffffff16565b905060008573ffffffffffffffffffffffffffffffffffffffff166370a08231306040518263ffffffff1660e01b8152600401808273ffffffffffffffffffffffffffffffffffffffff1673ffffffffffffffffffffffffffffffffffffffff16815260200191505060206040518083038186803b1580156151e357600080fd5b505afa1580156151f7573d6000803e3d6000fd5b505050506040513d602081101561520d57600080fd5b810190808051906020019092919050505090508082111561522c578091505b60008073ffffffffffffffffffffffffffffffffffffffff1661016e60009054906101000a900473ffffffffffffffffffffffffffffffffffffffff1673ffffffffffffffffffffffffffffffffffffffff16141580156152905750600061017254115b80156152dc575073875773784af8135ea0ef43b5a374aad105c5d39e73ffffffffffffffffffffffffffffffffffffffff168773ffffffffffffffffffffffffffffffffffffffff1614155b1561535d5761530c620186a06152fe610172548661557b90919063ffffffff16565b61560190919063ffffffff16565b905061535c61016e60009054906101000a900473ffffffffffffffffffffffffffffffffffffffff16828973ffffffffffffffffffffffffffffffffffffffff1661564b9092919063ffffffff16565b5b61539a8b61537483866179a390919063ffffffff16565b8973ffffffffffffffffffffffffffffffffffffffff1661564b9092919063ffffffff16565b8673ffffffffffffffffffffffffffffffffffffffff166370a08231306040518263ffffffff1660e01b8152600401808273ffffffffffffffffffffffffffffffffffffffff1673ffffffffffffffffffffffffffffffffffffffff16815260200191505060206040518083038186803b15801561541757600080fd5b505afa15801561542b573d6000803e3d6000fd5b505050506040513d602081101561544157600080fd5b810190808051906020019092919050505061017860008973ffffffffffffffffffffffffffffffffffffffff1673ffffffffffffffffffffffffffffffffffffffff1681526020019081526020016000208190555050505050505b615564565b61017a60008373ffffffffffffffffffffffffffffffffffffffff1673ffffffffffffffffffffffffffffffffffffffff1681526020019081526020016000205461017960008473ffffffffffffffffffffffffffffffffffffffff1673ffffffffffffffffffffffffffffffffffffffff16815260200190815260200160002060008873ffffffffffffffffffffffffffffffffffffffff1673ffffffffffffffffffffffffffffffffffffffff168152602001908152602001600020819055505b5b8080600101915050614cf7565b505050505b5050565b60008083141561558e57600090506155fb565b600082840290508284828161559f57fe5b04146155f6576040517f08c379a0000000000000000000000000000000000000000000000000000000008152600401808060200182810382526021815260200180619f306021913960400191505060405180910390fd5b809150505b92915050565b600061564383836040518060400160405280601a81526020017f536166654d6174683a206469766973696f6e206279207a65726f00000000000081525061896c565b905092915050565b615717838473ffffffffffffffffffffffffffffffffffffffff1663a9059cbb905060e01b8484604051602401808373ffffffffffffffffffffffffffffffffffffffff1673ffffffffffffffffffffffffffffffffffffffff16815260200182815260200192505050604051602081830303815290604052907bffffffffffffffffffffffffffffffffffffffffffffffffffffffff19166020820180517bffffffffffffffffffffffffffffffffffffffffffffffffffffffff8381831617835250505050618a32565b505050565b600073ffffffffffffffffffffffffffffffffffffffff168273ffffffffffffffffffffffffffffffffffffffff1614156157a2576040517f08c379a0000000000000000000000000000000000000000000000000000000008152600401808060200182810382526021815260200180619fc96021913960400191505060405180910390fd5b61580e81604051806060016040528060228152602001619e4f60229139603360008673ffffffffffffffffffffffffffffffffffffffff1673ffffffffffffffffffffffffffffffffffffffff1681526020019081526020016000205461625b9092919063ffffffff16565b603360008473ffffffffffffffffffffffffffffffffffffffff1673ffffffffffffffffffffffffffffffffffffffff16815260200190815260200160002081905550615866816035546179a390919063ffffffff16565b603581905550600073ffffffffffffffffffffffffffffffffffffffff168273ffffffffffffffffffffffffffffffffffffffff167fddf252ad1be2c89b69c2b068fc378daa952ba7f163c4a11628f55a4df523b3ef836040518082815260200191505060405180910390a35050565b6000606060006158e4618c7d565b925092505060008090505b61017380549050811015615b7557600083828151811061590b57fe5b6020026020010151141561591e57615b68565b6000610173828154811061592e57fe5b9060005260206000200160009054906101000a900473ffffffffffffffffffffffffffffffffffffffff169050615a73615a6485848151811061596d57fe5b602002602001015161017760008573ffffffffffffffffffffffffffffffffffffffff1673ffffffffffffffffffffffffffffffffffffffff16815260200190815260200160002060009054906101000a900473ffffffffffffffffffffffffffffffffffffffff1673ffffffffffffffffffffffffffffffffffffffff1663c89d5b8b6040518163ffffffff1660e01b815260040160206040518083038186803b158015615a1b57600080fd5b505afa158015615a2f573d6000803e3d6000fd5b505050506040513d6020811015615a4557600080fd5b810190808051906020019092919050505061557b90919063ffffffff16565b8661783d90919063ffffffff16565b9450600061017e60008373ffffffffffffffffffffffffffffffffffffffff1673ffffffffffffffffffffffffffffffffffffffff16815260200190815260200160002060009054906101000a900473ffffffffffffffffffffffffffffffffffffffff169050600061017480549050118015615b1d5750600073ffffffffffffffffffffffffffffffffffffffff168173ffffffffffffffffffffffffffffffffffffffff1614155b15615b6557615b62615b53615b3183618fb0565b878681518110615b3d57fe5b602002602001015161557b90919063ffffffff16565b8761783d90919063ffffffff16565b95505b50505b80806001019150506158ef565b50615b89818461560190919063ffffffff16565b9250505090565b6000806000806000615ba187612fb3565b905060008090505b61017480549050811015615f96576101748181548110615bc557fe5b9060005260206000200160009054906101000a900473ffffffffffffffffffffffffffffffffffffffff1695506000821415615cff5761017960008773ffffffffffffffffffffffffffffffffffffffff1673ffffffffffffffffffffffffffffffffffffffff16815260200190815260200160002060008a73ffffffffffffffffffffffffffffffffffffffff1673ffffffffffffffffffffffffffffffffffffffff1681526020019081526020016000205461017960008873ffffffffffffffffffffffffffffffffffffffff1673ffffffffffffffffffffffffffffffffffffffff16815260200190815260200160002060008a73ffffffffffffffffffffffffffffffffffffffff1673ffffffffffffffffffffffffffffffffffffffff16815260200190815260200160002081905550615f89565b61017a60008773ffffffffffffffffffffffffffffffffffffffff1673ffffffffffffffffffffffffffffffffffffffff168152602001908152602001600020549450615dd261017960008873ffffffffffffffffffffffffffffffffffffffff1673ffffffffffffffffffffffffffffffffffffffff16815260200190815260200160002060008b73ffffffffffffffffffffffffffffffffffffffff1673ffffffffffffffffffffffffffffffffffffffff16815260200190815260200160002054866179a390919063ffffffff16565b9350615e90670de0b6b3a7640000615e82615e7361017960008b73ffffffffffffffffffffffffffffffffffffffff1673ffffffffffffffffffffffffffffffffffffffff16815260200190815260200160002060008d73ffffffffffffffffffffffffffffffffffffffff1673ffffffffffffffffffffffffffffffffffffffff16815260200190815260200160002054896179a390919063ffffffff16565b8561557b90919063ffffffff16565b61560190919063ffffffff16565b9250615f07615ef8615eab898561783d90919063ffffffff16565b615eea615ec18b8961557b90919063ffffffff16565b615edc670de0b6b3a76400008961557b90919063ffffffff16565b61783d90919063ffffffff16565b61560190919063ffffffff16565b866179a390919063ffffffff16565b61017960008873ffffffffffffffffffffffffffffffffffffffff1673ffffffffffffffffffffffffffffffffffffffff16815260200190815260200160002060008a73ffffffffffffffffffffffffffffffffffffffff1673ffffffffffffffffffffffffffffffffffffffff168152602001908152602001600020819055505b8080600101915050615ba9565b505050505050505050565b600073ffffffffffffffffffffffffffffffffffffffff168373ffffffffffffffffffffffffffffffffffffffff161415616027576040517f08c379a0000000000000000000000000000000000000000000000000000000008152600401808060200182810382526025815260200180619fea6025913960400191505060405180910390fd5b600073ffffffffffffffffffffffffffffffffffffffff168273ffffffffffffffffffffffffffffffffffffffff1614156160ad576040517f08c379a0000000000000000000000000000000000000000000000000000000008152600401808060200182810382526023815260200180619e2c6023913960400191505060405180910390fd5b61611981604051806060016040528060268152602001619ee960269139603360008773ffffffffffffffffffffffffffffffffffffffff1673ffffffffffffffffffffffffffffffffffffffff1681526020019081526020016000205461625b9092919063ffffffff16565b603360008573ffffffffffffffffffffffffffffffffffffffff1673ffffffffffffffffffffffffffffffffffffffff168152602001908152602001600020819055506161ae81603360008573ffffffffffffffffffffffffffffffffffffffff1673ffffffffffffffffffffffffffffffffffffffff1681526020019081526020016000205461783d90919063ffffffff16565b603360008473ffffffffffffffffffffffffffffffffffffffff1673ffffffffffffffffffffffffffffffffffffffff168152602001908152602001600020819055508173ffffffffffffffffffffffffffffffffffffffff168373ffffffffffffffffffffffffffffffffffffffff167fddf252ad1be2c89b69c2b068fc378daa952ba7f163c4a11628f55a4df523b3ef836040518082815260200191505060405180910390a3505050565b6000838311158290616308576040517f08c379a00000000000000000000000000000000000000000000000000000000081526004018080602001828103825283818151815260200191508051906020019080838360005b838110156162cd5780820151818401526020810190506162b2565b50505050905090810190601f1680156162fa5780820380516001836020036101000a031916815260200191505b509250505060405180910390fd5b5060008385039050809150509392505050565b600061017b60008673ffffffffffffffffffffffffffffffffffffffff1673ffffffffffffffffffffffffffffffffffffffff16815260200190815260200160002054905082811061645b5761637a83826179a390919063ffffffff16565b61017b60008773ffffffffffffffffffffffffffffffffffffffff1673ffffffffffffffffffffffffffffffffffffffff168152602001908152602001600020819055506164118361017b60008773ffffffffffffffffffffffffffffffffffffffff1673ffffffffffffffffffffffffffffffffffffffff1681526020019081526020016000205461783d90919063ffffffff16565b61017b60008673ffffffffffffffffffffffffffffffffffffffff1673ffffffffffffffffffffffffffffffffffffffff16815260200190815260200160002081905550506166a3565b60006164ca61017b60008773ffffffffffffffffffffffffffffffffffffffff1673ffffffffffffffffffffffffffffffffffffffff168152602001908152602001600020546164bc866164ae89612fb3565b6179a390919063ffffffff16565b6179a390919063ffffffff16565b905060006164e183866179a390919063ffffffff16565b905061657e6164f9828461783d90919063ffffffff16565b61657061650f848861557b90919063ffffffff16565b6165628661017660008d73ffffffffffffffffffffffffffffffffffffffff1673ffffffffffffffffffffffffffffffffffffffff1681526020019081526020016000205461557b90919063ffffffff16565b61783d90919063ffffffff16565b61560190919063ffffffff16565b61017660008873ffffffffffffffffffffffffffffffffffffffff1673ffffffffffffffffffffffffffffffffffffffff16815260200190815260200160002081905550600061017b60008973ffffffffffffffffffffffffffffffffffffffff1673ffffffffffffffffffffffffffffffffffffffff1681526020019081526020016000208190555061665b8361017b60008973ffffffffffffffffffffffffffffffffffffffff1673ffffffffffffffffffffffffffffffffffffffff1681526020019081526020016000205461783d90919063ffffffff16565b61017b60008873ffffffffffffffffffffffffffffffffffffffff1673ffffffffffffffffffffffffffffffffffffffff168152602001908152602001600020819055505050505b50505050565b6000806166b4611bec565b905060008114156166ce5761017054600a0a9150506169fc565b6000806167c6670de0b6b3a764000061016a60009054906101000a900473ffffffffffffffffffffffffffffffffffffffff1673ffffffffffffffffffffffffffffffffffffffff166370a08231306040518263ffffffff1660e01b8152600401808273ffffffffffffffffffffffffffffffffffffffff1673ffffffffffffffffffffffffffffffffffffffff16815260200191505060206040518083038186803b15801561677d57600080fd5b505afa158015616791573d6000803e3d6000fd5b505050506040513d60208110156167a757600080fd5b810190808051906020019092919050505061557b90919063ffffffff16565b905060008090505b610173805490508110156169e25761017381815481106167ea57fe5b9060005260206000200160009054906101000a900473ffffffffffffffffffffffffffffffffffffffff1692506169d36169c48473ffffffffffffffffffffffffffffffffffffffff166370a08231306040518263ffffffff1660e01b8152600401808273ffffffffffffffffffffffffffffffffffffffff1673ffffffffffffffffffffffffffffffffffffffff16815260200191505060206040518083038186803b15801561689a57600080fd5b505afa1580156168ae573d6000803e3d6000fd5b505050506040513d60208110156168c457600080fd5b810190808051906020019092919050505061017760008773ffffffffffffffffffffffffffffffffffffffff1673ffffffffffffffffffffffffffffffffffffffff16815260200190815260200160002060009054906101000a900473ffffffffffffffffffffffffffffffffffffffff1673ffffffffffffffffffffffffffffffffffffffff166302bbce466040518163ffffffff1660e01b815260040160206040518083038186803b15801561697b57600080fd5b505afa15801561698f573d6000803e3d6000fd5b505050506040513d60208110156169a557600080fd5b810190808051906020019092919050505061557b90919063ffffffff16565b8361783d90919063ffffffff16565b915080806001019150506167ce565b506169f6838261560190919063ffffffff16565b93505050505b90565b616aff848573ffffffffffffffffffffffffffffffffffffffff166323b872dd905060e01b858585604051602401808473ffffffffffffffffffffffffffffffffffffffff1673ffffffffffffffffffffffffffffffffffffffff1681526020018373ffffffffffffffffffffffffffffffffffffffff1673ffffffffffffffffffffffffffffffffffffffff1681526020018281526020019350505050604051602081830303815290604052907bffffffffffffffffffffffffffffffffffffffffffffffffffffffff19166020820180517bffffffffffffffffffffffffffffffffffffffffffffffffffffffff8381831617835250505050618a32565b50505050565b600061013660009054906101000a900460ff1615616b8b576040517f08c379a00000000000000000000000000000000000000000000000000000000081526004018080602001828103825260108152602001807f5061757361626c653a207061757365640000000000000000000000000000000081525060200191505060405180910390fd5b6060610180805480602002602001604051908101604052809291908181526020018280548015616bda57602002820191906000526020600020905b815481526020019060010190808311616bc6575b5050505050905060006101758054905082511490508015616c5c5760008090505b61017580549050811080616c0d575081155b15616c5a57828181518110616c1e57fe5b60200260200101516101758281548110616c3457fe5b906000526020600020015414616c4d5760009150616c5a565b8080600101915050616bfb565b505b600061016a60009054906101000a900473ffffffffffffffffffffffffffffffffffffffff1673ffffffffffffffffffffffffffffffffffffffff166370a08231306040518263ffffffff1660e01b8152600401808273ffffffffffffffffffffffffffffffffffffffff1673ffffffffffffffffffffffffffffffffffffffff16815260200191505060206040518083038186803b158015616cfe57600080fd5b505afa158015616d12573d6000803e3d6000fd5b505050506040513d6020811015616d2857600080fd5b810190808051906020019092919050505090506000828015616d4a5750600082145b15616d5c57600094505050505061727b565b6000821115616e7757616d97620186a0616d8961017154616d7b6191b8565b61557b90919063ffffffff16565b61560190919063ffffffff16565b90506000610175805490501415616dc157836101759080519060200190616dbf929190619d55565b505b80821115616e7657616e75610173805480602002602001604051908101604052809291908181526020018280548015616e4f57602002820191906000526020600020905b8160009054906101000a900473ffffffffffffffffffffffffffffffffffffffff1673ffffffffffffffffffffffffffffffffffffffff1681526020019060010190808311616e05575b5050505050616e7086616e6b85876179a390919063ffffffff16565b6194e3565b6195eb565b5b5b8215616e8a57600094505050505061727b565b6060806000616e97618c7d565b925092509250600085148015616eb05750600061017154115b15616efc57616ef9616eea620186a0616edc61017154616ece6191b8565b61557b90919063ffffffff16565b61560190919063ffffffff16565b826179a390919063ffffffff16565b90505b6060616f0888836194e3565b90506060600080616f1a87878661977e565b92509250925080616f4d576101756000616f349190619da2565b8a6101759080519060200190616f4b929190619d55565b505b600088148015616f605750600061017154115b15616f9a57616f97620186a0616f8961017154616f7b6191b8565b61557b90919063ffffffff16565b61560190919063ffffffff16565b97505b600061016a60009054906101000a900473ffffffffffffffffffffffffffffffffffffffff1673ffffffffffffffffffffffffffffffffffffffff166370a08231306040518263ffffffff1660e01b8152600401808273ffffffffffffffffffffffffffffffffffffffff1673ffffffffffffffffffffffffffffffffffffffff16815260200191505060206040518083038186803b15801561703c57600080fd5b505afa158015617050573d6000803e3d6000fd5b505050506040513d602081101561706657600080fd5b810190808051906020019092919050505090508881116170955760009c5050505050505050505050505061727b565b606084516040519080825280602002602001820160405280156170c75781602001602082028038833980820191505090505b50905060008090505b85518110156171395761711485617106620186a08985815181106170f057fe5b602002602001015161557b90919063ffffffff16565b61560190919063ffffffff16565b82828151811061712057fe5b60200260200101818152505080806001019150506170d0565b506060617158826171538d866179a390919063ffffffff16565b6194e3565b90506171eb6101738054806020026020016040519081016040528092919081815260200182805480156171e057602002820191906000526020600020905b8160009054906101000a900473ffffffffffffffffffffffffffffffffffffffff1673ffffffffffffffffffffffffffffffffffffffff1681526020019060010190808311617196575b5050505050826195eb565b7f4217d9fab39dbadacf1dad6c889aec1caa02e8a6cb59ddd4ce34f3e0ef158b55336172208d8b61783d90919063ffffffff16565b604051808373ffffffffffffffffffffffffffffffffffffffff1673ffffffffffffffffffffffffffffffffffffffff1681526020018281526020019250505060405180910390a160019e5050505050505050505050505050505b90565b600073ffffffffffffffffffffffffffffffffffffffff168273ffffffffffffffffffffffffffffffffffffffff161415617321576040517f08c379a000000000000000000000000000000000000000000000000000000000815260040180806020018281038252601f8152602001807f45524332303a206d696e7420746f20746865207a65726f20616464726573730081525060200191505060405180910390fd5b6173368160355461783d90919063ffffffff16565b60358190555061738e81603360008573ffffffffffffffffffffffffffffffffffffffff1673ffffffffffffffffffffffffffffffffffffffff1681526020019081526020016000205461783d90919063ffffffff16565b603360008473ffffffffffffffffffffffffffffffffffffffff1673ffffffffffffffffffffffffffffffffffffffff168152602001908152602001600020819055508173ffffffffffffffffffffffffffffffffffffffff16600073ffffffffffffffffffffffffffffffffffffffff167fddf252ad1be2c89b69c2b068fc378daa952ba7f163c4a11628f55a4df523b3ef836040518082815260200191505060405180910390a35050565b60006101725414156174e35761749a8261017b60008673ffffffffffffffffffffffffffffffffffffffff1673ffffffffffffffffffffffffffffffffffffffff1681526020019081526020016000205461783d90919063ffffffff16565b61017b60008573ffffffffffffffffffffffffffffffffffffffff1673ffffffffffffffffffffffffffffffffffffffff16815260200190815260200160002081905550617623565b600061754061017b60008673ffffffffffffffffffffffffffffffffffffffff1673ffffffffffffffffffffffffffffffffffffffff1681526020019081526020016000205461753286612fb3565b6179a390919063ffffffff16565b90506175dd816175cf61755c868661557b90919063ffffffff16565b6175c161757288876179a390919063ffffffff16565b61017660008b73ffffffffffffffffffffffffffffffffffffffff1673ffffffffffffffffffffffffffffffffffffffff1681526020019081526020016000205461557b90919063ffffffff16565b61783d90919063ffffffff16565b61560190919063ffffffff16565b61017660008673ffffffffffffffffffffffffffffffffffffffff1673ffffffffffffffffffffffffffffffffffffffff16815260200190815260200160002081905550505b505050565b60008061763484612fb3565b905060008060008090505b6101748054905081101561783457610174818154811061765b57fe5b9060005260206000200160009054906101000a900473ffffffffffffffffffffffffffffffffffffffff16945061017a60008673ffffffffffffffffffffffffffffffffffffffff1673ffffffffffffffffffffffffffffffffffffffff16815260200190815260200160002054925061017960008673ffffffffffffffffffffffffffffffffffffffff1673ffffffffffffffffffffffffffffffffffffffff16815260200190815260200160002060008873ffffffffffffffffffffffffffffffffffffffff1673ffffffffffffffffffffffffffffffffffffffff1681526020019081526020016000205491506177a68461779861777761776886886179a390919063ffffffff16565b8a61557b90919063ffffffff16565b61778a868961557b90919063ffffffff16565b61783d90919063ffffffff16565b61560190919063ffffffff16565b61017960008773ffffffffffffffffffffffffffffffffffffffff1673ffffffffffffffffffffffffffffffffffffffff16815260200190815260200160002060008973ffffffffffffffffffffffffffffffffffffffff1673ffffffffffffffffffffffffffffffffffffffff16815260200190815260200160002081905550808060010191505061763f565b50505050505050565b6000808284019050838110156178bb576040517f08c379a000000000000000000000000000000000000000000000000000000000815260040180806020018281038252601b8152602001807f536166654d6174683a206164646974696f6e206f766572666c6f77000000000081525060200191505060405180910390fd5b8091505092915050565b60008073ffffffffffffffffffffffffffffffffffffffff168273ffffffffffffffffffffffffffffffffffffffff16141561794c576040517f08c379a0000000000000000000000000000000000000000000000000000000008152600401808060200182810382526022815260200180619f796022913960400191505060405180910390fd5b8260000160008373ffffffffffffffffffffffffffffffffffffffff1673ffffffffffffffffffffffffffffffffffffffff16815260200190815260200160002060009054906101000a900460ff16905092915050565b60006179e583836040518060400160405280601e81526020017f536166654d6174683a207375627472616374696f6e206f766572666c6f77000081525061625b565b905092915050565b617a0281610103619a5290919063ffffffff16565b8073ffffffffffffffffffffffffffffffffffffffff167fcd265ebaf09df2871cc7bd4133404a235ba12eff2041bb89d9c714a2621c7c7e60405160405180910390a250565b617a5d81610103619b0f90919063ffffffff16565b8073ffffffffffffffffffffffffffffffffffffffff167f6719d08c1888103bea251a4ed56406bd0c3e69723c8a1686e017e7bbe159b6f860405160405180910390a250565b600080831415617ab557809050617c5d565b617b4061017760008673ffffffffffffffffffffffffffffffffffffffff1673ffffffffffffffffffffffffffffffffffffffff16815260200190815260200160002060009054906101000a900473ffffffffffffffffffffffffffffffffffffffff16848673ffffffffffffffffffffffffffffffffffffffff1661564b9092919063ffffffff16565b61017760008573ffffffffffffffffffffffffffffffffffffffff1673ffffffffffffffffffffffffffffffffffffffff16815260200190815260200160002060009054906101000a900473ffffffffffffffffffffffffffffffffffffffff1673ffffffffffffffffffffffffffffffffffffffff166395a2251f836040518263ffffffff1660e01b8152600401808273ffffffffffffffffffffffffffffffffffffffff1673ffffffffffffffffffffffffffffffffffffffff168152602001915050602060405180830381600087803b158015617c1f57600080fd5b505af1158015617c33573d6000803e3d6000fd5b505050506040513d6020811015617c4957600080fd5b810190808051906020019092919050505090505b9392505050565b60008061017b60003373ffffffffffffffffffffffffffffffffffffffff1673ffffffffffffffffffffffffffffffffffffffff16815260200190815260200160002054905060008582101590506000610172541480617cc15750805b15617d345780617cd2576000617ce6565b617ce586836179a390919063ffffffff16565b5b61017b60003373ffffffffffffffffffffffffffffffffffffffff1673ffffffffffffffffffffffffffffffffffffffff168152602001908152602001600020819055508492505050617f18565b600061017b60003373ffffffffffffffffffffffffffffffffffffffff1673ffffffffffffffffffffffffffffffffffffffff16815260200190815260200160002081905550600061017660003373ffffffffffffffffffffffffffffffffffffffff1673ffffffffffffffffffffffffffffffffffffffff168152602001908152602001600020548510617e5957617e54670de0b6b3a7640000617e46617e2561017660003373ffffffffffffffffffffffffffffffffffffffff1673ffffffffffffffffffffffffffffffffffffffff16815260200190815260200160002054896179a390919063ffffffff16565b617e38878c6179a390919063ffffffff16565b61557b90919063ffffffff16565b61560190919063ffffffff16565b617e5c565b60005b90506000617e8b620186a0617e7d610172548561557b90919063ffffffff16565b61560190919063ffffffff16565b9050617efe61016e60009054906101000a900473ffffffffffffffffffffffffffffffffffffffff168261016a60009054906101000a900473ffffffffffffffffffffffffffffffffffffffff1673ffffffffffffffffffffffffffffffffffffffff1661564b9092919063ffffffff16565b617f1181886179a390919063ffffffff16565b9450505050505b9392505050565b61017380549050815114617f9b576040517f08c379a000000000000000000000000000000000000000000000000000000000815260040180806020018281038252600c8152602001807f49444c453a2145515f4c454e000000000000000000000000000000000000000081525060200191505060405180910390fd5b600080600090505b8251811015617fe157617fd2838281518110617fbb57fe5b60200260200101518361783d90919063ffffffff16565b91508080600101915050617fa3565b50816101809080519060200190617ff9929190619d55565b50620186a08114618072576040517f08c379a000000000000000000000000000000000000000000000000000000000815260040180806020018281038252600c8152602001807f49444c453a2145515f544f54000000000000000000000000000000000000000081525060200191505060405180910390fd5b5050565b600060019054906101000a900460ff16806180955750618094614bd3565b5b806180ac57506000809054906101000a900460ff16155b618101576040517f08c379a000000000000000000000000000000000000000000000000000000000815260040180806020018281038252602e815260200180619f9b602e913960400191505060405180910390fd5b60008060019054906101000a900460ff161590508015618151576001600060016101000a81548160ff02191690831515021790555060016000806101000a81548160ff0219169083151502179055505b61815a82612686565b6181685761816782617a48565b5b80156181895760008060016101000a81548160ff0219169083151502179055505b5050565b600061a0aa61374a84018161819e57fe5b0490506000805a9050616c3e81106181c357611b6c616c3e8203816181bf57fe5b0491505b818311156181cf578192505b60008311156182bf5761016960009054906101000a900473ffffffffffffffffffffffffffffffffffffffff1673ffffffffffffffffffffffffffffffffffffffff1663079d229f85856040518363ffffffff1660e01b8152600401808373ffffffffffffffffffffffffffffffffffffffff1673ffffffffffffffffffffffffffffffffffffffff16815260200182815260200192505050602060405180830381600087803b15801561828257600080fd5b505af1158015618296573d6000803e3d6000fd5b505050506040513d60208110156182ac57600080fd5b8101908080519060200190929190505050505b5050505050565b600073ffffffffffffffffffffffffffffffffffffffff168173ffffffffffffffffffffffffffffffffffffffff16141561834c576040517f08c379a0000000000000000000000000000000000000000000000000000000008152600401808060200182810382526026815260200180619ea16026913960400191505060405180910390fd5b8073ffffffffffffffffffffffffffffffffffffffff1660d060009054906101000a900473ffffffffffffffffffffffffffffffffffffffff1673ffffffffffffffffffffffffffffffffffffffff167f8be0079c531659141344cd1fd0a4f28419497f9722a3daafe3b4186f6b6457e060405160405180910390a38060d060006101000a81548173ffffffffffffffffffffffffffffffffffffffff021916908373ffffffffffffffffffffffffffffffffffffffff16021790555050565b73c00e94cb662c3520282e6f5717214004a7f2688873ffffffffffffffffffffffffffffffffffffffff168173ffffffffffffffffffffffffffffffffffffffff161480618499575073875773784af8135ea0ef43b5a374aad105c5d39e73ffffffffffffffffffffffffffffffffffffffff168173ffffffffffffffffffffffffffffffffffffffff16145b1561896857606060016040519080825280602002602001820160405280156184d05781602001602082028038833980820191505090505b509050606060016040519080825280602002602001820160405280156185055781602001602082028038833980820191505090505b509050308260008151811061851657fe5b602002602001019073ffffffffffffffffffffffffffffffffffffffff16908173ffffffffffffffffffffffffffffffffffffffff168152505073875773784af8135ea0ef43b5a374aad105c5d39e73ffffffffffffffffffffffffffffffffffffffff168373ffffffffffffffffffffffffffffffffffffffff1614156186f05730816000815181106185a657fe5b602002602001019073ffffffffffffffffffffffffffffffffffffffff16908173ffffffffffffffffffffffffffffffffffffffff168152505073275da8e61ea8e02d51edd8d0dc5c0e62b4cdb0be73ffffffffffffffffffffffffffffffffffffffff1663fc245d4a83836040518363ffffffff1660e01b8152600401808060200180602001838103835285818151815260200191508051906020019060200280838360005b8381101561866857808201518184015260208101905061864d565b50505050905001838103825284818151815260200191508051906020019060200280838360005b838110156186aa57808201518184015260208101905061868f565b50505050905001945050505050600060405180830381600087803b1580156186d157600080fd5b505af11580156186e5573d6000803e3d6000fd5b505050505050618969565b600073ffffffffffffffffffffffffffffffffffffffff1661016c60009054906101000a900473ffffffffffffffffffffffffffffffffffffffff1673ffffffffffffffffffffffffffffffffffffffff16146189655761016c60009054906101000a900473ffffffffffffffffffffffffffffffffffffffff168160008151811061877857fe5b602002602001019073ffffffffffffffffffffffffffffffffffffffff16908173ffffffffffffffffffffffffffffffffffffffff168152505061016c60009054906101000a900473ffffffffffffffffffffffffffffffffffffffff1673ffffffffffffffffffffffffffffffffffffffff16635fe3b5676040518163ffffffff1660e01b815260040160206040518083038186803b15801561881b57600080fd5b505afa15801561882f573d6000803e3d6000fd5b505050506040513d602081101561884557600080fd5b810190808051906020019092919050505073ffffffffffffffffffffffffffffffffffffffff16636810dfa68383600060016040518563ffffffff1660e01b81526004018080602001806020018515151515815260200184151515158152602001838103835287818151815260200191508051906020019060200280838360005b838110156188e15780820151818401526020810190506188c6565b50505050905001838103825286818151815260200191508051906020019060200280838360005b83811015618923578082015181840152602081019050618908565b505050509050019650505050505050600060405180830381600087803b15801561894c57600080fd5b505af1158015618960573d6000803e3d6000fd5b505050505b50505b5b50565b60008083118290618a18576040517f08c379a00000000000000000000000000000000000000000000000000000000081526004018080602001828103825283818151815260200191508051906020019080838360005b838110156189dd5780820151818401526020810190506189c2565b50505050905090810190601f168015618a0a5780820380516001836020036101000a031916815260200191505b509250505060405180910390fd5b506000838581618a2457fe5b049050809150509392505050565b618a518273ffffffffffffffffffffffffffffffffffffffff16619bea565b618ac3576040517f08c379a000000000000000000000000000000000000000000000000000000000815260040180806020018281038252601f8152602001807f5361666545524332303a2063616c6c20746f206e6f6e2d636f6e74726163740081525060200191505060405180910390fd5b600060608373ffffffffffffffffffffffffffffffffffffffff16836040518082805190602001908083835b60208310618b125780518252602082019150602081019050602083039250618aef565b6001836020036101000a0380198251168184511680821785525050505050509050019150506000604051808303816000865af19150503d8060008114618b74576040519150601f19603f3d011682016040523d82523d6000602084013e618b79565b606091505b509150915081618bf1576040517f08c379a00000000000000000000000000000000000000000000000000000000081526004018080602001828103825260208152602001807f5361666545524332303a206c6f772d6c6576656c2063616c6c206661696c656481525060200191505060405180910390fd5b600081511115618c7757808060200190516020811015618c1057600080fd5b8101908080519060200190929190505050618c76576040517f08c379a000000000000000000000000000000000000000000000000000000000815260040180806020018281038252602a81526020018061a033602a913960400191505060405180910390fd5b5b50505050565b606080600061017380549050604051908082528060200260200182016040528015618cb75781602001602082028038833980820191505090505b50925061017380549050604051908082528060200260200182016040528015618cef5781602001602082028038833980820191505090505b50915060008060008090505b61017380549050811015618f9f576101738181548110618d1757fe5b9060005260206000200160009054906101000a900473ffffffffffffffffffffffffffffffffffffffff16925082868281518110618d5157fe5b602002602001019073ffffffffffffffffffffffffffffffffffffffff16908173ffffffffffffffffffffffffffffffffffffffff168152505061017760008473ffffffffffffffffffffffffffffffffffffffff1673ffffffffffffffffffffffffffffffffffffffff16815260200190815260200160002060009054906101000a900473ffffffffffffffffffffffffffffffffffffffff1673ffffffffffffffffffffffffffffffffffffffff166302bbce466040518163ffffffff1660e01b815260040160206040518083038186803b158015618e3157600080fd5b505afa158015618e45573d6000803e3d6000fd5b505050506040513d6020811015618e5b57600080fd5b81019080805190602001909291905050509150618f52670de0b6b3a7640000618f448573ffffffffffffffffffffffffffffffffffffffff166370a08231306040518263ffffffff1660e01b8152600401808273ffffffffffffffffffffffffffffffffffffffff1673ffffffffffffffffffffffffffffffffffffffff16815260200191505060206040518083038186803b158015618efa57600080fd5b505afa158015618f0e573d6000803e3d6000fd5b505050506040513d6020811015618f2457600080fd5b81019080805190602001909291905050508561557b90919063ffffffff16565b61560190919063ffffffff16565b858281518110618f5e57fe5b602002602001018181525050618f90858281518110618f7957fe5b60200260200101518561783d90919063ffffffff16565b93508080600101915050618cfb565b508484849450945094505050909192565b600073c00e94cb662c3520282e6f5717214004a7f2688873ffffffffffffffffffffffffffffffffffffffff168273ffffffffffffffffffffffffffffffffffffffff161480156190515750600073ffffffffffffffffffffffffffffffffffffffff1661016c60009054906101000a900473ffffffffffffffffffffffffffffffffffffffff1673ffffffffffffffffffffffffffffffffffffffff1614155b156191b25761017d60009054906101000a900473ffffffffffffffffffffffffffffffffffffffff1673ffffffffffffffffffffffffffffffffffffffff1663d297128f61016c60009054906101000a900473ffffffffffffffffffffffffffffffffffffffff1661016a60009054906101000a900473ffffffffffffffffffffffffffffffffffffffff166040518363ffffffff1660e01b8152600401808373ffffffffffffffffffffffffffffffffffffffff1673ffffffffffffffffffffffffffffffffffffffff1681526020018273ffffffffffffffffffffffffffffffffffffffff1673ffffffffffffffffffffffffffffffffffffffff1681526020019250505060206040518083038186803b15801561917057600080fd5b505afa158015619184573d6000803e3d6000fd5b505050506040513d602081101561919a57600080fd5b810190808051906020019092919050505090506191b3565b5b919050565b60008060008090505b610173805490508110156193ef5761017381815481106191dd57fe5b9060005260206000200160009054906101000a900473ffffffffffffffffffffffffffffffffffffffff1691506193e06193d1670de0b6b3a76400006193c38573ffffffffffffffffffffffffffffffffffffffff166370a08231306040518263ffffffff1660e01b8152600401808273ffffffffffffffffffffffffffffffffffffffff1673ffffffffffffffffffffffffffffffffffffffff16815260200191505060206040518083038186803b15801561929957600080fd5b505afa1580156192ad573d6000803e3d6000fd5b505050506040513d60208110156192c357600080fd5b810190808051906020019092919050505061017760008873ffffffffffffffffffffffffffffffffffffffff1673ffffffffffffffffffffffffffffffffffffffff16815260200190815260200160002060009054906101000a900473ffffffffffffffffffffffffffffffffffffffff1673ffffffffffffffffffffffffffffffffffffffff166302bbce466040518163ffffffff1660e01b815260040160206040518083038186803b15801561937a57600080fd5b505afa15801561938e573d6000803e3d6000fd5b505050506040513d60208110156193a457600080fd5b810190808051906020019092919050505061557b90919063ffffffff16565b61560190919063ffffffff16565b8461783d90919063ffffffff16565b925080806001019150506191c1565b506194dd61016a60009054906101000a900473ffffffffffffffffffffffffffffffffffffffff1673ffffffffffffffffffffffffffffffffffffffff166370a08231306040518263ffffffff1660e01b8152600401808273ffffffffffffffffffffffffffffffffffffffff1673ffffffffffffffffffffffffffffffffffffffff16815260200191505060206040518083038186803b15801561949357600080fd5b505afa1580156194a7573d6000803e3d6000fd5b505050506040513d60208110156194bd57600080fd5b81019080805190602001909291905050508361783d90919063ffffffff16565b91505090565b606082516040519080825280602002602001820160405280156195155781602001602082028038833980820191505090505b50905060008060008090505b85518110156195df5760018651038114156195665761954982866179a390919063ffffffff16565b84828151811061955557fe5b6020026020010181815250506195d2565b6195a1620186a061959388848151811061957c57fe5b60200260200101518861557b90919063ffffffff16565b61560190919063ffffffff16565b92506195b6838361783d90919063ffffffff16565b9150828482815181106195c557fe5b6020026020010181815250505b8080600101915050619521565b50829250505092915050565b60008060008090505b83518110156197775783818151811061960957fe5b6020026020010151925060008314156196215761976a565b610177600086838151811061963257fe5b602002602001015173ffffffffffffffffffffffffffffffffffffffff1673ffffffffffffffffffffffffffffffffffffffff16815260200190815260200160002060009054906101000a900473ffffffffffffffffffffffffffffffffffffffff1691506196e5828461016a60009054906101000a900473ffffffffffffffffffffffffffffffffffffffff1673ffffffffffffffffffffffffffffffffffffffff1661564b9092919063ffffffff16565b8173ffffffffffffffffffffffffffffffffffffffff16631249c58b6040518163ffffffff1660e01b8152600401602060405180830381600087803b15801561972d57600080fd5b505af1158015619741573d6000803e3d6000fd5b505050506040513d602081101561975757600080fd5b8101908080519060200190929190505050505b80806001019150506195f4565b5050505050565b606060008084516040519080825280602002602001820160405280156197b35781602001602082028038833980820191505090505b50925060008060008060008090505b8951811015619a44578a81815181106197d757fe5b602002602001015191508881815181106197ed57fe5b6020026020010151925089818151811061980357fe5b6020026020010151935061017760008373ffffffffffffffffffffffffffffffffffffffff1673ffffffffffffffffffffffffffffffffffffffff16815260200190815260200160002060009054906101000a900473ffffffffffffffffffffffffffffffffffffffff169450828411156199e357600061988d84866179a390919063ffffffff16565b905060008673ffffffffffffffffffffffffffffffffffffffff1663743753596040518163ffffffff1660e01b815260040160206040518083038186803b1580156198d757600080fd5b505afa1580156198eb573d6000803e3d6000fd5b505050506040513d602081101561990157600080fd5b810190808051906020019092919050505090508181101561992457600197508091505b6199db846199d58973ffffffffffffffffffffffffffffffffffffffff166302bbce466040518163ffffffff1660e01b815260040160206040518083038186803b15801561997157600080fd5b505afa158015619985573d6000803e3d6000fd5b505050506040513d602081101561999b57600080fd5b81019080805190602001909291905050506199c7670de0b6b3a76400008761557b90919063ffffffff16565b61560190919063ffffffff16565b30617aa3565b505050619a37565b6199f684846179a390919063ffffffff16565b888281518110619a0257fe5b602002602001018181525050619a34888281518110619a1d57fe5b60200260200101518861783d90919063ffffffff16565b96505b80806001019150506197c2565b505050505093509350939050565b619a5c82826178c5565b619ab1576040517f08c379a0000000000000000000000000000000000000000000000000000000008152600401808060200182810382526021815260200180619f0f6021913960400191505060405180910390fd5b60008260000160008373ffffffffffffffffffffffffffffffffffffffff1673ffffffffffffffffffffffffffffffffffffffff16815260200190815260200160002060006101000a81548160ff0219169083151502179055505050565b619b1982826178c5565b15619b8c576040517f08c379a000000000000000000000000000000000000000000000000000000000815260040180806020018281038252601f8152602001807f526f6c65733a206163636f756e7420616c72656164792068617320726f6c650081525060200191505060405180910390fd5b60018260000160008373ffffffffffffffffffffffffffffffffffffffff1673ffffffffffffffffffffffffffffffffffffffff16815260200190815260200160002060006101000a81548160ff0219169083151502179055505050565b60008060007fc5d2460186f7233c927e7db2dcc703c0e500b653ca82273b7bfad8045d85a47060001b9050833f9150808214158015619c2c57506000801b8214155b92505050919050565b828054600181600116156101000203166002900490600052602060002090601f016020900481019282601f10619c7657805160ff1916838001178555619ca4565b82800160010185558215619ca4579182015b82811115619ca3578251825591602001919060010190619c88565b5b509050619cb19190619dc3565b5090565b828054828255906000526020600020908101928215619d44579160200282015b82811115619d4357823573ffffffffffffffffffffffffffffffffffffffff168260006101000a81548173ffffffffffffffffffffffffffffffffffffffff021916908373ffffffffffffffffffffffffffffffffffffffff16021790555091602001919060010190619cd5565b5b509050619d519190619de8565b5090565b828054828255906000526020600020908101928215619d91579160200282015b82811115619d90578251825591602001919060010190619d75565b5b509050619d9e9190619dc3565b5090565b5080546000825590600052602060002090810190619dc09190619dc3565b50565b619de591905b80821115619de1576000816000905550600101619dc9565b5090565b90565b619e2891905b80821115619e2457600081816101000a81549073ffffffffffffffffffffffffffffffffffffffff021916905550600101619dee565b5090565b9056fe45524332303a207472616e7366657220746f20746865207a65726f206164647265737345524332303a206275726e20616d6f756e7420657863656564732062616c616e6365506175736572526f6c653a2063616c6c657220646f6573206e6f742068617665207468652050617573657220726f6c654f776e61626c653a206e6577206f776e657220697320746865207a65726f206164647265737345524332303a20617070726f766520746f20746865207a65726f206164647265737345524332303a207472616e7366657220616d6f756e7420657863656564732062616c616e6365526f6c65733a206163636f756e7420646f6573206e6f74206861766520726f6c65536166654d6174683a206d756c7469706c69636174696f6e206f766572666c6f7745524332303a207472616e7366657220616d6f756e74206578636565647320616c6c6f77616e6365526f6c65733a206163636f756e7420697320746865207a65726f2061646472657373436f6e747261637420696e7374616e63652068617320616c7265616479206265656e20696e697469616c697a656445524332303a206275726e2066726f6d20746865207a65726f206164647265737345524332303a207472616e736665722066726f6d20746865207a65726f206164647265737345524332303a20617070726f76652066726f6d20746865207a65726f20616464726573735361666545524332303a204552433230206f7065726174696f6e20646964206e6f74207375636365656445524332303a2064656372656173656420616c6c6f77616e63652062656c6f77207a65726fa265627a7a723158207a00500d1a9655f45b32c7bed36edbbb2eddcc25093514a3eb01a5c337f44a6e64736f6c63430005100032",
  "linkReferences": {},
  "deployedLinkReferences": {}
}