{
  "_format": "hh-sol-artifact-1",
  "contractName": "IdleBarnBridge",
  "sourceName": "contracts/wrappers/IdleBarnBridge.sol",
  "abi": [
    {
      "anonymous": false,
      "inputs": [
        {
          "indexed": true,
          "internalType": "address",
          "name": "previousOwner",
          "type": "address"
        },
        {
          "indexed": true,
          "internalType": "address",
          "name": "newOwner",
          "type": "address"
        }
      ],
      "name": "OwnershipTransferred",
      "type": "event"
    },
    {
      "constant": true,
      "inputs": [],
      "name": "availableLiquidity",
      "outputs": [
        {
          "internalType": "uint256",
          "name": "",
          "type": "uint256"
        }
      ],
      "payable": false,
      "stateMutability": "view",
      "type": "function"
    },
    {
      "constant": true,
      "inputs": [],
      "name": "cErc20",
      "outputs": [
        {
          "internalType": "address",
          "name": "",
          "type": "address"
        }
      ],
      "payable": false,
      "stateMutability": "view",
      "type": "function"
    },
    {
      "constant": true,
      "inputs": [],
      "name": "compoundProvider",
      "outputs": [
        {
          "internalType": "address",
          "name": "",
          "type": "address"
        }
      ],
      "payable": false,
      "stateMutability": "view",
      "type": "function"
    },
    {
      "constant": true,
      "inputs": [],
      "name": "controller",
      "outputs": [
        {
          "internalType": "address",
          "name": "",
          "type": "address"
        }
      ],
      "payable": false,
      "stateMutability": "view",
      "type": "function"
    },
    {
      "constant": true,
      "inputs": [],
      "name": "getAPR",
      "outputs": [
        {
          "internalType": "uint256",
          "name": "",
          "type": "uint256"
        }
      ],
      "payable": false,
      "stateMutability": "view",
      "type": "function"
    },
    {
      "constant": true,
      "inputs": [],
      "name": "getPriceInToken",
      "outputs": [
        {
          "internalType": "uint256",
          "name": "",
          "type": "uint256"
        }
      ],
      "payable": false,
      "stateMutability": "view",
      "type": "function"
    },
    {
      "constant": true,
      "inputs": [],
      "name": "idleToken",
      "outputs": [
        {
          "internalType": "address",
          "name": "",
          "type": "address"
        }
      ],
      "payable": false,
      "stateMutability": "view",
      "type": "function"
    },
    {
      "constant": false,
      "inputs": [
        {
          "internalType": "address",
          "name": "_token",
          "type": "address"
        },
        {
          "internalType": "address",
          "name": "_idleToken",
          "type": "address"
        }
      ],
      "name": "initialize",
      "outputs": [],
      "payable": false,
      "stateMutability": "nonpayable",
      "type": "function"
    },
    {
      "constant": true,
      "inputs": [],
      "name": "initialized",
      "outputs": [
        {
          "internalType": "bool",
          "name": "",
          "type": "bool"
        }
      ],
      "payable": false,
      "stateMutability": "view",
      "type": "function"
    },
    {
      "constant": true,
      "inputs": [],
      "name": "isOwner",
      "outputs": [
        {
          "internalType": "bool",
          "name": "",
          "type": "bool"
        }
      ],
      "payable": false,
      "stateMutability": "view",
      "type": "function"
    },
    {
      "constant": false,
      "inputs": [],
      "name": "mint",
      "outputs": [
        {
          "internalType": "uint256",
          "name": "barnBridgeJuniorCusdc",
          "type": "uint256"
        }
      ],
      "payable": false,
      "stateMutability": "nonpayable",
      "type": "function"
    },
    {
      "constant": true,
      "inputs": [
        {
          "internalType": "uint256",
          "name": "_amount",
          "type": "uint256"
        }
      ],
      "name": "nextSupplyRate",
      "outputs": [
        {
          "internalType": "uint256",
          "name": "",
          "type": "uint256"
        }
      ],
      "payable": false,
      "stateMutability": "view",
      "type": "function"
    },
    {
      "constant": true,
      "inputs": [
        {
          "internalType": "uint256[]",
          "name": "",
          "type": "uint256[]"
        }
      ],
      "name": "nextSupplyRateWithParams",
      "outputs": [
        {
          "internalType": "uint256",
          "name": "",
          "type": "uint256"
        }
      ],
      "payable": false,
      "stateMutability": "view",
      "type": "function"
    },
    {
      "constant": true,
      "inputs": [],
      "name": "owner",
      "outputs": [
        {
          "internalType": "address",
          "name": "",
          "type": "address"
        }
      ],
      "payable": false,
      "stateMutability": "view",
      "type": "function"
    },
    {
      "constant": false,
      "inputs": [
        {
          "internalType": "address",
          "name": "_account",
          "type": "address"
        }
      ],
      "name": "redeem",
      "outputs": [
        {
          "internalType": "uint256",
          "name": "tokens",
          "type": "uint256"
        }
      ],
      "payable": false,
      "stateMutability": "nonpayable",
      "type": "function"
    },
    {
      "constant": false,
      "inputs": [],
      "name": "renounceOwnership",
      "outputs": [],
      "payable": false,
      "stateMutability": "nonpayable",
      "type": "function"
    },
    {
      "constant": true,
      "inputs": [],
      "name": "token",
      "outputs": [
        {
          "internalType": "address",
          "name": "",
          "type": "address"
        }
      ],
      "payable": false,
      "stateMutability": "view",
      "type": "function"
    },
    {
      "constant": false,
      "inputs": [
        {
          "internalType": "address",
          "name": "newOwner",
          "type": "address"
        }
      ],
      "name": "transferOwnership",
      "outputs": [],
      "payable": false,
      "stateMutability": "nonpayable",
      "type": "function"
    },
    {
      "constant": true,
      "inputs": [],
      "name": "underlying",
      "outputs": [
        {
          "internalType": "address",
          "name": "",
          "type": "address"
        }
      ],
      "payable": false,
      "stateMutability": "view",
      "type": "function"
    }
  ],
  "bytecode": "0x60806040527341ab25709e0c3edf027f6099963fe9ad3ebab3a3600460006101000a81548173ffffffffffffffffffffffffffffffffffffffff021916908373ffffffffffffffffffffffffffffffffffffffff16021790555073daa037f99d168b552c0c61b7fb64cf7819d78310600560006101000a81548173ffffffffffffffffffffffffffffffffffffffff021916908373ffffffffffffffffffffffffffffffffffffffff1602179055507339aa39c021dfbae8fac545936693ac917d5e7563600660006101000a81548173ffffffffffffffffffffffffffffffffffffffff021916908373ffffffffffffffffffffffffffffffffffffffff16021790555060006101136101b660201b60201c565b9050806000806101000a81548173ffffffffffffffffffffffffffffffffffffffff021916908373ffffffffffffffffffffffffffffffffffffffff1602179055508073ffffffffffffffffffffffffffffffffffffffff16600073ffffffffffffffffffffffffffffffffffffffff167f8be0079c531659141344cd1fd0a4f28419497f9722a3daafe3b4186f6b6457e060405160405180910390a3506101be565b600033905090565b6129c8806101cd6000396000f3fe608060405234801561001057600080fd5b50600436106101215760003560e01c80638da5cb5b116100ad578063ccdd014911610071578063ccdd0149146102d8578063f2fde38b14610308578063f71e47af14610324578063f77c479114610342578063fc0c546a1461036057610121565b80638da5cb5b1461021e5780638f32d59b1461023c57806393fd92191461025a57806395a2251f1461028a578063c89d5b8b146102ba57610121565b8063485cc955116100f4578063485cc9551461019e5780636f307dc3146101ba578063715018a6146101d857806373424447146101e2578063743753591461020057610121565b806302bbce46146101265780631249c58b14610144578063158ef93e146101625780632dd60c5e14610180575b600080fd5b61012e61037e565b60405161013b9190612830565b60405180910390f35b61014c610425565b6040516101599190612830565b60405180910390f35b61016a61072a565b6040516101779190612693565b60405180910390f35b61018861073d565b6040516101959190612626565b60405180910390f35b6101b860048036036101b39190810190612124565b610763565b005b6101c2610afe565b6040516101cf9190612626565b60405180910390f35b6101e0610b24565b005b6101ea610c2a565b6040516101f79190612626565b60405180910390f35b610208610c50565b6040516102159190612830565b60405180910390f35b610226610d24565b6040516102339190612626565b60405180910390f35b610244610d4d565b6040516102519190612693565b60405180910390f35b610274600480360361026f9190810190612160565b610dab565b6040516102819190612830565b60405180910390f35b6102a4600480360361029f91908101906120fb565b610db6565b6040516102b19190612830565b60405180910390f35b6102c2611132565b6040516102cf9190612830565b60405180910390f35b6102f260048036036102ed91908101906121ce565b61113a565b6040516102ff9190612830565b60405180910390f35b610322600480360361031d91908101906120fb565b611144565b005b61032c611197565b6040516103399190612626565b60405180910390f35b61034a6111bd565b6040516103579190612626565b60405180910390f35b6103686111e3565b6040516103759190612626565b60405180910390f35b6000600660009054906101000a900473ffffffffffffffffffffffffffffffffffffffff1673ffffffffffffffffffffffffffffffffffffffff1663182df0f56040518163ffffffff1660e01b815260040160206040518083038186803b1580156103e857600080fd5b505afa1580156103fc573d6000803e3d6000fd5b505050506040513d601f19601f8201168201806040525061042091908101906121f7565b905090565b6000600360009054906101000a900473ffffffffffffffffffffffffffffffffffffffff1673ffffffffffffffffffffffffffffffffffffffff163373ffffffffffffffffffffffffffffffffffffffff16146104b7576040517f08c379a00000000000000000000000000000000000000000000000000000000081526004016104ae906126d0565b60405180910390fd5b6000600260009054906101000a900473ffffffffffffffffffffffffffffffffffffffff1673ffffffffffffffffffffffffffffffffffffffff166370a08231306040518263ffffffff1660e01b81526004016105149190612626565b60206040518083038186803b15801561052c57600080fd5b505afa158015610540573d6000803e3d6000fd5b505050506040513d601f19601f8201168201806040525061056491908101906121f7565b905060008114156105785781915050610727565b600061058382611209565b9050600160009054906101000a900473ffffffffffffffffffffffffffffffffffffffff1673ffffffffffffffffffffffffffffffffffffffff1663a4ce25a783836105da610e10426114f090919063ffffffff16565b6040518463ffffffff1660e01b81526004016105f89392919061284b565b600060405180830381600087803b15801561061257600080fd5b505af1158015610626573d6000803e3d6000fd5b50505050600160009054906101000a900473ffffffffffffffffffffffffffffffffffffffff1673ffffffffffffffffffffffffffffffffffffffff166370a08231306040518263ffffffff1660e01b81526004016106859190612626565b60206040518083038186803b15801561069d57600080fd5b505afa1580156106b1573d6000803e3d6000fd5b505050506040513d601f19601f820116820180604052506106d591908101906121f7565b92506107243384600160009054906101000a900473ffffffffffffffffffffffffffffffffffffffff1673ffffffffffffffffffffffffffffffffffffffff166115459092919063ffffffff16565b50505b90565b600360149054906101000a900460ff1681565b600360009054906101000a900473ffffffffffffffffffffffffffffffffffffffff1681565b600360149054906101000a900460ff16156107b3576040517f08c379a00000000000000000000000000000000000000000000000000000000081526004016107aa90612790565b60405180910390fd5b600073ffffffffffffffffffffffffffffffffffffffff168273ffffffffffffffffffffffffffffffffffffffff161415610823576040517f08c379a000000000000000000000000000000000000000000000000000000000815260040161081a906127b0565b60405180910390fd5b81600160006101000a81548173ffffffffffffffffffffffffffffffffffffffff021916908373ffffffffffffffffffffffffffffffffffffffff1602179055508173ffffffffffffffffffffffffffffffffffffffff166316f0115b6040518163ffffffff1660e01b815260040160206040518083038186803b1580156108aa57600080fd5b505afa1580156108be573d6000803e3d6000fd5b505050506040513d601f19601f820116820180604052506108e291908101906121f7565b73ffffffffffffffffffffffffffffffffffffffff1663633156376040518163ffffffff1660e01b815260040160206040518083038186803b15801561092757600080fd5b505afa15801561093b573d6000803e3d6000fd5b505050506040513d601f19601f8201168201806040525061095f91908101906121f7565b600260006101000a81548173ffffffffffffffffffffffffffffffffffffffff021916908373ffffffffffffffffffffffffffffffffffffffff16021790555080600360006101000a81548173ffffffffffffffffffffffffffffffffffffffff021916908373ffffffffffffffffffffffffffffffffffffffff160217905550610a50600560009054906101000a900473ffffffffffffffffffffffffffffffffffffffff166000600260009054906101000a900473ffffffffffffffffffffffffffffffffffffffff1673ffffffffffffffffffffffffffffffffffffffff166115e49092919063ffffffff16565b610adf600560009054906101000a900473ffffffffffffffffffffffffffffffffffffffff167fffffffffffffffffffffffffffffffffffffffffffffffffffffffffffffffff600260009054906101000a900473ffffffffffffffffffffffffffffffffffffffff1673ffffffffffffffffffffffffffffffffffffffff166115e49092919063ffffffff16565b6001600360146101000a81548160ff0219169083151502179055505050565b600260009054906101000a900473ffffffffffffffffffffffffffffffffffffffff1681565b610b2c610d4d565b610b6b576040517f08c379a0000000000000000000000000000000000000000000000000000000008152600401610b6290612770565b60405180910390fd5b600073ffffffffffffffffffffffffffffffffffffffff166000809054906101000a900473ffffffffffffffffffffffffffffffffffffffff1673ffffffffffffffffffffffffffffffffffffffff167f8be0079c531659141344cd1fd0a4f28419497f9722a3daafe3b4186f6b6457e060405160405180910390a360008060006101000a81548173ffffffffffffffffffffffffffffffffffffffff021916908373ffffffffffffffffffffffffffffffffffffffff160217905550565b600660009054906101000a900473ffffffffffffffffffffffffffffffffffffffff1681565b6000600260009054906101000a900473ffffffffffffffffffffffffffffffffffffffff1673ffffffffffffffffffffffffffffffffffffffff166370a08231600160009054906101000a900473ffffffffffffffffffffffffffffffffffffffff166040518263ffffffff1660e01b8152600401610ccf9190612626565b60206040518083038186803b158015610ce757600080fd5b505afa158015610cfb573d6000803e3d6000fd5b505050506040513d601f19601f82011682018060405250610d1f91908101906121f7565b905090565b60008060009054906101000a900473ffffffffffffffffffffffffffffffffffffffff16905090565b60008060009054906101000a900473ffffffffffffffffffffffffffffffffffffffff1673ffffffffffffffffffffffffffffffffffffffff16610d8f61175b565b73ffffffffffffffffffffffffffffffffffffffff1614905090565b600080905092915050565b6000600360009054906101000a900473ffffffffffffffffffffffffffffffffffffffff1673ffffffffffffffffffffffffffffffffffffffff163373ffffffffffffffffffffffffffffffffffffffff1614610e48576040517f08c379a0000000000000000000000000000000000000000000000000000000008152600401610e3f906126d0565b60405180910390fd5b6000610efd600160009054906101000a900473ffffffffffffffffffffffffffffffffffffffff1673ffffffffffffffffffffffffffffffffffffffff166370a08231306040518263ffffffff1660e01b8152600401610ea89190612626565b60206040518083038186803b158015610ec057600080fd5b505afa158015610ed4573d6000803e3d6000fd5b505050506040513d601f19601f82011682018060405250610ef891908101906121f7565b611763565b9050600160009054906101000a900473ffffffffffffffffffffffffffffffffffffffff1673ffffffffffffffffffffffffffffffffffffffff1663709ef231600160009054906101000a900473ffffffffffffffffffffffffffffffffffffffff1673ffffffffffffffffffffffffffffffffffffffff166370a08231306040518263ffffffff1660e01b8152600401610f989190612626565b60206040518083038186803b158015610fb057600080fd5b505afa158015610fc4573d6000803e3d6000fd5b505050506040513d601f19601f82011682018060405250610fe891908101906121f7565b83610ffe610e10426114f090919063ffffffff16565b6040518463ffffffff1660e01b815260040161101c9392919061284b565b600060405180830381600087803b15801561103657600080fd5b505af115801561104a573d6000803e3d6000fd5b505050506000600260009054906101000a900473ffffffffffffffffffffffffffffffffffffffff1690508073ffffffffffffffffffffffffffffffffffffffff166370a08231306040518263ffffffff1660e01b81526004016110ae9190612626565b60206040518083038186803b1580156110c657600080fd5b505afa1580156110da573d6000803e3d6000fd5b505050506040513d601f19601f820116820180604052506110fe91908101906121f7565b925061112b84848373ffffffffffffffffffffffffffffffffffffffff166115459092919063ffffffff16565b5050919050565b600080905090565b6000809050919050565b61114c610d4d565b61118b576040517f08c379a000000000000000000000000000000000000000000000000000000000815260040161118290612770565b60405180910390fd5b61119481611bb2565b50565b600560009054906101000a900473ffffffffffffffffffffffffffffffffffffffff1681565b600460009054906101000a900473ffffffffffffffffffffffffffffffffffffffff1681565b600160009054906101000a900473ffffffffffffffffffffffffffffffffffffffff1681565b60008061136f600160009054906101000a900473ffffffffffffffffffffffffffffffffffffffff1673ffffffffffffffffffffffffffffffffffffffff1663bbba205d6040518163ffffffff1660e01b815260040160206040518083038186803b15801561127757600080fd5b505afa15801561128b573d6000803e3d6000fd5b505050506040513d601f19601f820116820180604052506112af91908101906121f7565b611361600460009054906101000a900473ffffffffffffffffffffffffffffffffffffffff1673ffffffffffffffffffffffffffffffffffffffff16634684129e6040518163ffffffff1660e01b815260040160206040518083038186803b15801561131a57600080fd5b505afa15801561132e573d6000803e3d6000fd5b505050506040513d601f19601f8201168201806040525061135291908101906121f7565b86611ce090919063ffffffff16565b611d5090919063ffffffff16565b90506114e8600160009054906101000a900473ffffffffffffffffffffffffffffffffffffffff1673ffffffffffffffffffffffffffffffffffffffff1663a035b1fe6040518163ffffffff1660e01b8152600401602060405180830381600087803b1580156113de57600080fd5b505af11580156113f2573d6000803e3d6000fd5b505050506040513d601f19601f8201168201806040525061141691908101906121f7565b6114da600160009054906101000a900473ffffffffffffffffffffffffffffffffffffffff1673ffffffffffffffffffffffffffffffffffffffff1663bbba205d6040518163ffffffff1660e01b815260040160206040518083038186803b15801561148157600080fd5b505afa158015611495573d6000803e3d6000fd5b505050506040513d601f19601f820116820180604052506114b991908101906121f7565b6114cc8588611d9a90919063ffffffff16565b611ce090919063ffffffff16565b611d5090919063ffffffff16565b915050919050565b60008082840190508381101561153b576040517f08c379a000000000000000000000000000000000000000000000000000000000815260040161153290612710565b60405180910390fd5b8091505092915050565b6115df838473ffffffffffffffffffffffffffffffffffffffff1663a9059cbb905060e01b848460405160240161157d92919061266a565b604051602081830303815290604052907bffffffffffffffffffffffffffffffffffffffffffffffffffffffff19166020820180517bffffffffffffffffffffffffffffffffffffffffffffffffffffffff8381831617835250505050611de4565b505050565b600081148061167d575060008373ffffffffffffffffffffffffffffffffffffffff1663dd62ed3e30856040518363ffffffff1660e01b815260040161162b929190612641565b60206040518083038186803b15801561164357600080fd5b505afa158015611657573d6000803e3d6000fd5b505050506040513d601f19601f8201168201806040525061167b91908101906121f7565b145b6116bc576040517f08c379a00000000000000000000000000000000000000000000000000000000081526004016116b3906127f0565b60405180910390fd5b611756838473ffffffffffffffffffffffffffffffffffffffff1663095ea7b3905060e01b84846040516024016116f492919061266a565b604051602081830303815290604052907bffffffffffffffffffffffffffffffffffffffffffffffffffffffff19166020820180517bffffffffffffffffffffffffffffffffffffffffffffffffffffffff8381831617835250505050611de4565b505050565b600033905090565b6000806118c9600160009054906101000a900473ffffffffffffffffffffffffffffffffffffffff1673ffffffffffffffffffffffffffffffffffffffff166318160ddd6040518163ffffffff1660e01b815260040160206040518083038186803b1580156117d157600080fd5b505afa1580156117e5573d6000803e3d6000fd5b505050506040513d601f19601f8201168201806040525061180991908101906121f7565b6118bb600160009054906101000a900473ffffffffffffffffffffffffffffffffffffffff1673ffffffffffffffffffffffffffffffffffffffff1663bbba205d6040518163ffffffff1660e01b815260040160206040518083038186803b15801561187457600080fd5b505afa158015611888573d6000803e3d6000fd5b505050506040513d601f19601f820116820180604052506118ac91908101906121f7565b86611ce090919063ffffffff16565b611d5090919063ffffffff16565b90506000611a30600160009054906101000a900473ffffffffffffffffffffffffffffffffffffffff1673ffffffffffffffffffffffffffffffffffffffff1663bbba205d6040518163ffffffff1660e01b815260040160206040518083038186803b15801561193857600080fd5b505afa15801561194c573d6000803e3d6000fd5b505050506040513d601f19601f8201168201806040525061197091908101906121f7565b611a2284600160009054906101000a900473ffffffffffffffffffffffffffffffffffffffff1673ffffffffffffffffffffffffffffffffffffffff1663f7ea4adc6040518163ffffffff1660e01b815260040160206040518083038186803b1580156119dc57600080fd5b505afa1580156119f0573d6000803e3d6000fd5b505050506040513d601f19601f82011682018060405250611a1491908101906121f7565b611ce090919063ffffffff16565b611d5090919063ffffffff16565b9050611ba981611b9b600160009054906101000a900473ffffffffffffffffffffffffffffffffffffffff1673ffffffffffffffffffffffffffffffffffffffff1663bbba205d6040518163ffffffff1660e01b815260040160206040518083038186803b158015611aa157600080fd5b505afa158015611ab5573d6000803e3d6000fd5b505050506040513d601f19601f82011682018060405250611ad991908101906121f7565b611b8d600160009054906101000a900473ffffffffffffffffffffffffffffffffffffffff1673ffffffffffffffffffffffffffffffffffffffff1663a035b1fe6040518163ffffffff1660e01b8152600401602060405180830381600087803b158015611b4657600080fd5b505af1158015611b5a573d6000803e3d6000fd5b505050506040513d601f19601f82011682018060405250611b7e91908101906121f7565b89611ce090919063ffffffff16565b611d5090919063ffffffff16565b611d9a90919063ffffffff16565b92505050919050565b600073ffffffffffffffffffffffffffffffffffffffff168173ffffffffffffffffffffffffffffffffffffffff161415611c22576040517f08c379a0000000000000000000000000000000000000000000000000000000008152600401611c19906126f0565b60405180910390fd5b8073ffffffffffffffffffffffffffffffffffffffff166000809054906101000a900473ffffffffffffffffffffffffffffffffffffffff1673ffffffffffffffffffffffffffffffffffffffff167f8be0079c531659141344cd1fd0a4f28419497f9722a3daafe3b4186f6b6457e060405160405180910390a3806000806101000a81548173ffffffffffffffffffffffffffffffffffffffff021916908373ffffffffffffffffffffffffffffffffffffffff16021790555050565b600080831415611cf35760009050611d4a565b6000828402905082848281611d0457fe5b0414611d45576040517f08c379a0000000000000000000000000000000000000000000000000000000008152600401611d3c90612750565b60405180910390fd5b809150505b92915050565b6000611d9283836040518060400160405280601a81526020017f536166654d6174683a206469766973696f6e206279207a65726f000000000000815250611f56565b905092915050565b6000611ddc83836040518060400160405280601e81526020017f536166654d6174683a207375627472616374696f6e206f766572666c6f770000815250611fb7565b905092915050565b611e038273ffffffffffffffffffffffffffffffffffffffff16612012565b611e42576040517f08c379a0000000000000000000000000000000000000000000000000000000008152600401611e3990612810565b60405180910390fd5b600060608373ffffffffffffffffffffffffffffffffffffffff1683604051611e6b919061260f565b6000604051808303816000865af19150503d8060008114611ea8576040519150601f19603f3d011682016040523d82523d6000602084013e611ead565b606091505b509150915081611ef2576040517f08c379a0000000000000000000000000000000000000000000000000000000008152600401611ee990612730565b60405180910390fd5b600081511115611f505780806020019051611f1091908101906121a5565b611f4f576040517f08c379a0000000000000000000000000000000000000000000000000000000008152600401611f46906127d0565b60405180910390fd5b5b50505050565b60008083118290611f9d576040517f08c379a0000000000000000000000000000000000000000000000000000000008152600401611f9491906126ae565b60405180910390fd5b506000838581611fa957fe5b049050809150509392505050565b6000838311158290611fff576040517f08c379a0000000000000000000000000000000000000000000000000000000008152600401611ff691906126ae565b60405180910390fd5b5060008385039050809150509392505050565b60008060007fc5d2460186f7233c927e7db2dcc703c0e500b653ca82273b7bfad8045d85a47060001b9050833f915080821415801561205457506000801b8214155b92505050919050565b60008135905061206c81612940565b92915050565b60008083601f84011261208457600080fd5b8235905067ffffffffffffffff81111561209d57600080fd5b6020830191508360208202830111156120b557600080fd5b9250929050565b6000815190506120cb81612957565b92915050565b6000813590506120e08161296e565b92915050565b6000815190506120f58161296e565b92915050565b60006020828403121561210d57600080fd5b600061211b8482850161205d565b91505092915050565b6000806040838503121561213757600080fd5b60006121458582860161205d565b92505060206121568582860161205d565b9150509250929050565b6000806020838503121561217357600080fd5b600083013567ffffffffffffffff81111561218d57600080fd5b61219985828601612072565b92509250509250929050565b6000602082840312156121b757600080fd5b60006121c5848285016120bc565b91505092915050565b6000602082840312156121e057600080fd5b60006121ee848285016120d1565b91505092915050565b60006020828403121561220957600080fd5b6000612217848285016120e6565b91505092915050565b612229816128b4565b82525050565b612238816128c6565b82525050565b600061224982612882565b6122538185612898565b93506122638185602086016128fc565b80840191505092915050565b600061227a8261288d565b61228481856128a3565b93506122948185602086016128fc565b61229d8161292f565b840191505092915050565b60006122b56020836128a3565b91507f4f776e61626c653a2063616c6c6572206973206e6f742049646c65546f6b656e6000830152602082019050919050565b60006122f56026836128a3565b91507f4f776e61626c653a206e6577206f776e657220697320746865207a65726f206160008301527f64647265737300000000000000000000000000000000000000000000000000006020830152604082019050919050565b600061235b601b836128a3565b91507f536166654d6174683a206164646974696f6e206f766572666c6f7700000000006000830152602082019050919050565b600061239b6020836128a3565b91507f5361666545524332303a206c6f772d6c6576656c2063616c6c206661696c65646000830152602082019050919050565b60006123db6021836128a3565b91507f536166654d6174683a206d756c7469706c69636174696f6e206f766572666c6f60008301527f77000000000000000000000000000000000000000000000000000000000000006020830152604082019050919050565b60006124416020836128a3565b91507f4f776e61626c653a2063616c6c6572206973206e6f7420746865206f776e65726000830152602082019050919050565b60006124816013836128a3565b91507f416c726561647920696e697469616c697a6564000000000000000000000000006000830152602082019050919050565b60006124c16010836128a3565b91507f63555344433a20616464722069732030000000000000000000000000000000006000830152602082019050919050565b6000612501602a836128a3565b91507f5361666545524332303a204552433230206f7065726174696f6e20646964206e60008301527f6f742073756363656564000000000000000000000000000000000000000000006020830152604082019050919050565b60006125676036836128a3565b91507f5361666545524332303a20617070726f76652066726f6d206e6f6e2d7a65726f60008301527f20746f206e6f6e2d7a65726f20616c6c6f77616e6365000000000000000000006020830152604082019050919050565b60006125cd601f836128a3565b91507f5361666545524332303a2063616c6c20746f206e6f6e2d636f6e7472616374006000830152602082019050919050565b612609816128f2565b82525050565b600061261b828461223e565b915081905092915050565b600060208201905061263b6000830184612220565b92915050565b60006040820190506126566000830185612220565b6126636020830184612220565b9392505050565b600060408201905061267f6000830185612220565b61268c6020830184612600565b9392505050565b60006020820190506126a8600083018461222f565b92915050565b600060208201905081810360008301526126c8818461226f565b905092915050565b600060208201905081810360008301526126e9816122a8565b9050919050565b60006020820190508181036000830152612709816122e8565b9050919050565b600060208201905081810360008301526127298161234e565b9050919050565b600060208201905081810360008301526127498161238e565b9050919050565b60006020820190508181036000830152612769816123ce565b9050919050565b6000602082019050818103600083015261278981612434565b9050919050565b600060208201905081810360008301526127a981612474565b9050919050565b600060208201905081810360008301526127c9816124b4565b9050919050565b600060208201905081810360008301526127e9816124f4565b9050919050565b600060208201905081810360008301526128098161255a565b9050919050565b60006020820190508181036000830152612829816125c0565b9050919050565b60006020820190506128456000830184612600565b92915050565b60006060820190506128606000830186612600565b61286d6020830185612600565b61287a6040830184612600565b949350505050565b600081519050919050565b600081519050919050565b600081905092915050565b600082825260208201905092915050565b60006128bf826128d2565b9050919050565b60008115159050919050565b600073ffffffffffffffffffffffffffffffffffffffff82169050919050565b6000819050919050565b60005b8381101561291a5780820151818401526020810190506128ff565b83811115612929576000848401525b50505050565b6000601f19601f8301169050919050565b612949816128b4565b811461295457600080fd5b50565b612960816128c6565b811461296b57600080fd5b50565b612977816128f2565b811461298257600080fd5b5056fea365627a7a7231582003a73f63599ee6f26d16f298f1212df1251dc3db15fb7105f10c7f841a366b236c6578706572696d656e74616cf564736f6c63430005100040",
  "linkReferences": {},
  "deployedLinkReferences": {}
}