{
  "_format": "hh-sol-artifact-1",
  "contractName": "IdleBarnBridge",
  "sourceName": "contracts/wrappers/IdleBarnBridge.sol",
  "abi": [
    {
      "anonymous": false,
      "inputs": [
        {
          "indexed": true,
          "internalType": "address",
          "name": "previousOwner",
          "type": "address"
        },
        {
          "indexed": true,
          "internalType": "address",
          "name": "newOwner",
          "type": "address"
        }
      ],
      "name": "OwnershipTransferred",
      "type": "event"
    },
    {
      "constant": true,
      "inputs": [],
      "name": "availableLiquidity",
      "outputs": [
        {
          "internalType": "uint256",
          "name": "",
          "type": "uint256"
        }
      ],
      "payable": false,
      "stateMutability": "view",
      "type": "function"
    },
    {
      "constant": true,
      "inputs": [],
      "name": "cErc20",
      "outputs": [
        {
          "internalType": "address",
          "name": "",
          "type": "address"
        }
      ],
      "payable": false,
      "stateMutability": "view",
      "type": "function"
    },
    {
      "constant": true,
      "inputs": [],
      "name": "compoundProvider",
      "outputs": [
        {
          "internalType": "address",
          "name": "",
          "type": "address"
        }
      ],
      "payable": false,
      "stateMutability": "view",
      "type": "function"
    },
    {
      "constant": true,
      "inputs": [],
      "name": "controller",
      "outputs": [
        {
          "internalType": "address",
          "name": "",
          "type": "address"
        }
      ],
      "payable": false,
      "stateMutability": "view",
      "type": "function"
    },
    {
      "constant": true,
      "inputs": [],
      "name": "getAPR",
      "outputs": [
        {
          "internalType": "uint256",
          "name": "",
          "type": "uint256"
        }
      ],
      "payable": false,
      "stateMutability": "view",
      "type": "function"
    },
    {
      "constant": true,
      "inputs": [],
      "name": "getPriceInToken",
      "outputs": [
        {
          "internalType": "uint256",
          "name": "",
          "type": "uint256"
        }
      ],
      "payable": false,
      "stateMutability": "view",
      "type": "function"
    },
    {
      "constant": true,
      "inputs": [],
      "name": "idleToken",
      "outputs": [
        {
          "internalType": "address",
          "name": "",
          "type": "address"
        }
      ],
      "payable": false,
      "stateMutability": "view",
      "type": "function"
    },
    {
      "constant": false,
      "inputs": [
        {
          "internalType": "address",
          "name": "_token",
          "type": "address"
        },
        {
          "internalType": "address",
          "name": "_idleToken",
          "type": "address"
        }
      ],
      "name": "initialize",
      "outputs": [],
      "payable": false,
      "stateMutability": "nonpayable",
      "type": "function"
    },
    {
      "constant": true,
      "inputs": [],
      "name": "initialized",
      "outputs": [
        {
          "internalType": "bool",
          "name": "",
          "type": "bool"
        }
      ],
      "payable": false,
      "stateMutability": "view",
      "type": "function"
    },
    {
      "constant": true,
      "inputs": [],
      "name": "isOwner",
      "outputs": [
        {
          "internalType": "bool",
          "name": "",
          "type": "bool"
        }
      ],
      "payable": false,
      "stateMutability": "view",
      "type": "function"
    },
    {
      "constant": false,
      "inputs": [],
      "name": "mint",
      "outputs": [
        {
          "internalType": "uint256",
          "name": "barnBridgeJuniorCusdc",
          "type": "uint256"
        }
      ],
      "payable": false,
      "stateMutability": "nonpayable",
      "type": "function"
    },
    {
      "constant": true,
      "inputs": [
        {
          "internalType": "uint256",
          "name": "_amount",
          "type": "uint256"
        }
      ],
      "name": "nextSupplyRate",
      "outputs": [
        {
          "internalType": "uint256",
          "name": "",
          "type": "uint256"
        }
      ],
      "payable": false,
      "stateMutability": "view",
      "type": "function"
    },
    {
      "constant": true,
      "inputs": [
        {
          "internalType": "uint256[]",
          "name": "",
          "type": "uint256[]"
        }
      ],
      "name": "nextSupplyRateWithParams",
      "outputs": [
        {
          "internalType": "uint256",
          "name": "",
          "type": "uint256"
        }
      ],
      "payable": false,
      "stateMutability": "view",
      "type": "function"
    },
    {
      "constant": true,
      "inputs": [],
      "name": "owner",
      "outputs": [
        {
          "internalType": "address",
          "name": "",
          "type": "address"
        }
      ],
      "payable": false,
      "stateMutability": "view",
      "type": "function"
    },
    {
      "constant": false,
      "inputs": [
        {
          "internalType": "address",
          "name": "_account",
          "type": "address"
        }
      ],
      "name": "redeem",
      "outputs": [
        {
          "internalType": "uint256",
          "name": "tokens",
          "type": "uint256"
        }
      ],
      "payable": false,
      "stateMutability": "nonpayable",
      "type": "function"
    },
    {
      "constant": false,
      "inputs": [],
      "name": "renounceOwnership",
      "outputs": [],
      "payable": false,
      "stateMutability": "nonpayable",
      "type": "function"
    },
    {
      "constant": true,
      "inputs": [],
      "name": "token",
      "outputs": [
        {
          "internalType": "address",
          "name": "",
          "type": "address"
        }
      ],
      "payable": false,
      "stateMutability": "view",
      "type": "function"
    },
    {
      "constant": false,
      "inputs": [
        {
          "internalType": "address",
          "name": "newOwner",
          "type": "address"
        }
      ],
      "name": "transferOwnership",
      "outputs": [],
      "payable": false,
      "stateMutability": "nonpayable",
      "type": "function"
    },
    {
      "constant": true,
      "inputs": [],
      "name": "underlying",
      "outputs": [
        {
          "internalType": "address",
          "name": "",
          "type": "address"
        }
      ],
      "payable": false,
      "stateMutability": "view",
      "type": "function"
    }
  ],
  "bytecode": "0x60806040527341ab25709e0c3edf027f6099963fe9ad3ebab3a3600460006101000a81548173ffffffffffffffffffffffffffffffffffffffff021916908373ffffffffffffffffffffffffffffffffffffffff16021790555073daa037f99d168b552c0c61b7fb64cf7819d78310600560006101000a81548173ffffffffffffffffffffffffffffffffffffffff021916908373ffffffffffffffffffffffffffffffffffffffff1602179055507339aa39c021dfbae8fac545936693ac917d5e7563600660006101000a81548173ffffffffffffffffffffffffffffffffffffffff021916908373ffffffffffffffffffffffffffffffffffffffff16021790555060006101136101b660201b60201c565b9050806000806101000a81548173ffffffffffffffffffffffffffffffffffffffff021916908373ffffffffffffffffffffffffffffffffffffffff1602179055508073ffffffffffffffffffffffffffffffffffffffff16600073ffffffffffffffffffffffffffffffffffffffff167f8be0079c531659141344cd1fd0a4f28419497f9722a3daafe3b4186f6b6457e060405160405180910390a3506101be565b600033905090565b612b09806101cd6000396000f3fe608060405234801561001057600080fd5b50600436106101215760003560e01c80638da5cb5b116100ad578063ccdd014911610071578063ccdd0149146102d8578063f2fde38b14610308578063f71e47af14610324578063f77c479114610342578063fc0c546a1461036057610121565b80638da5cb5b1461021e5780638f32d59b1461023c57806393fd92191461025a57806395a2251f1461028a578063c89d5b8b146102ba57610121565b8063485cc955116100f4578063485cc9551461019e5780636f307dc3146101ba578063715018a6146101d857806373424447146101e2578063743753591461020057610121565b806302bbce46146101265780631249c58b14610144578063158ef93e146101625780632dd60c5e14610180575b600080fd5b61012e61037e565b60405161013b9190612971565b60405180910390f35b61014c610389565b6040516101599190612971565b60405180910390f35b61016a61068e565b60405161017791906127d4565b60405180910390f35b6101886106a1565b6040516101959190612767565b60405180910390f35b6101b860048036036101b39190810190612265565b6106c7565b005b6101c2610a62565b6040516101cf9190612767565b60405180910390f35b6101e0610a88565b005b6101ea610b8e565b6040516101f79190612767565b60405180910390f35b610208610bb4565b6040516102159190612971565b60405180910390f35b610226610c88565b6040516102339190612767565b60405180910390f35b610244610cb1565b60405161025191906127d4565b60405180910390f35b610274600480360361026f91908101906122a1565b610d0f565b6040516102819190612971565b60405180910390f35b6102a4600480360361029f919081019061223c565b610db9565b6040516102b19190612971565b60405180910390f35b6102c2611135565b6040516102cf9190612971565b60405180910390f35b6102f260048036036102ed919081019061230f565b6111dc565b6040516102ff9190612971565b60405180910390f35b610322600480360361031d919081019061223c565b611285565b005b61032c6112d8565b6040516103399190612767565b60405180910390f35b61034a6112fe565b6040516103579190612767565b60405180910390f35b610368611324565b6040516103759190612767565b60405180910390f35b6000620f4240905090565b6000600360009054906101000a900473ffffffffffffffffffffffffffffffffffffffff1673ffffffffffffffffffffffffffffffffffffffff163373ffffffffffffffffffffffffffffffffffffffff161461041b576040517f08c379a000000000000000000000000000000000000000000000000000000000815260040161041290612811565b60405180910390fd5b6000600260009054906101000a900473ffffffffffffffffffffffffffffffffffffffff1673ffffffffffffffffffffffffffffffffffffffff166370a08231306040518263ffffffff1660e01b81526004016104789190612767565b60206040518083038186803b15801561049057600080fd5b505afa1580156104a4573d6000803e3d6000fd5b505050506040513d601f19601f820116820180604052506104c89190810190612338565b905060008114156104dc578191505061068b565b60006104e78261134a565b9050600160009054906101000a900473ffffffffffffffffffffffffffffffffffffffff1673ffffffffffffffffffffffffffffffffffffffff1663a4ce25a7838361053e610e104261163190919063ffffffff16565b6040518463ffffffff1660e01b815260040161055c9392919061298c565b600060405180830381600087803b15801561057657600080fd5b505af115801561058a573d6000803e3d6000fd5b50505050600160009054906101000a900473ffffffffffffffffffffffffffffffffffffffff1673ffffffffffffffffffffffffffffffffffffffff166370a08231306040518263ffffffff1660e01b81526004016105e99190612767565b60206040518083038186803b15801561060157600080fd5b505afa158015610615573d6000803e3d6000fd5b505050506040513d601f19601f820116820180604052506106399190810190612338565b92506106883384600160009054906101000a900473ffffffffffffffffffffffffffffffffffffffff1673ffffffffffffffffffffffffffffffffffffffff166116869092919063ffffffff16565b50505b90565b600360149054906101000a900460ff1681565b600360009054906101000a900473ffffffffffffffffffffffffffffffffffffffff1681565b600360149054906101000a900460ff1615610717576040517f08c379a000000000000000000000000000000000000000000000000000000000815260040161070e906128d1565b60405180910390fd5b600073ffffffffffffffffffffffffffffffffffffffff168273ffffffffffffffffffffffffffffffffffffffff161415610787576040517f08c379a000000000000000000000000000000000000000000000000000000000815260040161077e906128f1565b60405180910390fd5b81600160006101000a81548173ffffffffffffffffffffffffffffffffffffffff021916908373ffffffffffffffffffffffffffffffffffffffff1602179055508173ffffffffffffffffffffffffffffffffffffffff166316f0115b6040518163ffffffff1660e01b815260040160206040518083038186803b15801561080e57600080fd5b505afa158015610822573d6000803e3d6000fd5b505050506040513d601f19601f820116820180604052506108469190810190612338565b73ffffffffffffffffffffffffffffffffffffffff1663633156376040518163ffffffff1660e01b815260040160206040518083038186803b15801561088b57600080fd5b505afa15801561089f573d6000803e3d6000fd5b505050506040513d601f19601f820116820180604052506108c39190810190612338565b600260006101000a81548173ffffffffffffffffffffffffffffffffffffffff021916908373ffffffffffffffffffffffffffffffffffffffff16021790555080600360006101000a81548173ffffffffffffffffffffffffffffffffffffffff021916908373ffffffffffffffffffffffffffffffffffffffff1602179055506109b4600560009054906101000a900473ffffffffffffffffffffffffffffffffffffffff166000600260009054906101000a900473ffffffffffffffffffffffffffffffffffffffff1673ffffffffffffffffffffffffffffffffffffffff166117259092919063ffffffff16565b610a43600560009054906101000a900473ffffffffffffffffffffffffffffffffffffffff167fffffffffffffffffffffffffffffffffffffffffffffffffffffffffffffffff600260009054906101000a900473ffffffffffffffffffffffffffffffffffffffff1673ffffffffffffffffffffffffffffffffffffffff166117259092919063ffffffff16565b6001600360146101000a81548160ff0219169083151502179055505050565b600260009054906101000a900473ffffffffffffffffffffffffffffffffffffffff1681565b610a90610cb1565b610acf576040517f08c379a0000000000000000000000000000000000000000000000000000000008152600401610ac6906128b1565b60405180910390fd5b600073ffffffffffffffffffffffffffffffffffffffff166000809054906101000a900473ffffffffffffffffffffffffffffffffffffffff1673ffffffffffffffffffffffffffffffffffffffff167f8be0079c531659141344cd1fd0a4f28419497f9722a3daafe3b4186f6b6457e060405160405180910390a360008060006101000a81548173ffffffffffffffffffffffffffffffffffffffff021916908373ffffffffffffffffffffffffffffffffffffffff160217905550565b600660009054906101000a900473ffffffffffffffffffffffffffffffffffffffff1681565b6000600260009054906101000a900473ffffffffffffffffffffffffffffffffffffffff1673ffffffffffffffffffffffffffffffffffffffff166370a08231600160009054906101000a900473ffffffffffffffffffffffffffffffffffffffff166040518263ffffffff1660e01b8152600401610c339190612767565b60206040518083038186803b158015610c4b57600080fd5b505afa158015610c5f573d6000803e3d6000fd5b505050506040513d601f19601f82011682018060405250610c839190810190612338565b905090565b60008060009054906101000a900473ffffffffffffffffffffffffffffffffffffffff16905090565b60008060009054906101000a900473ffffffffffffffffffffffffffffffffffffffff1673ffffffffffffffffffffffffffffffffffffffff16610cf361189c565b73ffffffffffffffffffffffffffffffffffffffff1614905090565b6000600660009054906101000a900473ffffffffffffffffffffffffffffffffffffffff1673ffffffffffffffffffffffffffffffffffffffff1663182df0f56040518163ffffffff1660e01b815260040160206040518083038186803b158015610d7957600080fd5b505afa158015610d8d573d6000803e3d6000fd5b505050506040513d601f19601f82011682018060405250610db19190810190612338565b905092915050565b6000600360009054906101000a900473ffffffffffffffffffffffffffffffffffffffff1673ffffffffffffffffffffffffffffffffffffffff163373ffffffffffffffffffffffffffffffffffffffff1614610e4b576040517f08c379a0000000000000000000000000000000000000000000000000000000008152600401610e4290612811565b60405180910390fd5b6000610f00600160009054906101000a900473ffffffffffffffffffffffffffffffffffffffff1673ffffffffffffffffffffffffffffffffffffffff166370a08231306040518263ffffffff1660e01b8152600401610eab9190612767565b60206040518083038186803b158015610ec357600080fd5b505afa158015610ed7573d6000803e3d6000fd5b505050506040513d601f19601f82011682018060405250610efb9190810190612338565b6118a4565b9050600160009054906101000a900473ffffffffffffffffffffffffffffffffffffffff1673ffffffffffffffffffffffffffffffffffffffff1663709ef231600160009054906101000a900473ffffffffffffffffffffffffffffffffffffffff1673ffffffffffffffffffffffffffffffffffffffff166370a08231306040518263ffffffff1660e01b8152600401610f9b9190612767565b60206040518083038186803b158015610fb357600080fd5b505afa158015610fc7573d6000803e3d6000fd5b505050506040513d601f19601f82011682018060405250610feb9190810190612338565b83611001610e104261163190919063ffffffff16565b6040518463ffffffff1660e01b815260040161101f9392919061298c565b600060405180830381600087803b15801561103957600080fd5b505af115801561104d573d6000803e3d6000fd5b505050506000600260009054906101000a900473ffffffffffffffffffffffffffffffffffffffff1690508073ffffffffffffffffffffffffffffffffffffffff166370a08231306040518263ffffffff1660e01b81526004016110b19190612767565b60206040518083038186803b1580156110c957600080fd5b505afa1580156110dd573d6000803e3d6000fd5b505050506040513d601f19601f820116820180604052506111019190810190612338565b925061112e84848373ffffffffffffffffffffffffffffffffffffffff166116869092919063ffffffff16565b5050919050565b6000600660009054906101000a900473ffffffffffffffffffffffffffffffffffffffff1673ffffffffffffffffffffffffffffffffffffffff1663182df0f56040518163ffffffff1660e01b815260040160206040518083038186803b15801561119f57600080fd5b505afa1580156111b3573d6000803e3d6000fd5b505050506040513d601f19601f820116820180604052506111d79190810190612338565b905090565b6000600660009054906101000a900473ffffffffffffffffffffffffffffffffffffffff1673ffffffffffffffffffffffffffffffffffffffff1663182df0f56040518163ffffffff1660e01b815260040160206040518083038186803b15801561124657600080fd5b505afa15801561125a573d6000803e3d6000fd5b505050506040513d601f19601f8201168201806040525061127e9190810190612338565b9050919050565b61128d610cb1565b6112cc576040517f08c379a00000000000000000000000000000000000000000000000000000000081526004016112c3906128b1565b60405180910390fd5b6112d581611cf3565b50565b600560009054906101000a900473ffffffffffffffffffffffffffffffffffffffff1681565b600460009054906101000a900473ffffffffffffffffffffffffffffffffffffffff1681565b600160009054906101000a900473ffffffffffffffffffffffffffffffffffffffff1681565b6000806114b0600160009054906101000a900473ffffffffffffffffffffffffffffffffffffffff1673ffffffffffffffffffffffffffffffffffffffff1663bbba205d6040518163ffffffff1660e01b815260040160206040518083038186803b1580156113b857600080fd5b505afa1580156113cc573d6000803e3d6000fd5b505050506040513d601f19601f820116820180604052506113f09190810190612338565b6114a2600460009054906101000a900473ffffffffffffffffffffffffffffffffffffffff1673ffffffffffffffffffffffffffffffffffffffff16634684129e6040518163ffffffff1660e01b815260040160206040518083038186803b15801561145b57600080fd5b505afa15801561146f573d6000803e3d6000fd5b505050506040513d601f19601f820116820180604052506114939190810190612338565b86611e2190919063ffffffff16565b611e9190919063ffffffff16565b9050611629600160009054906101000a900473ffffffffffffffffffffffffffffffffffffffff1673ffffffffffffffffffffffffffffffffffffffff1663a035b1fe6040518163ffffffff1660e01b8152600401602060405180830381600087803b15801561151f57600080fd5b505af1158015611533573d6000803e3d6000fd5b505050506040513d601f19601f820116820180604052506115579190810190612338565b61161b600160009054906101000a900473ffffffffffffffffffffffffffffffffffffffff1673ffffffffffffffffffffffffffffffffffffffff1663bbba205d6040518163ffffffff1660e01b815260040160206040518083038186803b1580156115c257600080fd5b505afa1580156115d6573d6000803e3d6000fd5b505050506040513d601f19601f820116820180604052506115fa9190810190612338565b61160d8588611edb90919063ffffffff16565b611e2190919063ffffffff16565b611e9190919063ffffffff16565b915050919050565b60008082840190508381101561167c576040517f08c379a000000000000000000000000000000000000000000000000000000000815260040161167390612851565b60405180910390fd5b8091505092915050565b611720838473ffffffffffffffffffffffffffffffffffffffff1663a9059cbb905060e01b84846040516024016116be9291906127ab565b604051602081830303815290604052907bffffffffffffffffffffffffffffffffffffffffffffffffffffffff19166020820180517bffffffffffffffffffffffffffffffffffffffffffffffffffffffff8381831617835250505050611f25565b505050565b60008114806117be575060008373ffffffffffffffffffffffffffffffffffffffff1663dd62ed3e30856040518363ffffffff1660e01b815260040161176c929190612782565b60206040518083038186803b15801561178457600080fd5b505afa158015611798573d6000803e3d6000fd5b505050506040513d601f19601f820116820180604052506117bc9190810190612338565b145b6117fd576040517f08c379a00000000000000000000000000000000000000000000000000000000081526004016117f490612931565b60405180910390fd5b611897838473ffffffffffffffffffffffffffffffffffffffff1663095ea7b3905060e01b84846040516024016118359291906127ab565b604051602081830303815290604052907bffffffffffffffffffffffffffffffffffffffffffffffffffffffff19166020820180517bffffffffffffffffffffffffffffffffffffffffffffffffffffffff8381831617835250505050611f25565b505050565b600033905090565b600080611a0a600160009054906101000a900473ffffffffffffffffffffffffffffffffffffffff1673ffffffffffffffffffffffffffffffffffffffff166318160ddd6040518163ffffffff1660e01b815260040160206040518083038186803b15801561191257600080fd5b505afa158015611926573d6000803e3d6000fd5b505050506040513d601f19601f8201168201806040525061194a9190810190612338565b6119fc600160009054906101000a900473ffffffffffffffffffffffffffffffffffffffff1673ffffffffffffffffffffffffffffffffffffffff1663bbba205d6040518163ffffffff1660e01b815260040160206040518083038186803b1580156119b557600080fd5b505afa1580156119c9573d6000803e3d6000fd5b505050506040513d601f19601f820116820180604052506119ed9190810190612338565b86611e2190919063ffffffff16565b611e9190919063ffffffff16565b90506000611b71600160009054906101000a900473ffffffffffffffffffffffffffffffffffffffff1673ffffffffffffffffffffffffffffffffffffffff1663bbba205d6040518163ffffffff1660e01b815260040160206040518083038186803b158015611a7957600080fd5b505afa158015611a8d573d6000803e3d6000fd5b505050506040513d601f19601f82011682018060405250611ab19190810190612338565b611b6384600160009054906101000a900473ffffffffffffffffffffffffffffffffffffffff1673ffffffffffffffffffffffffffffffffffffffff1663f7ea4adc6040518163ffffffff1660e01b815260040160206040518083038186803b158015611b1d57600080fd5b505afa158015611b31573d6000803e3d6000fd5b505050506040513d601f19601f82011682018060405250611b559190810190612338565b611e2190919063ffffffff16565b611e9190919063ffffffff16565b9050611cea81611cdc600160009054906101000a900473ffffffffffffffffffffffffffffffffffffffff1673ffffffffffffffffffffffffffffffffffffffff1663bbba205d6040518163ffffffff1660e01b815260040160206040518083038186803b158015611be257600080fd5b505afa158015611bf6573d6000803e3d6000fd5b505050506040513d601f19601f82011682018060405250611c1a9190810190612338565b611cce600160009054906101000a900473ffffffffffffffffffffffffffffffffffffffff1673ffffffffffffffffffffffffffffffffffffffff1663a035b1fe6040518163ffffffff1660e01b8152600401602060405180830381600087803b158015611c8757600080fd5b505af1158015611c9b573d6000803e3d6000fd5b505050506040513d601f19601f82011682018060405250611cbf9190810190612338565b89611e2190919063ffffffff16565b611e9190919063ffffffff16565b611edb90919063ffffffff16565b92505050919050565b600073ffffffffffffffffffffffffffffffffffffffff168173ffffffffffffffffffffffffffffffffffffffff161415611d63576040517f08c379a0000000000000000000000000000000000000000000000000000000008152600401611d5a90612831565b60405180910390fd5b8073ffffffffffffffffffffffffffffffffffffffff166000809054906101000a900473ffffffffffffffffffffffffffffffffffffffff1673ffffffffffffffffffffffffffffffffffffffff167f8be0079c531659141344cd1fd0a4f28419497f9722a3daafe3b4186f6b6457e060405160405180910390a3806000806101000a81548173ffffffffffffffffffffffffffffffffffffffff021916908373ffffffffffffffffffffffffffffffffffffffff16021790555050565b600080831415611e345760009050611e8b565b6000828402905082848281611e4557fe5b0414611e86576040517f08c379a0000000000000000000000000000000000000000000000000000000008152600401611e7d90612891565b60405180910390fd5b809150505b92915050565b6000611ed383836040518060400160405280601a81526020017f536166654d6174683a206469766973696f6e206279207a65726f000000000000815250612097565b905092915050565b6000611f1d83836040518060400160405280601e81526020017f536166654d6174683a207375627472616374696f6e206f766572666c6f7700008152506120f8565b905092915050565b611f448273ffffffffffffffffffffffffffffffffffffffff16612153565b611f83576040517f08c379a0000000000000000000000000000000000000000000000000000000008152600401611f7a90612951565b60405180910390fd5b600060608373ffffffffffffffffffffffffffffffffffffffff1683604051611fac9190612750565b6000604051808303816000865af19150503d8060008114611fe9576040519150601f19603f3d011682016040523d82523d6000602084013e611fee565b606091505b509150915081612033576040517f08c379a000000000000000000000000000000000000000000000000000000000815260040161202a90612871565b60405180910390fd5b600081511115612091578080602001905161205191908101906122e6565b612090576040517f08c379a000000000000000000000000000000000000000000000000000000000815260040161208790612911565b60405180910390fd5b5b50505050565b600080831182906120de576040517f08c379a00000000000000000000000000000000000000000000000000000000081526004016120d591906127ef565b60405180910390fd5b5060008385816120ea57fe5b049050809150509392505050565b6000838311158290612140576040517f08c379a000000000000000000000000000000000000000000000000000000000815260040161213791906127ef565b60405180910390fd5b5060008385039050809150509392505050565b60008060007fc5d2460186f7233c927e7db2dcc703c0e500b653ca82273b7bfad8045d85a47060001b9050833f915080821415801561219557506000801b8214155b92505050919050565b6000813590506121ad81612a81565b92915050565b60008083601f8401126121c557600080fd5b8235905067ffffffffffffffff8111156121de57600080fd5b6020830191508360208202830111156121f657600080fd5b9250929050565b60008151905061220c81612a98565b92915050565b60008135905061222181612aaf565b92915050565b60008151905061223681612aaf565b92915050565b60006020828403121561224e57600080fd5b600061225c8482850161219e565b91505092915050565b6000806040838503121561227857600080fd5b60006122868582860161219e565b92505060206122978582860161219e565b9150509250929050565b600080602083850312156122b457600080fd5b600083013567ffffffffffffffff8111156122ce57600080fd5b6122da858286016121b3565b92509250509250929050565b6000602082840312156122f857600080fd5b6000612306848285016121fd565b91505092915050565b60006020828403121561232157600080fd5b600061232f84828501612212565b91505092915050565b60006020828403121561234a57600080fd5b600061235884828501612227565b91505092915050565b61236a816129f5565b82525050565b61237981612a07565b82525050565b600061238a826129c3565b61239481856129d9565b93506123a4818560208601612a3d565b80840191505092915050565b60006123bb826129ce565b6123c581856129e4565b93506123d5818560208601612a3d565b6123de81612a70565b840191505092915050565b60006123f66020836129e4565b91507f4f776e61626c653a2063616c6c6572206973206e6f742049646c65546f6b656e6000830152602082019050919050565b60006124366026836129e4565b91507f4f776e61626c653a206e6577206f776e657220697320746865207a65726f206160008301527f64647265737300000000000000000000000000000000000000000000000000006020830152604082019050919050565b600061249c601b836129e4565b91507f536166654d6174683a206164646974696f6e206f766572666c6f7700000000006000830152602082019050919050565b60006124dc6020836129e4565b91507f5361666545524332303a206c6f772d6c6576656c2063616c6c206661696c65646000830152602082019050919050565b600061251c6021836129e4565b91507f536166654d6174683a206d756c7469706c69636174696f6e206f766572666c6f60008301527f77000000000000000000000000000000000000000000000000000000000000006020830152604082019050919050565b60006125826020836129e4565b91507f4f776e61626c653a2063616c6c6572206973206e6f7420746865206f776e65726000830152602082019050919050565b60006125c26013836129e4565b91507f416c726561647920696e697469616c697a6564000000000000000000000000006000830152602082019050919050565b60006126026010836129e4565b91507f63555344433a20616464722069732030000000000000000000000000000000006000830152602082019050919050565b6000612642602a836129e4565b91507f5361666545524332303a204552433230206f7065726174696f6e20646964206e60008301527f6f742073756363656564000000000000000000000000000000000000000000006020830152604082019050919050565b60006126a86036836129e4565b91507f5361666545524332303a20617070726f76652066726f6d206e6f6e2d7a65726f60008301527f20746f206e6f6e2d7a65726f20616c6c6f77616e6365000000000000000000006020830152604082019050919050565b600061270e601f836129e4565b91507f5361666545524332303a2063616c6c20746f206e6f6e2d636f6e7472616374006000830152602082019050919050565b61274a81612a33565b82525050565b600061275c828461237f565b915081905092915050565b600060208201905061277c6000830184612361565b92915050565b60006040820190506127976000830185612361565b6127a46020830184612361565b9392505050565b60006040820190506127c06000830185612361565b6127cd6020830184612741565b9392505050565b60006020820190506127e96000830184612370565b92915050565b6000602082019050818103600083015261280981846123b0565b905092915050565b6000602082019050818103600083015261282a816123e9565b9050919050565b6000602082019050818103600083015261284a81612429565b9050919050565b6000602082019050818103600083015261286a8161248f565b9050919050565b6000602082019050818103600083015261288a816124cf565b9050919050565b600060208201905081810360008301526128aa8161250f565b9050919050565b600060208201905081810360008301526128ca81612575565b9050919050565b600060208201905081810360008301526128ea816125b5565b9050919050565b6000602082019050818103600083015261290a816125f5565b9050919050565b6000602082019050818103600083015261292a81612635565b9050919050565b6000602082019050818103600083015261294a8161269b565b9050919050565b6000602082019050818103600083015261296a81612701565b9050919050565b60006020820190506129866000830184612741565b92915050565b60006060820190506129a16000830186612741565b6129ae6020830185612741565b6129bb6040830184612741565b949350505050565b600081519050919050565b600081519050919050565b600081905092915050565b600082825260208201905092915050565b6000612a0082612a13565b9050919050565b60008115159050919050565b600073ffffffffffffffffffffffffffffffffffffffff82169050919050565b6000819050919050565b60005b83811015612a5b578082015181840152602081019050612a40565b83811115612a6a576000848401525b50505050565b6000601f19601f8301169050919050565b612a8a816129f5565b8114612a9557600080fd5b50565b612aa181612a07565b8114612aac57600080fd5b50565b612ab881612a33565b8114612ac357600080fd5b5056fea365627a7a72315820f28512f40b300c6d972eff1acfd13357a7079585b3228d36ddfbe153b57e83236c6578706572696d656e74616cf564736f6c63430005100040",
  "linkReferences": {},
  "deployedLinkReferences": {}
}