{
  "_format": "hh-sol-artifact-1",
  "contractName": "IdleViewHelper",
  "sourceName": "contracts/IdleViewHelper.sol",
  "abi": [
    {
      "constant": true,
      "inputs": [],
      "name": "blocksPerYear",
      "outputs": [
        {
          "internalType": "uint256",
          "name": "",
          "type": "uint256"
        }
      ],
      "payable": false,
      "stateMutability": "view",
      "type": "function"
    },
    {
      "constant": true,
      "inputs": [],
      "name": "comp",
      "outputs": [
        {
          "internalType": "address",
          "name": "",
          "type": "address"
        }
      ],
      "payable": false,
      "stateMutability": "view",
      "type": "function"
    },
    {
      "constant": true,
      "inputs": [],
      "name": "comptroller",
      "outputs": [
        {
          "internalType": "address",
          "name": "",
          "type": "address"
        }
      ],
      "payable": false,
      "stateMutability": "view",
      "type": "function"
    },
    {
      "constant": true,
      "inputs": [
        {
          "internalType": "address",
          "name": "_token",
          "type": "address"
        },
        {
          "internalType": "address",
          "name": "cToken",
          "type": "address"
        }
      ],
      "name": "getCompApr",
      "outputs": [
        {
          "internalType": "uint256",
          "name": "apr",
          "type": "uint256"
        }
      ],
      "payable": false,
      "stateMutability": "view",
      "type": "function"
    },
    {
      "constant": true,
      "inputs": [
        {
          "internalType": "address",
          "name": "_idleToken",
          "type": "address"
        }
      ],
      "name": "getCurrentAllocations",
      "outputs": [
        {
          "internalType": "address[]",
          "name": "tokenAddresses",
          "type": "address[]"
        },
        {
          "internalType": "uint256[]",
          "name": "amounts",
          "type": "uint256[]"
        },
        {
          "internalType": "uint256",
          "name": "total",
          "type": "uint256"
        }
      ],
      "payable": false,
      "stateMutability": "view",
      "type": "function"
    },
    {
      "constant": true,
      "inputs": [
        {
          "internalType": "address",
          "name": "_idleToken",
          "type": "address"
        }
      ],
      "name": "getFullAPR",
      "outputs": [
        {
          "internalType": "uint256",
          "name": "apr",
          "type": "uint256"
        }
      ],
      "payable": false,
      "stateMutability": "view",
      "type": "function"
    },
    {
      "constant": true,
      "inputs": [
        {
          "internalType": "address",
          "name": "_idleToken",
          "type": "address"
        }
      ],
      "name": "getGovTokensLength",
      "outputs": [
        {
          "internalType": "uint256",
          "name": "",
          "type": "uint256"
        }
      ],
      "payable": false,
      "stateMutability": "view",
      "type": "function"
    },
    {
      "constant": false,
      "inputs": [],
      "name": "initialize",
      "outputs": [],
      "payable": false,
      "stateMutability": "nonpayable",
      "type": "function"
    },
    {
      "constant": true,
      "inputs": [],
      "name": "rebalancer",
      "outputs": [
        {
          "internalType": "address",
          "name": "",
          "type": "address"
        }
      ],
      "payable": false,
      "stateMutability": "view",
      "type": "function"
    },
    {
      "constant": true,
      "inputs": [],
      "name": "uniRouter",
      "outputs": [
        {
          "internalType": "address",
          "name": "",
          "type": "address"
        }
      ],
      "payable": false,
      "stateMutability": "view",
      "type": "function"
    },
    {
      "constant": true,
      "inputs": [],
      "name": "weth",
      "outputs": [
        {
          "internalType": "address",
          "name": "",
          "type": "address"
        }
      ],
      "payable": false,
      "stateMutability": "view",
      "type": "function"
    }
  ],
  "bytecode": "0x608060405234801561001057600080fd5b50611afe806100206000396000f3fe608060405234801561001057600080fd5b50600436106100a95760003560e01c80637c449e18116100715780637c449e18146102be5780638129fc1c14610316578063a0e47bf614610320578063a385fb961461036a578063d297128f14610388578063f6de6c8414610400576100a9565b806301d22ccd146100ae578063109d0af8146100f857806321c53649146101425780633fc8cef31461022a5780635fe3b56714610274575b600080fd5b6100b6610458565b604051808273ffffffffffffffffffffffffffffffffffffffff1673ffffffffffffffffffffffffffffffffffffffff16815260200191505060405180910390f35b61010061047e565b604051808273ffffffffffffffffffffffffffffffffffffffff1673ffffffffffffffffffffffffffffffffffffffff16815260200191505060405180910390f35b6101846004803603602081101561015857600080fd5b81019080803573ffffffffffffffffffffffffffffffffffffffff1690602001909291905050506104a4565b604051808060200180602001848152602001838103835286818151815260200191508051906020019060200280838360005b838110156101d15780820151818401526020810190506101b6565b50505050905001838103825285818151815260200191508051906020019060200280838360005b838110156102135780820151818401526020810190506101f8565b505050509050019550505050505060405180910390f35b610232610c7f565b604051808273ffffffffffffffffffffffffffffffffffffffff1673ffffffffffffffffffffffffffffffffffffffff16815260200191505060405180910390f35b61027c610ca5565b604051808273ffffffffffffffffffffffffffffffffffffffff1673ffffffffffffffffffffffffffffffffffffffff16815260200191505060405180910390f35b610300600480360360208110156102d457600080fd5b81019080803573ffffffffffffffffffffffffffffffffffffffff169060200190929190505050610ccb565b6040518082815260200191505060405180910390f35b61031e610e4f565b005b610328611101565b604051808273ffffffffffffffffffffffffffffffffffffffff1673ffffffffffffffffffffffffffffffffffffffff16815260200191505060405180910390f35b610372611127565b6040518082815260200191505060405180910390f35b6103ea6004803603604081101561039e57600080fd5b81019080803573ffffffffffffffffffffffffffffffffffffffff169060200190929190803573ffffffffffffffffffffffffffffffffffffffff16906020019092919050505061112d565b6040518082815260200191505060405180910390f35b6104426004803603602081101561041657600080fd5b81019080803573ffffffffffffffffffffffffffffffffffffffff16906020019092919050505061169d565b6040518082815260200191505060405180910390f35b603760009054906101000a900473ffffffffffffffffffffffffffffffffffffffff1681565b603460009054906101000a900473ffffffffffffffffffffffffffffffffffffffff1681565b60608060008084905060608173ffffffffffffffffffffffffffffffffffffffff1663b13bd4916040518163ffffffff1660e01b815260040160006040518083038186803b1580156104f557600080fd5b505afa158015610509573d6000803e3d6000fd5b505050506040513d6000823e3d601f19601f82011682018060405250604081101561053357600080fd5b810190808051604051939291908464010000000082111561055357600080fd5b8382019150602082018581111561056957600080fd5b825186602082028301116401000000008211171561058657600080fd5b8083526020830192505050908051906020019060200280838360005b838110156105bd5780820151818401526020810190506105a2565b50505050905001604052602001805160405193929190846401000000008211156105e657600080fd5b838201915060208201858111156105fc57600080fd5b825186602082028301116401000000008211171561061957600080fd5b8083526020830192505050908051906020019060200280838360005b83811015610650578082015181840152602081019050610635565b50505050905001604052505050509050600060018251019050806040519080825280602002602001820160405280156106985781602001602082028038833980820191505090505b509550806040519080825280602002602001820160405280156106ca5781602001602082028038833980820191505090505b50945060008060008090505b60018403811015610a21578573ffffffffffffffffffffffffffffffffffffffff166336a00082826040518263ffffffff1660e01b81526004018082815260200191505060206040518083038186803b15801561073257600080fd5b505afa158015610746573d6000803e3d6000fd5b505050506040513d602081101561075c57600080fd5b810190808051906020019092919050505092508289828151811061077c57fe5b602002602001019073ffffffffffffffffffffffffffffffffffffffff16908173ffffffffffffffffffffffffffffffffffffffff16815250508573ffffffffffffffffffffffffffffffffffffffff166345c8026c846040518263ffffffff1660e01b8152600401808273ffffffffffffffffffffffffffffffffffffffff1673ffffffffffffffffffffffffffffffffffffffff16815260200191505060206040518083038186803b15801561083357600080fd5b505afa158015610847573d6000803e3d6000fd5b505050506040513d602081101561085d57600080fd5b810190808051906020019092919050505073ffffffffffffffffffffffffffffffffffffffff166302bbce466040518163ffffffff1660e01b815260040160206040518083038186803b1580156108b357600080fd5b505afa1580156108c7573d6000803e3d6000fd5b505050506040513d60208110156108dd57600080fd5b810190808051906020019092919050505091506109d4670de0b6b3a76400006109c68573ffffffffffffffffffffffffffffffffffffffff166370a082318e6040518263ffffffff1660e01b8152600401808273ffffffffffffffffffffffffffffffffffffffff1673ffffffffffffffffffffffffffffffffffffffff16815260200191505060206040518083038186803b15801561097c57600080fd5b505afa158015610990573d6000803e3d6000fd5b505050506040513d60208110156109a657600080fd5b81019080805190602001909291905050508561184590919063ffffffff16565b6118cb90919063ffffffff16565b8882815181106109e057fe5b602002602001018181525050610a128882815181106109fb57fe5b60200260200101518861191590919063ffffffff16565b965080806001019150506106d6565b508473ffffffffffffffffffffffffffffffffffffffff1663fc0c546a6040518163ffffffff1660e01b815260040160206040518083038186803b158015610a6857600080fd5b505afa158015610a7c573d6000803e3d6000fd5b505050506040513d6020811015610a9257600080fd5b8101908080519060200190929190505050886001850381518110610ab257fe5b602002602001019073ffffffffffffffffffffffffffffffffffffffff16908173ffffffffffffffffffffffffffffffffffffffff16815250508473ffffffffffffffffffffffffffffffffffffffff1663fc0c546a6040518163ffffffff1660e01b815260040160206040518083038186803b158015610b3257600080fd5b505afa158015610b46573d6000803e3d6000fd5b505050506040513d6020811015610b5c57600080fd5b810190808051906020019092919050505073ffffffffffffffffffffffffffffffffffffffff166370a082318a6040518263ffffffff1660e01b8152600401808273ffffffffffffffffffffffffffffffffffffffff1673ffffffffffffffffffffffffffffffffffffffff16815260200191505060206040518083038186803b158015610be957600080fd5b505afa158015610bfd573d6000803e3d6000fd5b505050506040513d6020811015610c1357600080fd5b8101908080519060200190929190505050876001850381518110610c3357fe5b602002602001018181525050610c68876001850381518110610c5157fe5b60200260200101518761191590919063ffffffff16565b955087878797509750975050505050509193909250565b603660009054906101000a900473ffffffffffffffffffffffffffffffffffffffff1681565b603560009054906101000a900473ffffffffffffffffffffffffffffffffffffffff1681565b600060608273ffffffffffffffffffffffffffffffffffffffff166350b28af7603760009054906101000a900473ffffffffffffffffffffffffffffffffffffffff166040518263ffffffff1660e01b8152600401808273ffffffffffffffffffffffffffffffffffffffff1673ffffffffffffffffffffffffffffffffffffffff16815260200191505060006040518083038186803b158015610d6e57600080fd5b505afa158015610d82573d6000803e3d6000fd5b505050506040513d6000823e3d601f19601f820116820180604052506020811015610dac57600080fd5b8101908080516040519392919084640100000000821115610dcc57600080fd5b83820191506020820185811115610de257600080fd5b8251866020820283011164010000000082111715610dff57600080fd5b8083526020830192505050908051906020019060200280838360005b83811015610e36578082015181840152602081019050610e1b565b5050505090500160405250505090508051915050919050565b600060019054906101000a900460ff1680610e6e5750610e6d61199d565b5b80610e8557506000809054906101000a900460ff16155b610eda576040517f08c379a000000000000000000000000000000000000000000000000000000000815260040180806020018281038252602e815260200180611a9c602e913960400191505060405180910390fd5b60008060019054906101000a900460ff161590508015610f2a576001600060016101000a81548160ff02191690831515021790555060016000806101000a81548160ff0219169083151502179055505b737a250d5630b4cf539739df2c5dacb4c659f2488d603360006101000a81548173ffffffffffffffffffffffffffffffffffffffff021916908373ffffffffffffffffffffffffffffffffffffffff16021790555073c00e94cb662c3520282e6f5717214004a7f26888603460006101000a81548173ffffffffffffffffffffffffffffffffffffffff021916908373ffffffffffffffffffffffffffffffffffffffff160217905550733d9819210a31b4961b30ef54be2aed79b9c9cd3b603560006101000a81548173ffffffffffffffffffffffffffffffffffffffff021916908373ffffffffffffffffffffffffffffffffffffffff16021790555073c02aaa39b223fe8d0a0e5c4f27ead9083c756cc2603660006101000a81548173ffffffffffffffffffffffffffffffffffffffff021916908373ffffffffffffffffffffffffffffffffffffffff16021790555073b3c8e5534f0063545cbbb7ce86854bf42db8872b603760006101000a81548173ffffffffffffffffffffffffffffffffffffffff021916908373ffffffffffffffffffffffffffffffffffffffff16021790555062242f6460388190555080156110fe5760008060016101000a81548160ff0219169083151502179055505b50565b603360009054906101000a900473ffffffffffffffffffffffffffffffffffffffff1681565b60385481565b600080603560009054906101000a900473ffffffffffffffffffffffffffffffffffffffff1673ffffffffffffffffffffffffffffffffffffffff16631d7b33d7846040518263ffffffff1660e01b8152600401808273ffffffffffffffffffffffffffffffffffffffff1673ffffffffffffffffffffffffffffffffffffffff16815260200191505060206040518083038186803b1580156111cf57600080fd5b505afa1580156111e3573d6000803e3d6000fd5b505050506040513d60208110156111f957600080fd5b8101908080519060200190929190505050905060008390506000611340670de0b6b3a76400006113328773ffffffffffffffffffffffffffffffffffffffff166318160ddd6040518163ffffffff1660e01b815260040160206040518083038186803b15801561126857600080fd5b505afa15801561127c573d6000803e3d6000fd5b505050506040513d602081101561129257600080fd5b81019080805190602001909291905050508573ffffffffffffffffffffffffffffffffffffffff1663182df0f56040518163ffffffff1660e01b815260040160206040518083038186803b1580156112e957600080fd5b505afa1580156112fd573d6000803e3d6000fd5b505050506040513d602081101561131357600080fd5b810190808051906020019092919050505061184590919063ffffffff16565b6118cb90919063ffffffff16565b9050606060036040519080825280602002602001820160405280156113745781602001602082028038833980820191505090505b509050868160008151811061138557fe5b602002602001019073ffffffffffffffffffffffffffffffffffffffff16908173ffffffffffffffffffffffffffffffffffffffff1681525050603660009054906101000a900473ffffffffffffffffffffffffffffffffffffffff16816001815181106113ef57fe5b602002602001019073ffffffffffffffffffffffffffffffffffffffff16908173ffffffffffffffffffffffffffffffffffffffff1681525050603460009054906101000a900473ffffffffffffffffffffffffffffffffffffffff168160028151811061145957fe5b602002602001019073ffffffffffffffffffffffffffffffffffffffff16908173ffffffffffffffffffffffffffffffffffffffff16815250506060603360009054906101000a900473ffffffffffffffffffffffffffffffffffffffff1673ffffffffffffffffffffffffffffffffffffffff16631f00ca74670de0b6b3a7640000846040518363ffffffff1660e01b81526004018083815260200180602001828103825283818151815260200191508051906020019060200280838360005b8381101561153557808201518184015260208101905061151a565b50505050905001935050505060006040518083038186803b15801561155957600080fd5b505afa15801561156d573d6000803e3d6000fd5b505050506040513d6000823e3d601f19601f82011682018060405250602081101561159757600080fd5b81019080805160405193929190846401000000008211156115b757600080fd5b838201915060208201858111156115cd57600080fd5b82518660208202830111640100000000821117156115ea57600080fd5b8083526020830192505050908051906020019060200280838360005b83811015611621578082015181840152602081019050611606565b5050505090500160405250505090506116906064611682856116746038546116668760008151811061164f57fe5b60200260200101518c61184590919063ffffffff16565b61184590919063ffffffff16565b6118cb90919063ffffffff16565b61184590919063ffffffff16565b9550505050505092915050565b6000808290508073ffffffffffffffffffffffffffffffffffffffff16631f80b18a6040518163ffffffff1660e01b815260040160206040518083038186803b1580156116e957600080fd5b505afa1580156116fd573d6000803e3d6000fd5b505050506040513d602081101561171357600080fd5b81019080805190602001909291905050509150600061173184610ccb565b111561183f576060806000611745866104a4565b92509250925060006117eb8573ffffffffffffffffffffffffffffffffffffffff1663fc0c546a6040518163ffffffff1660e01b815260040160206040518083038186803b15801561179657600080fd5b505afa1580156117aa573d6000803e3d6000fd5b505050506040513d60208110156117c057600080fd5b8101908080519060200190929190505050856000815181106117de57fe5b602002602001015161112d565b90506118386118298361181b848760008151811061180557fe5b602002602001015161184590919063ffffffff16565b6118cb90919063ffffffff16565b8761191590919063ffffffff16565b9550505050505b50919050565b60008083141561185857600090506118c5565b600082840290508284828161186957fe5b04146118c0576040517f08c379a0000000000000000000000000000000000000000000000000000000008152600401808060200182810382526021815260200180611a7b6021913960400191505060405180910390fd5b809150505b92915050565b600061190d83836040518060400160405280601a81526020017f536166654d6174683a206469766973696f6e206279207a65726f0000000000008152506119b4565b905092915050565b600080828401905083811015611993576040517f08c379a000000000000000000000000000000000000000000000000000000000815260040180806020018281038252601b8152602001807f536166654d6174683a206164646974696f6e206f766572666c6f77000000000081525060200191505060405180910390fd5b8091505092915050565b6000803090506000813b9050600081149250505090565b60008083118290611a60576040517f08c379a00000000000000000000000000000000000000000000000000000000081526004018080602001828103825283818151815260200191508051906020019080838360005b83811015611a25578082015181840152602081019050611a0a565b50505050905090810190601f168015611a525780820380516001836020036101000a031916815260200191505b509250505060405180910390fd5b506000838581611a6c57fe5b04905080915050939250505056fe536166654d6174683a206d756c7469706c69636174696f6e206f766572666c6f77436f6e747261637420696e7374616e63652068617320616c7265616479206265656e20696e697469616c697a6564a265627a7a72315820d2d3ca2942128b5253c892008528802eb58d2c980faa4af7b9c7f2a55bbd865164736f6c63430005100032",
  "linkReferences": {},
  "deployedLinkReferences": {}
}