{
  "_format": "hh-sol-artifact-1",
  "contractName": "Foo",
  "sourceName": "contracts/tests/Foo.sol",
  "abi": [
    {
      "inputs": [
        {
          "internalType": "uint256",
          "name": "_x",
          "type": "uint256"
        }
      ],
      "payable": false,
      "stateMutability": "nonpayable",
      "type": "constructor"
    },
    {
      "constant": false,
      "inputs": [
        {
          "internalType": "uint256",
          "name": "_x",
          "type": "uint256"
        }
      ],
      "name": "initialize",
      "outputs": [],
      "payable": false,
      "stateMutability": "nonpayable",
      "type": "function"
    },
    {
      "constant": true,
      "inputs": [],
      "name": "x",
      "outputs": [
        {
          "internalType": "uint256",
          "name": "",
          "type": "uint256"
        }
      ],
      "payable": false,
      "stateMutability": "view",
      "type": "function"
    }
  ],
  "bytecode": "0x608060405234801561001057600080fd5b506040516101343803806101348339818101604052602081101561003357600080fd5b81019080805190602001909291905050506100538161005960201b60201c565b50610063565b8060008190555050565b60c3806100716000396000f3fe6080604052348015600f57600080fd5b506004361060325760003560e01c80630c55699c146037578063fe4b84df146053575b600080fd5b603d607e565b6040518082815260200191505060405180910390f35b607c60048036036020811015606757600080fd5b81019080803590602001909291905050506084565b005b60005481565b806000819055505056fea265627a7a723158208be36bf43714b668e21aa4d1b1dfcddb872a3a3554ee5e63e2912b8cd238eeb064736f6c63430005100032",
  "linkReferences": {},
  "deployedLinkReferences": {}
}