{
  "_format": "hh-sol-artifact-1",
  "contractName": "ReentrancyGuard",
  "sourceName": "@openzeppelin/contracts-ethereum-package/contracts/utils/ReentrancyGuard.sol",
  "abi": [
    {
      "constant": false,
      "inputs": [],
      "name": "initialize",
      "outputs": [],
      "payable": false,
      "stateMutability": "nonpayable",
      "type": "function"
    }
  ],
  "bytecode": "0x608060405234801561001057600080fd5b506101bb806100206000396000f3fe608060405234801561001057600080fd5b506004361061002b5760003560e01c80638129fc1c14610030575b600080fd5b61003861003a565b005b600060019054906101000a900460ff16806100595750610058610141565b5b8061007057506000809054906101000a900460ff16155b6100c5576040517f08c379a000000000000000000000000000000000000000000000000000000000815260040180806020018281038252602e815260200180610159602e913960400191505060405180910390fd5b60008060019054906101000a900460ff161590508015610115576001600060016101000a81548160ff02191690831515021790555060016000806101000a81548160ff0219169083151502179055505b6001603381905550801561013e5760008060016101000a81548160ff0219169083151502179055505b50565b6000803090506000813b905060008114925050509056fe436f6e747261637420696e7374616e63652068617320616c7265616479206265656e20696e697469616c697a6564a265627a7a72315820290673f8286a7308e9db3c0add6e418f10bec10ae59ae3922668afdd6901914b64736f6c63430005100032",
  "linkReferences": {},
  "deployedLinkReferences": {}
}