{
  "_format": "hh-sol-artifact-1",
  "contractName": "aaveLendingPoolMockV2",
  "sourceName": "contracts/mocks/aaveLendingPoolMockV2.sol",
  "abi": [
    {
      "inputs": [
        {
          "internalType": "address",
          "name": "_dai",
          "type": "address"
        },
        {
          "internalType": "address",
          "name": "_aDai",
          "type": "address"
        }
      ],
      "payable": false,
      "stateMutability": "nonpayable",
      "type": "constructor"
    },
    {
      "constant": true,
      "inputs": [],
      "name": "aDai",
      "outputs": [
        {
          "internalType": "address",
          "name": "",
          "type": "address"
        }
      ],
      "payable": false,
      "stateMutability": "view",
      "type": "function"
    },
    {
      "constant": true,
      "inputs": [],
      "name": "currentLiquidityRate",
      "outputs": [
        {
          "internalType": "uint128",
          "name": "",
          "type": "uint128"
        }
      ],
      "payable": false,
      "stateMutability": "view",
      "type": "function"
    },
    {
      "constant": true,
      "inputs": [],
      "name": "dai",
      "outputs": [
        {
          "internalType": "address",
          "name": "",
          "type": "address"
        }
      ],
      "payable": false,
      "stateMutability": "view",
      "type": "function"
    },
    {
      "constant": false,
      "inputs": [
        {
          "internalType": "address",
          "name": "",
          "type": "address"
        },
        {
          "internalType": "uint256",
          "name": "_amount",
          "type": "uint256"
        },
        {
          "internalType": "address",
          "name": "_recipient",
          "type": "address"
        },
        {
          "internalType": "uint16",
          "name": "",
          "type": "uint16"
        }
      ],
      "name": "deposit",
      "outputs": [],
      "payable": false,
      "stateMutability": "nonpayable",
      "type": "function"
    },
    {
      "constant": true,
      "inputs": [
        {
          "internalType": "address",
          "name": "_reserve",
          "type": "address"
        }
      ],
      "name": "getReserveData",
      "outputs": [
        {
          "components": [
            {
              "components": [
                {
                  "internalType": "uint256",
                  "name": "data",
                  "type": "uint256"
                }
              ],
              "internalType": "struct DataTypes.ReserveConfigurationMap",
              "name": "configuration",
              "type": "tuple"
            },
            {
              "internalType": "uint128",
              "name": "liquidityIndex",
              "type": "uint128"
            },
            {
              "internalType": "uint128",
              "name": "variableBorrowIndex",
              "type": "uint128"
            },
            {
              "internalType": "uint128",
              "name": "currentLiquidityRate",
              "type": "uint128"
            },
            {
              "internalType": "uint128",
              "name": "currentVariableBorrowRate",
              "type": "uint128"
            },
            {
              "internalType": "uint128",
              "name": "currentStableBorrowRate",
              "type": "uint128"
            },
            {
              "internalType": "uint40",
              "name": "lastUpdateTimestamp",
              "type": "uint40"
            },
            {
              "internalType": "address",
              "name": "aTokenAddress",
              "type": "address"
            },
            {
              "internalType": "address",
              "name": "stableDebtTokenAddress",
              "type": "address"
            },
            {
              "internalType": "address",
              "name": "variableDebtTokenAddress",
              "type": "address"
            },
            {
              "internalType": "address",
              "name": "interestRateStrategyAddress",
              "type": "address"
            },
            {
              "internalType": "uint8",
              "name": "id",
              "type": "uint8"
            }
          ],
          "internalType": "struct DataTypes.ReserveData",
          "name": "",
          "type": "tuple"
        }
      ],
      "payable": false,
      "stateMutability": "view",
      "type": "function"
    },
    {
      "constant": true,
      "inputs": [],
      "name": "interestRateStrategyAddress",
      "outputs": [
        {
          "internalType": "address",
          "name": "",
          "type": "address"
        }
      ],
      "payable": false,
      "stateMutability": "view",
      "type": "function"
    },
    {
      "constant": false,
      "inputs": [
        {
          "internalType": "uint128",
          "name": "v",
          "type": "uint128"
        }
      ],
      "name": "setCurrentLiquidityRate",
      "outputs": [],
      "payable": false,
      "stateMutability": "nonpayable",
      "type": "function"
    },
    {
      "constant": false,
      "inputs": [
        {
          "internalType": "address",
          "name": "a",
          "type": "address"
        }
      ],
      "name": "setInterestRateStrategyAddress",
      "outputs": [],
      "payable": false,
      "stateMutability": "nonpayable",
      "type": "function"
    },
    {
      "constant": false,
      "inputs": [
        {
          "internalType": "address",
          "name": "a",
          "type": "address"
        }
      ],
      "name": "setStableDebtTokenAddress",
      "outputs": [],
      "payable": false,
      "stateMutability": "nonpayable",
      "type": "function"
    },
    {
      "constant": false,
      "inputs": [
        {
          "internalType": "address",
          "name": "a",
          "type": "address"
        }
      ],
      "name": "setVariableDebtTokenAddress",
      "outputs": [],
      "payable": false,
      "stateMutability": "nonpayable",
      "type": "function"
    },
    {
      "constant": true,
      "inputs": [],
      "name": "stableDebtTokenAddress",
      "outputs": [
        {
          "internalType": "address",
          "name": "",
          "type": "address"
        }
      ],
      "payable": false,
      "stateMutability": "view",
      "type": "function"
    },
    {
      "constant": true,
      "inputs": [],
      "name": "variableDebtTokenAddress",
      "outputs": [
        {
          "internalType": "address",
          "name": "",
          "type": "address"
        }
      ],
      "payable": false,
      "stateMutability": "view",
      "type": "function"
    },
    {
      "constant": false,
      "inputs": [
        {
          "internalType": "address",
          "name": "_asset",
          "type": "address"
        },
        {
          "internalType": "uint256",
          "name": "_amount",
          "type": "uint256"
        },
        {
          "internalType": "address",
          "name": "_to",
          "type": "address"
        }
      ],
      "name": "withdraw",
      "outputs": [],
      "payable": false,
      "stateMutability": "nonpayable",
      "type": "function"
    }
  ],
  "bytecode": "0x608060405234801561001057600080fd5b50604051610f33380380610f33833981810160405261003291908101906100cf565b816000806101000a81548173ffffffffffffffffffffffffffffffffffffffff021916908373ffffffffffffffffffffffffffffffffffffffff16021790555080600160006101000a81548173ffffffffffffffffffffffffffffffffffffffff021916908373ffffffffffffffffffffffffffffffffffffffff1602179055505050610154565b6000815190506100c98161013d565b92915050565b600080604083850312156100e257600080fd5b60006100f0858286016100ba565b9250506020610101858286016100ba565b9150509250929050565b60006101168261011d565b9050919050565b600073ffffffffffffffffffffffffffffffffffffffff82169050919050565b6101468161010b565b811461015157600080fd5b50565b610dd0806101636000396000f3fe608060405234801561001057600080fd5b50600436106100cf5760003560e01c806369328dec1161008c578063a34e8fa011610066578063a34e8fa0146101ea578063cd2e7a5214610208578063e8eda9df14610226578063f4b9fa7514610242576100cf565b806369328dec146101945780638bf24b20146101b057806390839e3f146101cc576100cf565b80631028c970146100d4578063106296dd146100f057806317723e311461010e5780631fbc9fa31461012a57806335ea6a751461014857806361f1ce6314610178575b600080fd5b6100ee60048036036100e991908101906108ad565b610260565b005b6100f86102a4565b6040516101059190610c27565b60405180910390f35b610128600480360361012391908101906109b1565b6102c6565b005b610132610302565b60405161013f9190610b82565b60405180910390f35b610162600480360361015d91908101906108ad565b610328565b60405161016f9190610c0b565b60405180910390f35b610192600480360361018d91908101906108ad565b6104a0565b005b6101ae60048036036101a991908101906108d6565b6104e4565b005b6101ca60048036036101c591908101906108ad565b61057d565b005b6101d46105c1565b6040516101e19190610b82565b60405180910390f35b6101f26105e7565b6040516101ff9190610b82565b60405180910390f35b61021061060d565b60405161021d9190610b82565b60405180910390f35b610240600480360361023b9190810190610925565b610633565b005b61024a6106e9565b6040516102579190610b82565b60405180910390f35b80600260006101000a81548173ffffffffffffffffffffffffffffffffffffffff021916908373ffffffffffffffffffffffffffffffffffffffff16021790555050565b600560009054906101000a90046fffffffffffffffffffffffffffffffff1681565b80600560006101000a8154816fffffffffffffffffffffffffffffffff02191690836fffffffffffffffffffffffffffffffff16021790555050565b600360009054906101000a900473ffffffffffffffffffffffffffffffffffffffff1681565b61033061070e565b61033861070e565b600260009054906101000a900473ffffffffffffffffffffffffffffffffffffffff1681610100019073ffffffffffffffffffffffffffffffffffffffff16908173ffffffffffffffffffffffffffffffffffffffff1681525050600360009054906101000a900473ffffffffffffffffffffffffffffffffffffffff1681610120019073ffffffffffffffffffffffffffffffffffffffff16908173ffffffffffffffffffffffffffffffffffffffff1681525050600460009054906101000a900473ffffffffffffffffffffffffffffffffffffffff1681610140019073ffffffffffffffffffffffffffffffffffffffff16908173ffffffffffffffffffffffffffffffffffffffff1681525050600560009054906101000a90046fffffffffffffffffffffffffffffffff1681606001906fffffffffffffffffffffffffffffffff1690816fffffffffffffffffffffffffffffffff168152505080915050919050565b80600460006101000a81548173ffffffffffffffffffffffffffffffffffffffff021916908373ffffffffffffffffffffffffffffffffffffffff16021790555050565b600160009054906101000a900473ffffffffffffffffffffffffffffffffffffffff1673ffffffffffffffffffffffffffffffffffffffff1663d7020d0a33838560006040518563ffffffff1660e01b81526004016105469493929190610b9d565b600060405180830381600087803b15801561056057600080fd5b505af1158015610574573d6000803e3d6000fd5b50505050505050565b80600360006101000a81548173ffffffffffffffffffffffffffffffffffffffff021916908373ffffffffffffffffffffffffffffffffffffffff16021790555050565b600460009054906101000a900473ffffffffffffffffffffffffffffffffffffffff1681565b600160009054906101000a900473ffffffffffffffffffffffffffffffffffffffff1681565b600260009054906101000a900473ffffffffffffffffffffffffffffffffffffffff1681565b600160009054906101000a900473ffffffffffffffffffffffffffffffffffffffff1673ffffffffffffffffffffffffffffffffffffffff1663a9059cbb83856040518363ffffffff1660e01b8152600401610690929190610be2565b602060405180830381600087803b1580156106aa57600080fd5b505af11580156106be573d6000803e3d6000fd5b505050506040513d601f19601f820116820180604052506106e29190810190610988565b5050505050565b6000809054906101000a900473ffffffffffffffffffffffffffffffffffffffff1681565b604051806101800160405280610722610831565b815260200160006fffffffffffffffffffffffffffffffff16815260200160006fffffffffffffffffffffffffffffffff16815260200160006fffffffffffffffffffffffffffffffff16815260200160006fffffffffffffffffffffffffffffffff16815260200160006fffffffffffffffffffffffffffffffff168152602001600064ffffffffff168152602001600073ffffffffffffffffffffffffffffffffffffffff168152602001600073ffffffffffffffffffffffffffffffffffffffff168152602001600073ffffffffffffffffffffffffffffffffffffffff168152602001600073ffffffffffffffffffffffffffffffffffffffff168152602001600060ff1681525090565b6040518060200160405280600081525090565b60008135905061085381610d1a565b92915050565b60008151905061086881610d31565b92915050565b60008135905061087d81610d48565b92915050565b60008135905061089281610d5f565b92915050565b6000813590506108a781610d76565b92915050565b6000602082840312156108bf57600080fd5b60006108cd84828501610844565b91505092915050565b6000806000606084860312156108eb57600080fd5b60006108f986828701610844565b935050602061090a86828701610898565b925050604061091b86828701610844565b9150509250925092565b6000806000806080858703121561093b57600080fd5b600061094987828801610844565b945050602061095a87828801610898565b935050604061096b87828801610844565b925050606061097c87828801610883565b91505092959194509250565b60006020828403121561099a57600080fd5b60006109a884828501610859565b91505092915050565b6000602082840312156109c357600080fd5b60006109d18482850161086e565b91505092915050565b6109e381610cd2565b82525050565b6109f281610c42565b82525050565b610a0181610c42565b82525050565b610a1081610ce4565b82525050565b602082016000820151610a2c6000850182610b46565b50505050565b61018082016000820151610a496000850182610a16565b506020820151610a5c6020850182610b28565b506040820151610a6f6040850182610b28565b506060820151610a826060850182610b28565b506080820151610a956080850182610b28565b5060a0820151610aa860a0850182610b28565b5060c0820151610abb60c0850182610b64565b5060e0820151610ace60e08501826109e9565b50610100820151610ae36101008501826109e9565b50610120820151610af86101208501826109e9565b50610140820151610b0d6101408501826109e9565b50610160820151610b22610160850182610b73565b50505050565b610b3181610c60565b82525050565b610b4081610c60565b82525050565b610b4f81610caa565b82525050565b610b5e81610caa565b82525050565b610b6d81610cb4565b82525050565b610b7c81610cc5565b82525050565b6000602082019050610b9760008301846109f8565b92915050565b6000608082019050610bb260008301876109da565b610bbf60208301866109f8565b610bcc6040830185610b55565b610bd96060830184610a07565b95945050505050565b6000604082019050610bf760008301856109f8565b610c046020830184610b55565b9392505050565b600061018082019050610c216000830184610a32565b92915050565b6000602082019050610c3c6000830184610b37565b92915050565b6000610c4d82610c8a565b9050919050565b60008115159050919050565b60006fffffffffffffffffffffffffffffffff82169050919050565b600061ffff82169050919050565b600073ffffffffffffffffffffffffffffffffffffffff82169050919050565b6000819050919050565b600064ffffffffff82169050919050565b600060ff82169050919050565b6000610cdd82610cf6565b9050919050565b6000610cef82610caa565b9050919050565b6000610d0182610d08565b9050919050565b6000610d1382610c8a565b9050919050565b610d2381610c42565b8114610d2e57600080fd5b50565b610d3a81610c54565b8114610d4557600080fd5b50565b610d5181610c60565b8114610d5c57600080fd5b50565b610d6881610c7c565b8114610d7357600080fd5b50565b610d7f81610caa565b8114610d8a57600080fd5b5056fea365627a7a7231582006657ae2b5a69f20f23579ebe6cc57e6bb2647958c8cc70e772c51c1fc41b40b6c6578706572696d656e74616cf564736f6c63430005100040",
  "linkReferences": {},
  "deployedLinkReferences": {}
}