{
  "_format": "hh-sol-artifact-1",
  "contractName": "IdleTokenV3_1Mock",
  "sourceName": "contracts/mocks/IdleTokenV3_1Mock.sol",
  "abi": [
    {
      "inputs": [
        {
          "internalType": "string",
          "name": "_name",
          "type": "string"
        },
        {
          "internalType": "string",
          "name": "_symbol",
          "type": "string"
        },
        {
          "internalType": "address",
          "name": "_token",
          "type": "address"
        },
        {
          "internalType": "address",
          "name": "_iToken",
          "type": "address"
        },
        {
          "internalType": "address",
          "name": "_cToken",
          "type": "address"
        },
        {
          "internalType": "address",
          "name": "_rebalancer",
          "type": "address"
        },
        {
          "internalType": "address",
          "name": "_idle",
          "type": "address"
        },
        {
          "internalType": "address",
          "name": "_comp",
          "type": "address"
        }
      ],
      "payable": false,
      "stateMutability": "nonpayable",
      "type": "constructor"
    },
    {
      "anonymous": false,
      "inputs": [
        {
          "indexed": true,
          "internalType": "address",
          "name": "owner",
          "type": "address"
        },
        {
          "indexed": true,
          "internalType": "address",
          "name": "spender",
          "type": "address"
        },
        {
          "indexed": false,
          "internalType": "uint256",
          "name": "value",
          "type": "uint256"
        }
      ],
      "name": "Approval",
      "type": "event"
    },
    {
      "anonymous": false,
      "inputs": [
        {
          "indexed": true,
          "internalType": "address",
          "name": "previousOwner",
          "type": "address"
        },
        {
          "indexed": true,
          "internalType": "address",
          "name": "newOwner",
          "type": "address"
        }
      ],
      "name": "OwnershipTransferred",
      "type": "event"
    },
    {
      "anonymous": false,
      "inputs": [
        {
          "indexed": false,
          "internalType": "address",
          "name": "account",
          "type": "address"
        }
      ],
      "name": "Paused",
      "type": "event"
    },
    {
      "anonymous": false,
      "inputs": [
        {
          "indexed": true,
          "internalType": "address",
          "name": "account",
          "type": "address"
        }
      ],
      "name": "PauserAdded",
      "type": "event"
    },
    {
      "anonymous": false,
      "inputs": [
        {
          "indexed": true,
          "internalType": "address",
          "name": "account",
          "type": "address"
        }
      ],
      "name": "PauserRemoved",
      "type": "event"
    },
    {
      "anonymous": false,
      "inputs": [
        {
          "indexed": false,
          "internalType": "address",
          "name": "_rebalancer",
          "type": "address"
        },
        {
          "indexed": false,
          "internalType": "uint256",
          "name": "_amount",
          "type": "uint256"
        }
      ],
      "name": "Rebalance",
      "type": "event"
    },
    {
      "anonymous": false,
      "inputs": [
        {
          "indexed": false,
          "internalType": "uint256",
          "name": "_amount",
          "type": "uint256"
        },
        {
          "indexed": false,
          "internalType": "address",
          "name": "_ref",
          "type": "address"
        }
      ],
      "name": "Referral",
      "type": "event"
    },
    {
      "anonymous": false,
      "inputs": [
        {
          "indexed": true,
          "internalType": "address",
          "name": "from",
          "type": "address"
        },
        {
          "indexed": true,
          "internalType": "address",
          "name": "to",
          "type": "address"
        },
        {
          "indexed": false,
          "internalType": "uint256",
          "name": "value",
          "type": "uint256"
        }
      ],
      "name": "Transfer",
      "type": "event"
    },
    {
      "anonymous": false,
      "inputs": [
        {
          "indexed": false,
          "internalType": "address",
          "name": "account",
          "type": "address"
        }
      ],
      "name": "Unpaused",
      "type": "event"
    },
    {
      "constant": true,
      "inputs": [],
      "name": "COMP",
      "outputs": [
        {
          "internalType": "address",
          "name": "",
          "type": "address"
        }
      ],
      "payable": false,
      "stateMutability": "view",
      "type": "function"
    },
    {
      "constant": true,
      "inputs": [],
      "name": "IDLE",
      "outputs": [
        {
          "internalType": "address",
          "name": "",
          "type": "address"
        }
      ],
      "payable": false,
      "stateMutability": "view",
      "type": "function"
    },
    {
      "constant": false,
      "inputs": [
        {
          "internalType": "address",
          "name": "account",
          "type": "address"
        }
      ],
      "name": "addPauser",
      "outputs": [],
      "payable": false,
      "stateMutability": "nonpayable",
      "type": "function"
    },
    {
      "constant": true,
      "inputs": [
        {
          "internalType": "uint256",
          "name": "",
          "type": "uint256"
        }
      ],
      "name": "allAvailableTokens",
      "outputs": [
        {
          "internalType": "address",
          "name": "",
          "type": "address"
        }
      ],
      "payable": false,
      "stateMutability": "view",
      "type": "function"
    },
    {
      "constant": true,
      "inputs": [
        {
          "internalType": "address",
          "name": "owner",
          "type": "address"
        },
        {
          "internalType": "address",
          "name": "spender",
          "type": "address"
        }
      ],
      "name": "allowance",
      "outputs": [
        {
          "internalType": "uint256",
          "name": "",
          "type": "uint256"
        }
      ],
      "payable": false,
      "stateMutability": "view",
      "type": "function"
    },
    {
      "constant": true,
      "inputs": [
        {
          "internalType": "uint256[]",
          "name": "allocations",
          "type": "uint256[]"
        },
        {
          "internalType": "uint256",
          "name": "total",
          "type": "uint256"
        }
      ],
      "name": "amountsFromAllocations",
      "outputs": [
        {
          "internalType": "uint256[]",
          "name": "foo",
          "type": "uint256[]"
        }
      ],
      "payable": false,
      "stateMutability": "pure",
      "type": "function"
    },
    {
      "constant": false,
      "inputs": [
        {
          "internalType": "address",
          "name": "spender",
          "type": "address"
        },
        {
          "internalType": "uint256",
          "name": "amount",
          "type": "uint256"
        }
      ],
      "name": "approve",
      "outputs": [
        {
          "internalType": "bool",
          "name": "",
          "type": "bool"
        }
      ],
      "payable": false,
      "stateMutability": "nonpayable",
      "type": "function"
    },
    {
      "constant": true,
      "inputs": [
        {
          "internalType": "address",
          "name": "account",
          "type": "address"
        }
      ],
      "name": "balanceOf",
      "outputs": [
        {
          "internalType": "uint256",
          "name": "",
          "type": "uint256"
        }
      ],
      "payable": false,
      "stateMutability": "view",
      "type": "function"
    },
    {
      "constant": true,
      "inputs": [],
      "name": "decimals",
      "outputs": [
        {
          "internalType": "uint8",
          "name": "",
          "type": "uint8"
        }
      ],
      "payable": false,
      "stateMutability": "view",
      "type": "function"
    },
    {
      "constant": false,
      "inputs": [
        {
          "internalType": "address",
          "name": "spender",
          "type": "address"
        },
        {
          "internalType": "uint256",
          "name": "subtractedValue",
          "type": "uint256"
        }
      ],
      "name": "decreaseAllowance",
      "outputs": [
        {
          "internalType": "bool",
          "name": "",
          "type": "bool"
        }
      ],
      "payable": false,
      "stateMutability": "nonpayable",
      "type": "function"
    },
    {
      "constant": true,
      "inputs": [],
      "name": "fee",
      "outputs": [
        {
          "internalType": "uint256",
          "name": "",
          "type": "uint256"
        }
      ],
      "payable": false,
      "stateMutability": "view",
      "type": "function"
    },
    {
      "constant": true,
      "inputs": [],
      "name": "feeAddress",
      "outputs": [
        {
          "internalType": "address",
          "name": "",
          "type": "address"
        }
      ],
      "payable": false,
      "stateMutability": "view",
      "type": "function"
    },
    {
      "constant": true,
      "inputs": [],
      "name": "getAPRs",
      "outputs": [
        {
          "internalType": "address[]",
          "name": "addresses",
          "type": "address[]"
        },
        {
          "internalType": "uint256[]",
          "name": "aprs",
          "type": "uint256[]"
        }
      ],
      "payable": false,
      "stateMutability": "view",
      "type": "function"
    },
    {
      "constant": true,
      "inputs": [],
      "name": "getAllocations",
      "outputs": [
        {
          "internalType": "uint256[]",
          "name": "",
          "type": "uint256[]"
        }
      ],
      "payable": false,
      "stateMutability": "view",
      "type": "function"
    },
    {
      "constant": true,
      "inputs": [],
      "name": "getAvgAPR",
      "outputs": [
        {
          "internalType": "uint256",
          "name": "",
          "type": "uint256"
        }
      ],
      "payable": false,
      "stateMutability": "view",
      "type": "function"
    },
    {
      "constant": true,
      "inputs": [
        {
          "internalType": "address",
          "name": "_usr",
          "type": "address"
        }
      ],
      "name": "getGovTokensAmounts",
      "outputs": [
        {
          "internalType": "uint256[]",
          "name": "_amounts",
          "type": "uint256[]"
        }
      ],
      "payable": false,
      "stateMutability": "view",
      "type": "function"
    },
    {
      "constant": true,
      "inputs": [
        {
          "internalType": "uint256",
          "name": "",
          "type": "uint256"
        }
      ],
      "name": "govTokens",
      "outputs": [
        {
          "internalType": "address",
          "name": "",
          "type": "address"
        }
      ],
      "payable": false,
      "stateMutability": "view",
      "type": "function"
    },
    {
      "constant": true,
      "inputs": [
        {
          "internalType": "address",
          "name": "",
          "type": "address"
        }
      ],
      "name": "govTokensIndexes",
      "outputs": [
        {
          "internalType": "uint256",
          "name": "",
          "type": "uint256"
        }
      ],
      "payable": false,
      "stateMutability": "view",
      "type": "function"
    },
    {
      "constant": true,
      "inputs": [
        {
          "internalType": "address",
          "name": "",
          "type": "address"
        }
      ],
      "name": "govTokensLastBalances",
      "outputs": [
        {
          "internalType": "uint256",
          "name": "",
          "type": "uint256"
        }
      ],
      "payable": false,
      "stateMutability": "view",
      "type": "function"
    },
    {
      "constant": true,
      "inputs": [],
      "name": "gst2",
      "outputs": [
        {
          "internalType": "contract GasToken",
          "name": "",
          "type": "address"
        }
      ],
      "payable": false,
      "stateMutability": "view",
      "type": "function"
    },
    {
      "constant": true,
      "inputs": [],
      "name": "idleController",
      "outputs": [
        {
          "internalType": "address",
          "name": "",
          "type": "address"
        }
      ],
      "payable": false,
      "stateMutability": "view",
      "type": "function"
    },
    {
      "constant": false,
      "inputs": [
        {
          "internalType": "address",
          "name": "spender",
          "type": "address"
        },
        {
          "internalType": "uint256",
          "name": "addedValue",
          "type": "uint256"
        }
      ],
      "name": "increaseAllowance",
      "outputs": [
        {
          "internalType": "bool",
          "name": "",
          "type": "bool"
        }
      ],
      "payable": false,
      "stateMutability": "nonpayable",
      "type": "function"
    },
    {
      "constant": false,
      "inputs": [
        {
          "internalType": "string",
          "name": "name",
          "type": "string"
        },
        {
          "internalType": "string",
          "name": "symbol",
          "type": "string"
        },
        {
          "internalType": "uint8",
          "name": "decimals",
          "type": "uint8"
        }
      ],
      "name": "initialize",
      "outputs": [],
      "payable": false,
      "stateMutability": "nonpayable",
      "type": "function"
    },
    {
      "constant": false,
      "inputs": [],
      "name": "initialize",
      "outputs": [],
      "payable": false,
      "stateMutability": "nonpayable",
      "type": "function"
    },
    {
      "constant": false,
      "inputs": [
        {
          "internalType": "address",
          "name": "sender",
          "type": "address"
        }
      ],
      "name": "initialize",
      "outputs": [],
      "payable": false,
      "stateMutability": "nonpayable",
      "type": "function"
    },
    {
      "constant": true,
      "inputs": [],
      "name": "isOwner",
      "outputs": [
        {
          "internalType": "bool",
          "name": "",
          "type": "bool"
        }
      ],
      "payable": false,
      "stateMutability": "view",
      "type": "function"
    },
    {
      "constant": true,
      "inputs": [
        {
          "internalType": "address",
          "name": "account",
          "type": "address"
        }
      ],
      "name": "isPauser",
      "outputs": [
        {
          "internalType": "bool",
          "name": "",
          "type": "bool"
        }
      ],
      "payable": false,
      "stateMutability": "view",
      "type": "function"
    },
    {
      "constant": true,
      "inputs": [],
      "name": "isRiskAdjusted",
      "outputs": [
        {
          "internalType": "bool",
          "name": "",
          "type": "bool"
        }
      ],
      "payable": false,
      "stateMutability": "view",
      "type": "function"
    },
    {
      "constant": true,
      "inputs": [
        {
          "internalType": "uint256",
          "name": "",
          "type": "uint256"
        }
      ],
      "name": "lastAllocations",
      "outputs": [
        {
          "internalType": "uint256",
          "name": "",
          "type": "uint256"
        }
      ],
      "payable": false,
      "stateMutability": "view",
      "type": "function"
    },
    {
      "constant": true,
      "inputs": [],
      "name": "lastITokenPrice",
      "outputs": [
        {
          "internalType": "uint256",
          "name": "",
          "type": "uint256"
        }
      ],
      "payable": false,
      "stateMutability": "view",
      "type": "function"
    },
    {
      "constant": false,
      "inputs": [
        {
          "internalType": "address[]",
          "name": "_newGovTokens",
          "type": "address[]"
        },
        {
          "internalType": "address[]",
          "name": "_protocolTokens",
          "type": "address[]"
        },
        {
          "internalType": "address[]",
          "name": "_wrappers",
          "type": "address[]"
        },
        {
          "internalType": "uint256[]",
          "name": "_lastRebalancerAllocations",
          "type": "uint256[]"
        },
        {
          "internalType": "bool",
          "name": "_isRiskAdjusted",
          "type": "bool"
        }
      ],
      "name": "manualInitialize",
      "outputs": [],
      "payable": false,
      "stateMutability": "nonpayable",
      "type": "function"
    },
    {
      "constant": true,
      "inputs": [],
      "name": "maxUnlentPerc",
      "outputs": [
        {
          "internalType": "uint256",
          "name": "",
          "type": "uint256"
        }
      ],
      "payable": false,
      "stateMutability": "view",
      "type": "function"
    },
    {
      "constant": false,
      "inputs": [
        {
          "internalType": "uint256",
          "name": "_amount",
          "type": "uint256"
        },
        {
          "internalType": "bool",
          "name": "_skipRebalance",
          "type": "bool"
        },
        {
          "internalType": "address",
          "name": "_referral",
          "type": "address"
        }
      ],
      "name": "mintIdleToken",
      "outputs": [
        {
          "internalType": "uint256",
          "name": "mintedTokens",
          "type": "uint256"
        }
      ],
      "payable": false,
      "stateMutability": "nonpayable",
      "type": "function"
    },
    {
      "constant": false,
      "inputs": [
        {
          "internalType": "address[]",
          "name": "tokenAddresses",
          "type": "address[]"
        },
        {
          "internalType": "uint256[]",
          "name": "protocolAmounts",
          "type": "uint256[]"
        }
      ],
      "name": "mintWithAmounts",
      "outputs": [],
      "payable": false,
      "stateMutability": "nonpayable",
      "type": "function"
    },
    {
      "constant": true,
      "inputs": [],
      "name": "name",
      "outputs": [
        {
          "internalType": "string",
          "name": "",
          "type": "string"
        }
      ],
      "payable": false,
      "stateMutability": "view",
      "type": "function"
    },
    {
      "constant": false,
      "inputs": [
        {
          "internalType": "uint256[]",
          "name": "_newAllocations",
          "type": "uint256[]"
        }
      ],
      "name": "openRebalance",
      "outputs": [
        {
          "internalType": "bool",
          "name": "",
          "type": "bool"
        },
        {
          "internalType": "uint256",
          "name": "avgApr",
          "type": "uint256"
        }
      ],
      "payable": false,
      "stateMutability": "nonpayable",
      "type": "function"
    },
    {
      "constant": true,
      "inputs": [],
      "name": "oracle",
      "outputs": [
        {
          "internalType": "address",
          "name": "",
          "type": "address"
        }
      ],
      "payable": false,
      "stateMutability": "view",
      "type": "function"
    },
    {
      "constant": true,
      "inputs": [],
      "name": "owner",
      "outputs": [
        {
          "internalType": "address",
          "name": "",
          "type": "address"
        }
      ],
      "payable": false,
      "stateMutability": "view",
      "type": "function"
    },
    {
      "constant": false,
      "inputs": [],
      "name": "pause",
      "outputs": [],
      "payable": false,
      "stateMutability": "nonpayable",
      "type": "function"
    },
    {
      "constant": true,
      "inputs": [],
      "name": "paused",
      "outputs": [
        {
          "internalType": "bool",
          "name": "",
          "type": "bool"
        }
      ],
      "payable": false,
      "stateMutability": "view",
      "type": "function"
    },
    {
      "constant": true,
      "inputs": [
        {
          "internalType": "address",
          "name": "",
          "type": "address"
        }
      ],
      "name": "protocolWrappers",
      "outputs": [
        {
          "internalType": "address",
          "name": "",
          "type": "address"
        }
      ],
      "payable": false,
      "stateMutability": "view",
      "type": "function"
    },
    {
      "constant": false,
      "inputs": [],
      "name": "rebalance",
      "outputs": [
        {
          "internalType": "bool",
          "name": "",
          "type": "bool"
        }
      ],
      "payable": false,
      "stateMutability": "nonpayable",
      "type": "function"
    },
    {
      "constant": false,
      "inputs": [],
      "name": "rebalanceWithGST",
      "outputs": [
        {
          "internalType": "bool",
          "name": "",
          "type": "bool"
        }
      ],
      "payable": false,
      "stateMutability": "nonpayable",
      "type": "function"
    },
    {
      "constant": true,
      "inputs": [],
      "name": "rebalancer",
      "outputs": [
        {
          "internalType": "address",
          "name": "",
          "type": "address"
        }
      ],
      "payable": false,
      "stateMutability": "view",
      "type": "function"
    },
    {
      "constant": false,
      "inputs": [
        {
          "internalType": "address[]",
          "name": "tokenAddresses",
          "type": "address[]"
        },
        {
          "internalType": "uint256[]",
          "name": "amounts",
          "type": "uint256[]"
        },
        {
          "internalType": "uint256[]",
          "name": "newAmounts",
          "type": "uint256[]"
        }
      ],
      "name": "redeemAllNeeded",
      "outputs": [
        {
          "internalType": "uint256[]",
          "name": "toMintAllocations",
          "type": "uint256[]"
        },
        {
          "internalType": "uint256",
          "name": "totalToMint",
          "type": "uint256"
        },
        {
          "internalType": "bool",
          "name": "lowLiquidity",
          "type": "bool"
        }
      ],
      "payable": false,
      "stateMutability": "nonpayable",
      "type": "function"
    },
    {
      "constant": false,
      "inputs": [
        {
          "internalType": "uint256",
          "name": "_amount",
          "type": "uint256"
        }
      ],
      "name": "redeemIdleToken",
      "outputs": [
        {
          "internalType": "uint256",
          "name": "redeemedTokens",
          "type": "uint256"
        }
      ],
      "payable": false,
      "stateMutability": "nonpayable",
      "type": "function"
    },
    {
      "constant": false,
      "inputs": [
        {
          "internalType": "uint256",
          "name": "_amount",
          "type": "uint256"
        }
      ],
      "name": "redeemInterestBearingTokens",
      "outputs": [],
      "payable": false,
      "stateMutability": "nonpayable",
      "type": "function"
    },
    {
      "constant": false,
      "inputs": [],
      "name": "renounceOwnership",
      "outputs": [],
      "payable": false,
      "stateMutability": "nonpayable",
      "type": "function"
    },
    {
      "constant": false,
      "inputs": [],
      "name": "renouncePauser",
      "outputs": [],
      "payable": false,
      "stateMutability": "nonpayable",
      "type": "function"
    },
    {
      "constant": false,
      "inputs": [
        {
          "internalType": "address[]",
          "name": "protocolTokens",
          "type": "address[]"
        },
        {
          "internalType": "address[]",
          "name": "wrappers",
          "type": "address[]"
        },
        {
          "internalType": "uint256[]",
          "name": "allocations",
          "type": "uint256[]"
        },
        {
          "internalType": "bool",
          "name": "keepAllocations",
          "type": "bool"
        }
      ],
      "name": "setAllAvailableTokensAndWrappers",
      "outputs": [],
      "payable": false,
      "stateMutability": "nonpayable",
      "type": "function"
    },
    {
      "constant": false,
      "inputs": [
        {
          "internalType": "uint256[]",
          "name": "_allocations",
          "type": "uint256[]"
        }
      ],
      "name": "setAllocations",
      "outputs": [],
      "payable": false,
      "stateMutability": "nonpayable",
      "type": "function"
    },
    {
      "constant": false,
      "inputs": [
        {
          "internalType": "uint256",
          "name": "_fee",
          "type": "uint256"
        }
      ],
      "name": "setFee",
      "outputs": [],
      "payable": false,
      "stateMutability": "nonpayable",
      "type": "function"
    },
    {
      "constant": false,
      "inputs": [
        {
          "internalType": "address",
          "name": "_feeAddress",
          "type": "address"
        }
      ],
      "name": "setFeeAddress",
      "outputs": [],
      "payable": false,
      "stateMutability": "nonpayable",
      "type": "function"
    },
    {
      "constant": false,
      "inputs": [
        {
          "internalType": "address",
          "name": "_gst",
          "type": "address"
        }
      ],
      "name": "setGST",
      "outputs": [],
      "payable": false,
      "stateMutability": "nonpayable",
      "type": "function"
    },
    {
      "constant": false,
      "inputs": [
        {
          "internalType": "address[]",
          "name": "_newGovTokens",
          "type": "address[]"
        },
        {
          "internalType": "address[]",
          "name": "_protocolTokens",
          "type": "address[]"
        }
      ],
      "name": "setGovTokens",
      "outputs": [],
      "payable": false,
      "stateMutability": "nonpayable",
      "type": "function"
    },
    {
      "constant": false,
      "inputs": [
        {
          "internalType": "address",
          "name": "_controller",
          "type": "address"
        }
      ],
      "name": "setIdleControllerAddress",
      "outputs": [],
      "payable": false,
      "stateMutability": "nonpayable",
      "type": "function"
    },
    {
      "constant": false,
      "inputs": [
        {
          "internalType": "bool",
          "name": "_isRiskAdjusted",
          "type": "bool"
        }
      ],
      "name": "setIsRiskAdjusted",
      "outputs": [],
      "payable": false,
      "stateMutability": "nonpayable",
      "type": "function"
    },
    {
      "constant": false,
      "inputs": [
        {
          "internalType": "uint256[]",
          "name": "allocs",
          "type": "uint256[]"
        }
      ],
      "name": "setLastAllocations",
      "outputs": [],
      "payable": false,
      "stateMutability": "nonpayable",
      "type": "function"
    },
    {
      "constant": false,
      "inputs": [
        {
          "internalType": "uint256",
          "name": "_perc",
          "type": "uint256"
        }
      ],
      "name": "setMaxUnlentPerc",
      "outputs": [],
      "payable": false,
      "stateMutability": "nonpayable",
      "type": "function"
    },
    {
      "constant": false,
      "inputs": [
        {
          "internalType": "address",
          "name": "_oracle",
          "type": "address"
        }
      ],
      "name": "setOracleAddress",
      "outputs": [],
      "payable": false,
      "stateMutability": "nonpayable",
      "type": "function"
    },
    {
      "constant": false,
      "inputs": [
        {
          "internalType": "address",
          "name": "_rebalancer",
          "type": "address"
        }
      ],
      "name": "setRebalancer",
      "outputs": [],
      "payable": false,
      "stateMutability": "nonpayable",
      "type": "function"
    },
    {
      "constant": true,
      "inputs": [],
      "name": "symbol",
      "outputs": [
        {
          "internalType": "string",
          "name": "",
          "type": "string"
        }
      ],
      "payable": false,
      "stateMutability": "view",
      "type": "function"
    },
    {
      "constant": true,
      "inputs": [],
      "name": "token",
      "outputs": [
        {
          "internalType": "address",
          "name": "",
          "type": "address"
        }
      ],
      "payable": false,
      "stateMutability": "view",
      "type": "function"
    },
    {
      "constant": true,
      "inputs": [],
      "name": "tokenPrice",
      "outputs": [
        {
          "internalType": "uint256",
          "name": "",
          "type": "uint256"
        }
      ],
      "payable": false,
      "stateMutability": "view",
      "type": "function"
    },
    {
      "constant": true,
      "inputs": [],
      "name": "totalSupply",
      "outputs": [
        {
          "internalType": "uint256",
          "name": "",
          "type": "uint256"
        }
      ],
      "payable": false,
      "stateMutability": "view",
      "type": "function"
    },
    {
      "constant": false,
      "inputs": [
        {
          "internalType": "address",
          "name": "recipient",
          "type": "address"
        },
        {
          "internalType": "uint256",
          "name": "amount",
          "type": "uint256"
        }
      ],
      "name": "transfer",
      "outputs": [
        {
          "internalType": "bool",
          "name": "",
          "type": "bool"
        }
      ],
      "payable": false,
      "stateMutability": "nonpayable",
      "type": "function"
    },
    {
      "constant": false,
      "inputs": [
        {
          "internalType": "address",
          "name": "sender",
          "type": "address"
        },
        {
          "internalType": "address",
          "name": "recipient",
          "type": "address"
        },
        {
          "internalType": "uint256",
          "name": "amount",
          "type": "uint256"
        }
      ],
      "name": "transferFrom",
      "outputs": [
        {
          "internalType": "bool",
          "name": "",
          "type": "bool"
        }
      ],
      "payable": false,
      "stateMutability": "nonpayable",
      "type": "function"
    },
    {
      "constant": false,
      "inputs": [
        {
          "internalType": "address",
          "name": "newOwner",
          "type": "address"
        }
      ],
      "name": "transferOwnership",
      "outputs": [],
      "payable": false,
      "stateMutability": "nonpayable",
      "type": "function"
    },
    {
      "constant": false,
      "inputs": [],
      "name": "unpause",
      "outputs": [],
      "payable": false,
      "stateMutability": "nonpayable",
      "type": "function"
    },
    {
      "constant": true,
      "inputs": [
        {
          "internalType": "address",
          "name": "",
          "type": "address"
        }
      ],
      "name": "userAvgPrices",
      "outputs": [
        {
          "internalType": "uint256",
          "name": "",
          "type": "uint256"
        }
      ],
      "payable": false,
      "stateMutability": "view",
      "type": "function"
    },
    {
      "constant": true,
      "inputs": [
        {
          "internalType": "address",
          "name": "",
          "type": "address"
        },
        {
          "internalType": "address",
          "name": "",
          "type": "address"
        }
      ],
      "name": "usersGovTokensIndexes",
      "outputs": [
        {
          "internalType": "uint256",
          "name": "",
          "type": "uint256"
        }
      ],
      "payable": false,
      "stateMutability": "view",
      "type": "function"
    }
  ],
  "bytecode": "0x608060405273875773784af8135ea0ef43b5a374aad105c5d39e61017d60006101000a81548173ffffffffffffffffffffffffffffffffffffffff021916908373ffffffffffffffffffffffffffffffffffffffff16021790555073c00e94cb662c3520282e6f5717214004a7f2688861017e60006101000a81548173ffffffffffffffffffffffffffffffffffffffff021916908373ffffffffffffffffffffffffffffffffffffffff16021790555073275da8e61ea8e02d51edd8d0dc5c0e62b4cdb0be61017f60006101000a81548173ffffffffffffffffffffffffffffffffffffffff021916908373ffffffffffffffffffffffffffffffffffffffff1602179055503480156200011357600080fd5b506040516200c2ca3803806200c2ca83398181016040526101008110156200013a57600080fd5b81019080805160405193929190846401000000008211156200015b57600080fd5b838201915060208201858111156200017257600080fd5b82518660018202830111640100000000821117156200019057600080fd5b8083526020830192505050908051906020019080838360005b83811015620001c6578082015181840152602081019050620001a9565b50505050905090810190601f168015620001f45780820380516001836020036101000a031916815260200191505b50604052602001805160405193929190846401000000008211156200021857600080fd5b838201915060208201858111156200022f57600080fd5b82518660018202830111640100000000821117156200024d57600080fd5b8083526020830192505050908051906020019080838360005b838110156200028357808201518184015260208101905062000266565b50505050905090810190601f168015620002b15780820380516001836020036101000a031916815260200191505b5060405260200180519060200190929190805190602001909291908051906020019092919080519060200190929190805190602001909291908051906020019092919050505062000310888860126200059860201b620021621760201c565b6200032633620006f560201b6200ac5f1760201c565b6200033c33620008c160201b620048d71760201c565b6200035162000a0160201b6200ae1d1760201c565b6200036662000b1660201b620039941760201c565b6103e8610171819055508561016a60006101000a81548173ffffffffffffffffffffffffffffffffffffffff021916908373ffffffffffffffffffffffffffffffffffffffff1602179055508573ffffffffffffffffffffffffffffffffffffffff1663313ce5676040518163ffffffff1660e01b815260040160206040518083038186803b158015620003f957600080fd5b505afa1580156200040e573d6000803e3d6000fd5b505050506040513d60208110156200042557600080fd5b810190808051906020019092919050505060ff16610170819055508461016b60006101000a81548173ffffffffffffffffffffffffffffffffffffffff021916908373ffffffffffffffffffffffffffffffffffffffff1602179055508361016c60006101000a81548173ffffffffffffffffffffffffffffffffffffffff021916908373ffffffffffffffffffffffffffffffffffffffff1602179055508261016d60006101000a81548173ffffffffffffffffffffffffffffffffffffffff021916908373ffffffffffffffffffffffffffffffffffffffff1602179055508161017d60006101000a81548173ffffffffffffffffffffffffffffffffffffffff021916908373ffffffffffffffffffffffffffffffffffffffff1602179055508061017e60006101000a81548173ffffffffffffffffffffffffffffffffffffffff021916908373ffffffffffffffffffffffffffffffffffffffff1602179055505050505050505050620010bb565b600060019054906101000a900460ff1680620005c05750620005bf62000c7460201b60201c565b5b80620005d857506000809054906101000a900460ff16155b6200062f576040517f08c379a000000000000000000000000000000000000000000000000000000000815260040180806020018281038252602e8152602001806200c29c602e913960400191505060405180910390fd5b60008060019054906101000a900460ff16159050801562000680576001600060016101000a81548160ff02191690831515021790555060016000806101000a81548160ff0219169083151502179055505b8360689080519060200190620006989291906200100c565b508260699080519060200190620006b19291906200100c565b5081606a60006101000a81548160ff021916908360ff1602179055508015620006ef5760008060016101000a81548160ff0219169083151502179055505b50505050565b600060019054906101000a900460ff16806200071d57506200071c62000c7460201b60201c565b5b806200073557506000809054906101000a900460ff16155b6200078c576040517f08c379a000000000000000000000000000000000000000000000000000000000815260040180806020018281038252602e8152602001806200c29c602e913960400191505060405180910390fd5b60008060019054906101000a900460ff161590508015620007dd576001600060016101000a81548160ff02191690831515021790555060016000806101000a81548160ff0219169083151502179055505b8160d060006101000a81548173ffffffffffffffffffffffffffffffffffffffff021916908373ffffffffffffffffffffffffffffffffffffffff16021790555060d060009054906101000a900473ffffffffffffffffffffffffffffffffffffffff1673ffffffffffffffffffffffffffffffffffffffff16600073ffffffffffffffffffffffffffffffffffffffff167f8be0079c531659141344cd1fd0a4f28419497f9722a3daafe3b4186f6b6457e060405160405180910390a38015620008bd5760008060016101000a81548160ff0219169083151502179055505b5050565b600060019054906101000a900460ff1680620008e95750620008e862000c7460201b60201c565b5b806200090157506000809054906101000a900460ff16155b62000958576040517f08c379a000000000000000000000000000000000000000000000000000000000815260040180806020018281038252602e8152602001806200c29c602e913960400191505060405180910390fd5b60008060019054906101000a900460ff161590508015620009a9576001600060016101000a81548160ff02191690831515021790555060016000806101000a81548160ff0219169083151502179055505b620009bf8262000c8b60201b620091ee1760201c565b600061013660006101000a81548160ff0219169083151502179055508015620009fd5760008060016101000a81548160ff0219169083151502179055505b5050565b600060019054906101000a900460ff168062000a29575062000a2862000c7460201b60201c565b5b8062000a4157506000809054906101000a900460ff16155b62000a98576040517f08c379a000000000000000000000000000000000000000000000000000000000815260040180806020018281038252602e8152602001806200c29c602e913960400191505060405180910390fd5b60008060019054906101000a900460ff16159050801562000ae9576001600060016101000a81548160ff02191690831515021790555060016000806101000a81548160ff0219169083151502179055505b6001609d81905550801562000b135760008060016101000a81548160ff0219169083151502179055505b50565b600060019054906101000a900460ff168062000b3e575062000b3d62000c7460201b60201c565b5b8062000b5657506000809054906101000a900460ff16155b62000bad576040517f08c379a000000000000000000000000000000000000000000000000000000000815260040180806020018281038252602e8152602001806200c29c602e913960400191505060405180910390fd5b60008060019054906101000a900460ff16159050801562000bfe576001600060016101000a81548160ff02191690831515021790555060016000806101000a81548160ff0219169083151502179055505b6eb3f879cb30fe243b4dfee438691c0461016960006101000a81548173ffffffffffffffffffffffffffffffffffffffff021916908373ffffffffffffffffffffffffffffffffffffffff160217905550801562000c715760008060016101000a81548160ff0219169083151502179055505b50565b6000803090506000813b9050600081149250505090565b600060019054906101000a900460ff168062000cb3575062000cb262000c7460201b60201c565b5b8062000ccb57506000809054906101000a900460ff16155b62000d22576040517f08c379a000000000000000000000000000000000000000000000000000000000815260040180806020018281038252602e8152602001806200c29c602e913960400191505060405180910390fd5b60008060019054906101000a900460ff16159050801562000d73576001600060016101000a81548160ff02191690831515021790555060016000806101000a81548160ff0219169083151502179055505b62000d848262000dc160201b60201c565b62000d9b5762000d9a8262000de660201b60201c565b5b801562000dbd5760008060016101000a81548160ff0219169083151502179055505b5050565b600062000ddf8261010362000e4860201b620086611790919060201c565b9050919050565b62000e028161010362000f2860201b6200a8f61790919060201c565b8073ffffffffffffffffffffffffffffffffffffffff167f6719d08c1888103bea251a4ed56406bd0c3e69723c8a1686e017e7bbe159b6f860405160405180910390a250565b60008073ffffffffffffffffffffffffffffffffffffffff168273ffffffffffffffffffffffffffffffffffffffff16141562000ed1576040517f08c379a00000000000000000000000000000000000000000000000000000000081526004018080602001828103825260228152602001806200c27a6022913960400191505060405180910390fd5b8260000160008373ffffffffffffffffffffffffffffffffffffffff1673ffffffffffffffffffffffffffffffffffffffff16815260200190815260200160002060009054906101000a900460ff16905092915050565b62000f3a828262000e4860201b60201c565b1562000fae576040517f08c379a000000000000000000000000000000000000000000000000000000000815260040180806020018281038252601f8152602001807f526f6c65733a206163636f756e7420616c72656164792068617320726f6c650081525060200191505060405180910390fd5b60018260000160008373ffffffffffffffffffffffffffffffffffffffff1673ffffffffffffffffffffffffffffffffffffffff16815260200190815260200160002060006101000a81548160ff0219169083151502179055505050565b828054600181600116156101000203166002900490600052602060002090601f016020900481019282601f106200104f57805160ff191683800117855562001080565b8280016001018555821562001080579182015b828111156200107f57825182559160200191906001019062001062565b5b5090506200108f919062001093565b5090565b620010b891905b80821115620010b45760008160009055506001016200109a565b5090565b90565b61b1af80620010cb6000396000f3fe608060405234801561001057600080fd5b506004361061041d5760003560e01c8063746daa4e1161022b578063afdd3fc311610130578063da5163cc116100b8578063e25dc1da11610087578063e25dc1da14611c31578063effffebc14611c75578063f2d50ba614611df9578063f2fde38b14611e17578063fc0c546a14611e5b5761041d565b8063da5163cc14611ae1578063dba2d85d14611b79578063dd62ed3e14611b9b578063ddca3f4314611c135761041d565b8063c4d66de8116100ff578063c4d66de81461184e578063c4e94deb14611892578063cb390f9714611960578063cb50648814611982578063d05be735146119b25761041d565b8063afdd3fc3146116a2578063b13bd491146116e4578063b71501bc1461178b578063c498c515146117d55761041d565b80638a279e8a116101b357806395d89b411161018257806395d89b41146114b15780639602e9f814611534578063a457c2d71461157e578063a9059cbb146115e4578063aaa48e9f1461164a5761041d565b80638a279e8a1461138b5780638b30b516146114035780638da5cb5b146114455780638f32d59b1461148f5761041d565b80638129fc1c116101fa5780638129fc1c1461121757806382dc1ec4146112215780638456cb5914611265578063855df3d21461126f5780638705fcd4146113475761041d565b8063746daa4e1461111f5780637d7c2a1c1461118d5780637dc0d1d0146111af5780637ff9b596146111f95761041d565b806341275358116103315780636287fe21116102b95780636cfd1553116102885780636cfd155314610ff65780636da68f1b1461103a5780636ef8d66d146110b357806370a08231146110bd578063715018a6146111155761041d565b80636287fe2114610e4357806364d553a114610e9b57806365ed6e2314610f6957806369fe0e2d14610fc85761041d565b806350b28af71161030057806350b28af714610b9657806353db0eb114610c2f5780635478786c14610db95780635492450714610e035780635c975abb14610e215761041d565b80634127535814610a2857806345c8026c14610a7257806346fbf68e14610af65780634c69c00f14610b525761041d565b8063194a62a8116103b45780632befabbf116103835780632befabbf146108b8578063313ce5671461092657806336a000821461094a57806339509351146109b85780633f4ba83a14610a1e5761041d565b8063194a62a81461079c5780631f80b18a146107ca57806323b872dd146107e857806323d39ab51461086e5761041d565b80630df94ef2116103f05780630df94ef21461058357806315c859b7146105db5780631624f6c61461061f57806318160ddd1461077e5761041d565b806301d22ccd1461042257806306fdde031461046c578063095ea7b3146104ef5780630b56d15714610555575b600080fd5b61042a611ea5565b604051808273ffffffffffffffffffffffffffffffffffffffff1673ffffffffffffffffffffffffffffffffffffffff16815260200191505060405180910390f35b610474611ecc565b6040518080602001828103825283818151815260200191508051906020019080838360005b838110156104b4578082015181840152602081019050610499565b50505050905090810190601f1680156104e15780820380516001836020036101000a031916815260200191505b509250505060405180910390f35b61053b6004803603604081101561050557600080fd5b81019080803573ffffffffffffffffffffffffffffffffffffffff16906020019092919080359060200190929190505050611f6e565b604051808215151515815260200191505060405180910390f35b6105816004803603602081101561056b57600080fd5b8101908080359060200190929190505050611f8c565b005b6105c56004803603602081101561059957600080fd5b81019080803573ffffffffffffffffffffffffffffffffffffffff16906020019092919050505061208a565b6040518082815260200191505060405180910390f35b61061d600480360360208110156105f157600080fd5b81019080803573ffffffffffffffffffffffffffffffffffffffff1690602001909291905050506120a3565b005b61077c6004803603606081101561063557600080fd5b810190808035906020019064010000000081111561065257600080fd5b82018360208201111561066457600080fd5b8035906020019184600183028401116401000000008311171561068657600080fd5b91908080601f016020809104026020016040519081016040528093929190818152602001838380828437600081840152601f19601f820116905080830192505050505050509192919290803590602001906401000000008111156106e957600080fd5b8201836020820111156106fb57600080fd5b8035906020019184600183028401116401000000008311171561071d57600080fd5b91908080601f016020809104026020016040519081016040528093929190818152602001838380828437600081840152601f19601f820116905080830192505050505050509192919290803560ff169060200190929190505050612162565b005b6107866122ad565b6040518082815260200191505060405180910390f35b6107c8600480360360208110156107b257600080fd5b81019080803590602001909291905050506122b7565b005b6107d26126a9565b6040518082815260200191505060405180910390f35b610854600480360360608110156107fe57600080fd5b81019080803573ffffffffffffffffffffffffffffffffffffffff169060200190929190803573ffffffffffffffffffffffffffffffffffffffff169060200190929190803590602001909291905050506126b8565b604051808215151515815260200191505060405180910390f35b610876612767565b604051808273ffffffffffffffffffffffffffffffffffffffff1673ffffffffffffffffffffffffffffffffffffffff16815260200191505060405180910390f35b610910600480360360608110156108ce57600080fd5b8101908080359060200190929190803515159060200190929190803573ffffffffffffffffffffffffffffffffffffffff16906020019092919050505061278e565b6040518082815260200191505060405180910390f35b61092e612a75565b604051808260ff1660ff16815260200191505060405180910390f35b6109766004803603602081101561096057600080fd5b8101908080359060200190929190505050612a8c565b604051808273ffffffffffffffffffffffffffffffffffffffff1673ffffffffffffffffffffffffffffffffffffffff16815260200191505060405180910390f35b610a04600480360360408110156109ce57600080fd5b81019080803573ffffffffffffffffffffffffffffffffffffffff16906020019092919080359060200190929190505050612ac9565b604051808215151515815260200191505060405180910390f35b610a26612b7c565b005b610a30612cec565b604051808273ffffffffffffffffffffffffffffffffffffffff1673ffffffffffffffffffffffffffffffffffffffff16815260200191505060405180910390f35b610ab460048036036020811015610a8857600080fd5b81019080803573ffffffffffffffffffffffffffffffffffffffff169060200190929190505050612d13565b604051808273ffffffffffffffffffffffffffffffffffffffff1673ffffffffffffffffffffffffffffffffffffffff16815260200191505060405180910390f35b610b3860048036036020811015610b0c57600080fd5b81019080803573ffffffffffffffffffffffffffffffffffffffff169060200190929190505050612d47565b604051808215151515815260200191505060405180910390f35b610b9460048036036020811015610b6857600080fd5b81019080803573ffffffffffffffffffffffffffffffffffffffff169060200190929190505050612d65565b005b610bd860048036036020811015610bac57600080fd5b81019080803573ffffffffffffffffffffffffffffffffffffffff169060200190929190505050612ec7565b6040518080602001828103825283818151815260200191508051906020019060200280838360005b83811015610c1b578082015181840152602081019050610c00565b505050509050019250505060405180910390f35b610d5060048036036060811015610c4557600080fd5b8101908080359060200190640100000000811115610c6257600080fd5b820183602082011115610c7457600080fd5b80359060200191846020830284011164010000000083111715610c9657600080fd5b909192939192939080359060200190640100000000811115610cb757600080fd5b820183602082011115610cc957600080fd5b80359060200191846020830284011164010000000083111715610ceb57600080fd5b909192939192939080359060200190640100000000811115610d0c57600080fd5b820183602082011115610d1e57600080fd5b80359060200191846020830284011164010000000083111715610d4057600080fd5b9091929391929390505050613082565b604051808060200184815260200183151515158152602001828103825285818151815260200191508051906020019060200280838360005b83811015610da3578082015181840152602081019050610d88565b5050505090500194505050505060405180910390f35b610dc1613167565b604051808273ffffffffffffffffffffffffffffffffffffffff1673ffffffffffffffffffffffffffffffffffffffff16815260200191505060405180910390f35b610e0b61318e565b6040518082815260200191505060405180910390f35b610e29613195565b604051808215151515815260200191505060405180910390f35b610e8560048036036020811015610e5957600080fd5b81019080803573ffffffffffffffffffffffffffffffffffffffff1690602001909291905050506131ad565b6040518082815260200191505060405180910390f35b610f6760048036036040811015610eb157600080fd5b8101908080359060200190640100000000811115610ece57600080fd5b820183602082011115610ee057600080fd5b80359060200191846020830284011164010000000083111715610f0257600080fd5b909192939192939080359060200190640100000000811115610f2357600080fd5b820183602082011115610f3557600080fd5b80359060200191846020830284011164010000000083111715610f5757600080fd5b90919293919293905050506131c6565b005b610f716134ad565b6040518080602001828103825283818151815260200191508051906020019060200280838360005b83811015610fb4578082015181840152602081019050610f99565b505050509050019250505060405180910390f35b610ff460048036036020811015610fde57600080fd5b8101908080359060200190929190505050613506565b005b6110386004803603602081101561100c57600080fd5b81019080803573ffffffffffffffffffffffffffffffffffffffff169060200190929190505050613603565b005b6110b16004803603602081101561105057600080fd5b810190808035906020019064010000000081111561106d57600080fd5b82018360208201111561107f57600080fd5b803590602001918460208302840111640100000000831117156110a157600080fd5b9091929391929390505050613765565b005b6110bb61377c565b005b6110ff600480360360208110156110d357600080fd5b81019080803573ffffffffffffffffffffffffffffffffffffffff16906020019092919050505061378e565b6040518082815260200191505060405180910390f35b61111d6137d7565b005b61114b6004803603602081101561113557600080fd5b8101908080359060200190929190505050613912565b604051808273ffffffffffffffffffffffffffffffffffffffff1673ffffffffffffffffffffffffffffffffffffffff16815260200191505060405180910390f35b61119561394f565b604051808215151515815260200191505060405180910390f35b6111b761395e565b604051808273ffffffffffffffffffffffffffffffffffffffff1673ffffffffffffffffffffffffffffffffffffffff16815260200191505060405180910390f35b611201613985565b6040518082815260200191505060405180910390f35b61121f613994565b005b6112636004803603602081101561123757600080fd5b81019080803573ffffffffffffffffffffffffffffffffffffffff169060200190929190505050613ae4565b005b61126d613b55565b005b6112f06004803603604081101561128557600080fd5b81019080803590602001906401000000008111156112a257600080fd5b8201836020820111156112b457600080fd5b803590602001918460208302840111640100000000831117156112d657600080fd5b909192939192939080359060200190929190505050613cc6565b6040518080602001828103825283818151815260200191508051906020019060200280838360005b83811015611333578082015181840152602081019050611318565b505050509050019250505060405180910390f35b6113896004803603602081101561135d57600080fd5b81019080803573ffffffffffffffffffffffffffffffffffffffff169060200190929190505050613d1c565b005b6113ed600480360360408110156113a157600080fd5b81019080803573ffffffffffffffffffffffffffffffffffffffff169060200190929190803573ffffffffffffffffffffffffffffffffffffffff169060200190929190505050613e7e565b6040518082815260200191505060405180910390f35b61142f6004803603602081101561141957600080fd5b8101908080359060200190929190505050613ea4565b6040518082815260200191505060405180910390f35b61144d614282565b604051808273ffffffffffffffffffffffffffffffffffffffff1673ffffffffffffffffffffffffffffffffffffffff16815260200191505060405180910390f35b6114976142ac565b604051808215151515815260200191505060405180910390f35b6114b961430b565b6040518080602001828103825283818151815260200191508051906020019080838360005b838110156114f95780820151818401526020810190506114de565b50505050905090810190601f1680156115265780820380516001836020036101000a031916815260200191505b509250505060405180910390f35b61153c6143ad565b604051808273ffffffffffffffffffffffffffffffffffffffff1673ffffffffffffffffffffffffffffffffffffffff16815260200191505060405180910390f35b6115ca6004803603604081101561159457600080fd5b81019080803573ffffffffffffffffffffffffffffffffffffffff169060200190929190803590602001909291905050506143d4565b604051808215151515815260200191505060405180910390f35b611630600480360360408110156115fa57600080fd5b81019080803573ffffffffffffffffffffffffffffffffffffffff169060200190929190803590602001909291905050506144a1565b604051808215151515815260200191505060405180910390f35b61168c6004803603602081101561166057600080fd5b81019080803573ffffffffffffffffffffffffffffffffffffffff16906020019092919050505061450f565b6040518082815260200191505060405180910390f35b6116ce600480360360208110156116b857600080fd5b8101908080359060200190929190505050614528565b6040518082815260200191505060405180910390f35b6116ec61454a565b604051808060200180602001838103835285818151815260200191508051906020019060200280838360005b83811015611733578082015181840152602081019050611718565b50505050905001838103825284818151815260200191508051906020019060200280838360005b8381101561177557808201518184015260208101905061175a565b5050505090500194505050505060405180910390f35b611793614761565b604051808273ffffffffffffffffffffffffffffffffffffffff1673ffffffffffffffffffffffffffffffffffffffff16815260200191505060405180910390f35b61184c600480360360208110156117eb57600080fd5b810190808035906020019064010000000081111561180857600080fd5b82018360208201111561181a57600080fd5b8035906020019184602083028401116401000000008311171561183c57600080fd5b9091929391929390505050614788565b005b6118906004803603602081101561186457600080fd5b81019080803573ffffffffffffffffffffffffffffffffffffffff1690602001909291905050506148d7565b005b61195e600480360360408110156118a857600080fd5b81019080803590602001906401000000008111156118c557600080fd5b8201836020820111156118d757600080fd5b803590602001918460208302840111640100000000831117156118f957600080fd5b90919293919293908035906020019064010000000081111561191a57600080fd5b82018360208201111561192c57600080fd5b8035906020019184602083028401116401000000008311171561194e57600080fd5b90919293919293905050506149fc565b005b611968614a8e565b604051808215151515815260200191505060405180910390f35b6119b06004803603602081101561199857600080fd5b81019080803515159060200190929190505050614aa2565b005b611adf600480360360808110156119c857600080fd5b81019080803590602001906401000000008111156119e557600080fd5b8201836020820111156119f757600080fd5b80359060200191846020830284011164010000000083111715611a1957600080fd5b909192939192939080359060200190640100000000811115611a3a57600080fd5b820183602082011115611a4c57600080fd5b80359060200191846020830284011164010000000083111715611a6e57600080fd5b909192939192939080359060200190640100000000811115611a8f57600080fd5b820183602082011115611aa157600080fd5b80359060200191846020830284011164010000000083111715611ac357600080fd5b9091929391929390803515159060200190929190505050614b3a565b005b611b5860048036036020811015611af757600080fd5b8101908080359060200190640100000000811115611b1457600080fd5b820183602082011115611b2657600080fd5b80359060200191846020830284011164010000000083111715611b4857600080fd5b9091929391929390505050614f52565b60405180831515151581526020018281526020019250505060405180910390f35b611b81615150565b604051808215151515815260200191505060405180910390f35b611bfd60048036036040811015611bb157600080fd5b81019080803573ffffffffffffffffffffffffffffffffffffffff169060200190929190803573ffffffffffffffffffffffffffffffffffffffff169060200190929190505050615173565b6040518082815260200191505060405180910390f35b611c1b6151fa565b6040518082815260200191505060405180910390f35b611c7360048036036020811015611c4757600080fd5b81019080803573ffffffffffffffffffffffffffffffffffffffff169060200190929190505050615201565b005b611df7600480360360a0811015611c8b57600080fd5b8101908080359060200190640100000000811115611ca857600080fd5b820183602082011115611cba57600080fd5b80359060200191846020830284011164010000000083111715611cdc57600080fd5b909192939192939080359060200190640100000000811115611cfd57600080fd5b820183602082011115611d0f57600080fd5b80359060200191846020830284011164010000000083111715611d3157600080fd5b909192939192939080359060200190640100000000811115611d5257600080fd5b820183602082011115611d6457600080fd5b80359060200191846020830284011164010000000083111715611d8657600080fd5b909192939192939080359060200190640100000000811115611da757600080fd5b820183602082011115611db957600080fd5b80359060200191846020830284011164010000000083111715611ddb57600080fd5b9091929391929390803515159060200190929190505050615246565b005b611e016156ad565b6040518082815260200191505060405180910390f35b611e5960048036036020811015611e2d57600080fd5b81019080803573ffffffffffffffffffffffffffffffffffffffff1690602001909291905050506156b4565b005b611e6361573a565b604051808273ffffffffffffffffffffffffffffffffffffffff1673ffffffffffffffffffffffffffffffffffffffff16815260200191505060405180910390f35b61016d60009054906101000a900473ffffffffffffffffffffffffffffffffffffffff1681565b606060688054600181600116156101000203166002900480601f016020809104026020016040519081016040528092919081815260200182805460018160011615610100020316600290048015611f645780601f10611f3957610100808354040283529160200191611f64565b820191906000526020600020905b815481529060010190602001808311611f4757829003601f168201915b5050505050905090565b6000611f82611f7b615761565b8484615769565b6001905092915050565b611f946142ac565b612006576040517f08c379a00000000000000000000000000000000000000000000000000000000081526004018080602001828103825260208152602001807f4f776e61626c653a2063616c6c6572206973206e6f7420746865206f776e657281525060200191505060405180910390fd5b620186a081111561207f576040517f08c379a000000000000000000000000000000000000000000000000000000000815260040180806020018281038252600d8152602001807f49444c453a544f4f5f484947480000000000000000000000000000000000000081525060200191505060405180910390fd5b806101718190555050565b6101766020528060005260406000206000915090505481565b6120ab6142ac565b61211d576040517f08c379a00000000000000000000000000000000000000000000000000000000081526004018080602001828103825260208152602001807f4f776e61626c653a2063616c6c6572206973206e6f7420746865206f776e657281525060200191505060405180910390fd5b8061017f60006101000a81548173ffffffffffffffffffffffffffffffffffffffff021916908373ffffffffffffffffffffffffffffffffffffffff16021790555050565b600060019054906101000a900460ff16806121815750612180615960565b5b8061219857506000809054906101000a900460ff16155b6121ed576040517f08c379a000000000000000000000000000000000000000000000000000000000815260040180806020018281038252602e81526020018061b094602e913960400191505060405180910390fd5b60008060019054906101000a900460ff16159050801561223d576001600060016101000a81548160ff02191690831515021790555060016000806101000a81548160ff0219169083151502179055505b836068908051906020019061225392919061aa1c565b50826069908051906020019061226a92919061aa1c565b5081606a60006101000a81548160ff021916908360ff16021790555080156122a75760008060016101000a81548160ff0219169083151502179055505b50505050565b6000603554905090565b6001609d600082825401925050819055506000609d54905061013660009054906101000a900460ff16612352576040517f08c379a00000000000000000000000000000000000000000000000000000000081526004018080602001828103825260148152602001807f5061757361626c653a206e6f742070617573656400000000000000000000000081525060200191505060405180910390fd5b61235a615977565b612365336000615a4f565b600061236f6122ad565b9050600080600090505b610173805490508110156124d557610173818154811061239557fe5b9060005260206000200160009054906101000a900473ffffffffffffffffffffffffffffffffffffffff1691506124c8336124a2856124948673ffffffffffffffffffffffffffffffffffffffff166370a08231306040518263ffffffff1660e01b8152600401808273ffffffffffffffffffffffffffffffffffffffff1673ffffffffffffffffffffffffffffffffffffffff16815260200191505060206040518083038186803b15801561244a57600080fd5b505afa15801561245e573d6000803e3d6000fd5b505050506040513d602081101561247457600080fd5b81019080805190602001909291905050508a61631790919063ffffffff16565b61639d90919063ffffffff16565b8473ffffffffffffffffffffffffffffffffffffffff166163e79092919063ffffffff16565b8080600101915050612379565b50612622336125d9846125cb61016a60009054906101000a900473ffffffffffffffffffffffffffffffffffffffff1673ffffffffffffffffffffffffffffffffffffffff166370a08231306040518263ffffffff1660e01b8152600401808273ffffffffffffffffffffffffffffffffffffffff1673ffffffffffffffffffffffffffffffffffffffff16815260200191505060206040518083038186803b15801561258157600080fd5b505afa158015612595573d6000803e3d6000fd5b505050506040513d60208110156125ab57600080fd5b81019080805190602001909291905050508961631790919063ffffffff16565b61639d90919063ffffffff16565b61016a60009054906101000a900473ffffffffffffffffffffffffffffffffffffffff1673ffffffffffffffffffffffffffffffffffffffff166163e79092919063ffffffff16565b61262c33856164b8565b5050609d5481146126a5576040517f08c379a000000000000000000000000000000000000000000000000000000000815260040180806020018281038252601f8152602001807f5265656e7472616e637947756172643a207265656e7472616e742063616c6c0081525060200191505060405180910390fd5b5050565b60006126b3616672565b905090565b60006126c584848461692c565b6126d0848484616d3d565b612710843361270b8560405180606001604052806028815260200161b04a602891396126fc8a33615173565b616ff79092919063ffffffff16565b615769565b61275c84848461017660008973ffffffffffffffffffffffffffffffffffffffff1673ffffffffffffffffffffffffffffffffffffffff168152602001908152602001600020546170b7565b600190509392505050565b61016960009054906101000a900473ffffffffffffffffffffffffffffffffffffffff1681565b60006001609d600082825401925050819055506000609d54905061013660009054906101000a900460ff161561282c576040517f08c379a00000000000000000000000000000000000000000000000000000000081526004018080602001828103825260108152602001807f5061757361626c653a207061757365640000000000000000000000000000000081525060200191505060405180910390fd5b3243604051602001808373ffffffffffffffffffffffffffffffffffffffff1673ffffffffffffffffffffffffffffffffffffffff1660601b8152601401828152602001925050506040516020818303038152906040528051906020012061017c8190555061289c336000615a4f565b60006128a6617445565b90506128f833308861016a60009054906101000a900473ffffffffffffffffffffffffffffffffffffffff1673ffffffffffffffffffffffffffffffffffffffff1661779b909392919063ffffffff16565b84612907576129056178a1565b505b61293481612926670de0b6b3a76400008961631790919063ffffffff16565b61639d90919063ffffffff16565b9250612940338461801a565b61294b3384836181d7565b61295533846183c4565b600073ffffffffffffffffffffffffffffffffffffffff168473ffffffffffffffffffffffffffffffffffffffff16146129f5577f496d589d8b7eb829a8d7b30e24a326ac33991f5cea96429b69231a6b15b54b1d8685604051808381526020018273ffffffffffffffffffffffffffffffffffffffff1673ffffffffffffffffffffffffffffffffffffffff1681526020019250505060405180910390a15b50609d548114612a6d576040517f08c379a000000000000000000000000000000000000000000000000000000000815260040180806020018281038252601f8152602001807f5265656e7472616e637947756172643a207265656e7472616e742063616c6c0081525060200191505060405180910390fd5b509392505050565b6000606a60009054906101000a900460ff16905090565b6101738181548110612a9a57fe5b906000526020600020016000915054906101000a900473ffffffffffffffffffffffffffffffffffffffff1681565b6000612b72612ad6615761565b84612b6d8560346000612ae7615761565b73ffffffffffffffffffffffffffffffffffffffff1673ffffffffffffffffffffffffffffffffffffffff16815260200190815260200160002060008973ffffffffffffffffffffffffffffffffffffffff1673ffffffffffffffffffffffffffffffffffffffff168152602001908152602001600020546185d990919063ffffffff16565b615769565b6001905092915050565b612b8c612b87615761565b612d47565b612be1576040517f08c379a000000000000000000000000000000000000000000000000000000000815260040180806020018281038252603081526020018061af6a6030913960400191505060405180910390fd5b61013660009054906101000a900460ff16612c64576040517f08c379a00000000000000000000000000000000000000000000000000000000081526004018080602001828103825260148152602001807f5061757361626c653a206e6f742070617573656400000000000000000000000081525060200191505060405180910390fd5b600061013660006101000a81548160ff0219169083151502179055507f5db9ee0a495bf2e6ff9c91a7834c1ba4fdd244a5e8aa4e537bd38aeae4b073aa612ca9615761565b604051808273ffffffffffffffffffffffffffffffffffffffff1673ffffffffffffffffffffffffffffffffffffffff16815260200191505060405180910390a1565b61016e60009054906101000a900473ffffffffffffffffffffffffffffffffffffffff1681565b6101776020528060005260406000206000915054906101000a900473ffffffffffffffffffffffffffffffffffffffff1681565b6000612d5e8261010361866190919063ffffffff16565b9050919050565b612d6d6142ac565b612ddf576040517f08c379a00000000000000000000000000000000000000000000000000000000081526004018080602001828103825260208152602001807f4f776e61626c653a2063616c6c6572206973206e6f7420746865206f776e657281525060200191505060405180910390fd5b600073ffffffffffffffffffffffffffffffffffffffff168173ffffffffffffffffffffffffffffffffffffffff161415612e82576040517f08c379a00000000000000000000000000000000000000000000000000000000081526004018080602001828103825260098152602001807f49444c453a49535f30000000000000000000000000000000000000000000000081525060200191505060405180910390fd5b8061018060006101000a81548173ffffffffffffffffffffffffffffffffffffffff021916908373ffffffffffffffffffffffffffffffffffffffff16021790555050565b6060600080612ed58461378e565b905061017480549050604051908082528060200260200182016040528015612f0c5781602001602082028038833980820191505090505b50925060008090505b835181101561307a576101748181548110612f2c57fe5b9060005260206000200160009054906101000a900473ffffffffffffffffffffffffffffffffffffffff169250613055670de0b6b3a764000061304761303861017960008873ffffffffffffffffffffffffffffffffffffffff1673ffffffffffffffffffffffffffffffffffffffff16815260200190815260200160002060008a73ffffffffffffffffffffffffffffffffffffffff1673ffffffffffffffffffffffffffffffffffffffff1681526020019081526020016000205461017a60008973ffffffffffffffffffffffffffffffffffffffff1673ffffffffffffffffffffffffffffffffffffffff1681526020019081526020016000205461873f90919063ffffffff16565b8561631790919063ffffffff16565b61639d90919063ffffffff16565b84828151811061306157fe5b6020026020010181815250508080600101915050612f15565b505050919050565b6060600080613155898980806020026020016040519081016040528093929190818152602001838360200280828437600081840152601f19601f82011690508083019250505050505050888880806020026020016040519081016040528093929190818152602001838360200280828437600081840152601f19601f82011690508083019250505050505050878780806020026020016040519081016040528093929190818152602001838360200280828437600081840152601f19601f82011690508083019250505050505050618789565b92509250925096509650969350505050565b61017d60009054906101000a900473ffffffffffffffffffffffffffffffffffffffff1681565b6101715481565b600061013660009054906101000a900460ff16905090565b6101786020528060005260406000206000915090505481565b6131ce6142ac565b613240576040517f08c379a00000000000000000000000000000000000000000000000000000000081526004018080602001828103825260208152602001807f4f776e61626c653a2063616c6c6572206973206e6f7420746865206f776e657281525060200191505060405180910390fd5b8383610174919061325292919061aa9c565b5060008090505b6101738054905081101561332c5760006101816000610173848154811061327c57fe5b9060005260206000200160009054906101000a900473ffffffffffffffffffffffffffffffffffffffff1673ffffffffffffffffffffffffffffffffffffffff1673ffffffffffffffffffffffffffffffffffffffff16815260200190815260200160002060006101000a81548173ffffffffffffffffffffffffffffffffffffffff021916908373ffffffffffffffffffffffffffffffffffffffff1602179055508080600101915050613259565b5060008090505b828290508110156134a657600085858381811061334c57fe5b9050602002013573ffffffffffffffffffffffffffffffffffffffff16905061017d60009054906101000a900473ffffffffffffffffffffffffffffffffffffffff1673ffffffffffffffffffffffffffffffffffffffff168173ffffffffffffffffffffffffffffffffffffffff1614156133c85750613499565b8585838181106133d457fe5b9050602002013573ffffffffffffffffffffffffffffffffffffffff16610181600086868681811061340257fe5b9050602002013573ffffffffffffffffffffffffffffffffffffffff1673ffffffffffffffffffffffffffffffffffffffff1673ffffffffffffffffffffffffffffffffffffffff16815260200190815260200160002060006101000a81548173ffffffffffffffffffffffffffffffffffffffff021916908373ffffffffffffffffffffffffffffffffffffffff160217905550505b8080600101915050613333565b5050505050565b60606101838054806020026020016040519081016040528092919081815260200182805480156134fc57602002820191906000526020600020905b8154815260200190600101908083116134e8575b5050505050905090565b61350e6142ac565b613580576040517f08c379a00000000000000000000000000000000000000000000000000000000081526004018080602001828103825260208152602001807f4f776e61626c653a2063616c6c6572206973206e6f7420746865206f776e657281525060200191505060405180910390fd5b6127108111156135f8576040517f08c379a000000000000000000000000000000000000000000000000000000000815260040180806020018281038252600d8152602001807f49444c453a544f4f5f484947480000000000000000000000000000000000000081525060200191505060405180910390fd5b806101728190555050565b61360b6142ac565b61367d576040517f08c379a00000000000000000000000000000000000000000000000000000000081526004018080602001828103825260208152602001807f4f776e61626c653a2063616c6c6572206973206e6f7420746865206f776e657281525060200191505060405180910390fd5b600073ffffffffffffffffffffffffffffffffffffffff168173ffffffffffffffffffffffffffffffffffffffff161415613720576040517f08c379a00000000000000000000000000000000000000000000000000000000081526004018080602001828103825260098152602001807f49444c453a49535f30000000000000000000000000000000000000000000000081525060200191505060405180910390fd5b8061016d60006101000a81548173ffffffffffffffffffffffffffffffffffffffff021916908373ffffffffffffffffffffffffffffffffffffffff16021790555050565b8181610175919061377792919061ab3c565b505050565b61378c613787615761565b618a5d565b565b6000603360008373ffffffffffffffffffffffffffffffffffffffff1673ffffffffffffffffffffffffffffffffffffffff168152602001908152602001600020549050919050565b6137df6142ac565b613851576040517f08c379a00000000000000000000000000000000000000000000000000000000081526004018080602001828103825260208152602001807f4f776e61626c653a2063616c6c6572206973206e6f7420746865206f776e657281525060200191505060405180910390fd5b600073ffffffffffffffffffffffffffffffffffffffff1660d060009054906101000a900473ffffffffffffffffffffffffffffffffffffffff1673ffffffffffffffffffffffffffffffffffffffff167f8be0079c531659141344cd1fd0a4f28419497f9722a3daafe3b4186f6b6457e060405160405180910390a3600060d060006101000a81548173ffffffffffffffffffffffffffffffffffffffff021916908373ffffffffffffffffffffffffffffffffffffffff160217905550565b610174818154811061392057fe5b906000526020600020016000915054906101000a900473ffffffffffffffffffffffffffffffffffffffff1681565b60006139596178a1565b905090565b61018060009054906101000a900473ffffffffffffffffffffffffffffffffffffffff1681565b600061398f617445565b905090565b600060019054906101000a900460ff16806139b357506139b2615960565b5b806139ca57506000809054906101000a900460ff16155b613a1f576040517f08c379a000000000000000000000000000000000000000000000000000000000815260040180806020018281038252602e81526020018061b094602e913960400191505060405180910390fd5b60008060019054906101000a900460ff161590508015613a6f576001600060016101000a81548160ff02191690831515021790555060016000806101000a81548160ff0219169083151502179055505b6eb3f879cb30fe243b4dfee438691c0461016960006101000a81548173ffffffffffffffffffffffffffffffffffffffff021916908373ffffffffffffffffffffffffffffffffffffffff1602179055508015613ae15760008060016101000a81548160ff0219169083151502179055505b50565b613af4613aef615761565b612d47565b613b49576040517f08c379a000000000000000000000000000000000000000000000000000000000815260040180806020018281038252603081526020018061af6a6030913960400191505060405180910390fd5b613b5281618ab8565b50565b613b65613b60615761565b612d47565b613bba576040517f08c379a000000000000000000000000000000000000000000000000000000000815260040180806020018281038252603081526020018061af6a6030913960400191505060405180910390fd5b61013660009054906101000a900460ff1615613c3e576040517f08c379a00000000000000000000000000000000000000000000000000000000081526004018080602001828103825260108152602001807f5061757361626c653a207061757365640000000000000000000000000000000081525060200191505060405180910390fd5b600161013660006101000a81548160ff0219169083151502179055507f62e78cea01bee320cd4e420270b5ea74000d11b0c9f74754ebdbfc544b05a258613c83615761565b604051808273ffffffffffffffffffffffffffffffffffffffff1673ffffffffffffffffffffffffffffffffffffffff16815260200191505060405180910390a1565b6060613d13848480806020026020016040519081016040528093929190818152602001838360200280828437600081840152601f19601f8201169050808301925050505050505083618b13565b90509392505050565b613d246142ac565b613d96576040517f08c379a00000000000000000000000000000000000000000000000000000000081526004018080602001828103825260208152602001807f4f776e61626c653a2063616c6c6572206973206e6f7420746865206f776e657281525060200191505060405180910390fd5b600073ffffffffffffffffffffffffffffffffffffffff168173ffffffffffffffffffffffffffffffffffffffff161415613e39576040517f08c379a00000000000000000000000000000000000000000000000000000000081526004018080602001828103825260098152602001807f49444c453a49535f30000000000000000000000000000000000000000000000081525060200191505060405180910390fd5b8061016e60006101000a81548173ffffffffffffffffffffffffffffffffffffffff021916908373ffffffffffffffffffffffffffffffffffffffff16021790555050565b610179602052816000526040600020602052806000526040600020600091509150505481565b60006001609d600082825401925050819055506000609d549050613ec6615977565b613ed1336000615a4f565b6000613edb617445565b90506000613f0c670de0b6b3a7640000613efe848861631790919063ffffffff16565b61639d90919063ffffffff16565b9050600061016a60009054906101000a900473ffffffffffffffffffffffffffffffffffffffff1673ffffffffffffffffffffffffffffffffffffffff166370a08231306040518263ffffffff1660e01b8152600401808273ffffffffffffffffffffffffffffffffffffffff1673ffffffffffffffffffffffffffffffffffffffff16815260200191505060206040518083038186803b158015613fb057600080fd5b505afa158015613fc4573d6000803e3d6000fd5b505050506040513d6020811015613fda57600080fd5b810190808051906020019092919050505090506000613ff76122ad565b90508183116140085782955061419c565b600080600090505b6101738054905081101561416057610173818154811061402c57fe5b9060005260206000200160009054906101000a900473ffffffffffffffffffffffffffffffffffffffff1691506141516141428361413c8661412e8773ffffffffffffffffffffffffffffffffffffffff166370a08231306040518263ffffffff1660e01b8152600401808273ffffffffffffffffffffffffffffffffffffffff1673ffffffffffffffffffffffffffffffffffffffff16815260200191505060206040518083038186803b1580156140e457600080fd5b505afa1580156140f8573d6000803e3d6000fd5b505050506040513d602081101561410e57600080fd5b81019080805190602001909291905050508f61631790919063ffffffff16565b61639d90919063ffffffff16565b30618c1b565b896185d990919063ffffffff16565b97508080600101915050614010565b506141986141898361417b868c61631790919063ffffffff16565b61639d90919063ffffffff16565b886185d990919063ffffffff16565b9650505b6141a7878786618ddc565b95506141b333886164b8565b614201338761016a60009054906101000a900473ffffffffffffffffffffffffffffffffffffffff1673ffffffffffffffffffffffffffffffffffffffff166163e79092919063ffffffff16565b50505050609d54811461427c576040517f08c379a000000000000000000000000000000000000000000000000000000000815260040180806020018281038252601f8152602001807f5265656e7472616e637947756172643a207265656e7472616e742063616c6c0081525060200191505060405180910390fd5b50919050565b600060d060009054906101000a900473ffffffffffffffffffffffffffffffffffffffff16905090565b600060d060009054906101000a900473ffffffffffffffffffffffffffffffffffffffff1673ffffffffffffffffffffffffffffffffffffffff166142ef615761565b73ffffffffffffffffffffffffffffffffffffffff1614905090565b606060698054600181600116156101000203166002900480601f0160208091040260200160405190810160405280929190818152602001828054600181600116156101000203166002900480156143a35780601f10614378576101008083540402835291602001916143a3565b820191906000526020600020905b81548152906001019060200180831161438657829003601f168201915b5050505050905090565b61017f60009054906101000a900473ffffffffffffffffffffffffffffffffffffffff1681565b60006144976143e1615761565b846144928560405180606001604052806025815260200161b156602591396034600061440b615761565b73ffffffffffffffffffffffffffffffffffffffff1673ffffffffffffffffffffffffffffffffffffffff16815260200190815260200160002060008a73ffffffffffffffffffffffffffffffffffffffff1673ffffffffffffffffffffffffffffffffffffffff16815260200190815260200160002054616ff79092919063ffffffff16565b615769565b6001905092915050565b60006144ae33848461692c565b6144b9338484616d3d565b61450533848461017660003373ffffffffffffffffffffffffffffffffffffffff1673ffffffffffffffffffffffffffffffffffffffff168152602001908152602001600020546170b7565b6001905092915050565b61017a6020528060005260406000206000915090505481565b610175818154811061453657fe5b906000526020600020016000915090505481565b6060806000610173805490506040519080825280602002602001820160405280156145845781602001602082028038833980820191505090505b509250610173805490506040519080825280602002602001820160405280156145bc5781602001602082028038833980820191505090505b50915060008090505b6101738054905081101561475b5761017381815481106145e157fe5b9060005260206000200160009054906101000a900473ffffffffffffffffffffffffffffffffffffffff1691508184828151811061461b57fe5b602002602001019073ffffffffffffffffffffffffffffffffffffffff16908173ffffffffffffffffffffffffffffffffffffffff168152505061017760008373ffffffffffffffffffffffffffffffffffffffff1673ffffffffffffffffffffffffffffffffffffffff16815260200190815260200160002060009054906101000a900473ffffffffffffffffffffffffffffffffffffffff1673ffffffffffffffffffffffffffffffffffffffff1663c89d5b8b6040518163ffffffff1660e01b815260040160206040518083038186803b1580156146fb57600080fd5b505afa15801561470f573d6000803e3d6000fd5b505050506040513d602081101561472557600080fd5b810190808051906020019092919050505083828151811061474257fe5b60200260200101818152505080806001019150506145c5565b50509091565b61017e60009054906101000a900473ffffffffffffffffffffffffffffffffffffffff1681565b61016d60009054906101000a900473ffffffffffffffffffffffffffffffffffffffff1673ffffffffffffffffffffffffffffffffffffffff163373ffffffffffffffffffffffffffffffffffffffff16148061481757506147e8614282565b73ffffffffffffffffffffffffffffffffffffffff163373ffffffffffffffffffffffffffffffffffffffff16145b614889576040517f08c379a000000000000000000000000000000000000000000000000000000000815260040180806020018281038252600a8152602001807f49444c453a21415554480000000000000000000000000000000000000000000081525060200191505060405180910390fd5b6148d3828280806020026020016040519081016040528093929190818152602001838360200280828437600081840152601f19601f82011690508083019250505050505050619097565b5050565b600060019054906101000a900460ff16806148f657506148f5615960565b5b8061490d57506000809054906101000a900460ff16155b614962576040517f08c379a000000000000000000000000000000000000000000000000000000000815260040180806020018281038252602e81526020018061b094602e913960400191505060405180910390fd5b60008060019054906101000a900460ff1615905080156149b2576001600060016101000a81548160ff02191690831515021790555060016000806101000a81548160ff0219169083151502179055505b6149bb826191ee565b600061013660006101000a81548160ff02191690831515021790555080156149f85760008060016101000a81548160ff0219169083151502179055505b5050565b614a88848480806020026020016040519081016040528093929190818152602001838360200280828437600081840152601f19601f82011690508083019250505050505050838380806020026020016040519081016040528093929190818152602001838360200280828437600081840152601f19601f82011690508083019250505050505050619305565b50505050565b61018260009054906101000a900460ff1681565b614aaa6142ac565b614b1c576040517f08c379a00000000000000000000000000000000000000000000000000000000081526004018080602001828103825260208152602001807f4f776e61626c653a2063616c6c6572206973206e6f7420746865206f776e657281525060200191505060405180910390fd5b8061018260006101000a81548160ff02191690831515021790555050565b614b426142ac565b614bb4576040517f08c379a00000000000000000000000000000000000000000000000000000000081526004018080602001828103825260208152602001807f4f776e61626c653a2063616c6c6572206973206e6f7420746865206f776e657281525060200191505060405180910390fd5b8484905087879050148015614bd6575084849050838390501480614bd55750805b5b614c48576040517f08c379a000000000000000000000000000000000000000000000000000000000815260040180806020018281038252600d8152602001807f49444c453a4c454e5f444946460000000000000000000000000000000000000081525060200191505060405180910390fd5b60008090505b87879050811015614e6157600073ffffffffffffffffffffffffffffffffffffffff16888883818110614c7d57fe5b9050602002013573ffffffffffffffffffffffffffffffffffffffff1673ffffffffffffffffffffffffffffffffffffffff1614158015614d135750600073ffffffffffffffffffffffffffffffffffffffff16868683818110614cdd57fe5b9050602002013573ffffffffffffffffffffffffffffffffffffffff1673ffffffffffffffffffffffffffffffffffffffff1614155b614d85576040517f08c379a00000000000000000000000000000000000000000000000000000000081526004018080602001828103825260098152602001807f49444c453a49535f30000000000000000000000000000000000000000000000081525060200191505060405180910390fd5b858582818110614d9157fe5b9050602002013573ffffffffffffffffffffffffffffffffffffffff1661017760008a8a85818110614dbf57fe5b9050602002013573ffffffffffffffffffffffffffffffffffffffff1673ffffffffffffffffffffffffffffffffffffffff1673ffffffffffffffffffffffffffffffffffffffff16815260200190815260200160002060006101000a81548173ffffffffffffffffffffffffffffffffffffffff021916908373ffffffffffffffffffffffffffffffffffffffff1602179055508080600101915050614c4e565b5086866101739190614e7492919061aa9c565b508015614efe57610173805490508787905014614ef9576040517f08c379a000000000000000000000000000000000000000000000000000000000815260040180806020018281038252600e8152602001807f49444c453a4c454e5f444946463200000000000000000000000000000000000081525060200191505060405180910390fd5b614f49565b614f48838380806020026020016040519081016040528093929190818152602001838360200280828437600081840152601f19601f82011690508083019250505050505050619097565b5b50505050505050565b60008061013660009054906101000a900460ff1615614fd9576040517f08c379a00000000000000000000000000000000000000000000000000000000081526004018080602001828103825260108152602001807f5061757361626c653a207061757365640000000000000000000000000000000081525060200191505060405180910390fd5b61018260009054906101000a900460ff161561505d576040517f08c379a00000000000000000000000000000000000000000000000000000000081526004018080602001828103825260108152602001807f49444c453a4e4f545f414c4c4f5745440000000000000000000000000000000081525060200191505060405180910390fd5b6000615067616672565b90506150b3858580806020026020016040519081016040528093929190818152602001838360200280828437600081840152601f19601f82011690508083019250505050505050619097565b60006150bd6178a1565b905060006150c9616672565b9050828111615140576040517f08c379a000000000000000000000000000000000000000000000000000000000815260040180806020018281038252600f8152602001807f49444c453a4e4f545f494d50524f56000000000000000000000000000000000081525060200191505060405180910390fd5b8181945094505050509250929050565b60003360005a90506151606178a1565b925061516e5a820383619498565b505090565b6000603460008473ffffffffffffffffffffffffffffffffffffffff1673ffffffffffffffffffffffffffffffffffffffff16815260200190815260200160002060008373ffffffffffffffffffffffffffffffffffffffff1673ffffffffffffffffffffffffffffffffffffffff16815260200190815260200160002054905092915050565b6101725481565b8061016960006101000a81548173ffffffffffffffffffffffffffffffffffffffff021916908373ffffffffffffffffffffffffffffffffffffffff16021790555050565b61524e6142ac565b6152c0576040517f08c379a00000000000000000000000000000000000000000000000000000000081526004018080602001828103825260208152602001807f4f776e61626c653a2063616c6c6572206973206e6f7420746865206f776e657281525060200191505060405180910390fd5b73972a64d108e250df98dbeac8170678501f5ef18161018060006101000a81548173ffffffffffffffffffffffffffffffffffffffff021916908373ffffffffffffffffffffffffffffffffffffffff1602179055508061018260006101000a81548160ff0219169083151502179055508686610173919061534392919061aa9c565b508888610174919061535692919061aa9c565b50600080600090505b888890508110156155815786868281811061537657fe5b9050602002013573ffffffffffffffffffffffffffffffffffffffff1661017760008b8b858181106153a457fe5b9050602002013573ffffffffffffffffffffffffffffffffffffffff1673ffffffffffffffffffffffffffffffffffffffff1673ffffffffffffffffffffffffffffffffffffffff16815260200190815260200160002060006101000a81548173ffffffffffffffffffffffffffffffffffffffff021916908373ffffffffffffffffffffffffffffffffffffffff1602179055508a8a9050811015615573578a8a8281811061545057fe5b9050602002013573ffffffffffffffffffffffffffffffffffffffff16915061017d60009054906101000a900473ffffffffffffffffffffffffffffffffffffffff1673ffffffffffffffffffffffffffffffffffffffff168273ffffffffffffffffffffffffffffffffffffffff1614156154cb57615574565b8161018160008b8b858181106154dd57fe5b9050602002013573ffffffffffffffffffffffffffffffffffffffff1673ffffffffffffffffffffffffffffffffffffffff1673ffffffffffffffffffffffffffffffffffffffff16815260200190815260200160002060006101000a81548173ffffffffffffffffffffffffffffffffffffffff021916908373ffffffffffffffffffffffffffffffffffffffff1602179055505b5b808060010191505061535f565b507369a62c24f16d4914a48919613e8ee330641bcb9461016e60006101000a81548173ffffffffffffffffffffffffffffffffffffffff021916908373ffffffffffffffffffffffffffffffffffffffff160217905550600061016b60006101000a81548173ffffffffffffffffffffffffffffffffffffffff021916908373ffffffffffffffffffffffffffffffffffffffff16021790555073b3c8e5534f0063545cbbb7ce86854bf42db8872b61016d60006101000a81548173ffffffffffffffffffffffffffffffffffffffff021916908373ffffffffffffffffffffffffffffffffffffffff1602179055508383610183919061568392919061ab3c565b506156a173ada343cb6820f4f5001749892f6caa9920129f2a613ae4565b50505050505050505050565b61016f5481565b6156bc6142ac565b61572e576040517f08c379a00000000000000000000000000000000000000000000000000000000081526004018080602001828103825260208152602001807f4f776e61626c653a2063616c6c6572206973206e6f7420746865206f776e657281525060200191505060405180910390fd5b615737816195d1565b50565b61016a60009054906101000a900473ffffffffffffffffffffffffffffffffffffffff1681565b600033905090565b600073ffffffffffffffffffffffffffffffffffffffff168373ffffffffffffffffffffffffffffffffffffffff1614156157ef576040517f08c379a000000000000000000000000000000000000000000000000000000000815260040180806020018281038252602481526020018061b1086024913960400191505060405180910390fd5b600073ffffffffffffffffffffffffffffffffffffffff168273ffffffffffffffffffffffffffffffffffffffff161415615875576040517f08c379a000000000000000000000000000000000000000000000000000000000815260040180806020018281038252602281526020018061afc06022913960400191505060405180910390fd5b80603460008573ffffffffffffffffffffffffffffffffffffffff1673ffffffffffffffffffffffffffffffffffffffff16815260200190815260200160002060008473ffffffffffffffffffffffffffffffffffffffff1673ffffffffffffffffffffffffffffffffffffffff168152602001908152602001600020819055508173ffffffffffffffffffffffffffffffffffffffff168373ffffffffffffffffffffffffffffffffffffffff167f8c5be1e5ebec7d5bd14f71427d1e84f3dd0314c0f7b2291e5b200ac8c7c3b925836040518082815260200191505060405180910390a3505050565b6000803090506000813b9050600081149250505090565b61017c543243604051602001808373ffffffffffffffffffffffffffffffffffffffff1673ffffffffffffffffffffffffffffffffffffffff1660601b815260140182815260200192505050604051602081830303815290604052805190602001201415615a4d576040517f08c379a000000000000000000000000000000000000000000000000000000000815260040180806020018281038252600b8152602001807f49444c453a5245454e545200000000000000000000000000000000000000000081525060200191505060405180910390fd5b565b6000610174805490501415615a6357616313565b6000615a6d6122ad565b90506000615a7a8461378e565b9050600080600090505b6101748054905081101561630e576101748181548110615aa057fe5b9060005260206000200160009054906101000a900473ffffffffffffffffffffffffffffffffffffffff1691506000841115615d075784615ae557615ae482619717565b5b60008273ffffffffffffffffffffffffffffffffffffffff166370a08231306040518263ffffffff1660e01b8152600401808273ffffffffffffffffffffffffffffffffffffffff1673ffffffffffffffffffffffffffffffffffffffff16815260200191505060206040518083038186803b158015615b6457600080fd5b505afa158015615b78573d6000803e3d6000fd5b505050506040513d6020811015615b8e57600080fd5b810190808051906020019092919050505090506000811115615d0557615c7b615c2c86615c1e670de0b6b3a7640000615c1061017860008a73ffffffffffffffffffffffffffffffffffffffff1673ffffffffffffffffffffffffffffffffffffffff168152602001908152602001600020548761873f90919063ffffffff16565b61631790919063ffffffff16565b61639d90919063ffffffff16565b61017a60008673ffffffffffffffffffffffffffffffffffffffff1673ffffffffffffffffffffffffffffffffffffffff168152602001908152602001600020546185d990919063ffffffff16565b61017a60008573ffffffffffffffffffffffffffffffffffffffff1673ffffffffffffffffffffffffffffffffffffffff168152602001908152602001600020819055508061017860008573ffffffffffffffffffffffffffffffffffffffff1673ffffffffffffffffffffffffffffffffffffffff168152602001908152602001600020819055505b505b600083111561623d578461623857600061017960008473ffffffffffffffffffffffffffffffffffffffff1673ffffffffffffffffffffffffffffffffffffffff16815260200190815260200160002060008873ffffffffffffffffffffffffffffffffffffffff1673ffffffffffffffffffffffffffffffffffffffff16815260200190815260200160002054905061017a60008473ffffffffffffffffffffffffffffffffffffffff1673ffffffffffffffffffffffffffffffffffffffff1681526020019081526020016000205461017960008573ffffffffffffffffffffffffffffffffffffffff1673ffffffffffffffffffffffffffffffffffffffff16815260200190815260200160002060008973ffffffffffffffffffffffffffffffffffffffff1673ffffffffffffffffffffffffffffffffffffffff168152602001908152602001600020819055506000615eae8261017a60008773ffffffffffffffffffffffffffffffffffffffff1673ffffffffffffffffffffffffffffffffffffffff1681526020019081526020016000205461873f90919063ffffffff16565b90506000811415615ec0575050616301565b6000615eef670de0b6b3a7640000615ee1848961631790919063ffffffff16565b61639d90919063ffffffff16565b905060008573ffffffffffffffffffffffffffffffffffffffff166370a08231306040518263ffffffff1660e01b8152600401808273ffffffffffffffffffffffffffffffffffffffff1673ffffffffffffffffffffffffffffffffffffffff16815260200191505060206040518083038186803b158015615f7057600080fd5b505afa158015615f84573d6000803e3d6000fd5b505050506040513d6020811015615f9a57600080fd5b8101908080519060200190929190505050905080821115615fb9578091505b60008073ffffffffffffffffffffffffffffffffffffffff1661016e60009054906101000a900473ffffffffffffffffffffffffffffffffffffffff1673ffffffffffffffffffffffffffffffffffffffff161415801561601d5750600061017254115b8015616078575061017d60009054906101000a900473ffffffffffffffffffffffffffffffffffffffff1673ffffffffffffffffffffffffffffffffffffffff168773ffffffffffffffffffffffffffffffffffffffff1614155b156160f9576160a8620186a061609a610172548661631790919063ffffffff16565b61639d90919063ffffffff16565b90506160f861016e60009054906101000a900473ffffffffffffffffffffffffffffffffffffffff16828973ffffffffffffffffffffffffffffffffffffffff166163e79092919063ffffffff16565b5b6161368b616110838661873f90919063ffffffff16565b8973ffffffffffffffffffffffffffffffffffffffff166163e79092919063ffffffff16565b8673ffffffffffffffffffffffffffffffffffffffff166370a08231306040518263ffffffff1660e01b8152600401808273ffffffffffffffffffffffffffffffffffffffff1673ffffffffffffffffffffffffffffffffffffffff16815260200191505060206040518083038186803b1580156161b357600080fd5b505afa1580156161c7573d6000803e3d6000fd5b505050506040513d60208110156161dd57600080fd5b810190808051906020019092919050505061017860008973ffffffffffffffffffffffffffffffffffffffff1673ffffffffffffffffffffffffffffffffffffffff1681526020019081526020016000208190555050505050505b616300565b61017a60008373ffffffffffffffffffffffffffffffffffffffff1673ffffffffffffffffffffffffffffffffffffffff1681526020019081526020016000205461017960008473ffffffffffffffffffffffffffffffffffffffff1673ffffffffffffffffffffffffffffffffffffffff16815260200190815260200160002060008873ffffffffffffffffffffffffffffffffffffffff1673ffffffffffffffffffffffffffffffffffffffff168152602001908152602001600020819055505b5b8080600101915050615a84565b505050505b5050565b60008083141561632a5760009050616397565b600082840290508284828161633b57fe5b0414616392576040517f08c379a000000000000000000000000000000000000000000000000000000000815260040180806020018281038252602181526020018061b0296021913960400191505060405180910390fd5b809150505b92915050565b60006163df83836040518060400160405280601a81526020017f536166654d6174683a206469766973696f6e206279207a65726f000000000000815250619cb3565b905092915050565b6164b3838473ffffffffffffffffffffffffffffffffffffffff1663a9059cbb905060e01b8484604051602401808373ffffffffffffffffffffffffffffffffffffffff1673ffffffffffffffffffffffffffffffffffffffff16815260200182815260200192505050604051602081830303815290604052907bffffffffffffffffffffffffffffffffffffffffffffffffffffffff19166020820180517bffffffffffffffffffffffffffffffffffffffffffffffffffffffff8381831617835250505050619d79565b505050565b600073ffffffffffffffffffffffffffffffffffffffff168273ffffffffffffffffffffffffffffffffffffffff16141561653e576040517f08c379a000000000000000000000000000000000000000000000000000000000815260040180806020018281038252602181526020018061b0c26021913960400191505060405180910390fd5b6165aa8160405180606001604052806022815260200161af4860229139603360008673ffffffffffffffffffffffffffffffffffffffff1673ffffffffffffffffffffffffffffffffffffffff16815260200190815260200160002054616ff79092919063ffffffff16565b603360008473ffffffffffffffffffffffffffffffffffffffff1673ffffffffffffffffffffffffffffffffffffffff168152602001908152602001600020819055506166028160355461873f90919063ffffffff16565b603581905550600073ffffffffffffffffffffffffffffffffffffffff168273ffffffffffffffffffffffffffffffffffffffff167fddf252ad1be2c89b69c2b068fc378daa952ba7f163c4a11628f55a4df523b3ef836040518082815260200191505060405180910390a35050565b600060606000616680619fc4565b925092505060008090505b610173805490508110156169115760008382815181106166a757fe5b602002602001015114156166ba57616904565b600061017382815481106166ca57fe5b9060005260206000200160009054906101000a900473ffffffffffffffffffffffffffffffffffffffff16905061680f61680085848151811061670957fe5b602002602001015161017760008573ffffffffffffffffffffffffffffffffffffffff1673ffffffffffffffffffffffffffffffffffffffff16815260200190815260200160002060009054906101000a900473ffffffffffffffffffffffffffffffffffffffff1673ffffffffffffffffffffffffffffffffffffffff1663c89d5b8b6040518163ffffffff1660e01b815260040160206040518083038186803b1580156167b757600080fd5b505afa1580156167cb573d6000803e3d6000fd5b505050506040513d60208110156167e157600080fd5b810190808051906020019092919050505061631790919063ffffffff16565b866185d990919063ffffffff16565b9450600061018160008373ffffffffffffffffffffffffffffffffffffffff1673ffffffffffffffffffffffffffffffffffffffff16815260200190815260200160002060009054906101000a900473ffffffffffffffffffffffffffffffffffffffff1690506000610174805490501180156168b95750600073ffffffffffffffffffffffffffffffffffffffff168173ffffffffffffffffffffffffffffffffffffffff1614155b15616901576168fe6168ef6168cd8361a2f7565b8786815181106168d957fe5b602002602001015161631790919063ffffffff16565b876185d990919063ffffffff16565b95505b50505b808060010191505061668b565b50616925818461639d90919063ffffffff16565b9250505090565b600080600080600061693d8761378e565b905060008090505b61017480549050811015616d3257610174818154811061696157fe5b9060005260206000200160009054906101000a900473ffffffffffffffffffffffffffffffffffffffff1695506000821415616a9b5761017960008773ffffffffffffffffffffffffffffffffffffffff1673ffffffffffffffffffffffffffffffffffffffff16815260200190815260200160002060008a73ffffffffffffffffffffffffffffffffffffffff1673ffffffffffffffffffffffffffffffffffffffff1681526020019081526020016000205461017960008873ffffffffffffffffffffffffffffffffffffffff1673ffffffffffffffffffffffffffffffffffffffff16815260200190815260200160002060008a73ffffffffffffffffffffffffffffffffffffffff1673ffffffffffffffffffffffffffffffffffffffff16815260200190815260200160002081905550616d25565b61017a60008773ffffffffffffffffffffffffffffffffffffffff1673ffffffffffffffffffffffffffffffffffffffff168152602001908152602001600020549450616b6e61017960008873ffffffffffffffffffffffffffffffffffffffff1673ffffffffffffffffffffffffffffffffffffffff16815260200190815260200160002060008b73ffffffffffffffffffffffffffffffffffffffff1673ffffffffffffffffffffffffffffffffffffffff168152602001908152602001600020548661873f90919063ffffffff16565b9350616c2c670de0b6b3a7640000616c1e616c0f61017960008b73ffffffffffffffffffffffffffffffffffffffff1673ffffffffffffffffffffffffffffffffffffffff16815260200190815260200160002060008d73ffffffffffffffffffffffffffffffffffffffff1673ffffffffffffffffffffffffffffffffffffffff168152602001908152602001600020548961873f90919063ffffffff16565b8561631790919063ffffffff16565b61639d90919063ffffffff16565b9250616ca3616c94616c4789856185d990919063ffffffff16565b616c86616c5d8b8961631790919063ffffffff16565b616c78670de0b6b3a76400008961631790919063ffffffff16565b6185d990919063ffffffff16565b61639d90919063ffffffff16565b8661873f90919063ffffffff16565b61017960008873ffffffffffffffffffffffffffffffffffffffff1673ffffffffffffffffffffffffffffffffffffffff16815260200190815260200160002060008a73ffffffffffffffffffffffffffffffffffffffff1673ffffffffffffffffffffffffffffffffffffffff168152602001908152602001600020819055505b8080600101915050616945565b505050505050505050565b600073ffffffffffffffffffffffffffffffffffffffff168373ffffffffffffffffffffffffffffffffffffffff161415616dc3576040517f08c379a000000000000000000000000000000000000000000000000000000000815260040180806020018281038252602581526020018061b0e36025913960400191505060405180910390fd5b600073ffffffffffffffffffffffffffffffffffffffff168273ffffffffffffffffffffffffffffffffffffffff161415616e49576040517f08c379a000000000000000000000000000000000000000000000000000000000815260040180806020018281038252602381526020018061af256023913960400191505060405180910390fd5b616eb58160405180606001604052806026815260200161afe260269139603360008773ffffffffffffffffffffffffffffffffffffffff1673ffffffffffffffffffffffffffffffffffffffff16815260200190815260200160002054616ff79092919063ffffffff16565b603360008573ffffffffffffffffffffffffffffffffffffffff1673ffffffffffffffffffffffffffffffffffffffff16815260200190815260200160002081905550616f4a81603360008573ffffffffffffffffffffffffffffffffffffffff1673ffffffffffffffffffffffffffffffffffffffff168152602001908152602001600020546185d990919063ffffffff16565b603360008473ffffffffffffffffffffffffffffffffffffffff1673ffffffffffffffffffffffffffffffffffffffff168152602001908152602001600020819055508173ffffffffffffffffffffffffffffffffffffffff168373ffffffffffffffffffffffffffffffffffffffff167fddf252ad1be2c89b69c2b068fc378daa952ba7f163c4a11628f55a4df523b3ef836040518082815260200191505060405180910390a3505050565b60008383111582906170a4576040517f08c379a00000000000000000000000000000000000000000000000000000000081526004018080602001828103825283818151815260200191508051906020019080838360005b8381101561706957808201518184015260208101905061704e565b50505050905090810190601f1680156170965780820380516001836020036101000a031916815260200191505b509250505060405180910390fd5b5060008385039050809150509392505050565b600061017b60008673ffffffffffffffffffffffffffffffffffffffff1673ffffffffffffffffffffffffffffffffffffffff1681526020019081526020016000205490508281106171f757617116838261873f90919063ffffffff16565b61017b60008773ffffffffffffffffffffffffffffffffffffffff1673ffffffffffffffffffffffffffffffffffffffff168152602001908152602001600020819055506171ad8361017b60008773ffffffffffffffffffffffffffffffffffffffff1673ffffffffffffffffffffffffffffffffffffffff168152602001908152602001600020546185d990919063ffffffff16565b61017b60008673ffffffffffffffffffffffffffffffffffffffff1673ffffffffffffffffffffffffffffffffffffffff168152602001908152602001600020819055505061743f565b600061726661017b60008773ffffffffffffffffffffffffffffffffffffffff1673ffffffffffffffffffffffffffffffffffffffff168152602001908152602001600020546172588661724a8961378e565b61873f90919063ffffffff16565b61873f90919063ffffffff16565b9050600061727d838661873f90919063ffffffff16565b905061731a61729582846185d990919063ffffffff16565b61730c6172ab848861631790919063ffffffff16565b6172fe8661017660008d73ffffffffffffffffffffffffffffffffffffffff1673ffffffffffffffffffffffffffffffffffffffff1681526020019081526020016000205461631790919063ffffffff16565b6185d990919063ffffffff16565b61639d90919063ffffffff16565b61017660008873ffffffffffffffffffffffffffffffffffffffff1673ffffffffffffffffffffffffffffffffffffffff16815260200190815260200160002081905550600061017b60008973ffffffffffffffffffffffffffffffffffffffff1673ffffffffffffffffffffffffffffffffffffffff168152602001908152602001600020819055506173f78361017b60008973ffffffffffffffffffffffffffffffffffffffff1673ffffffffffffffffffffffffffffffffffffffff168152602001908152602001600020546185d990919063ffffffff16565b61017b60008873ffffffffffffffffffffffffffffffffffffffff1673ffffffffffffffffffffffffffffffffffffffff168152602001908152602001600020819055505050505b50505050565b6000806174506122ad565b9050600081141561746a5761017054600a0a915050617798565b600080617562670de0b6b3a764000061016a60009054906101000a900473ffffffffffffffffffffffffffffffffffffffff1673ffffffffffffffffffffffffffffffffffffffff166370a08231306040518263ffffffff1660e01b8152600401808273ffffffffffffffffffffffffffffffffffffffff1673ffffffffffffffffffffffffffffffffffffffff16815260200191505060206040518083038186803b15801561751957600080fd5b505afa15801561752d573d6000803e3d6000fd5b505050506040513d602081101561754357600080fd5b810190808051906020019092919050505061631790919063ffffffff16565b905060008090505b6101738054905081101561777e57610173818154811061758657fe5b9060005260206000200160009054906101000a900473ffffffffffffffffffffffffffffffffffffffff16925061776f6177608473ffffffffffffffffffffffffffffffffffffffff166370a08231306040518263ffffffff1660e01b8152600401808273ffffffffffffffffffffffffffffffffffffffff1673ffffffffffffffffffffffffffffffffffffffff16815260200191505060206040518083038186803b15801561763657600080fd5b505afa15801561764a573d6000803e3d6000fd5b505050506040513d602081101561766057600080fd5b810190808051906020019092919050505061017760008773ffffffffffffffffffffffffffffffffffffffff1673ffffffffffffffffffffffffffffffffffffffff16815260200190815260200160002060009054906101000a900473ffffffffffffffffffffffffffffffffffffffff1673ffffffffffffffffffffffffffffffffffffffff166302bbce466040518163ffffffff1660e01b815260040160206040518083038186803b15801561771757600080fd5b505afa15801561772b573d6000803e3d6000fd5b505050506040513d602081101561774157600080fd5b810190808051906020019092919050505061631790919063ffffffff16565b836185d990919063ffffffff16565b9150808060010191505061756a565b50617792838261639d90919063ffffffff16565b93505050505b90565b61789b848573ffffffffffffffffffffffffffffffffffffffff166323b872dd905060e01b858585604051602401808473ffffffffffffffffffffffffffffffffffffffff1673ffffffffffffffffffffffffffffffffffffffff1681526020018373ffffffffffffffffffffffffffffffffffffffff1673ffffffffffffffffffffffffffffffffffffffff1681526020018281526020019350505050604051602081830303815290604052907bffffffffffffffffffffffffffffffffffffffffffffffffffffffff19166020820180517bffffffffffffffffffffffffffffffffffffffffffffffffffffffff8381831617835250505050619d79565b50505050565b600061013660009054906101000a900460ff1615617927576040517f08c379a00000000000000000000000000000000000000000000000000000000081526004018080602001828103825260108152602001807f5061757361626c653a207061757365640000000000000000000000000000000081525060200191505060405180910390fd5b606061018380548060200260200160405190810160405280929190818152602001828054801561797657602002820191906000526020600020905b815481526020019060010190808311617962575b50505050509050600061017580549050825114905080156179f85760008090505b610175805490508110806179a9575081155b156179f6578281815181106179ba57fe5b602002602001015161017582815481106179d057fe5b9060005260206000200154146179e957600091506179f6565b8080600101915050617997565b505b600061016a60009054906101000a900473ffffffffffffffffffffffffffffffffffffffff1673ffffffffffffffffffffffffffffffffffffffff166370a08231306040518263ffffffff1660e01b8152600401808273ffffffffffffffffffffffffffffffffffffffff1673ffffffffffffffffffffffffffffffffffffffff16815260200191505060206040518083038186803b158015617a9a57600080fd5b505afa158015617aae573d6000803e3d6000fd5b505050506040513d6020811015617ac457600080fd5b810190808051906020019092919050505090506000828015617ae65750600082145b15617af8576000945050505050618017565b6000821115617c1357617b33620186a0617b2561017154617b1761a50e565b61631790919063ffffffff16565b61639d90919063ffffffff16565b90506000610175805490501415617b5d57836101759080519060200190617b5b92919061ab89565b505b80821115617c1257617c11610173805480602002602001604051908101604052809291908181526020018280548015617beb57602002820191906000526020600020905b8160009054906101000a900473ffffffffffffffffffffffffffffffffffffffff1673ffffffffffffffffffffffffffffffffffffffff1681526020019060010190808311617ba1575b5050505050617c0c86617c07858761873f90919063ffffffff16565b618b13565b619305565b5b5b8215617c26576000945050505050618017565b6060806000617c33619fc4565b925092509250600085148015617c4c5750600061017154115b15617c9857617c95617c86620186a0617c7861017154617c6a61a50e565b61631790919063ffffffff16565b61639d90919063ffffffff16565b8261873f90919063ffffffff16565b90505b6060617ca48883618b13565b90506060600080617cb6878786618789565b92509250925080617ce9576101756000617cd0919061abd6565b8a6101759080519060200190617ce792919061ab89565b505b600088148015617cfc5750600061017154115b15617d3657617d33620186a0617d2561017154617d1761a50e565b61631790919063ffffffff16565b61639d90919063ffffffff16565b97505b600061016a60009054906101000a900473ffffffffffffffffffffffffffffffffffffffff1673ffffffffffffffffffffffffffffffffffffffff166370a08231306040518263ffffffff1660e01b8152600401808273ffffffffffffffffffffffffffffffffffffffff1673ffffffffffffffffffffffffffffffffffffffff16815260200191505060206040518083038186803b158015617dd857600080fd5b505afa158015617dec573d6000803e3d6000fd5b505050506040513d6020811015617e0257600080fd5b81019080805190602001909291905050509050888111617e315760009c50505050505050505050505050618017565b60608451604051908082528060200260200182016040528015617e635781602001602082028038833980820191505090505b50905060008090505b8551811015617ed557617eb085617ea2620186a0898581518110617e8c57fe5b602002602001015161631790919063ffffffff16565b61639d90919063ffffffff16565b828281518110617ebc57fe5b6020026020010181815250508080600101915050617e6c565b506060617ef482617eef8d8661873f90919063ffffffff16565b618b13565b9050617f87610173805480602002602001604051908101604052809291908181526020018280548015617f7c57602002820191906000526020600020905b8160009054906101000a900473ffffffffffffffffffffffffffffffffffffffff1673ffffffffffffffffffffffffffffffffffffffff1681526020019060010190808311617f32575b505050505082619305565b7f4217d9fab39dbadacf1dad6c889aec1caa02e8a6cb59ddd4ce34f3e0ef158b5533617fbc8d8b6185d990919063ffffffff16565b604051808373ffffffffffffffffffffffffffffffffffffffff1673ffffffffffffffffffffffffffffffffffffffff1681526020018281526020019250505060405180910390a160019e5050505050505050505050505050505b90565b600073ffffffffffffffffffffffffffffffffffffffff168273ffffffffffffffffffffffffffffffffffffffff1614156180bd576040517f08c379a000000000000000000000000000000000000000000000000000000000815260040180806020018281038252601f8152602001807f45524332303a206d696e7420746f20746865207a65726f20616464726573730081525060200191505060405180910390fd5b6180d2816035546185d990919063ffffffff16565b60358190555061812a81603360008573ffffffffffffffffffffffffffffffffffffffff1673ffffffffffffffffffffffffffffffffffffffff168152602001908152602001600020546185d990919063ffffffff16565b603360008473ffffffffffffffffffffffffffffffffffffffff1673ffffffffffffffffffffffffffffffffffffffff168152602001908152602001600020819055508173ffffffffffffffffffffffffffffffffffffffff16600073ffffffffffffffffffffffffffffffffffffffff167fddf252ad1be2c89b69c2b068fc378daa952ba7f163c4a11628f55a4df523b3ef836040518082815260200191505060405180910390a35050565b600061017254141561827f576182368261017b60008673ffffffffffffffffffffffffffffffffffffffff1673ffffffffffffffffffffffffffffffffffffffff168152602001908152602001600020546185d990919063ffffffff16565b61017b60008573ffffffffffffffffffffffffffffffffffffffff1673ffffffffffffffffffffffffffffffffffffffff168152602001908152602001600020819055506183bf565b60006182dc61017b60008673ffffffffffffffffffffffffffffffffffffffff1673ffffffffffffffffffffffffffffffffffffffff168152602001908152602001600020546182ce8661378e565b61873f90919063ffffffff16565b90506183798161836b6182f8868661631790919063ffffffff16565b61835d61830e888761873f90919063ffffffff16565b61017660008b73ffffffffffffffffffffffffffffffffffffffff1673ffffffffffffffffffffffffffffffffffffffff1681526020019081526020016000205461631790919063ffffffff16565b6185d990919063ffffffff16565b61639d90919063ffffffff16565b61017660008673ffffffffffffffffffffffffffffffffffffffff1673ffffffffffffffffffffffffffffffffffffffff16815260200190815260200160002081905550505b505050565b6000806183d08461378e565b905060008060008090505b610174805490508110156185d05761017481815481106183f757fe5b9060005260206000200160009054906101000a900473ffffffffffffffffffffffffffffffffffffffff16945061017a60008673ffffffffffffffffffffffffffffffffffffffff1673ffffffffffffffffffffffffffffffffffffffff16815260200190815260200160002054925061017960008673ffffffffffffffffffffffffffffffffffffffff1673ffffffffffffffffffffffffffffffffffffffff16815260200190815260200160002060008873ffffffffffffffffffffffffffffffffffffffff1673ffffffffffffffffffffffffffffffffffffffff16815260200190815260200160002054915061854284618534618513618504868861873f90919063ffffffff16565b8a61631790919063ffffffff16565b618526868961631790919063ffffffff16565b6185d990919063ffffffff16565b61639d90919063ffffffff16565b61017960008773ffffffffffffffffffffffffffffffffffffffff1673ffffffffffffffffffffffffffffffffffffffff16815260200190815260200160002060008973ffffffffffffffffffffffffffffffffffffffff1673ffffffffffffffffffffffffffffffffffffffff1681526020019081526020016000208190555080806001019150506183db565b50505050505050565b600080828401905083811015618657576040517f08c379a000000000000000000000000000000000000000000000000000000000815260040180806020018281038252601b8152602001807f536166654d6174683a206164646974696f6e206f766572666c6f77000000000081525060200191505060405180910390fd5b8091505092915050565b60008073ffffffffffffffffffffffffffffffffffffffff168273ffffffffffffffffffffffffffffffffffffffff1614156186e8576040517f08c379a000000000000000000000000000000000000000000000000000000000815260040180806020018281038252602281526020018061b0726022913960400191505060405180910390fd5b8260000160008373ffffffffffffffffffffffffffffffffffffffff1673ffffffffffffffffffffffffffffffffffffffff16815260200190815260200160002060009054906101000a900460ff16905092915050565b600061878183836040518060400160405280601e81526020017f536166654d6174683a207375627472616374696f6e206f766572666c6f770000815250616ff7565b905092915050565b606060008084516040519080825280602002602001820160405280156187be5781602001602082028038833980820191505090505b50925060008060008060008090505b8951811015618a4f578a81815181106187e257fe5b602002602001015191508881815181106187f857fe5b6020026020010151925089818151811061880e57fe5b6020026020010151935061017760008373ffffffffffffffffffffffffffffffffffffffff1673ffffffffffffffffffffffffffffffffffffffff16815260200190815260200160002060009054906101000a900473ffffffffffffffffffffffffffffffffffffffff169450828411156189ee576000618898848661873f90919063ffffffff16565b905060008673ffffffffffffffffffffffffffffffffffffffff1663743753596040518163ffffffff1660e01b815260040160206040518083038186803b1580156188e257600080fd5b505afa1580156188f6573d6000803e3d6000fd5b505050506040513d602081101561890c57600080fd5b810190808051906020019092919050505090508181101561892f57600197508091505b6189e6846189e08973ffffffffffffffffffffffffffffffffffffffff166302bbce466040518163ffffffff1660e01b815260040160206040518083038186803b15801561897c57600080fd5b505afa158015618990573d6000803e3d6000fd5b505050506040513d60208110156189a657600080fd5b81019080805190602001909291905050506189d2670de0b6b3a76400008761631790919063ffffffff16565b61639d90919063ffffffff16565b30618c1b565b505050618a42565b618a01848461873f90919063ffffffff16565b888281518110618a0d57fe5b602002602001018181525050618a3f888281518110618a2857fe5b6020026020010151886185d990919063ffffffff16565b96505b80806001019150506187cd565b505050505093509350939050565b618a728161010361a83990919063ffffffff16565b8073ffffffffffffffffffffffffffffffffffffffff167fcd265ebaf09df2871cc7bd4133404a235ba12eff2041bb89d9c714a2621c7c7e60405160405180910390a250565b618acd8161010361a8f690919063ffffffff16565b8073ffffffffffffffffffffffffffffffffffffffff167f6719d08c1888103bea251a4ed56406bd0c3e69723c8a1686e017e7bbe159b6f860405160405180910390a250565b60608251604051908082528060200260200182016040528015618b455781602001602082028038833980820191505090505b50905060008060008090505b8551811015618c0f576001865103811415618b9657618b79828661873f90919063ffffffff16565b848281518110618b8557fe5b602002602001018181525050618c02565b618bd1620186a0618bc3888481518110618bac57fe5b60200260200101518861631790919063ffffffff16565b61639d90919063ffffffff16565b9250618be683836185d990919063ffffffff16565b915082848281518110618bf557fe5b6020026020010181815250505b8080600101915050618b51565b50829250505092915050565b600080831415618c2d57809050618dd5565b618cb861017760008673ffffffffffffffffffffffffffffffffffffffff1673ffffffffffffffffffffffffffffffffffffffff16815260200190815260200160002060009054906101000a900473ffffffffffffffffffffffffffffffffffffffff16848673ffffffffffffffffffffffffffffffffffffffff166163e79092919063ffffffff16565b61017760008573ffffffffffffffffffffffffffffffffffffffff1673ffffffffffffffffffffffffffffffffffffffff16815260200190815260200160002060009054906101000a900473ffffffffffffffffffffffffffffffffffffffff1673ffffffffffffffffffffffffffffffffffffffff166395a2251f836040518263ffffffff1660e01b8152600401808273ffffffffffffffffffffffffffffffffffffffff1673ffffffffffffffffffffffffffffffffffffffff168152602001915050602060405180830381600087803b158015618d9757600080fd5b505af1158015618dab573d6000803e3d6000fd5b505050506040513d6020811015618dc157600080fd5b810190808051906020019092919050505090505b9392505050565b60008061017b60003373ffffffffffffffffffffffffffffffffffffffff1673ffffffffffffffffffffffffffffffffffffffff16815260200190815260200160002054905060008582101590506000610172541480618e395750805b15618eac5780618e4a576000618e5e565b618e5d868361873f90919063ffffffff16565b5b61017b60003373ffffffffffffffffffffffffffffffffffffffff1673ffffffffffffffffffffffffffffffffffffffff168152602001908152602001600020819055508492505050619090565b600061017b60003373ffffffffffffffffffffffffffffffffffffffff1673ffffffffffffffffffffffffffffffffffffffff16815260200190815260200160002081905550600061017660003373ffffffffffffffffffffffffffffffffffffffff1673ffffffffffffffffffffffffffffffffffffffff168152602001908152602001600020548510618fd157618fcc670de0b6b3a7640000618fbe618f9d61017660003373ffffffffffffffffffffffffffffffffffffffff1673ffffffffffffffffffffffffffffffffffffffff168152602001908152602001600020548961873f90919063ffffffff16565b618fb0878c61873f90919063ffffffff16565b61631790919063ffffffff16565b61639d90919063ffffffff16565b618fd4565b60005b90506000619003620186a0618ff5610172548561631790919063ffffffff16565b61639d90919063ffffffff16565b905061907661016e60009054906101000a900473ffffffffffffffffffffffffffffffffffffffff168261016a60009054906101000a900473ffffffffffffffffffffffffffffffffffffffff1673ffffffffffffffffffffffffffffffffffffffff166163e79092919063ffffffff16565b619089818861873f90919063ffffffff16565b9450505050505b9392505050565b61017380549050815114619113576040517f08c379a000000000000000000000000000000000000000000000000000000000815260040180806020018281038252600c8152602001807f49444c453a2145515f4c454e000000000000000000000000000000000000000081525060200191505060405180910390fd5b600080600090505b82518110156191595761914a83828151811061913357fe5b6020026020010151836185d990919063ffffffff16565b9150808060010191505061911b565b5081610183908051906020019061917192919061ab89565b50620186a081146191ea576040517f08c379a000000000000000000000000000000000000000000000000000000000815260040180806020018281038252600c8152602001807f49444c453a2145515f544f54000000000000000000000000000000000000000081525060200191505060405180910390fd5b5050565b600060019054906101000a900460ff168061920d575061920c615960565b5b8061922457506000809054906101000a900460ff16155b619279576040517f08c379a000000000000000000000000000000000000000000000000000000000815260040180806020018281038252602e81526020018061b094602e913960400191505060405180910390fd5b60008060019054906101000a900460ff1615905080156192c9576001600060016101000a81548160ff02191690831515021790555060016000806101000a81548160ff0219169083151502179055505b6192d282612d47565b6192e0576192df82618ab8565b5b80156193015760008060016101000a81548160ff0219169083151502179055505b5050565b60008060008090505b83518110156194915783818151811061932357fe5b60200260200101519250600083141561933b57619484565b610177600086838151811061934c57fe5b602002602001015173ffffffffffffffffffffffffffffffffffffffff1673ffffffffffffffffffffffffffffffffffffffff16815260200190815260200160002060009054906101000a900473ffffffffffffffffffffffffffffffffffffffff1691506193ff828461016a60009054906101000a900473ffffffffffffffffffffffffffffffffffffffff1673ffffffffffffffffffffffffffffffffffffffff166163e79092919063ffffffff16565b8173ffffffffffffffffffffffffffffffffffffffff16631249c58b6040518163ffffffff1660e01b8152600401602060405180830381600087803b15801561944757600080fd5b505af115801561945b573d6000803e3d6000fd5b505050506040513d602081101561947157600080fd5b8101908080519060200190929190505050505b808060010191505061930e565b5050505050565b600061a0aa61374a8401816194a957fe5b0490506000805a9050616c3e81106194ce57611b6c616c3e8203816194ca57fe5b0491505b818311156194da578192505b60008311156195ca5761016960009054906101000a900473ffffffffffffffffffffffffffffffffffffffff1673ffffffffffffffffffffffffffffffffffffffff1663079d229f85856040518363ffffffff1660e01b8152600401808373ffffffffffffffffffffffffffffffffffffffff1673ffffffffffffffffffffffffffffffffffffffff16815260200182815260200192505050602060405180830381600087803b15801561958d57600080fd5b505af11580156195a1573d6000803e3d6000fd5b505050506040513d60208110156195b757600080fd5b8101908080519060200190929190505050505b5050505050565b600073ffffffffffffffffffffffffffffffffffffffff168173ffffffffffffffffffffffffffffffffffffffff161415619657576040517f08c379a000000000000000000000000000000000000000000000000000000000815260040180806020018281038252602681526020018061af9a6026913960400191505060405180910390fd5b8073ffffffffffffffffffffffffffffffffffffffff1660d060009054906101000a900473ffffffffffffffffffffffffffffffffffffffff1673ffffffffffffffffffffffffffffffffffffffff167f8be0079c531659141344cd1fd0a4f28419497f9722a3daafe3b4186f6b6457e060405160405180910390a38060d060006101000a81548173ffffffffffffffffffffffffffffffffffffffff021916908373ffffffffffffffffffffffffffffffffffffffff16021790555050565b61017e60009054906101000a900473ffffffffffffffffffffffffffffffffffffffff1673ffffffffffffffffffffffffffffffffffffffff168173ffffffffffffffffffffffffffffffffffffffff1614806197c2575061017d60009054906101000a900473ffffffffffffffffffffffffffffffffffffffff1673ffffffffffffffffffffffffffffffffffffffff168173ffffffffffffffffffffffffffffffffffffffff16145b15619caf57606060016040519080825280602002602001820160405280156197f95781602001602082028038833980820191505090505b5090506060600160405190808252806020026020018201604052801561982e5781602001602082028038833980820191505090505b509050308260008151811061983f57fe5b602002602001019073ffffffffffffffffffffffffffffffffffffffff16908173ffffffffffffffffffffffffffffffffffffffff168152505061017d60009054906101000a900473ffffffffffffffffffffffffffffffffffffffff1673ffffffffffffffffffffffffffffffffffffffff168373ffffffffffffffffffffffffffffffffffffffff161415619a375730816000815181106198de57fe5b602002602001019073ffffffffffffffffffffffffffffffffffffffff16908173ffffffffffffffffffffffffffffffffffffffff168152505061017f60009054906101000a900473ffffffffffffffffffffffffffffffffffffffff1673ffffffffffffffffffffffffffffffffffffffff1663fc245d4a83836040518363ffffffff1660e01b8152600401808060200180602001838103835285818151815260200191508051906020019060200280838360005b838110156199af578082015181840152602081019050619994565b50505050905001838103825284818151815260200191508051906020019060200280838360005b838110156199f15780820151818401526020810190506199d6565b50505050905001945050505050600060405180830381600087803b158015619a1857600080fd5b505af1158015619a2c573d6000803e3d6000fd5b505050505050619cb0565b600073ffffffffffffffffffffffffffffffffffffffff1661016c60009054906101000a900473ffffffffffffffffffffffffffffffffffffffff1673ffffffffffffffffffffffffffffffffffffffff1614619cac5761016c60009054906101000a900473ffffffffffffffffffffffffffffffffffffffff1681600081518110619abf57fe5b602002602001019073ffffffffffffffffffffffffffffffffffffffff16908173ffffffffffffffffffffffffffffffffffffffff168152505061016c60009054906101000a900473ffffffffffffffffffffffffffffffffffffffff1673ffffffffffffffffffffffffffffffffffffffff16635fe3b5676040518163ffffffff1660e01b815260040160206040518083038186803b158015619b6257600080fd5b505afa158015619b76573d6000803e3d6000fd5b505050506040513d6020811015619b8c57600080fd5b810190808051906020019092919050505073ffffffffffffffffffffffffffffffffffffffff16636810dfa68383600060016040518563ffffffff1660e01b81526004018080602001806020018515151515815260200184151515158152602001838103835287818151815260200191508051906020019060200280838360005b83811015619c28578082015181840152602081019050619c0d565b50505050905001838103825286818151815260200191508051906020019060200280838360005b83811015619c6a578082015181840152602081019050619c4f565b505050509050019650505050505050600060405180830381600087803b158015619c9357600080fd5b505af1158015619ca7573d6000803e3d6000fd5b505050505b50505b5b50565b60008083118290619d5f576040517f08c379a00000000000000000000000000000000000000000000000000000000081526004018080602001828103825283818151815260200191508051906020019080838360005b83811015619d24578082015181840152602081019050619d09565b50505050905090810190601f168015619d515780820380516001836020036101000a031916815260200191505b509250505060405180910390fd5b506000838581619d6b57fe5b049050809150509392505050565b619d988273ffffffffffffffffffffffffffffffffffffffff1661a9d1565b619e0a576040517f08c379a000000000000000000000000000000000000000000000000000000000815260040180806020018281038252601f8152602001807f5361666545524332303a2063616c6c20746f206e6f6e2d636f6e74726163740081525060200191505060405180910390fd5b600060608373ffffffffffffffffffffffffffffffffffffffff16836040518082805190602001908083835b60208310619e595780518252602082019150602081019050602083039250619e36565b6001836020036101000a0380198251168184511680821785525050505050509050019150506000604051808303816000865af19150503d8060008114619ebb576040519150601f19603f3d011682016040523d82523d6000602084013e619ec0565b606091505b509150915081619f38576040517f08c379a00000000000000000000000000000000000000000000000000000000081526004018080602001828103825260208152602001807f5361666545524332303a206c6f772d6c6576656c2063616c6c206661696c656481525060200191505060405180910390fd5b600081511115619fbe57808060200190516020811015619f5757600080fd5b8101908080519060200190929190505050619fbd576040517f08c379a000000000000000000000000000000000000000000000000000000000815260040180806020018281038252602a81526020018061b12c602a913960400191505060405180910390fd5b5b50505050565b606080600061017380549050604051908082528060200260200182016040528015619ffe5781602001602082028038833980820191505090505b5092506101738054905060405190808252806020026020018201604052801561a0365781602001602082028038833980820191505090505b50915060008060008090505b6101738054905081101561a2e657610173818154811061a05e57fe5b9060005260206000200160009054906101000a900473ffffffffffffffffffffffffffffffffffffffff1692508286828151811061a09857fe5b602002602001019073ffffffffffffffffffffffffffffffffffffffff16908173ffffffffffffffffffffffffffffffffffffffff168152505061017760008473ffffffffffffffffffffffffffffffffffffffff1673ffffffffffffffffffffffffffffffffffffffff16815260200190815260200160002060009054906101000a900473ffffffffffffffffffffffffffffffffffffffff1673ffffffffffffffffffffffffffffffffffffffff166302bbce466040518163ffffffff1660e01b815260040160206040518083038186803b15801561a17857600080fd5b505afa15801561a18c573d6000803e3d6000fd5b505050506040513d602081101561a1a257600080fd5b8101908080519060200190929190505050915061a299670de0b6b3a764000061a28b8573ffffffffffffffffffffffffffffffffffffffff166370a08231306040518263ffffffff1660e01b8152600401808273ffffffffffffffffffffffffffffffffffffffff1673ffffffffffffffffffffffffffffffffffffffff16815260200191505060206040518083038186803b15801561a24157600080fd5b505afa15801561a255573d6000803e3d6000fd5b505050506040513d602081101561a26b57600080fd5b81019080805190602001909291905050508561631790919063ffffffff16565b61639d90919063ffffffff16565b85828151811061a2a557fe5b60200260200101818152505061a2d785828151811061a2c057fe5b6020026020010151856185d990919063ffffffff16565b9350808060010191505061a042565b508484849450945094505050909192565b600061017e60009054906101000a900473ffffffffffffffffffffffffffffffffffffffff1673ffffffffffffffffffffffffffffffffffffffff168273ffffffffffffffffffffffffffffffffffffffff1614801561a3a75750600073ffffffffffffffffffffffffffffffffffffffff1661016c60009054906101000a900473ffffffffffffffffffffffffffffffffffffffff1673ffffffffffffffffffffffffffffffffffffffff1614155b1561a5085761018060009054906101000a900473ffffffffffffffffffffffffffffffffffffffff1673ffffffffffffffffffffffffffffffffffffffff1663d297128f61016c60009054906101000a900473ffffffffffffffffffffffffffffffffffffffff1661016a60009054906101000a900473ffffffffffffffffffffffffffffffffffffffff166040518363ffffffff1660e01b8152600401808373ffffffffffffffffffffffffffffffffffffffff1673ffffffffffffffffffffffffffffffffffffffff1681526020018273ffffffffffffffffffffffffffffffffffffffff1673ffffffffffffffffffffffffffffffffffffffff1681526020019250505060206040518083038186803b15801561a4c657600080fd5b505afa15801561a4da573d6000803e3d6000fd5b505050506040513d602081101561a4f057600080fd5b8101908080519060200190929190505050905061a509565b5b919050565b60008060008090505b6101738054905081101561a74557610173818154811061a53357fe5b9060005260206000200160009054906101000a900473ffffffffffffffffffffffffffffffffffffffff16915061a73661a727670de0b6b3a764000061a7198573ffffffffffffffffffffffffffffffffffffffff166370a08231306040518263ffffffff1660e01b8152600401808273ffffffffffffffffffffffffffffffffffffffff1673ffffffffffffffffffffffffffffffffffffffff16815260200191505060206040518083038186803b15801561a5ef57600080fd5b505afa15801561a603573d6000803e3d6000fd5b505050506040513d602081101561a61957600080fd5b810190808051906020019092919050505061017760008873ffffffffffffffffffffffffffffffffffffffff1673ffffffffffffffffffffffffffffffffffffffff16815260200190815260200160002060009054906101000a900473ffffffffffffffffffffffffffffffffffffffff1673ffffffffffffffffffffffffffffffffffffffff166302bbce466040518163ffffffff1660e01b815260040160206040518083038186803b15801561a6d057600080fd5b505afa15801561a6e4573d6000803e3d6000fd5b505050506040513d602081101561a6fa57600080fd5b810190808051906020019092919050505061631790919063ffffffff16565b61639d90919063ffffffff16565b846185d990919063ffffffff16565b9250808060010191505061a517565b5061a83361016a60009054906101000a900473ffffffffffffffffffffffffffffffffffffffff1673ffffffffffffffffffffffffffffffffffffffff166370a08231306040518263ffffffff1660e01b8152600401808273ffffffffffffffffffffffffffffffffffffffff1673ffffffffffffffffffffffffffffffffffffffff16815260200191505060206040518083038186803b15801561a7e957600080fd5b505afa15801561a7fd573d6000803e3d6000fd5b505050506040513d602081101561a81357600080fd5b8101908080519060200190929190505050836185d990919063ffffffff16565b91505090565b61a8438282618661565b61a898576040517f08c379a000000000000000000000000000000000000000000000000000000000815260040180806020018281038252602181526020018061b0086021913960400191505060405180910390fd5b60008260000160008373ffffffffffffffffffffffffffffffffffffffff1673ffffffffffffffffffffffffffffffffffffffff16815260200190815260200160002060006101000a81548160ff0219169083151502179055505050565b61a9008282618661565b1561a973576040517f08c379a000000000000000000000000000000000000000000000000000000000815260040180806020018281038252601f8152602001807f526f6c65733a206163636f756e7420616c72656164792068617320726f6c650081525060200191505060405180910390fd5b60018260000160008373ffffffffffffffffffffffffffffffffffffffff1673ffffffffffffffffffffffffffffffffffffffff16815260200190815260200160002060006101000a81548160ff0219169083151502179055505050565b60008060007fc5d2460186f7233c927e7db2dcc703c0e500b653ca82273b7bfad8045d85a47060001b9050833f915080821415801561aa1357506000801b8214155b92505050919050565b828054600181600116156101000203166002900490600052602060002090601f016020900481019282601f1061aa5d57805160ff191683800117855561aa8b565b8280016001018555821561aa8b579182015b8281111561aa8a57825182559160200191906001019061aa6f565b5b50905061aa98919061abf7565b5090565b82805482825590600052602060002090810192821561ab2b579160200282015b8281111561ab2a57823573ffffffffffffffffffffffffffffffffffffffff168260006101000a81548173ffffffffffffffffffffffffffffffffffffffff021916908373ffffffffffffffffffffffffffffffffffffffff1602179055509160200191906001019061aabc565b5b50905061ab38919061ac1c565b5090565b82805482825590600052602060002090810192821561ab78579160200282015b8281111561ab7757823582559160200191906001019061ab5c565b5b50905061ab85919061abf7565b5090565b82805482825590600052602060002090810192821561abc5579160200282015b8281111561abc457825182559160200191906001019061aba9565b5b50905061abd2919061abf7565b5090565b508054600082559060005260206000209081019061abf4919061abf7565b50565b61ac1991905b8082111561ac1557600081600090555060010161abfd565b5090565b90565b61ac5c91905b8082111561ac5857600081816101000a81549073ffffffffffffffffffffffffffffffffffffffff02191690555060010161ac22565b5090565b90565b600060019054906101000a900460ff168061ac7e575061ac7d615960565b5b8061ac9557506000809054906101000a900460ff16155b61acea576040517f08c379a000000000000000000000000000000000000000000000000000000000815260040180806020018281038252602e81526020018061b094602e913960400191505060405180910390fd5b60008060019054906101000a900460ff16159050801561ad3a576001600060016101000a81548160ff02191690831515021790555060016000806101000a81548160ff0219169083151502179055505b8160d060006101000a81548173ffffffffffffffffffffffffffffffffffffffff021916908373ffffffffffffffffffffffffffffffffffffffff16021790555060d060009054906101000a900473ffffffffffffffffffffffffffffffffffffffff1673ffffffffffffffffffffffffffffffffffffffff16600073ffffffffffffffffffffffffffffffffffffffff167f8be0079c531659141344cd1fd0a4f28419497f9722a3daafe3b4186f6b6457e060405160405180910390a3801561ae195760008060016101000a81548160ff0219169083151502179055505b5050565b600060019054906101000a900460ff168061ae3c575061ae3b615960565b5b8061ae5357506000809054906101000a900460ff16155b61aea8576040517f08c379a000000000000000000000000000000000000000000000000000000000815260040180806020018281038252602e81526020018061b094602e913960400191505060405180910390fd5b60008060019054906101000a900460ff16159050801561aef8576001600060016101000a81548160ff02191690831515021790555060016000806101000a81548160ff0219169083151502179055505b6001609d81905550801561af215760008060016101000a81548160ff0219169083151502179055505b5056fe45524332303a207472616e7366657220746f20746865207a65726f206164647265737345524332303a206275726e20616d6f756e7420657863656564732062616c616e6365506175736572526f6c653a2063616c6c657220646f6573206e6f742068617665207468652050617573657220726f6c654f776e61626c653a206e6577206f776e657220697320746865207a65726f206164647265737345524332303a20617070726f766520746f20746865207a65726f206164647265737345524332303a207472616e7366657220616d6f756e7420657863656564732062616c616e6365526f6c65733a206163636f756e7420646f6573206e6f74206861766520726f6c65536166654d6174683a206d756c7469706c69636174696f6e206f766572666c6f7745524332303a207472616e7366657220616d6f756e74206578636565647320616c6c6f77616e6365526f6c65733a206163636f756e7420697320746865207a65726f2061646472657373436f6e747261637420696e7374616e63652068617320616c7265616479206265656e20696e697469616c697a656445524332303a206275726e2066726f6d20746865207a65726f206164647265737345524332303a207472616e736665722066726f6d20746865207a65726f206164647265737345524332303a20617070726f76652066726f6d20746865207a65726f20616464726573735361666545524332303a204552433230206f7065726174696f6e20646964206e6f74207375636365656445524332303a2064656372656173656420616c6c6f77616e63652062656c6f77207a65726fa265627a7a72315820e5ef517933ccca225960fa9f1ac8a5aae543bbdb535109d70a30e36150cf810364736f6c63430005100032526f6c65733a206163636f756e7420697320746865207a65726f2061646472657373436f6e747261637420696e7374616e63652068617320616c7265616479206265656e20696e697469616c697a6564",
  "linkReferences": {},
  "deployedLinkReferences": {}
}