{
  "_format": "hh-sol-artifact-1",
  "contractName": "ForceSend",
  "sourceName": "contracts/mocks/ForceSend.sol",
  "abi": [
    {
      "constant": false,
      "inputs": [
        {
          "internalType": "address payable",
          "name": "victim",
          "type": "address"
        }
      ],
      "name": "go",
      "outputs": [],
      "payable": true,
      "stateMutability": "payable",
      "type": "function"
    }
  ],
  "bytecode": "0x6080604052348015600f57600080fd5b5060b08061001e6000396000f3fe608060405260043610601c5760003560e01c80633434e749146021575b600080fd5b606060048036036020811015603557600080fd5b81019080803573ffffffffffffffffffffffffffffffffffffffff1690602001909291905050506062565b005b8073ffffffffffffffffffffffffffffffffffffffff16fffea265627a7a7231582069cbbe03a8004fa51ebcd437bd356eff4512f8e0cc345429c6fd330ef3e33dbb64736f6c63430005100032",
  "linkReferences": {},
  "deployedLinkReferences": {}
}