{
  "_format": "hh-sol-artifact-1",
  "contractName": "IdleTokenV3_1",
  "sourceName": "contracts/IdleTokenV3_1.sol",
  "abi": [
    {
      "anonymous": false,
      "inputs": [
        {
          "indexed": true,
          "internalType": "address",
          "name": "owner",
          "type": "address"
        },
        {
          "indexed": true,
          "internalType": "address",
          "name": "spender",
          "type": "address"
        },
        {
          "indexed": false,
          "internalType": "uint256",
          "name": "value",
          "type": "uint256"
        }
      ],
      "name": "Approval",
      "type": "event"
    },
    {
      "anonymous": false,
      "inputs": [
        {
          "indexed": true,
          "internalType": "address",
          "name": "previousOwner",
          "type": "address"
        },
        {
          "indexed": true,
          "internalType": "address",
          "name": "newOwner",
          "type": "address"
        }
      ],
      "name": "OwnershipTransferred",
      "type": "event"
    },
    {
      "anonymous": false,
      "inputs": [
        {
          "indexed": false,
          "internalType": "address",
          "name": "account",
          "type": "address"
        }
      ],
      "name": "Paused",
      "type": "event"
    },
    {
      "anonymous": false,
      "inputs": [
        {
          "indexed": true,
          "internalType": "address",
          "name": "account",
          "type": "address"
        }
      ],
      "name": "PauserAdded",
      "type": "event"
    },
    {
      "anonymous": false,
      "inputs": [
        {
          "indexed": true,
          "internalType": "address",
          "name": "account",
          "type": "address"
        }
      ],
      "name": "PauserRemoved",
      "type": "event"
    },
    {
      "anonymous": false,
      "inputs": [
        {
          "indexed": false,
          "internalType": "address",
          "name": "_rebalancer",
          "type": "address"
        },
        {
          "indexed": false,
          "internalType": "uint256",
          "name": "_amount",
          "type": "uint256"
        }
      ],
      "name": "Rebalance",
      "type": "event"
    },
    {
      "anonymous": false,
      "inputs": [
        {
          "indexed": false,
          "internalType": "uint256",
          "name": "_amount",
          "type": "uint256"
        },
        {
          "indexed": false,
          "internalType": "address",
          "name": "_ref",
          "type": "address"
        }
      ],
      "name": "Referral",
      "type": "event"
    },
    {
      "anonymous": false,
      "inputs": [
        {
          "indexed": true,
          "internalType": "address",
          "name": "from",
          "type": "address"
        },
        {
          "indexed": true,
          "internalType": "address",
          "name": "to",
          "type": "address"
        },
        {
          "indexed": false,
          "internalType": "uint256",
          "name": "value",
          "type": "uint256"
        }
      ],
      "name": "Transfer",
      "type": "event"
    },
    {
      "anonymous": false,
      "inputs": [
        {
          "indexed": false,
          "internalType": "address",
          "name": "account",
          "type": "address"
        }
      ],
      "name": "Unpaused",
      "type": "event"
    },
    {
      "constant": true,
      "inputs": [],
      "name": "COMP",
      "outputs": [
        {
          "internalType": "address",
          "name": "",
          "type": "address"
        }
      ],
      "payable": false,
      "stateMutability": "view",
      "type": "function"
    },
    {
      "constant": true,
      "inputs": [],
      "name": "IDLE",
      "outputs": [
        {
          "internalType": "address",
          "name": "",
          "type": "address"
        }
      ],
      "payable": false,
      "stateMutability": "view",
      "type": "function"
    },
    {
      "constant": false,
      "inputs": [
        {
          "internalType": "string",
          "name": "_name",
          "type": "string"
        },
        {
          "internalType": "string",
          "name": "_symbol",
          "type": "string"
        },
        {
          "internalType": "address",
          "name": "_token",
          "type": "address"
        }
      ],
      "name": "_init",
      "outputs": [],
      "payable": false,
      "stateMutability": "nonpayable",
      "type": "function"
    },
    {
      "constant": false,
      "inputs": [
        {
          "internalType": "address",
          "name": "account",
          "type": "address"
        }
      ],
      "name": "addPauser",
      "outputs": [],
      "payable": false,
      "stateMutability": "nonpayable",
      "type": "function"
    },
    {
      "constant": true,
      "inputs": [
        {
          "internalType": "uint256",
          "name": "",
          "type": "uint256"
        }
      ],
      "name": "allAvailableTokens",
      "outputs": [
        {
          "internalType": "address",
          "name": "",
          "type": "address"
        }
      ],
      "payable": false,
      "stateMutability": "view",
      "type": "function"
    },
    {
      "constant": true,
      "inputs": [
        {
          "internalType": "address",
          "name": "owner",
          "type": "address"
        },
        {
          "internalType": "address",
          "name": "spender",
          "type": "address"
        }
      ],
      "name": "allowance",
      "outputs": [
        {
          "internalType": "uint256",
          "name": "",
          "type": "uint256"
        }
      ],
      "payable": false,
      "stateMutability": "view",
      "type": "function"
    },
    {
      "constant": false,
      "inputs": [
        {
          "internalType": "address",
          "name": "spender",
          "type": "address"
        },
        {
          "internalType": "uint256",
          "name": "amount",
          "type": "uint256"
        }
      ],
      "name": "approve",
      "outputs": [
        {
          "internalType": "bool",
          "name": "",
          "type": "bool"
        }
      ],
      "payable": false,
      "stateMutability": "nonpayable",
      "type": "function"
    },
    {
      "constant": true,
      "inputs": [
        {
          "internalType": "address",
          "name": "account",
          "type": "address"
        }
      ],
      "name": "balanceOf",
      "outputs": [
        {
          "internalType": "uint256",
          "name": "",
          "type": "uint256"
        }
      ],
      "payable": false,
      "stateMutability": "view",
      "type": "function"
    },
    {
      "constant": true,
      "inputs": [],
      "name": "decimals",
      "outputs": [
        {
          "internalType": "uint8",
          "name": "",
          "type": "uint8"
        }
      ],
      "payable": false,
      "stateMutability": "view",
      "type": "function"
    },
    {
      "constant": false,
      "inputs": [
        {
          "internalType": "address",
          "name": "spender",
          "type": "address"
        },
        {
          "internalType": "uint256",
          "name": "subtractedValue",
          "type": "uint256"
        }
      ],
      "name": "decreaseAllowance",
      "outputs": [
        {
          "internalType": "bool",
          "name": "",
          "type": "bool"
        }
      ],
      "payable": false,
      "stateMutability": "nonpayable",
      "type": "function"
    },
    {
      "constant": true,
      "inputs": [],
      "name": "fee",
      "outputs": [
        {
          "internalType": "uint256",
          "name": "",
          "type": "uint256"
        }
      ],
      "payable": false,
      "stateMutability": "view",
      "type": "function"
    },
    {
      "constant": true,
      "inputs": [],
      "name": "feeAddress",
      "outputs": [
        {
          "internalType": "address",
          "name": "",
          "type": "address"
        }
      ],
      "payable": false,
      "stateMutability": "view",
      "type": "function"
    },
    {
      "constant": true,
      "inputs": [],
      "name": "getAPRs",
      "outputs": [
        {
          "internalType": "address[]",
          "name": "addresses",
          "type": "address[]"
        },
        {
          "internalType": "uint256[]",
          "name": "aprs",
          "type": "uint256[]"
        }
      ],
      "payable": false,
      "stateMutability": "view",
      "type": "function"
    },
    {
      "constant": true,
      "inputs": [],
      "name": "getAllocations",
      "outputs": [
        {
          "internalType": "uint256[]",
          "name": "",
          "type": "uint256[]"
        }
      ],
      "payable": false,
      "stateMutability": "view",
      "type": "function"
    },
    {
      "constant": true,
      "inputs": [],
      "name": "getAvgAPR",
      "outputs": [
        {
          "internalType": "uint256",
          "name": "",
          "type": "uint256"
        }
      ],
      "payable": false,
      "stateMutability": "view",
      "type": "function"
    },
    {
      "constant": true,
      "inputs": [
        {
          "internalType": "address",
          "name": "_usr",
          "type": "address"
        }
      ],
      "name": "getGovTokensAmounts",
      "outputs": [
        {
          "internalType": "uint256[]",
          "name": "_amounts",
          "type": "uint256[]"
        }
      ],
      "payable": false,
      "stateMutability": "view",
      "type": "function"
    },
    {
      "constant": true,
      "inputs": [
        {
          "internalType": "uint256",
          "name": "",
          "type": "uint256"
        }
      ],
      "name": "govTokens",
      "outputs": [
        {
          "internalType": "address",
          "name": "",
          "type": "address"
        }
      ],
      "payable": false,
      "stateMutability": "view",
      "type": "function"
    },
    {
      "constant": true,
      "inputs": [
        {
          "internalType": "address",
          "name": "",
          "type": "address"
        }
      ],
      "name": "govTokensIndexes",
      "outputs": [
        {
          "internalType": "uint256",
          "name": "",
          "type": "uint256"
        }
      ],
      "payable": false,
      "stateMutability": "view",
      "type": "function"
    },
    {
      "constant": true,
      "inputs": [
        {
          "internalType": "address",
          "name": "",
          "type": "address"
        }
      ],
      "name": "govTokensLastBalances",
      "outputs": [
        {
          "internalType": "uint256",
          "name": "",
          "type": "uint256"
        }
      ],
      "payable": false,
      "stateMutability": "view",
      "type": "function"
    },
    {
      "constant": true,
      "inputs": [],
      "name": "gst2",
      "outputs": [
        {
          "internalType": "contract GasToken",
          "name": "",
          "type": "address"
        }
      ],
      "payable": false,
      "stateMutability": "view",
      "type": "function"
    },
    {
      "constant": true,
      "inputs": [],
      "name": "idleController",
      "outputs": [
        {
          "internalType": "address",
          "name": "",
          "type": "address"
        }
      ],
      "payable": false,
      "stateMutability": "view",
      "type": "function"
    },
    {
      "constant": false,
      "inputs": [
        {
          "internalType": "address",
          "name": "spender",
          "type": "address"
        },
        {
          "internalType": "uint256",
          "name": "addedValue",
          "type": "uint256"
        }
      ],
      "name": "increaseAllowance",
      "outputs": [
        {
          "internalType": "bool",
          "name": "",
          "type": "bool"
        }
      ],
      "payable": false,
      "stateMutability": "nonpayable",
      "type": "function"
    },
    {
      "constant": false,
      "inputs": [
        {
          "internalType": "string",
          "name": "name",
          "type": "string"
        },
        {
          "internalType": "string",
          "name": "symbol",
          "type": "string"
        },
        {
          "internalType": "uint8",
          "name": "decimals",
          "type": "uint8"
        }
      ],
      "name": "initialize",
      "outputs": [],
      "payable": false,
      "stateMutability": "nonpayable",
      "type": "function"
    },
    {
      "constant": false,
      "inputs": [],
      "name": "initialize",
      "outputs": [],
      "payable": false,
      "stateMutability": "nonpayable",
      "type": "function"
    },
    {
      "constant": false,
      "inputs": [
        {
          "internalType": "address",
          "name": "sender",
          "type": "address"
        }
      ],
      "name": "initialize",
      "outputs": [],
      "payable": false,
      "stateMutability": "nonpayable",
      "type": "function"
    },
    {
      "constant": true,
      "inputs": [],
      "name": "isOwner",
      "outputs": [
        {
          "internalType": "bool",
          "name": "",
          "type": "bool"
        }
      ],
      "payable": false,
      "stateMutability": "view",
      "type": "function"
    },
    {
      "constant": true,
      "inputs": [
        {
          "internalType": "address",
          "name": "account",
          "type": "address"
        }
      ],
      "name": "isPauser",
      "outputs": [
        {
          "internalType": "bool",
          "name": "",
          "type": "bool"
        }
      ],
      "payable": false,
      "stateMutability": "view",
      "type": "function"
    },
    {
      "constant": true,
      "inputs": [],
      "name": "isRiskAdjusted",
      "outputs": [
        {
          "internalType": "bool",
          "name": "",
          "type": "bool"
        }
      ],
      "payable": false,
      "stateMutability": "view",
      "type": "function"
    },
    {
      "constant": true,
      "inputs": [
        {
          "internalType": "uint256",
          "name": "",
          "type": "uint256"
        }
      ],
      "name": "lastAllocations",
      "outputs": [
        {
          "internalType": "uint256",
          "name": "",
          "type": "uint256"
        }
      ],
      "payable": false,
      "stateMutability": "view",
      "type": "function"
    },
    {
      "constant": true,
      "inputs": [],
      "name": "lastITokenPrice",
      "outputs": [
        {
          "internalType": "uint256",
          "name": "",
          "type": "uint256"
        }
      ],
      "payable": false,
      "stateMutability": "view",
      "type": "function"
    },
    {
      "constant": false,
      "inputs": [
        {
          "internalType": "address[]",
          "name": "_newGovTokens",
          "type": "address[]"
        },
        {
          "internalType": "address[]",
          "name": "_protocolTokens",
          "type": "address[]"
        },
        {
          "internalType": "address[]",
          "name": "_wrappers",
          "type": "address[]"
        },
        {
          "internalType": "uint256[]",
          "name": "_lastRebalancerAllocations",
          "type": "uint256[]"
        },
        {
          "internalType": "bool",
          "name": "_isRiskAdjusted",
          "type": "bool"
        },
        {
          "internalType": "address",
          "name": "_cToken",
          "type": "address"
        }
      ],
      "name": "manualInitialize",
      "outputs": [],
      "payable": false,
      "stateMutability": "nonpayable",
      "type": "function"
    },
    {
      "constant": true,
      "inputs": [],
      "name": "maxUnlentPerc",
      "outputs": [
        {
          "internalType": "uint256",
          "name": "",
          "type": "uint256"
        }
      ],
      "payable": false,
      "stateMutability": "view",
      "type": "function"
    },
    {
      "constant": false,
      "inputs": [
        {
          "internalType": "uint256",
          "name": "_amount",
          "type": "uint256"
        },
        {
          "internalType": "bool",
          "name": "_skipRebalance",
          "type": "bool"
        },
        {
          "internalType": "address",
          "name": "_referral",
          "type": "address"
        }
      ],
      "name": "mintIdleToken",
      "outputs": [
        {
          "internalType": "uint256",
          "name": "mintedTokens",
          "type": "uint256"
        }
      ],
      "payable": false,
      "stateMutability": "nonpayable",
      "type": "function"
    },
    {
      "constant": true,
      "inputs": [],
      "name": "name",
      "outputs": [
        {
          "internalType": "string",
          "name": "",
          "type": "string"
        }
      ],
      "payable": false,
      "stateMutability": "view",
      "type": "function"
    },
    {
      "constant": false,
      "inputs": [
        {
          "internalType": "uint256[]",
          "name": "_newAllocations",
          "type": "uint256[]"
        }
      ],
      "name": "openRebalance",
      "outputs": [
        {
          "internalType": "bool",
          "name": "",
          "type": "bool"
        },
        {
          "internalType": "uint256",
          "name": "avgApr",
          "type": "uint256"
        }
      ],
      "payable": false,
      "stateMutability": "nonpayable",
      "type": "function"
    },
    {
      "constant": true,
      "inputs": [],
      "name": "oracle",
      "outputs": [
        {
          "internalType": "address",
          "name": "",
          "type": "address"
        }
      ],
      "payable": false,
      "stateMutability": "view",
      "type": "function"
    },
    {
      "constant": true,
      "inputs": [],
      "name": "owner",
      "outputs": [
        {
          "internalType": "address",
          "name": "",
          "type": "address"
        }
      ],
      "payable": false,
      "stateMutability": "view",
      "type": "function"
    },
    {
      "constant": false,
      "inputs": [],
      "name": "pause",
      "outputs": [],
      "payable": false,
      "stateMutability": "nonpayable",
      "type": "function"
    },
    {
      "constant": true,
      "inputs": [],
      "name": "paused",
      "outputs": [
        {
          "internalType": "bool",
          "name": "",
          "type": "bool"
        }
      ],
      "payable": false,
      "stateMutability": "view",
      "type": "function"
    },
    {
      "constant": true,
      "inputs": [
        {
          "internalType": "address",
          "name": "",
          "type": "address"
        }
      ],
      "name": "protocolWrappers",
      "outputs": [
        {
          "internalType": "address",
          "name": "",
          "type": "address"
        }
      ],
      "payable": false,
      "stateMutability": "view",
      "type": "function"
    },
    {
      "constant": false,
      "inputs": [],
      "name": "rebalance",
      "outputs": [
        {
          "internalType": "bool",
          "name": "",
          "type": "bool"
        }
      ],
      "payable": false,
      "stateMutability": "nonpayable",
      "type": "function"
    },
    {
      "constant": false,
      "inputs": [],
      "name": "rebalanceWithGST",
      "outputs": [
        {
          "internalType": "bool",
          "name": "",
          "type": "bool"
        }
      ],
      "payable": false,
      "stateMutability": "nonpayable",
      "type": "function"
    },
    {
      "constant": true,
      "inputs": [],
      "name": "rebalancer",
      "outputs": [
        {
          "internalType": "address",
          "name": "",
          "type": "address"
        }
      ],
      "payable": false,
      "stateMutability": "view",
      "type": "function"
    },
    {
      "constant": false,
      "inputs": [
        {
          "internalType": "uint256",
          "name": "_amount",
          "type": "uint256"
        }
      ],
      "name": "redeemIdleToken",
      "outputs": [
        {
          "internalType": "uint256",
          "name": "redeemedTokens",
          "type": "uint256"
        }
      ],
      "payable": false,
      "stateMutability": "nonpayable",
      "type": "function"
    },
    {
      "constant": false,
      "inputs": [
        {
          "internalType": "uint256",
          "name": "_amount",
          "type": "uint256"
        }
      ],
      "name": "redeemInterestBearingTokens",
      "outputs": [],
      "payable": false,
      "stateMutability": "nonpayable",
      "type": "function"
    },
    {
      "constant": false,
      "inputs": [],
      "name": "renounceOwnership",
      "outputs": [],
      "payable": false,
      "stateMutability": "nonpayable",
      "type": "function"
    },
    {
      "constant": false,
      "inputs": [],
      "name": "renouncePauser",
      "outputs": [],
      "payable": false,
      "stateMutability": "nonpayable",
      "type": "function"
    },
    {
      "constant": false,
      "inputs": [
        {
          "internalType": "address[]",
          "name": "protocolTokens",
          "type": "address[]"
        },
        {
          "internalType": "address[]",
          "name": "wrappers",
          "type": "address[]"
        },
        {
          "internalType": "uint256[]",
          "name": "allocations",
          "type": "uint256[]"
        },
        {
          "internalType": "bool",
          "name": "keepAllocations",
          "type": "bool"
        }
      ],
      "name": "setAllAvailableTokensAndWrappers",
      "outputs": [],
      "payable": false,
      "stateMutability": "nonpayable",
      "type": "function"
    },
    {
      "constant": true,
      "inputs": [],
      "name": "symbol",
      "outputs": [
        {
          "internalType": "string",
          "name": "",
          "type": "string"
        }
      ],
      "payable": false,
      "stateMutability": "view",
      "type": "function"
    },
    {
      "constant": true,
      "inputs": [],
      "name": "token",
      "outputs": [
        {
          "internalType": "address",
          "name": "",
          "type": "address"
        }
      ],
      "payable": false,
      "stateMutability": "view",
      "type": "function"
    },
    {
      "constant": true,
      "inputs": [],
      "name": "tokenPrice",
      "outputs": [
        {
          "internalType": "uint256",
          "name": "",
          "type": "uint256"
        }
      ],
      "payable": false,
      "stateMutability": "view",
      "type": "function"
    },
    {
      "constant": true,
      "inputs": [],
      "name": "totalSupply",
      "outputs": [
        {
          "internalType": "uint256",
          "name": "",
          "type": "uint256"
        }
      ],
      "payable": false,
      "stateMutability": "view",
      "type": "function"
    },
    {
      "constant": false,
      "inputs": [
        {
          "internalType": "address",
          "name": "recipient",
          "type": "address"
        },
        {
          "internalType": "uint256",
          "name": "amount",
          "type": "uint256"
        }
      ],
      "name": "transfer",
      "outputs": [
        {
          "internalType": "bool",
          "name": "",
          "type": "bool"
        }
      ],
      "payable": false,
      "stateMutability": "nonpayable",
      "type": "function"
    },
    {
      "constant": false,
      "inputs": [
        {
          "internalType": "address",
          "name": "sender",
          "type": "address"
        },
        {
          "internalType": "address",
          "name": "recipient",
          "type": "address"
        },
        {
          "internalType": "uint256",
          "name": "amount",
          "type": "uint256"
        }
      ],
      "name": "transferFrom",
      "outputs": [
        {
          "internalType": "bool",
          "name": "",
          "type": "bool"
        }
      ],
      "payable": false,
      "stateMutability": "nonpayable",
      "type": "function"
    },
    {
      "constant": false,
      "inputs": [
        {
          "internalType": "address",
          "name": "newOwner",
          "type": "address"
        }
      ],
      "name": "transferOwnership",
      "outputs": [],
      "payable": false,
      "stateMutability": "nonpayable",
      "type": "function"
    },
    {
      "constant": false,
      "inputs": [],
      "name": "unpause",
      "outputs": [],
      "payable": false,
      "stateMutability": "nonpayable",
      "type": "function"
    },
    {
      "constant": true,
      "inputs": [
        {
          "internalType": "address",
          "name": "",
          "type": "address"
        }
      ],
      "name": "userAvgPrices",
      "outputs": [
        {
          "internalType": "uint256",
          "name": "",
          "type": "uint256"
        }
      ],
      "payable": false,
      "stateMutability": "view",
      "type": "function"
    },
    {
      "constant": true,
      "inputs": [
        {
          "internalType": "address",
          "name": "",
          "type": "address"
        },
        {
          "internalType": "address",
          "name": "",
          "type": "address"
        }
      ],
      "name": "usersGovTokensIndexes",
      "outputs": [
        {
          "internalType": "uint256",
          "name": "",
          "type": "uint256"
        }
      ],
      "payable": false,
      "stateMutability": "view",
      "type": "function"
    }
  ],
  "bytecode": "0x6080604052619f7b80620000146000396000f3fe608060405234801561001057600080fd5b506004361061038e5760003560e01c80637d7c2a1c116101de578063aaa48e9f1161010f578063d05be735116100ad578063ddca3f431161007c578063ddca3f431461178a578063f2d50ba6146117a8578063f2fde38b146117c6578063fc0c546a1461180a5761038e565b8063d05be73514611529578063da5163cc14611658578063dba2d85d146116f0578063dd62ed3e146117125761038e565b8063b13bd491116100e9578063b13bd491146113d2578063b71501bc14611479578063c4d66de8146114c3578063cb390f97146115075761038e565b8063aaa48e9f14611194578063ab9e4937146111ec578063afdd3fc3146113905761038e565b80638b30b5161161017c57806395d89b411161015657806395d89b4114610ffb5780639602e9f81461107e578063a457c2d7146110c8578063a9059cbb1461112e5761038e565b80638b30b51614610f4d5780638da5cb5b14610f8f5780638f32d59b14610fd95761038e565b80638129fc1c116101b85780638129fc1c14610e7d57806382dc1ec414610e875780638456cb5914610ecb5780638a279e8a14610ed55761038e565b80637d7c2a1c14610df35780637dc0d1d014610e155780637ff9b59614610e5f5761038e565b80633f4ba83a116102c357806354924507116102615780636ef8d66d116102305780636ef8d66d14610d1957806370a0823114610d23578063715018a614610d7b578063746daa4e14610d855761038e565b80635492450714610c225780635c975abb14610c405780636287fe2114610c6257806365ed6e2314610cba5761038e565b806346fbf68e1161029d57806346fbf68e146109f557806349219e5714610a5157806350b28af714610b3f5780635478786c14610bd85761038e565b80633f4ba83a1461091d578063412753581461092757806345c8026c146109715761038e565b80631f80b18a116103305780632befabbf1161030a5780632befabbf146107b7578063313ce5671461082557806336a000821461084957806339509351146108b75761038e565b80631f80b18a146106c957806323b872dd146106e757806323d39ab51461076d5761038e565b80630df94ef21161036c5780630df94ef2146104c65780631624f6c61461051e57806318160ddd1461067d578063194a62a81461069b5761038e565b806301d22ccd1461039357806306fdde03146103dd578063095ea7b314610460575b600080fd5b61039b611854565b604051808273ffffffffffffffffffffffffffffffffffffffff1673ffffffffffffffffffffffffffffffffffffffff16815260200191505060405180910390f35b6103e561187b565b6040518080602001828103825283818151815260200191508051906020019080838360005b8381101561042557808201518184015260208101905061040a565b50505050905090810190601f1680156104525780820380516001836020036101000a031916815260200191505b509250505060405180910390f35b6104ac6004803603604081101561047657600080fd5b81019080803573ffffffffffffffffffffffffffffffffffffffff1690602001909291908035906020019092919050505061191d565b604051808215151515815260200191505060405180910390f35b610508600480360360208110156104dc57600080fd5b81019080803573ffffffffffffffffffffffffffffffffffffffff16906020019092919050505061193b565b6040518082815260200191505060405180910390f35b61067b6004803603606081101561053457600080fd5b810190808035906020019064010000000081111561055157600080fd5b82018360208201111561056357600080fd5b8035906020019184600183028401116401000000008311171561058557600080fd5b91908080601f016020809104026020016040519081016040528093929190818152602001838380828437600081840152601f19601f820116905080830192505050505050509192919290803590602001906401000000008111156105e857600080fd5b8201836020820111156105fa57600080fd5b8035906020019184600183028401116401000000008311171561061c57600080fd5b91908080601f016020809104026020016040519081016040528093929190818152602001838380828437600081840152601f19601f820116905080830192505050505050509192919290803560ff169060200190929190505050611954565b005b610685611a9f565b6040518082815260200191505060405180910390f35b6106c7600480360360208110156106b157600080fd5b8101908080359060200190929190505050611aa9565b005b6106d1611e9b565b6040518082815260200191505060405180910390f35b610753600480360360608110156106fd57600080fd5b81019080803573ffffffffffffffffffffffffffffffffffffffff169060200190929190803573ffffffffffffffffffffffffffffffffffffffff16906020019092919080359060200190929190505050611eaa565b604051808215151515815260200191505060405180910390f35b610775611f59565b604051808273ffffffffffffffffffffffffffffffffffffffff1673ffffffffffffffffffffffffffffffffffffffff16815260200191505060405180910390f35b61080f600480360360608110156107cd57600080fd5b8101908080359060200190929190803515159060200190929190803573ffffffffffffffffffffffffffffffffffffffff169060200190929190505050611f80565b6040518082815260200191505060405180910390f35b61082d612267565b604051808260ff1660ff16815260200191505060405180910390f35b6108756004803603602081101561085f57600080fd5b810190808035906020019092919050505061227e565b604051808273ffffffffffffffffffffffffffffffffffffffff1673ffffffffffffffffffffffffffffffffffffffff16815260200191505060405180910390f35b610903600480360360408110156108cd57600080fd5b81019080803573ffffffffffffffffffffffffffffffffffffffff169060200190929190803590602001909291905050506122bb565b604051808215151515815260200191505060405180910390f35b61092561236e565b005b61092f6124de565b604051808273ffffffffffffffffffffffffffffffffffffffff1673ffffffffffffffffffffffffffffffffffffffff16815260200191505060405180910390f35b6109b36004803603602081101561098757600080fd5b81019080803573ffffffffffffffffffffffffffffffffffffffff169060200190929190505050612505565b604051808273ffffffffffffffffffffffffffffffffffffffff1673ffffffffffffffffffffffffffffffffffffffff16815260200191505060405180910390f35b610a3760048036036020811015610a0b57600080fd5b81019080803573ffffffffffffffffffffffffffffffffffffffff169060200190929190505050612539565b604051808215151515815260200191505060405180910390f35b610b3d60048036036060811015610a6757600080fd5b8101908080359060200190640100000000811115610a8457600080fd5b820183602082011115610a9657600080fd5b80359060200191846001830284011164010000000083111715610ab857600080fd5b909192939192939080359060200190640100000000811115610ad957600080fd5b820183602082011115610aeb57600080fd5b80359060200191846001830284011164010000000083111715610b0d57600080fd5b9091929391929390803573ffffffffffffffffffffffffffffffffffffffff169060200190929190505050612557565b005b610b8160048036036020811015610b5557600080fd5b81019080803573ffffffffffffffffffffffffffffffffffffffff169060200190929190505050612937565b6040518080602001828103825283818151815260200191508051906020019060200280838360005b83811015610bc4578082015181840152602081019050610ba9565b505050509050019250505060405180910390f35b610be0612af2565b604051808273ffffffffffffffffffffffffffffffffffffffff1673ffffffffffffffffffffffffffffffffffffffff16815260200191505060405180910390f35b610c2a612b0a565b6040518082815260200191505060405180910390f35b610c48612b11565b604051808215151515815260200191505060405180910390f35b610ca460048036036020811015610c7857600080fd5b81019080803573ffffffffffffffffffffffffffffffffffffffff169060200190929190505050612b29565b6040518082815260200191505060405180910390f35b610cc2612b42565b6040518080602001828103825283818151815260200191508051906020019060200280838360005b83811015610d05578082015181840152602081019050610cea565b505050509050019250505060405180910390f35b610d21612b9b565b005b610d6560048036036020811015610d3957600080fd5b81019080803573ffffffffffffffffffffffffffffffffffffffff169060200190929190505050612bad565b6040518082815260200191505060405180910390f35b610d83612bf6565b005b610db160048036036020811015610d9b57600080fd5b8101908080359060200190929190505050612d31565b604051808273ffffffffffffffffffffffffffffffffffffffff1673ffffffffffffffffffffffffffffffffffffffff16815260200191505060405180910390f35b610dfb612d6e565b604051808215151515815260200191505060405180910390f35b610e1d612d7d565b604051808273ffffffffffffffffffffffffffffffffffffffff1673ffffffffffffffffffffffffffffffffffffffff16815260200191505060405180910390f35b610e67612da4565b6040518082815260200191505060405180910390f35b610e85612db3565b005b610ec960048036036020811015610e9d57600080fd5b81019080803573ffffffffffffffffffffffffffffffffffffffff169060200190929190505050612f03565b005b610ed3612f74565b005b610f3760048036036040811015610eeb57600080fd5b81019080803573ffffffffffffffffffffffffffffffffffffffff169060200190929190803573ffffffffffffffffffffffffffffffffffffffff1690602001909291905050506130e5565b6040518082815260200191505060405180910390f35b610f7960048036036020811015610f6357600080fd5b810190808035906020019092919050505061310b565b6040518082815260200191505060405180910390f35b610f976134e9565b604051808273ffffffffffffffffffffffffffffffffffffffff1673ffffffffffffffffffffffffffffffffffffffff16815260200191505060405180910390f35b610fe1613513565b604051808215151515815260200191505060405180910390f35b611003613572565b6040518080602001828103825283818151815260200191508051906020019080838360005b83811015611043578082015181840152602081019050611028565b50505050905090810190601f1680156110705780820380516001836020036101000a031916815260200191505b509250505060405180910390f35b611086613614565b604051808273ffffffffffffffffffffffffffffffffffffffff1673ffffffffffffffffffffffffffffffffffffffff16815260200191505060405180910390f35b611114600480360360408110156110de57600080fd5b81019080803573ffffffffffffffffffffffffffffffffffffffff1690602001909291908035906020019092919050505061362c565b604051808215151515815260200191505060405180910390f35b61117a6004803603604081101561114457600080fd5b81019080803573ffffffffffffffffffffffffffffffffffffffff169060200190929190803590602001909291905050506136f9565b604051808215151515815260200191505060405180910390f35b6111d6600480360360208110156111aa57600080fd5b81019080803573ffffffffffffffffffffffffffffffffffffffff169060200190929190505050613767565b6040518082815260200191505060405180910390f35b61138e600480360360c081101561120257600080fd5b810190808035906020019064010000000081111561121f57600080fd5b82018360208201111561123157600080fd5b8035906020019184602083028401116401000000008311171561125357600080fd5b90919293919293908035906020019064010000000081111561127457600080fd5b82018360208201111561128657600080fd5b803590602001918460208302840111640100000000831117156112a857600080fd5b9091929391929390803590602001906401000000008111156112c957600080fd5b8201836020820111156112db57600080fd5b803590602001918460208302840111640100000000831117156112fd57600080fd5b90919293919293908035906020019064010000000081111561131e57600080fd5b82018360208201111561133057600080fd5b8035906020019184602083028401116401000000008311171561135257600080fd5b9091929391929390803515159060200190929190803573ffffffffffffffffffffffffffffffffffffffff169060200190929190505050613780565b005b6113bc600480360360208110156113a657600080fd5b8101908080359060200190929190505050613b00565b6040518082815260200191505060405180910390f35b6113da613b22565b604051808060200180602001838103835285818151815260200191508051906020019060200280838360005b83811015611421578082015181840152602081019050611406565b50505050905001838103825284818151815260200191508051906020019060200280838360005b83811015611463578082015181840152602081019050611448565b5050505090500194505050505060405180910390f35b611481613d39565b604051808273ffffffffffffffffffffffffffffffffffffffff1673ffffffffffffffffffffffffffffffffffffffff16815260200191505060405180910390f35b611505600480360360208110156114d957600080fd5b81019080803573ffffffffffffffffffffffffffffffffffffffff169060200190929190505050613d51565b005b61150f613e76565b604051808215151515815260200191505060405180910390f35b6116566004803603608081101561153f57600080fd5b810190808035906020019064010000000081111561155c57600080fd5b82018360208201111561156e57600080fd5b8035906020019184602083028401116401000000008311171561159057600080fd5b9091929391929390803590602001906401000000008111156115b157600080fd5b8201836020820111156115c357600080fd5b803590602001918460208302840111640100000000831117156115e557600080fd5b90919293919293908035906020019064010000000081111561160657600080fd5b82018360208201111561161857600080fd5b8035906020019184602083028401116401000000008311171561163a57600080fd5b9091929391929390803515159060200190929190505050613e8a565b005b6116cf6004803603602081101561166e57600080fd5b810190808035906020019064010000000081111561168b57600080fd5b82018360208201111561169d57600080fd5b803590602001918460208302840111640100000000831117156116bf57600080fd5b9091929391929390505050614224565b60405180831515151581526020018281526020019250505060405180910390f35b6116f8614422565b604051808215151515815260200191505060405180910390f35b6117746004803603604081101561172857600080fd5b81019080803573ffffffffffffffffffffffffffffffffffffffff169060200190929190803573ffffffffffffffffffffffffffffffffffffffff169060200190929190505050614445565b6040518082815260200191505060405180910390f35b6117926144cc565b6040518082815260200191505060405180910390f35b6117b06144d3565b6040518082815260200191505060405180910390f35b611808600480360360208110156117dc57600080fd5b81019080803573ffffffffffffffffffffffffffffffffffffffff1690602001909291905050506144da565b005b611812614560565b604051808273ffffffffffffffffffffffffffffffffffffffff1673ffffffffffffffffffffffffffffffffffffffff16815260200191505060405180910390f35b61016d60009054906101000a900473ffffffffffffffffffffffffffffffffffffffff1681565b606060688054600181600116156101000203166002900480601f0160208091040260200160405190810160405280929190818152602001828054600181600116156101000203166002900480156119135780601f106118e857610100808354040283529160200191611913565b820191906000526020600020905b8154815290600101906020018083116118f657829003601f168201915b5050505050905090565b600061193161192a614587565b848461458f565b6001905092915050565b6101766020528060005260406000206000915090505481565b600060019054906101000a900460ff16806119735750611972614786565b5b8061198a57506000809054906101000a900460ff16155b6119df576040517f08c379a000000000000000000000000000000000000000000000000000000000815260040180806020018281038252602e815260200180619e60602e913960400191505060405180910390fd5b60008060019054906101000a900460ff161590508015611a2f576001600060016101000a81548160ff02191690831515021790555060016000806101000a81548160ff0219169083151502179055505b8360689080519060200190611a45929190619aad565b508260699080519060200190611a5c929190619aad565b5081606a60006101000a81548160ff021916908360ff1602179055508015611a995760008060016101000a81548160ff0219169083151502179055505b50505050565b6000603554905090565b6001609d600082825401925050819055506000609d54905061013660009054906101000a900460ff16611b44576040517f08c379a00000000000000000000000000000000000000000000000000000000081526004018080602001828103825260148152602001807f5061757361626c653a206e6f742070617573656400000000000000000000000081525060200191505060405180910390fd5b611b4c61479d565b611b57336000614875565b6000611b61611a9f565b9050600080600090505b61017380549050811015611cc7576101738181548110611b8757fe5b9060005260206000200160009054906101000a900473ffffffffffffffffffffffffffffffffffffffff169150611cba33611c9485611c868673ffffffffffffffffffffffffffffffffffffffff166370a08231306040518263ffffffff1660e01b8152600401808273ffffffffffffffffffffffffffffffffffffffff1673ffffffffffffffffffffffffffffffffffffffff16815260200191505060206040518083038186803b158015611c3c57600080fd5b505afa158015611c50573d6000803e3d6000fd5b505050506040513d6020811015611c6657600080fd5b81019080805190602001909291905050508a61512e90919063ffffffff16565b6151b490919063ffffffff16565b8473ffffffffffffffffffffffffffffffffffffffff166151fe9092919063ffffffff16565b8080600101915050611b6b565b50611e1433611dcb84611dbd61016a60009054906101000a900473ffffffffffffffffffffffffffffffffffffffff1673ffffffffffffffffffffffffffffffffffffffff166370a08231306040518263ffffffff1660e01b8152600401808273ffffffffffffffffffffffffffffffffffffffff1673ffffffffffffffffffffffffffffffffffffffff16815260200191505060206040518083038186803b158015611d7357600080fd5b505afa158015611d87573d6000803e3d6000fd5b505050506040513d6020811015611d9d57600080fd5b81019080805190602001909291905050508961512e90919063ffffffff16565b6151b490919063ffffffff16565b61016a60009054906101000a900473ffffffffffffffffffffffffffffffffffffffff1673ffffffffffffffffffffffffffffffffffffffff166151fe9092919063ffffffff16565b611e1e33856152cf565b5050609d548114611e97576040517f08c379a000000000000000000000000000000000000000000000000000000000815260040180806020018281038252601f8152602001807f5265656e7472616e637947756172643a207265656e7472616e742063616c6c0081525060200191505060405180910390fd5b5050565b6000611ea5615489565b905090565b6000611eb7848484615743565b611ec2848484615b54565b611f028433611efd85604051806060016040528060288152602001619e1660289139611eee8a33614445565b615e0e9092919063ffffffff16565b61458f565b611f4e84848461017660008973ffffffffffffffffffffffffffffffffffffffff1673ffffffffffffffffffffffffffffffffffffffff16815260200190815260200160002054615ece565b600190509392505050565b61016960009054906101000a900473ffffffffffffffffffffffffffffffffffffffff1681565b60006001609d600082825401925050819055506000609d54905061013660009054906101000a900460ff161561201e576040517f08c379a00000000000000000000000000000000000000000000000000000000081526004018080602001828103825260108152602001807f5061757361626c653a207061757365640000000000000000000000000000000081525060200191505060405180910390fd5b3243604051602001808373ffffffffffffffffffffffffffffffffffffffff1673ffffffffffffffffffffffffffffffffffffffff1660601b8152601401828152602001925050506040516020818303038152906040528051906020012061017c8190555061208e336000614875565b600061209861625c565b90506120ea33308861016a60009054906101000a900473ffffffffffffffffffffffffffffffffffffffff1673ffffffffffffffffffffffffffffffffffffffff166165b2909392919063ffffffff16565b846120f9576120f76166b8565b505b61212681612118670de0b6b3a76400008961512e90919063ffffffff16565b6151b490919063ffffffff16565b92506121323384616e31565b61213d338483616fee565b61214733846171db565b600073ffffffffffffffffffffffffffffffffffffffff168473ffffffffffffffffffffffffffffffffffffffff16146121e7577f496d589d8b7eb829a8d7b30e24a326ac33991f5cea96429b69231a6b15b54b1d8685604051808381526020018273ffffffffffffffffffffffffffffffffffffffff1673ffffffffffffffffffffffffffffffffffffffff1681526020019250505060405180910390a15b50609d54811461225f576040517f08c379a000000000000000000000000000000000000000000000000000000000815260040180806020018281038252601f8152602001807f5265656e7472616e637947756172643a207265656e7472616e742063616c6c0081525060200191505060405180910390fd5b509392505050565b6000606a60009054906101000a900460ff16905090565b610173818154811061228c57fe5b906000526020600020016000915054906101000a900473ffffffffffffffffffffffffffffffffffffffff1681565b60006123646122c8614587565b8461235f85603460006122d9614587565b73ffffffffffffffffffffffffffffffffffffffff1673ffffffffffffffffffffffffffffffffffffffff16815260200190815260200160002060008973ffffffffffffffffffffffffffffffffffffffff1673ffffffffffffffffffffffffffffffffffffffff168152602001908152602001600020546173f090919063ffffffff16565b61458f565b6001905092915050565b61237e612379614587565b612539565b6123d3576040517f08c379a0000000000000000000000000000000000000000000000000000000008152600401808060200182810382526030815260200180619d366030913960400191505060405180910390fd5b61013660009054906101000a900460ff16612456576040517f08c379a00000000000000000000000000000000000000000000000000000000081526004018080602001828103825260148152602001807f5061757361626c653a206e6f742070617573656400000000000000000000000081525060200191505060405180910390fd5b600061013660006101000a81548160ff0219169083151502179055507f5db9ee0a495bf2e6ff9c91a7834c1ba4fdd244a5e8aa4e537bd38aeae4b073aa61249b614587565b604051808273ffffffffffffffffffffffffffffffffffffffff1673ffffffffffffffffffffffffffffffffffffffff16815260200191505060405180910390a1565b61016e60009054906101000a900473ffffffffffffffffffffffffffffffffffffffff1681565b6101776020528060005260406000206000915054906101000a900473ffffffffffffffffffffffffffffffffffffffff1681565b60006125508261010361747890919063ffffffff16565b9050919050565b600060019054906101000a900460ff16806125765750612575614786565b5b8061258d57506000809054906101000a900460ff16155b6125e2576040517f08c379a000000000000000000000000000000000000000000000000000000000815260040180806020018281038252602e815260200180619e60602e913960400191505060405180910390fd5b60008060019054906101000a900460ff161590508015612632576001600060016101000a81548160ff02191690831515021790555060016000806101000a81548160ff0219169083151502179055505b6126c686868080601f016020809104026020016040519081016040528093929190818152602001838380828437600081840152601f19601f8201169050808301925050505050505085858080601f016020809104026020016040519081016040528093929190818152602001838380828437600081840152601f19601f820116905080830192505050505050506012611954565b6126cf33617556565b6126d833613d51565b6126e0617714565b6126e8612db3565b6103e8610171819055508161016a60006101000a81548173ffffffffffffffffffffffffffffffffffffffff021916908373ffffffffffffffffffffffffffffffffffffffff1602179055508173ffffffffffffffffffffffffffffffffffffffff1663313ce5676040518163ffffffff1660e01b815260040160206040518083038186803b15801561277a57600080fd5b505afa15801561278e573d6000803e3d6000fd5b505050506040513d60208110156127a457600080fd5b810190808051906020019092919050505060ff166101708190555073972a64d108e250df98dbeac8170678501f5ef18161017d60006101000a81548173ffffffffffffffffffffffffffffffffffffffff021916908373ffffffffffffffffffffffffffffffffffffffff1602179055507369a62c24f16d4914a48919613e8ee330641bcb9461016e60006101000a81548173ffffffffffffffffffffffffffffffffffffffff021916908373ffffffffffffffffffffffffffffffffffffffff16021790555073b3c8e5534f0063545cbbb7ce86854bf42db8872b61016d60006101000a81548173ffffffffffffffffffffffffffffffffffffffff021916908373ffffffffffffffffffffffffffffffffffffffff16021790555061271061017281905550600061016b60006101000a81548173ffffffffffffffffffffffffffffffffffffffff021916908373ffffffffffffffffffffffffffffffffffffffff160217905550801561292f5760008060016101000a81548160ff0219169083151502179055505b505050505050565b606060008061294584612bad565b90506101748054905060405190808252806020026020018201604052801561297c5781602001602082028038833980820191505090505b50925060008090505b8351811015612aea57610174818154811061299c57fe5b9060005260206000200160009054906101000a900473ffffffffffffffffffffffffffffffffffffffff169250612ac5670de0b6b3a7640000612ab7612aa861017960008873ffffffffffffffffffffffffffffffffffffffff1673ffffffffffffffffffffffffffffffffffffffff16815260200190815260200160002060008a73ffffffffffffffffffffffffffffffffffffffff1673ffffffffffffffffffffffffffffffffffffffff1681526020019081526020016000205461017a60008973ffffffffffffffffffffffffffffffffffffffff1673ffffffffffffffffffffffffffffffffffffffff1681526020019081526020016000205461781b90919063ffffffff16565b8561512e90919063ffffffff16565b6151b490919063ffffffff16565b848281518110612ad157fe5b6020026020010181815250508080600101915050612985565b505050919050565b73875773784af8135ea0ef43b5a374aad105c5d39e81565b6101715481565b600061013660009054906101000a900460ff16905090565b6101786020528060005260406000206000915090505481565b6060610180805480602002602001604051908101604052809291908181526020018280548015612b9157602002820191906000526020600020905b815481526020019060010190808311612b7d575b5050505050905090565b612bab612ba6614587565b617865565b565b6000603360008373ffffffffffffffffffffffffffffffffffffffff1673ffffffffffffffffffffffffffffffffffffffff168152602001908152602001600020549050919050565b612bfe613513565b612c70576040517f08c379a00000000000000000000000000000000000000000000000000000000081526004018080602001828103825260208152602001807f4f776e61626c653a2063616c6c6572206973206e6f7420746865206f776e657281525060200191505060405180910390fd5b600073ffffffffffffffffffffffffffffffffffffffff1660d060009054906101000a900473ffffffffffffffffffffffffffffffffffffffff1673ffffffffffffffffffffffffffffffffffffffff167f8be0079c531659141344cd1fd0a4f28419497f9722a3daafe3b4186f6b6457e060405160405180910390a3600060d060006101000a81548173ffffffffffffffffffffffffffffffffffffffff021916908373ffffffffffffffffffffffffffffffffffffffff160217905550565b6101748181548110612d3f57fe5b906000526020600020016000915054906101000a900473ffffffffffffffffffffffffffffffffffffffff1681565b6000612d786166b8565b905090565b61017d60009054906101000a900473ffffffffffffffffffffffffffffffffffffffff1681565b6000612dae61625c565b905090565b600060019054906101000a900460ff1680612dd25750612dd1614786565b5b80612de957506000809054906101000a900460ff16155b612e3e576040517f08c379a000000000000000000000000000000000000000000000000000000000815260040180806020018281038252602e815260200180619e60602e913960400191505060405180910390fd5b60008060019054906101000a900460ff161590508015612e8e576001600060016101000a81548160ff02191690831515021790555060016000806101000a81548160ff0219169083151502179055505b6eb3f879cb30fe243b4dfee438691c0461016960006101000a81548173ffffffffffffffffffffffffffffffffffffffff021916908373ffffffffffffffffffffffffffffffffffffffff1602179055508015612f005760008060016101000a81548160ff0219169083151502179055505b50565b612f13612f0e614587565b612539565b612f68576040517f08c379a0000000000000000000000000000000000000000000000000000000008152600401808060200182810382526030815260200180619d366030913960400191505060405180910390fd5b612f71816178c0565b50565b612f84612f7f614587565b612539565b612fd9576040517f08c379a0000000000000000000000000000000000000000000000000000000008152600401808060200182810382526030815260200180619d366030913960400191505060405180910390fd5b61013660009054906101000a900460ff161561305d576040517f08c379a00000000000000000000000000000000000000000000000000000000081526004018080602001828103825260108152602001807f5061757361626c653a207061757365640000000000000000000000000000000081525060200191505060405180910390fd5b600161013660006101000a81548160ff0219169083151502179055507f62e78cea01bee320cd4e420270b5ea74000d11b0c9f74754ebdbfc544b05a2586130a2614587565b604051808273ffffffffffffffffffffffffffffffffffffffff1673ffffffffffffffffffffffffffffffffffffffff16815260200191505060405180910390a1565b610179602052816000526040600020602052806000526040600020600091509150505481565b60006001609d600082825401925050819055506000609d54905061312d61479d565b613138336000614875565b600061314261625c565b90506000613173670de0b6b3a7640000613165848861512e90919063ffffffff16565b6151b490919063ffffffff16565b9050600061016a60009054906101000a900473ffffffffffffffffffffffffffffffffffffffff1673ffffffffffffffffffffffffffffffffffffffff166370a08231306040518263ffffffff1660e01b8152600401808273ffffffffffffffffffffffffffffffffffffffff1673ffffffffffffffffffffffffffffffffffffffff16815260200191505060206040518083038186803b15801561321757600080fd5b505afa15801561322b573d6000803e3d6000fd5b505050506040513d602081101561324157600080fd5b81019080805190602001909291905050509050600061325e611a9f565b905081831161326f57829550613403565b600080600090505b610173805490508110156133c757610173818154811061329357fe5b9060005260206000200160009054906101000a900473ffffffffffffffffffffffffffffffffffffffff1691506133b86133a9836133a3866133958773ffffffffffffffffffffffffffffffffffffffff166370a08231306040518263ffffffff1660e01b8152600401808273ffffffffffffffffffffffffffffffffffffffff1673ffffffffffffffffffffffffffffffffffffffff16815260200191505060206040518083038186803b15801561334b57600080fd5b505afa15801561335f573d6000803e3d6000fd5b505050506040513d602081101561337557600080fd5b81019080805190602001909291905050508f61512e90919063ffffffff16565b6151b490919063ffffffff16565b3061791b565b896173f090919063ffffffff16565b97508080600101915050613277565b506133ff6133f0836133e2868c61512e90919063ffffffff16565b6151b490919063ffffffff16565b886173f090919063ffffffff16565b9650505b61340e878786617adc565b955061341a33886152cf565b613468338761016a60009054906101000a900473ffffffffffffffffffffffffffffffffffffffff1673ffffffffffffffffffffffffffffffffffffffff166151fe9092919063ffffffff16565b50505050609d5481146134e3576040517f08c379a000000000000000000000000000000000000000000000000000000000815260040180806020018281038252601f8152602001807f5265656e7472616e637947756172643a207265656e7472616e742063616c6c0081525060200191505060405180910390fd5b50919050565b600060d060009054906101000a900473ffffffffffffffffffffffffffffffffffffffff16905090565b600060d060009054906101000a900473ffffffffffffffffffffffffffffffffffffffff1673ffffffffffffffffffffffffffffffffffffffff16613556614587565b73ffffffffffffffffffffffffffffffffffffffff1614905090565b606060698054600181600116156101000203166002900480601f01602080910402602001604051908101604052809291908181526020018280546001816001161561010002031660029004801561360a5780601f106135df5761010080835404028352916020019161360a565b820191906000526020600020905b8154815290600101906020018083116135ed57829003601f168201915b5050505050905090565b73275da8e61ea8e02d51edd8d0dc5c0e62b4cdb0be81565b60006136ef613639614587565b846136ea85604051806060016040528060258152602001619f226025913960346000613663614587565b73ffffffffffffffffffffffffffffffffffffffff1673ffffffffffffffffffffffffffffffffffffffff16815260200190815260200160002060008a73ffffffffffffffffffffffffffffffffffffffff1673ffffffffffffffffffffffffffffffffffffffff16815260200190815260200160002054615e0e9092919063ffffffff16565b61458f565b6001905092915050565b6000613706338484615743565b613711338484615b54565b61375d33848461017660003373ffffffffffffffffffffffffffffffffffffffff1673ffffffffffffffffffffffffffffffffffffffff16815260200190815260200160002054615ece565b6001905092915050565b61017a6020528060005260406000206000915090505481565b613788613513565b6137fa576040517f08c379a00000000000000000000000000000000000000000000000000000000081526004018080602001828103825260208152602001807f4f776e61626c653a2063616c6c6572206973206e6f7420746865206f776e657281525060200191505060405180910390fd5b8061016c60006101000a81548173ffffffffffffffffffffffffffffffffffffffff021916908373ffffffffffffffffffffffffffffffffffffffff1602179055508161017f60006101000a81548160ff02191690831515021790555087876101739190613869929190619b2d565b508989610174919061387c929190619b2d565b5060008090505b88889050811015613abb5786868281811061389a57fe5b9050602002013573ffffffffffffffffffffffffffffffffffffffff1661017760008b8b858181106138c857fe5b9050602002013573ffffffffffffffffffffffffffffffffffffffff1673ffffffffffffffffffffffffffffffffffffffff1673ffffffffffffffffffffffffffffffffffffffff16815260200190815260200160002060006101000a81548173ffffffffffffffffffffffffffffffffffffffff021916908373ffffffffffffffffffffffffffffffffffffffff1602179055508a8a9050811015613aad5773875773784af8135ea0ef43b5a374aad105c5d39e73ffffffffffffffffffffffffffffffffffffffff168b8b8381811061399f57fe5b9050602002013573ffffffffffffffffffffffffffffffffffffffff1673ffffffffffffffffffffffffffffffffffffffff1614156139dd57613aae565b8a8a828181106139e957fe5b9050602002013573ffffffffffffffffffffffffffffffffffffffff1661017e60008b8b85818110613a1757fe5b9050602002013573ffffffffffffffffffffffffffffffffffffffff1673ffffffffffffffffffffffffffffffffffffffff1673ffffffffffffffffffffffffffffffffffffffff16815260200190815260200160002060006101000a81548173ffffffffffffffffffffffffffffffffffffffff021916908373ffffffffffffffffffffffffffffffffffffffff1602179055505b5b8080600101915050613883565b5083836101809190613ace929190619bcd565b50613aec73ada343cb6820f4f5001749892f6caa9920129f2a612f03565b613af4612b9b565b50505050505050505050565b6101758181548110613b0e57fe5b906000526020600020016000915090505481565b606080600061017380549050604051908082528060200260200182016040528015613b5c5781602001602082028038833980820191505090505b50925061017380549050604051908082528060200260200182016040528015613b945781602001602082028038833980820191505090505b50915060008090505b61017380549050811015613d33576101738181548110613bb957fe5b9060005260206000200160009054906101000a900473ffffffffffffffffffffffffffffffffffffffff16915081848281518110613bf357fe5b602002602001019073ffffffffffffffffffffffffffffffffffffffff16908173ffffffffffffffffffffffffffffffffffffffff168152505061017760008373ffffffffffffffffffffffffffffffffffffffff1673ffffffffffffffffffffffffffffffffffffffff16815260200190815260200160002060009054906101000a900473ffffffffffffffffffffffffffffffffffffffff1673ffffffffffffffffffffffffffffffffffffffff1663c89d5b8b6040518163ffffffff1660e01b815260040160206040518083038186803b158015613cd357600080fd5b505afa158015613ce7573d6000803e3d6000fd5b505050506040513d6020811015613cfd57600080fd5b8101908080519060200190929190505050838281518110613d1a57fe5b6020026020010181815250508080600101915050613b9d565b50509091565b73c00e94cb662c3520282e6f5717214004a7f2688881565b600060019054906101000a900460ff1680613d705750613d6f614786565b5b80613d8757506000809054906101000a900460ff16155b613ddc576040517f08c379a000000000000000000000000000000000000000000000000000000000815260040180806020018281038252602e815260200180619e60602e913960400191505060405180910390fd5b60008060019054906101000a900460ff161590508015613e2c576001600060016101000a81548160ff02191690831515021790555060016000806101000a81548160ff0219169083151502179055505b613e3582617d97565b600061013660006101000a81548160ff0219169083151502179055508015613e725760008060016101000a81548160ff0219169083151502179055505b5050565b61017f60009054906101000a900460ff1681565b613e92613513565b613f04576040517f08c379a00000000000000000000000000000000000000000000000000000000081526004018080602001828103825260208152602001807f4f776e61626c653a2063616c6c6572206973206e6f7420746865206f776e657281525060200191505060405180910390fd5b8484905087879050148015613f26575084849050838390501480613f255750805b5b613f98576040517f08c379a000000000000000000000000000000000000000000000000000000000815260040180806020018281038252600d8152602001807f49444c453a4c454e5f444946460000000000000000000000000000000000000081525060200191505060405180910390fd5b60008090505b878790508110156141b157600073ffffffffffffffffffffffffffffffffffffffff16888883818110613fcd57fe5b9050602002013573ffffffffffffffffffffffffffffffffffffffff1673ffffffffffffffffffffffffffffffffffffffff16141580156140635750600073ffffffffffffffffffffffffffffffffffffffff1686868381811061402d57fe5b9050602002013573ffffffffffffffffffffffffffffffffffffffff1673ffffffffffffffffffffffffffffffffffffffff1614155b6140d5576040517f08c379a00000000000000000000000000000000000000000000000000000000081526004018080602001828103825260098152602001807f49444c453a49535f30000000000000000000000000000000000000000000000081525060200191505060405180910390fd5b8585828181106140e157fe5b9050602002013573ffffffffffffffffffffffffffffffffffffffff1661017760008a8a8581811061410f57fe5b9050602002013573ffffffffffffffffffffffffffffffffffffffff1673ffffffffffffffffffffffffffffffffffffffff1673ffffffffffffffffffffffffffffffffffffffff16815260200190815260200160002060006101000a81548173ffffffffffffffffffffffffffffffffffffffff021916908373ffffffffffffffffffffffffffffffffffffffff1602179055508080600101915050613f9e565b50868661017391906141c4929190619b2d565b5080156141d05761421b565b61421a838380806020026020016040519081016040528093929190818152602001838360200280828437600081840152601f19601f82011690508083019250505050505050617eae565b5b50505050505050565b60008061013660009054906101000a900460ff16156142ab576040517f08c379a00000000000000000000000000000000000000000000000000000000081526004018080602001828103825260108152602001807f5061757361626c653a207061757365640000000000000000000000000000000081525060200191505060405180910390fd5b61017f60009054906101000a900460ff161561432f576040517f08c379a00000000000000000000000000000000000000000000000000000000081526004018080602001828103825260108152602001807f49444c453a4e4f545f414c4c4f5745440000000000000000000000000000000081525060200191505060405180910390fd5b6000614339615489565b9050614385858580806020026020016040519081016040528093929190818152602001838360200280828437600081840152601f19601f82011690508083019250505050505050617eae565b600061438f6166b8565b9050600061439b615489565b9050828111614412576040517f08c379a000000000000000000000000000000000000000000000000000000000815260040180806020018281038252600f8152602001807f49444c453a4e4f545f494d50524f56000000000000000000000000000000000081525060200191505060405180910390fd5b8181945094505050509250929050565b60003360005a90506144326166b8565b92506144405a820383618005565b505090565b6000603460008473ffffffffffffffffffffffffffffffffffffffff1673ffffffffffffffffffffffffffffffffffffffff16815260200190815260200160002060008373ffffffffffffffffffffffffffffffffffffffff1673ffffffffffffffffffffffffffffffffffffffff16815260200190815260200160002054905092915050565b6101725481565b61016f5481565b6144e2613513565b614554576040517f08c379a00000000000000000000000000000000000000000000000000000000081526004018080602001828103825260208152602001807f4f776e61626c653a2063616c6c6572206973206e6f7420746865206f776e657281525060200191505060405180910390fd5b61455d8161813e565b50565b61016a60009054906101000a900473ffffffffffffffffffffffffffffffffffffffff1681565b600033905090565b600073ffffffffffffffffffffffffffffffffffffffff168373ffffffffffffffffffffffffffffffffffffffff161415614615576040517f08c379a0000000000000000000000000000000000000000000000000000000008152600401808060200182810382526024815260200180619ed46024913960400191505060405180910390fd5b600073ffffffffffffffffffffffffffffffffffffffff168273ffffffffffffffffffffffffffffffffffffffff16141561469b576040517f08c379a0000000000000000000000000000000000000000000000000000000008152600401808060200182810382526022815260200180619d8c6022913960400191505060405180910390fd5b80603460008573ffffffffffffffffffffffffffffffffffffffff1673ffffffffffffffffffffffffffffffffffffffff16815260200190815260200160002060008473ffffffffffffffffffffffffffffffffffffffff1673ffffffffffffffffffffffffffffffffffffffff168152602001908152602001600020819055508173ffffffffffffffffffffffffffffffffffffffff168373ffffffffffffffffffffffffffffffffffffffff167f8c5be1e5ebec7d5bd14f71427d1e84f3dd0314c0f7b2291e5b200ac8c7c3b925836040518082815260200191505060405180910390a3505050565b6000803090506000813b9050600081149250505090565b61017c543243604051602001808373ffffffffffffffffffffffffffffffffffffffff1673ffffffffffffffffffffffffffffffffffffffff1660601b815260140182815260200192505050604051602081830303815290604052805190602001201415614873576040517f08c379a000000000000000000000000000000000000000000000000000000000815260040180806020018281038252600b8152602001807f49444c453a5245454e545200000000000000000000000000000000000000000081525060200191505060405180910390fd5b565b60006101748054905014156148895761512a565b6000614893611a9f565b905060006148a084612bad565b9050600080600090505b610174805490508110156151255761017481815481106148c657fe5b9060005260206000200160009054906101000a900473ffffffffffffffffffffffffffffffffffffffff1691506000841115614b2d578461490b5761490a82618284565b5b60008273ffffffffffffffffffffffffffffffffffffffff166370a08231306040518263ffffffff1660e01b8152600401808273ffffffffffffffffffffffffffffffffffffffff1673ffffffffffffffffffffffffffffffffffffffff16815260200191505060206040518083038186803b15801561498a57600080fd5b505afa15801561499e573d6000803e3d6000fd5b505050506040513d60208110156149b457600080fd5b810190808051906020019092919050505090506000811115614b2b57614aa1614a5286614a44670de0b6b3a7640000614a3661017860008a73ffffffffffffffffffffffffffffffffffffffff1673ffffffffffffffffffffffffffffffffffffffff168152602001908152602001600020548761781b90919063ffffffff16565b61512e90919063ffffffff16565b6151b490919063ffffffff16565b61017a60008673ffffffffffffffffffffffffffffffffffffffff1673ffffffffffffffffffffffffffffffffffffffff168152602001908152602001600020546173f090919063ffffffff16565b61017a60008573ffffffffffffffffffffffffffffffffffffffff1673ffffffffffffffffffffffffffffffffffffffff168152602001908152602001600020819055508061017860008573ffffffffffffffffffffffffffffffffffffffff1673ffffffffffffffffffffffffffffffffffffffff168152602001908152602001600020819055505b505b6000831115615054578461504f57600061017960008473ffffffffffffffffffffffffffffffffffffffff1673ffffffffffffffffffffffffffffffffffffffff16815260200190815260200160002060008873ffffffffffffffffffffffffffffffffffffffff1673ffffffffffffffffffffffffffffffffffffffff16815260200190815260200160002054905061017a60008473ffffffffffffffffffffffffffffffffffffffff1673ffffffffffffffffffffffffffffffffffffffff1681526020019081526020016000205461017960008573ffffffffffffffffffffffffffffffffffffffff1673ffffffffffffffffffffffffffffffffffffffff16815260200190815260200160002060008973ffffffffffffffffffffffffffffffffffffffff1673ffffffffffffffffffffffffffffffffffffffff168152602001908152602001600020819055506000614cd48261017a60008773ffffffffffffffffffffffffffffffffffffffff1673ffffffffffffffffffffffffffffffffffffffff1681526020019081526020016000205461781b90919063ffffffff16565b90506000811415614ce6575050615118565b6000614d15670de0b6b3a7640000614d07848961512e90919063ffffffff16565b6151b490919063ffffffff16565b905060008573ffffffffffffffffffffffffffffffffffffffff166370a08231306040518263ffffffff1660e01b8152600401808273ffffffffffffffffffffffffffffffffffffffff1673ffffffffffffffffffffffffffffffffffffffff16815260200191505060206040518083038186803b158015614d9657600080fd5b505afa158015614daa573d6000803e3d6000fd5b505050506040513d6020811015614dc057600080fd5b8101908080519060200190929190505050905080821115614ddf578091505b60008073ffffffffffffffffffffffffffffffffffffffff1661016e60009054906101000a900473ffffffffffffffffffffffffffffffffffffffff1673ffffffffffffffffffffffffffffffffffffffff1614158015614e435750600061017254115b8015614e8f575073875773784af8135ea0ef43b5a374aad105c5d39e73ffffffffffffffffffffffffffffffffffffffff168773ffffffffffffffffffffffffffffffffffffffff1614155b15614f1057614ebf620186a0614eb1610172548661512e90919063ffffffff16565b6151b490919063ffffffff16565b9050614f0f61016e60009054906101000a900473ffffffffffffffffffffffffffffffffffffffff16828973ffffffffffffffffffffffffffffffffffffffff166151fe9092919063ffffffff16565b5b614f4d8b614f27838661781b90919063ffffffff16565b8973ffffffffffffffffffffffffffffffffffffffff166151fe9092919063ffffffff16565b8673ffffffffffffffffffffffffffffffffffffffff166370a08231306040518263ffffffff1660e01b8152600401808273ffffffffffffffffffffffffffffffffffffffff1673ffffffffffffffffffffffffffffffffffffffff16815260200191505060206040518083038186803b158015614fca57600080fd5b505afa158015614fde573d6000803e3d6000fd5b505050506040513d6020811015614ff457600080fd5b810190808051906020019092919050505061017860008973ffffffffffffffffffffffffffffffffffffffff1673ffffffffffffffffffffffffffffffffffffffff1681526020019081526020016000208190555050505050505b615117565b61017a60008373ffffffffffffffffffffffffffffffffffffffff1673ffffffffffffffffffffffffffffffffffffffff1681526020019081526020016000205461017960008473ffffffffffffffffffffffffffffffffffffffff1673ffffffffffffffffffffffffffffffffffffffff16815260200190815260200160002060008873ffffffffffffffffffffffffffffffffffffffff1673ffffffffffffffffffffffffffffffffffffffff168152602001908152602001600020819055505b5b80806001019150506148aa565b505050505b5050565b60008083141561514157600090506151ae565b600082840290508284828161515257fe5b04146151a9576040517f08c379a0000000000000000000000000000000000000000000000000000000008152600401808060200182810382526021815260200180619df56021913960400191505060405180910390fd5b809150505b92915050565b60006151f683836040518060400160405280601a81526020017f536166654d6174683a206469766973696f6e206279207a65726f0000000000008152506187e4565b905092915050565b6152ca838473ffffffffffffffffffffffffffffffffffffffff1663a9059cbb905060e01b8484604051602401808373ffffffffffffffffffffffffffffffffffffffff1673ffffffffffffffffffffffffffffffffffffffff16815260200182815260200192505050604051602081830303815290604052907bffffffffffffffffffffffffffffffffffffffffffffffffffffffff19166020820180517bffffffffffffffffffffffffffffffffffffffffffffffffffffffff83818316178352505050506188aa565b505050565b600073ffffffffffffffffffffffffffffffffffffffff168273ffffffffffffffffffffffffffffffffffffffff161415615355576040517f08c379a0000000000000000000000000000000000000000000000000000000008152600401808060200182810382526021815260200180619e8e6021913960400191505060405180910390fd5b6153c181604051806060016040528060228152602001619d1460229139603360008673ffffffffffffffffffffffffffffffffffffffff1673ffffffffffffffffffffffffffffffffffffffff16815260200190815260200160002054615e0e9092919063ffffffff16565b603360008473ffffffffffffffffffffffffffffffffffffffff1673ffffffffffffffffffffffffffffffffffffffff168152602001908152602001600020819055506154198160355461781b90919063ffffffff16565b603581905550600073ffffffffffffffffffffffffffffffffffffffff168273ffffffffffffffffffffffffffffffffffffffff167fddf252ad1be2c89b69c2b068fc378daa952ba7f163c4a11628f55a4df523b3ef836040518082815260200191505060405180910390a35050565b600060606000615497618af5565b925092505060008090505b610173805490508110156157285760008382815181106154be57fe5b602002602001015114156154d15761571b565b600061017382815481106154e157fe5b9060005260206000200160009054906101000a900473ffffffffffffffffffffffffffffffffffffffff16905061562661561785848151811061552057fe5b602002602001015161017760008573ffffffffffffffffffffffffffffffffffffffff1673ffffffffffffffffffffffffffffffffffffffff16815260200190815260200160002060009054906101000a900473ffffffffffffffffffffffffffffffffffffffff1673ffffffffffffffffffffffffffffffffffffffff1663c89d5b8b6040518163ffffffff1660e01b815260040160206040518083038186803b1580156155ce57600080fd5b505afa1580156155e2573d6000803e3d6000fd5b505050506040513d60208110156155f857600080fd5b810190808051906020019092919050505061512e90919063ffffffff16565b866173f090919063ffffffff16565b9450600061017e60008373ffffffffffffffffffffffffffffffffffffffff1673ffffffffffffffffffffffffffffffffffffffff16815260200190815260200160002060009054906101000a900473ffffffffffffffffffffffffffffffffffffffff1690506000610174805490501180156156d05750600073ffffffffffffffffffffffffffffffffffffffff168173ffffffffffffffffffffffffffffffffffffffff1614155b15615718576157156157066156e483618e28565b8786815181106156f057fe5b602002602001015161512e90919063ffffffff16565b876173f090919063ffffffff16565b95505b50505b80806001019150506154a2565b5061573c81846151b490919063ffffffff16565b9250505090565b600080600080600061575487612bad565b905060008090505b61017480549050811015615b4957610174818154811061577857fe5b9060005260206000200160009054906101000a900473ffffffffffffffffffffffffffffffffffffffff16955060008214156158b25761017960008773ffffffffffffffffffffffffffffffffffffffff1673ffffffffffffffffffffffffffffffffffffffff16815260200190815260200160002060008a73ffffffffffffffffffffffffffffffffffffffff1673ffffffffffffffffffffffffffffffffffffffff1681526020019081526020016000205461017960008873ffffffffffffffffffffffffffffffffffffffff1673ffffffffffffffffffffffffffffffffffffffff16815260200190815260200160002060008a73ffffffffffffffffffffffffffffffffffffffff1673ffffffffffffffffffffffffffffffffffffffff16815260200190815260200160002081905550615b3c565b61017a60008773ffffffffffffffffffffffffffffffffffffffff1673ffffffffffffffffffffffffffffffffffffffff16815260200190815260200160002054945061598561017960008873ffffffffffffffffffffffffffffffffffffffff1673ffffffffffffffffffffffffffffffffffffffff16815260200190815260200160002060008b73ffffffffffffffffffffffffffffffffffffffff1673ffffffffffffffffffffffffffffffffffffffff168152602001908152602001600020548661781b90919063ffffffff16565b9350615a43670de0b6b3a7640000615a35615a2661017960008b73ffffffffffffffffffffffffffffffffffffffff1673ffffffffffffffffffffffffffffffffffffffff16815260200190815260200160002060008d73ffffffffffffffffffffffffffffffffffffffff1673ffffffffffffffffffffffffffffffffffffffff168152602001908152602001600020548961781b90919063ffffffff16565b8561512e90919063ffffffff16565b6151b490919063ffffffff16565b9250615aba615aab615a5e89856173f090919063ffffffff16565b615a9d615a748b8961512e90919063ffffffff16565b615a8f670de0b6b3a76400008961512e90919063ffffffff16565b6173f090919063ffffffff16565b6151b490919063ffffffff16565b8661781b90919063ffffffff16565b61017960008873ffffffffffffffffffffffffffffffffffffffff1673ffffffffffffffffffffffffffffffffffffffff16815260200190815260200160002060008a73ffffffffffffffffffffffffffffffffffffffff1673ffffffffffffffffffffffffffffffffffffffff168152602001908152602001600020819055505b808060010191505061575c565b505050505050505050565b600073ffffffffffffffffffffffffffffffffffffffff168373ffffffffffffffffffffffffffffffffffffffff161415615bda576040517f08c379a0000000000000000000000000000000000000000000000000000000008152600401808060200182810382526025815260200180619eaf6025913960400191505060405180910390fd5b600073ffffffffffffffffffffffffffffffffffffffff168273ffffffffffffffffffffffffffffffffffffffff161415615c60576040517f08c379a0000000000000000000000000000000000000000000000000000000008152600401808060200182810382526023815260200180619cf16023913960400191505060405180910390fd5b615ccc81604051806060016040528060268152602001619dae60269139603360008773ffffffffffffffffffffffffffffffffffffffff1673ffffffffffffffffffffffffffffffffffffffff16815260200190815260200160002054615e0e9092919063ffffffff16565b603360008573ffffffffffffffffffffffffffffffffffffffff1673ffffffffffffffffffffffffffffffffffffffff16815260200190815260200160002081905550615d6181603360008573ffffffffffffffffffffffffffffffffffffffff1673ffffffffffffffffffffffffffffffffffffffff168152602001908152602001600020546173f090919063ffffffff16565b603360008473ffffffffffffffffffffffffffffffffffffffff1673ffffffffffffffffffffffffffffffffffffffff168152602001908152602001600020819055508173ffffffffffffffffffffffffffffffffffffffff168373ffffffffffffffffffffffffffffffffffffffff167fddf252ad1be2c89b69c2b068fc378daa952ba7f163c4a11628f55a4df523b3ef836040518082815260200191505060405180910390a3505050565b6000838311158290615ebb576040517f08c379a00000000000000000000000000000000000000000000000000000000081526004018080602001828103825283818151815260200191508051906020019080838360005b83811015615e80578082015181840152602081019050615e65565b50505050905090810190601f168015615ead5780820380516001836020036101000a031916815260200191505b509250505060405180910390fd5b5060008385039050809150509392505050565b600061017b60008673ffffffffffffffffffffffffffffffffffffffff1673ffffffffffffffffffffffffffffffffffffffff16815260200190815260200160002054905082811061600e57615f2d838261781b90919063ffffffff16565b61017b60008773ffffffffffffffffffffffffffffffffffffffff1673ffffffffffffffffffffffffffffffffffffffff16815260200190815260200160002081905550615fc48361017b60008773ffffffffffffffffffffffffffffffffffffffff1673ffffffffffffffffffffffffffffffffffffffff168152602001908152602001600020546173f090919063ffffffff16565b61017b60008673ffffffffffffffffffffffffffffffffffffffff1673ffffffffffffffffffffffffffffffffffffffff1681526020019081526020016000208190555050616256565b600061607d61017b60008773ffffffffffffffffffffffffffffffffffffffff1673ffffffffffffffffffffffffffffffffffffffff1681526020019081526020016000205461606f8661606189612bad565b61781b90919063ffffffff16565b61781b90919063ffffffff16565b90506000616094838661781b90919063ffffffff16565b90506161316160ac82846173f090919063ffffffff16565b6161236160c2848861512e90919063ffffffff16565b6161158661017660008d73ffffffffffffffffffffffffffffffffffffffff1673ffffffffffffffffffffffffffffffffffffffff1681526020019081526020016000205461512e90919063ffffffff16565b6173f090919063ffffffff16565b6151b490919063ffffffff16565b61017660008873ffffffffffffffffffffffffffffffffffffffff1673ffffffffffffffffffffffffffffffffffffffff16815260200190815260200160002081905550600061017b60008973ffffffffffffffffffffffffffffffffffffffff1673ffffffffffffffffffffffffffffffffffffffff1681526020019081526020016000208190555061620e8361017b60008973ffffffffffffffffffffffffffffffffffffffff1673ffffffffffffffffffffffffffffffffffffffff168152602001908152602001600020546173f090919063ffffffff16565b61017b60008873ffffffffffffffffffffffffffffffffffffffff1673ffffffffffffffffffffffffffffffffffffffff168152602001908152602001600020819055505050505b50505050565b600080616267611a9f565b905060008114156162815761017054600a0a9150506165af565b600080616379670de0b6b3a764000061016a60009054906101000a900473ffffffffffffffffffffffffffffffffffffffff1673ffffffffffffffffffffffffffffffffffffffff166370a08231306040518263ffffffff1660e01b8152600401808273ffffffffffffffffffffffffffffffffffffffff1673ffffffffffffffffffffffffffffffffffffffff16815260200191505060206040518083038186803b15801561633057600080fd5b505afa158015616344573d6000803e3d6000fd5b505050506040513d602081101561635a57600080fd5b810190808051906020019092919050505061512e90919063ffffffff16565b905060008090505b6101738054905081101561659557610173818154811061639d57fe5b9060005260206000200160009054906101000a900473ffffffffffffffffffffffffffffffffffffffff1692506165866165778473ffffffffffffffffffffffffffffffffffffffff166370a08231306040518263ffffffff1660e01b8152600401808273ffffffffffffffffffffffffffffffffffffffff1673ffffffffffffffffffffffffffffffffffffffff16815260200191505060206040518083038186803b15801561644d57600080fd5b505afa158015616461573d6000803e3d6000fd5b505050506040513d602081101561647757600080fd5b810190808051906020019092919050505061017760008773ffffffffffffffffffffffffffffffffffffffff1673ffffffffffffffffffffffffffffffffffffffff16815260200190815260200160002060009054906101000a900473ffffffffffffffffffffffffffffffffffffffff1673ffffffffffffffffffffffffffffffffffffffff166302bbce466040518163ffffffff1660e01b815260040160206040518083038186803b15801561652e57600080fd5b505afa158015616542573d6000803e3d6000fd5b505050506040513d602081101561655857600080fd5b810190808051906020019092919050505061512e90919063ffffffff16565b836173f090919063ffffffff16565b91508080600101915050616381565b506165a983826151b490919063ffffffff16565b93505050505b90565b6166b2848573ffffffffffffffffffffffffffffffffffffffff166323b872dd905060e01b858585604051602401808473ffffffffffffffffffffffffffffffffffffffff1673ffffffffffffffffffffffffffffffffffffffff1681526020018373ffffffffffffffffffffffffffffffffffffffff1673ffffffffffffffffffffffffffffffffffffffff1681526020018281526020019350505050604051602081830303815290604052907bffffffffffffffffffffffffffffffffffffffffffffffffffffffff19166020820180517bffffffffffffffffffffffffffffffffffffffffffffffffffffffff83818316178352505050506188aa565b50505050565b600061013660009054906101000a900460ff161561673e576040517f08c379a00000000000000000000000000000000000000000000000000000000081526004018080602001828103825260108152602001807f5061757361626c653a207061757365640000000000000000000000000000000081525060200191505060405180910390fd5b606061018080548060200260200160405190810160405280929190818152602001828054801561678d57602002820191906000526020600020905b815481526020019060010190808311616779575b505050505090506000610175805490508251149050801561680f5760008090505b610175805490508110806167c0575081155b1561680d578281815181106167d157fe5b602002602001015161017582815481106167e757fe5b906000526020600020015414616800576000915061680d565b80806001019150506167ae565b505b600061016a60009054906101000a900473ffffffffffffffffffffffffffffffffffffffff1673ffffffffffffffffffffffffffffffffffffffff166370a08231306040518263ffffffff1660e01b8152600401808273ffffffffffffffffffffffffffffffffffffffff1673ffffffffffffffffffffffffffffffffffffffff16815260200191505060206040518083038186803b1580156168b157600080fd5b505afa1580156168c5573d6000803e3d6000fd5b505050506040513d60208110156168db57600080fd5b8101908080519060200190929190505050905060008280156168fd5750600082145b1561690f576000945050505050616e2e565b6000821115616a2a5761694a620186a061693c6101715461692e619030565b61512e90919063ffffffff16565b6151b490919063ffffffff16565b9050600061017580549050141561697457836101759080519060200190616972929190619c1a565b505b80821115616a2957616a28610173805480602002602001604051908101604052809291908181526020018280548015616a0257602002820191906000526020600020905b8160009054906101000a900473ffffffffffffffffffffffffffffffffffffffff1673ffffffffffffffffffffffffffffffffffffffff16815260200190600101908083116169b8575b5050505050616a2386616a1e858761781b90919063ffffffff16565b61935b565b619463565b5b5b8215616a3d576000945050505050616e2e565b6060806000616a4a618af5565b925092509250600085148015616a635750600061017154115b15616aaf57616aac616a9d620186a0616a8f61017154616a81619030565b61512e90919063ffffffff16565b6151b490919063ffffffff16565b8261781b90919063ffffffff16565b90505b6060616abb888361935b565b90506060600080616acd8787866195f6565b92509250925080616b00576101756000616ae79190619c67565b8a6101759080519060200190616afe929190619c1a565b505b600088148015616b135750600061017154115b15616b4d57616b4a620186a0616b3c61017154616b2e619030565b61512e90919063ffffffff16565b6151b490919063ffffffff16565b97505b600061016a60009054906101000a900473ffffffffffffffffffffffffffffffffffffffff1673ffffffffffffffffffffffffffffffffffffffff166370a08231306040518263ffffffff1660e01b8152600401808273ffffffffffffffffffffffffffffffffffffffff1673ffffffffffffffffffffffffffffffffffffffff16815260200191505060206040518083038186803b158015616bef57600080fd5b505afa158015616c03573d6000803e3d6000fd5b505050506040513d6020811015616c1957600080fd5b81019080805190602001909291905050509050888111616c485760009c50505050505050505050505050616e2e565b60608451604051908082528060200260200182016040528015616c7a5781602001602082028038833980820191505090505b50905060008090505b8551811015616cec57616cc785616cb9620186a0898581518110616ca357fe5b602002602001015161512e90919063ffffffff16565b6151b490919063ffffffff16565b828281518110616cd357fe5b6020026020010181815250508080600101915050616c83565b506060616d0b82616d068d8661781b90919063ffffffff16565b61935b565b9050616d9e610173805480602002602001604051908101604052809291908181526020018280548015616d9357602002820191906000526020600020905b8160009054906101000a900473ffffffffffffffffffffffffffffffffffffffff1673ffffffffffffffffffffffffffffffffffffffff1681526020019060010190808311616d49575b505050505082619463565b7f4217d9fab39dbadacf1dad6c889aec1caa02e8a6cb59ddd4ce34f3e0ef158b5533616dd38d8b6173f090919063ffffffff16565b604051808373ffffffffffffffffffffffffffffffffffffffff1673ffffffffffffffffffffffffffffffffffffffff1681526020018281526020019250505060405180910390a160019e5050505050505050505050505050505b90565b600073ffffffffffffffffffffffffffffffffffffffff168273ffffffffffffffffffffffffffffffffffffffff161415616ed4576040517f08c379a000000000000000000000000000000000000000000000000000000000815260040180806020018281038252601f8152602001807f45524332303a206d696e7420746f20746865207a65726f20616464726573730081525060200191505060405180910390fd5b616ee9816035546173f090919063ffffffff16565b603581905550616f4181603360008573ffffffffffffffffffffffffffffffffffffffff1673ffffffffffffffffffffffffffffffffffffffff168152602001908152602001600020546173f090919063ffffffff16565b603360008473ffffffffffffffffffffffffffffffffffffffff1673ffffffffffffffffffffffffffffffffffffffff168152602001908152602001600020819055508173ffffffffffffffffffffffffffffffffffffffff16600073ffffffffffffffffffffffffffffffffffffffff167fddf252ad1be2c89b69c2b068fc378daa952ba7f163c4a11628f55a4df523b3ef836040518082815260200191505060405180910390a35050565b60006101725414156170965761704d8261017b60008673ffffffffffffffffffffffffffffffffffffffff1673ffffffffffffffffffffffffffffffffffffffff168152602001908152602001600020546173f090919063ffffffff16565b61017b60008573ffffffffffffffffffffffffffffffffffffffff1673ffffffffffffffffffffffffffffffffffffffff168152602001908152602001600020819055506171d6565b60006170f361017b60008673ffffffffffffffffffffffffffffffffffffffff1673ffffffffffffffffffffffffffffffffffffffff168152602001908152602001600020546170e586612bad565b61781b90919063ffffffff16565b90506171908161718261710f868661512e90919063ffffffff16565b617174617125888761781b90919063ffffffff16565b61017660008b73ffffffffffffffffffffffffffffffffffffffff1673ffffffffffffffffffffffffffffffffffffffff1681526020019081526020016000205461512e90919063ffffffff16565b6173f090919063ffffffff16565b6151b490919063ffffffff16565b61017660008673ffffffffffffffffffffffffffffffffffffffff1673ffffffffffffffffffffffffffffffffffffffff16815260200190815260200160002081905550505b505050565b6000806171e784612bad565b905060008060008090505b610174805490508110156173e757610174818154811061720e57fe5b9060005260206000200160009054906101000a900473ffffffffffffffffffffffffffffffffffffffff16945061017a60008673ffffffffffffffffffffffffffffffffffffffff1673ffffffffffffffffffffffffffffffffffffffff16815260200190815260200160002054925061017960008673ffffffffffffffffffffffffffffffffffffffff1673ffffffffffffffffffffffffffffffffffffffff16815260200190815260200160002060008873ffffffffffffffffffffffffffffffffffffffff1673ffffffffffffffffffffffffffffffffffffffff1681526020019081526020016000205491506173598461734b61732a61731b868861781b90919063ffffffff16565b8a61512e90919063ffffffff16565b61733d868961512e90919063ffffffff16565b6173f090919063ffffffff16565b6151b490919063ffffffff16565b61017960008773ffffffffffffffffffffffffffffffffffffffff1673ffffffffffffffffffffffffffffffffffffffff16815260200190815260200160002060008973ffffffffffffffffffffffffffffffffffffffff1673ffffffffffffffffffffffffffffffffffffffff1681526020019081526020016000208190555080806001019150506171f2565b50505050505050565b60008082840190508381101561746e576040517f08c379a000000000000000000000000000000000000000000000000000000000815260040180806020018281038252601b8152602001807f536166654d6174683a206164646974696f6e206f766572666c6f77000000000081525060200191505060405180910390fd5b8091505092915050565b60008073ffffffffffffffffffffffffffffffffffffffff168273ffffffffffffffffffffffffffffffffffffffff1614156174ff576040517f08c379a0000000000000000000000000000000000000000000000000000000008152600401808060200182810382526022815260200180619e3e6022913960400191505060405180910390fd5b8260000160008373ffffffffffffffffffffffffffffffffffffffff1673ffffffffffffffffffffffffffffffffffffffff16815260200190815260200160002060009054906101000a900460ff16905092915050565b600060019054906101000a900460ff16806175755750617574614786565b5b8061758c57506000809054906101000a900460ff16155b6175e1576040517f08c379a000000000000000000000000000000000000000000000000000000000815260040180806020018281038252602e815260200180619e60602e913960400191505060405180910390fd5b60008060019054906101000a900460ff161590508015617631576001600060016101000a81548160ff02191690831515021790555060016000806101000a81548160ff0219169083151502179055505b8160d060006101000a81548173ffffffffffffffffffffffffffffffffffffffff021916908373ffffffffffffffffffffffffffffffffffffffff16021790555060d060009054906101000a900473ffffffffffffffffffffffffffffffffffffffff1673ffffffffffffffffffffffffffffffffffffffff16600073ffffffffffffffffffffffffffffffffffffffff167f8be0079c531659141344cd1fd0a4f28419497f9722a3daafe3b4186f6b6457e060405160405180910390a380156177105760008060016101000a81548160ff0219169083151502179055505b5050565b600060019054906101000a900460ff16806177335750617732614786565b5b8061774a57506000809054906101000a900460ff16155b61779f576040517f08c379a000000000000000000000000000000000000000000000000000000000815260040180806020018281038252602e815260200180619e60602e913960400191505060405180910390fd5b60008060019054906101000a900460ff1615905080156177ef576001600060016101000a81548160ff02191690831515021790555060016000806101000a81548160ff0219169083151502179055505b6001609d8190555080156178185760008060016101000a81548160ff0219169083151502179055505b50565b600061785d83836040518060400160405280601e81526020017f536166654d6174683a207375627472616374696f6e206f766572666c6f770000815250615e0e565b905092915050565b61787a816101036198ca90919063ffffffff16565b8073ffffffffffffffffffffffffffffffffffffffff167fcd265ebaf09df2871cc7bd4133404a235ba12eff2041bb89d9c714a2621c7c7e60405160405180910390a250565b6178d58161010361998790919063ffffffff16565b8073ffffffffffffffffffffffffffffffffffffffff167f6719d08c1888103bea251a4ed56406bd0c3e69723c8a1686e017e7bbe159b6f860405160405180910390a250565b60008083141561792d57809050617ad5565b6179b861017760008673ffffffffffffffffffffffffffffffffffffffff1673ffffffffffffffffffffffffffffffffffffffff16815260200190815260200160002060009054906101000a900473ffffffffffffffffffffffffffffffffffffffff16848673ffffffffffffffffffffffffffffffffffffffff166151fe9092919063ffffffff16565b61017760008573ffffffffffffffffffffffffffffffffffffffff1673ffffffffffffffffffffffffffffffffffffffff16815260200190815260200160002060009054906101000a900473ffffffffffffffffffffffffffffffffffffffff1673ffffffffffffffffffffffffffffffffffffffff166395a2251f836040518263ffffffff1660e01b8152600401808273ffffffffffffffffffffffffffffffffffffffff1673ffffffffffffffffffffffffffffffffffffffff168152602001915050602060405180830381600087803b158015617a9757600080fd5b505af1158015617aab573d6000803e3d6000fd5b505050506040513d6020811015617ac157600080fd5b810190808051906020019092919050505090505b9392505050565b60008061017b60003373ffffffffffffffffffffffffffffffffffffffff1673ffffffffffffffffffffffffffffffffffffffff16815260200190815260200160002054905060008582101590506000610172541480617b395750805b15617bac5780617b4a576000617b5e565b617b5d868361781b90919063ffffffff16565b5b61017b60003373ffffffffffffffffffffffffffffffffffffffff1673ffffffffffffffffffffffffffffffffffffffff168152602001908152602001600020819055508492505050617d90565b600061017b60003373ffffffffffffffffffffffffffffffffffffffff1673ffffffffffffffffffffffffffffffffffffffff16815260200190815260200160002081905550600061017660003373ffffffffffffffffffffffffffffffffffffffff1673ffffffffffffffffffffffffffffffffffffffff168152602001908152602001600020548510617cd157617ccc670de0b6b3a7640000617cbe617c9d61017660003373ffffffffffffffffffffffffffffffffffffffff1673ffffffffffffffffffffffffffffffffffffffff168152602001908152602001600020548961781b90919063ffffffff16565b617cb0878c61781b90919063ffffffff16565b61512e90919063ffffffff16565b6151b490919063ffffffff16565b617cd4565b60005b90506000617d03620186a0617cf5610172548561512e90919063ffffffff16565b6151b490919063ffffffff16565b9050617d7661016e60009054906101000a900473ffffffffffffffffffffffffffffffffffffffff168261016a60009054906101000a900473ffffffffffffffffffffffffffffffffffffffff1673ffffffffffffffffffffffffffffffffffffffff166151fe9092919063ffffffff16565b617d89818861781b90919063ffffffff16565b9450505050505b9392505050565b600060019054906101000a900460ff1680617db65750617db5614786565b5b80617dcd57506000809054906101000a900460ff16155b617e22576040517f08c379a000000000000000000000000000000000000000000000000000000000815260040180806020018281038252602e815260200180619e60602e913960400191505060405180910390fd5b60008060019054906101000a900460ff161590508015617e72576001600060016101000a81548160ff02191690831515021790555060016000806101000a81548160ff0219169083151502179055505b617e7b82612539565b617e8957617e88826178c0565b5b8015617eaa5760008060016101000a81548160ff0219169083151502179055505b5050565b61017380549050815114617f2a576040517f08c379a000000000000000000000000000000000000000000000000000000000815260040180806020018281038252600c8152602001807f49444c453a2145515f4c454e000000000000000000000000000000000000000081525060200191505060405180910390fd5b600080600090505b8251811015617f7057617f61838281518110617f4a57fe5b6020026020010151836173f090919063ffffffff16565b91508080600101915050617f32565b50816101809080519060200190617f88929190619c1a565b50620186a08114618001576040517f08c379a000000000000000000000000000000000000000000000000000000000815260040180806020018281038252600c8152602001807f49444c453a2145515f544f54000000000000000000000000000000000000000081525060200191505060405180910390fd5b5050565b600061a0aa61374a84018161801657fe5b0490506000805a9050616c3e811061803b57611b6c616c3e82038161803757fe5b0491505b81831115618047578192505b60008311156181375761016960009054906101000a900473ffffffffffffffffffffffffffffffffffffffff1673ffffffffffffffffffffffffffffffffffffffff1663079d229f85856040518363ffffffff1660e01b8152600401808373ffffffffffffffffffffffffffffffffffffffff1673ffffffffffffffffffffffffffffffffffffffff16815260200182815260200192505050602060405180830381600087803b1580156180fa57600080fd5b505af115801561810e573d6000803e3d6000fd5b505050506040513d602081101561812457600080fd5b8101908080519060200190929190505050505b5050505050565b600073ffffffffffffffffffffffffffffffffffffffff168173ffffffffffffffffffffffffffffffffffffffff1614156181c4576040517f08c379a0000000000000000000000000000000000000000000000000000000008152600401808060200182810382526026815260200180619d666026913960400191505060405180910390fd5b8073ffffffffffffffffffffffffffffffffffffffff1660d060009054906101000a900473ffffffffffffffffffffffffffffffffffffffff1673ffffffffffffffffffffffffffffffffffffffff167f8be0079c531659141344cd1fd0a4f28419497f9722a3daafe3b4186f6b6457e060405160405180910390a38060d060006101000a81548173ffffffffffffffffffffffffffffffffffffffff021916908373ffffffffffffffffffffffffffffffffffffffff16021790555050565b73c00e94cb662c3520282e6f5717214004a7f2688873ffffffffffffffffffffffffffffffffffffffff168173ffffffffffffffffffffffffffffffffffffffff161480618311575073875773784af8135ea0ef43b5a374aad105c5d39e73ffffffffffffffffffffffffffffffffffffffff168173ffffffffffffffffffffffffffffffffffffffff16145b156187e057606060016040519080825280602002602001820160405280156183485781602001602082028038833980820191505090505b5090506060600160405190808252806020026020018201604052801561837d5781602001602082028038833980820191505090505b509050308260008151811061838e57fe5b602002602001019073ffffffffffffffffffffffffffffffffffffffff16908173ffffffffffffffffffffffffffffffffffffffff168152505073875773784af8135ea0ef43b5a374aad105c5d39e73ffffffffffffffffffffffffffffffffffffffff168373ffffffffffffffffffffffffffffffffffffffff16141561856857308160008151811061841e57fe5b602002602001019073ffffffffffffffffffffffffffffffffffffffff16908173ffffffffffffffffffffffffffffffffffffffff168152505073275da8e61ea8e02d51edd8d0dc5c0e62b4cdb0be73ffffffffffffffffffffffffffffffffffffffff1663fc245d4a83836040518363ffffffff1660e01b8152600401808060200180602001838103835285818151815260200191508051906020019060200280838360005b838110156184e05780820151818401526020810190506184c5565b50505050905001838103825284818151815260200191508051906020019060200280838360005b83811015618522578082015181840152602081019050618507565b50505050905001945050505050600060405180830381600087803b15801561854957600080fd5b505af115801561855d573d6000803e3d6000fd5b5050505050506187e1565b600073ffffffffffffffffffffffffffffffffffffffff1661016c60009054906101000a900473ffffffffffffffffffffffffffffffffffffffff1673ffffffffffffffffffffffffffffffffffffffff16146187dd5761016c60009054906101000a900473ffffffffffffffffffffffffffffffffffffffff16816000815181106185f057fe5b602002602001019073ffffffffffffffffffffffffffffffffffffffff16908173ffffffffffffffffffffffffffffffffffffffff168152505061016c60009054906101000a900473ffffffffffffffffffffffffffffffffffffffff1673ffffffffffffffffffffffffffffffffffffffff16635fe3b5676040518163ffffffff1660e01b815260040160206040518083038186803b15801561869357600080fd5b505afa1580156186a7573d6000803e3d6000fd5b505050506040513d60208110156186bd57600080fd5b810190808051906020019092919050505073ffffffffffffffffffffffffffffffffffffffff16636810dfa68383600060016040518563ffffffff1660e01b81526004018080602001806020018515151515815260200184151515158152602001838103835287818151815260200191508051906020019060200280838360005b8381101561875957808201518184015260208101905061873e565b50505050905001838103825286818151815260200191508051906020019060200280838360005b8381101561879b578082015181840152602081019050618780565b505050509050019650505050505050600060405180830381600087803b1580156187c457600080fd5b505af11580156187d8573d6000803e3d6000fd5b505050505b50505b5b50565b60008083118290618890576040517f08c379a00000000000000000000000000000000000000000000000000000000081526004018080602001828103825283818151815260200191508051906020019080838360005b8381101561885557808201518184015260208101905061883a565b50505050905090810190601f1680156188825780820380516001836020036101000a031916815260200191505b509250505060405180910390fd5b50600083858161889c57fe5b049050809150509392505050565b6188c98273ffffffffffffffffffffffffffffffffffffffff16619a62565b61893b576040517f08c379a000000000000000000000000000000000000000000000000000000000815260040180806020018281038252601f8152602001807f5361666545524332303a2063616c6c20746f206e6f6e2d636f6e74726163740081525060200191505060405180910390fd5b600060608373ffffffffffffffffffffffffffffffffffffffff16836040518082805190602001908083835b6020831061898a5780518252602082019150602081019050602083039250618967565b6001836020036101000a0380198251168184511680821785525050505050509050019150506000604051808303816000865af19150503d80600081146189ec576040519150601f19603f3d011682016040523d82523d6000602084013e6189f1565b606091505b509150915081618a69576040517f08c379a00000000000000000000000000000000000000000000000000000000081526004018080602001828103825260208152602001807f5361666545524332303a206c6f772d6c6576656c2063616c6c206661696c656481525060200191505060405180910390fd5b600081511115618aef57808060200190516020811015618a8857600080fd5b8101908080519060200190929190505050618aee576040517f08c379a000000000000000000000000000000000000000000000000000000000815260040180806020018281038252602a815260200180619ef8602a913960400191505060405180910390fd5b5b50505050565b606080600061017380549050604051908082528060200260200182016040528015618b2f5781602001602082028038833980820191505090505b50925061017380549050604051908082528060200260200182016040528015618b675781602001602082028038833980820191505090505b50915060008060008090505b61017380549050811015618e17576101738181548110618b8f57fe5b9060005260206000200160009054906101000a900473ffffffffffffffffffffffffffffffffffffffff16925082868281518110618bc957fe5b602002602001019073ffffffffffffffffffffffffffffffffffffffff16908173ffffffffffffffffffffffffffffffffffffffff168152505061017760008473ffffffffffffffffffffffffffffffffffffffff1673ffffffffffffffffffffffffffffffffffffffff16815260200190815260200160002060009054906101000a900473ffffffffffffffffffffffffffffffffffffffff1673ffffffffffffffffffffffffffffffffffffffff166302bbce466040518163ffffffff1660e01b815260040160206040518083038186803b158015618ca957600080fd5b505afa158015618cbd573d6000803e3d6000fd5b505050506040513d6020811015618cd357600080fd5b81019080805190602001909291905050509150618dca670de0b6b3a7640000618dbc8573ffffffffffffffffffffffffffffffffffffffff166370a08231306040518263ffffffff1660e01b8152600401808273ffffffffffffffffffffffffffffffffffffffff1673ffffffffffffffffffffffffffffffffffffffff16815260200191505060206040518083038186803b158015618d7257600080fd5b505afa158015618d86573d6000803e3d6000fd5b505050506040513d6020811015618d9c57600080fd5b81019080805190602001909291905050508561512e90919063ffffffff16565b6151b490919063ffffffff16565b858281518110618dd657fe5b602002602001018181525050618e08858281518110618df157fe5b6020026020010151856173f090919063ffffffff16565b93508080600101915050618b73565b508484849450945094505050909192565b600073c00e94cb662c3520282e6f5717214004a7f2688873ffffffffffffffffffffffffffffffffffffffff168273ffffffffffffffffffffffffffffffffffffffff16148015618ec95750600073ffffffffffffffffffffffffffffffffffffffff1661016c60009054906101000a900473ffffffffffffffffffffffffffffffffffffffff1673ffffffffffffffffffffffffffffffffffffffff1614155b1561902a5761017d60009054906101000a900473ffffffffffffffffffffffffffffffffffffffff1673ffffffffffffffffffffffffffffffffffffffff1663d297128f61016c60009054906101000a900473ffffffffffffffffffffffffffffffffffffffff1661016a60009054906101000a900473ffffffffffffffffffffffffffffffffffffffff166040518363ffffffff1660e01b8152600401808373ffffffffffffffffffffffffffffffffffffffff1673ffffffffffffffffffffffffffffffffffffffff1681526020018273ffffffffffffffffffffffffffffffffffffffff1673ffffffffffffffffffffffffffffffffffffffff1681526020019250505060206040518083038186803b158015618fe857600080fd5b505afa158015618ffc573d6000803e3d6000fd5b505050506040513d602081101561901257600080fd5b8101908080519060200190929190505050905061902b565b5b919050565b60008060008090505b6101738054905081101561926757610173818154811061905557fe5b9060005260206000200160009054906101000a900473ffffffffffffffffffffffffffffffffffffffff169150619258619249670de0b6b3a764000061923b8573ffffffffffffffffffffffffffffffffffffffff166370a08231306040518263ffffffff1660e01b8152600401808273ffffffffffffffffffffffffffffffffffffffff1673ffffffffffffffffffffffffffffffffffffffff16815260200191505060206040518083038186803b15801561911157600080fd5b505afa158015619125573d6000803e3d6000fd5b505050506040513d602081101561913b57600080fd5b810190808051906020019092919050505061017760008873ffffffffffffffffffffffffffffffffffffffff1673ffffffffffffffffffffffffffffffffffffffff16815260200190815260200160002060009054906101000a900473ffffffffffffffffffffffffffffffffffffffff1673ffffffffffffffffffffffffffffffffffffffff166302bbce466040518163ffffffff1660e01b815260040160206040518083038186803b1580156191f257600080fd5b505afa158015619206573d6000803e3d6000fd5b505050506040513d602081101561921c57600080fd5b810190808051906020019092919050505061512e90919063ffffffff16565b6151b490919063ffffffff16565b846173f090919063ffffffff16565b92508080600101915050619039565b5061935561016a60009054906101000a900473ffffffffffffffffffffffffffffffffffffffff1673ffffffffffffffffffffffffffffffffffffffff166370a08231306040518263ffffffff1660e01b8152600401808273ffffffffffffffffffffffffffffffffffffffff1673ffffffffffffffffffffffffffffffffffffffff16815260200191505060206040518083038186803b15801561930b57600080fd5b505afa15801561931f573d6000803e3d6000fd5b505050506040513d602081101561933557600080fd5b8101908080519060200190929190505050836173f090919063ffffffff16565b91505090565b6060825160405190808252806020026020018201604052801561938d5781602001602082028038833980820191505090505b50905060008060008090505b85518110156194575760018651038114156193de576193c1828661781b90919063ffffffff16565b8482815181106193cd57fe5b60200260200101818152505061944a565b619419620186a061940b8884815181106193f457fe5b60200260200101518861512e90919063ffffffff16565b6151b490919063ffffffff16565b925061942e83836173f090919063ffffffff16565b91508284828151811061943d57fe5b6020026020010181815250505b8080600101915050619399565b50829250505092915050565b60008060008090505b83518110156195ef5783818151811061948157fe5b602002602001015192506000831415619499576195e2565b61017760008683815181106194aa57fe5b602002602001015173ffffffffffffffffffffffffffffffffffffffff1673ffffffffffffffffffffffffffffffffffffffff16815260200190815260200160002060009054906101000a900473ffffffffffffffffffffffffffffffffffffffff16915061955d828461016a60009054906101000a900473ffffffffffffffffffffffffffffffffffffffff1673ffffffffffffffffffffffffffffffffffffffff166151fe9092919063ffffffff16565b8173ffffffffffffffffffffffffffffffffffffffff16631249c58b6040518163ffffffff1660e01b8152600401602060405180830381600087803b1580156195a557600080fd5b505af11580156195b9573d6000803e3d6000fd5b505050506040513d60208110156195cf57600080fd5b8101908080519060200190929190505050505b808060010191505061946c565b5050505050565b6060600080845160405190808252806020026020018201604052801561962b5781602001602082028038833980820191505090505b50925060008060008060008090505b89518110156198bc578a818151811061964f57fe5b6020026020010151915088818151811061966557fe5b6020026020010151925089818151811061967b57fe5b6020026020010151935061017760008373ffffffffffffffffffffffffffffffffffffffff1673ffffffffffffffffffffffffffffffffffffffff16815260200190815260200160002060009054906101000a900473ffffffffffffffffffffffffffffffffffffffff1694508284111561985b576000619705848661781b90919063ffffffff16565b905060008673ffffffffffffffffffffffffffffffffffffffff1663743753596040518163ffffffff1660e01b815260040160206040518083038186803b15801561974f57600080fd5b505afa158015619763573d6000803e3d6000fd5b505050506040513d602081101561977957600080fd5b810190808051906020019092919050505090508181101561979c57600197508091505b6198538461984d8973ffffffffffffffffffffffffffffffffffffffff166302bbce466040518163ffffffff1660e01b815260040160206040518083038186803b1580156197e957600080fd5b505afa1580156197fd573d6000803e3d6000fd5b505050506040513d602081101561981357600080fd5b810190808051906020019092919050505061983f670de0b6b3a76400008761512e90919063ffffffff16565b6151b490919063ffffffff16565b3061791b565b5050506198af565b61986e848461781b90919063ffffffff16565b88828151811061987a57fe5b6020026020010181815250506198ac88828151811061989557fe5b6020026020010151886173f090919063ffffffff16565b96505b808060010191505061963a565b505050505093509350939050565b6198d48282617478565b619929576040517f08c379a0000000000000000000000000000000000000000000000000000000008152600401808060200182810382526021815260200180619dd46021913960400191505060405180910390fd5b60008260000160008373ffffffffffffffffffffffffffffffffffffffff1673ffffffffffffffffffffffffffffffffffffffff16815260200190815260200160002060006101000a81548160ff0219169083151502179055505050565b6199918282617478565b15619a04576040517f08c379a000000000000000000000000000000000000000000000000000000000815260040180806020018281038252601f8152602001807f526f6c65733a206163636f756e7420616c72656164792068617320726f6c650081525060200191505060405180910390fd5b60018260000160008373ffffffffffffffffffffffffffffffffffffffff1673ffffffffffffffffffffffffffffffffffffffff16815260200190815260200160002060006101000a81548160ff0219169083151502179055505050565b60008060007fc5d2460186f7233c927e7db2dcc703c0e500b653ca82273b7bfad8045d85a47060001b9050833f9150808214158015619aa457506000801b8214155b92505050919050565b828054600181600116156101000203166002900490600052602060002090601f016020900481019282601f10619aee57805160ff1916838001178555619b1c565b82800160010185558215619b1c579182015b82811115619b1b578251825591602001919060010190619b00565b5b509050619b299190619c88565b5090565b828054828255906000526020600020908101928215619bbc579160200282015b82811115619bbb57823573ffffffffffffffffffffffffffffffffffffffff168260006101000a81548173ffffffffffffffffffffffffffffffffffffffff021916908373ffffffffffffffffffffffffffffffffffffffff16021790555091602001919060010190619b4d565b5b509050619bc99190619cad565b5090565b828054828255906000526020600020908101928215619c09579160200282015b82811115619c08578235825591602001919060010190619bed565b5b509050619c169190619c88565b5090565b828054828255906000526020600020908101928215619c56579160200282015b82811115619c55578251825591602001919060010190619c3a565b5b509050619c639190619c88565b5090565b5080546000825590600052602060002090810190619c859190619c88565b50565b619caa91905b80821115619ca6576000816000905550600101619c8e565b5090565b90565b619ced91905b80821115619ce957600081816101000a81549073ffffffffffffffffffffffffffffffffffffffff021916905550600101619cb3565b5090565b9056fe45524332303a207472616e7366657220746f20746865207a65726f206164647265737345524332303a206275726e20616d6f756e7420657863656564732062616c616e6365506175736572526f6c653a2063616c6c657220646f6573206e6f742068617665207468652050617573657220726f6c654f776e61626c653a206e6577206f776e657220697320746865207a65726f206164647265737345524332303a20617070726f766520746f20746865207a65726f206164647265737345524332303a207472616e7366657220616d6f756e7420657863656564732062616c616e6365526f6c65733a206163636f756e7420646f6573206e6f74206861766520726f6c65536166654d6174683a206d756c7469706c69636174696f6e206f766572666c6f7745524332303a207472616e7366657220616d6f756e74206578636565647320616c6c6f77616e6365526f6c65733a206163636f756e7420697320746865207a65726f2061646472657373436f6e747261637420696e7374616e63652068617320616c7265616479206265656e20696e697469616c697a656445524332303a206275726e2066726f6d20746865207a65726f206164647265737345524332303a207472616e736665722066726f6d20746865207a65726f206164647265737345524332303a20617070726f76652066726f6d20746865207a65726f20616464726573735361666545524332303a204552433230206f7065726174696f6e20646964206e6f74207375636365656445524332303a2064656372656173656420616c6c6f77616e63652062656c6f77207a65726fa265627a7a72315820b8cb6b3e227b0e895728dee541b5d1c57de7579c3d687b86be58b97ac04881b564736f6c63430005100032",
  "linkReferences": {},
  "deployedLinkReferences": {}
}