{
  "_format": "hh-sol-artifact-1",
  "contractName": "GasTokenMock",
  "sourceName": "contracts/mocks/GasTokenMock.sol",
  "abi": [
    {
      "constant": false,
      "inputs": [
        {
          "internalType": "address",
          "name": "from",
          "type": "address"
        }
      ],
      "name": "balanceOf",
      "outputs": [
        {
          "internalType": "uint256",
          "name": "balance",
          "type": "uint256"
        }
      ],
      "payable": false,
      "stateMutability": "nonpayable",
      "type": "function"
    },
    {
      "constant": false,
      "inputs": [
        {
          "internalType": "address",
          "name": "from",
          "type": "address"
        },
        {
          "internalType": "uint256",
          "name": "value",
          "type": "uint256"
        }
      ],
      "name": "freeFromUpTo",
      "outputs": [
        {
          "internalType": "uint256",
          "name": "freed",
          "type": "uint256"
        }
      ],
      "payable": false,
      "stateMutability": "nonpayable",
      "type": "function"
    },
    {
      "constant": false,
      "inputs": [
        {
          "internalType": "uint256",
          "name": "value",
          "type": "uint256"
        }
      ],
      "name": "freeUpTo",
      "outputs": [
        {
          "internalType": "uint256",
          "name": "freed",
          "type": "uint256"
        }
      ],
      "payable": false,
      "stateMutability": "nonpayable",
      "type": "function"
    }
  ],
  "bytecode": "0x608060405234801561001057600080fd5b5061018d806100206000396000f3fe608060405234801561001057600080fd5b50600436106100415760003560e01c8063079d229f146100465780636366b936146100a857806370a08231146100ea575b600080fd5b6100926004803603604081101561005c57600080fd5b81019080803573ffffffffffffffffffffffffffffffffffffffff16906020019092919080359060200190929190505050610142565b6040518082815260200191505060405180910390f35b6100d4600480360360208110156100be57600080fd5b810190808035906020019092919050505061014a565b6040518082815260200191505060405180910390f35b61012c6004803603602081101561010057600080fd5b81019080803573ffffffffffffffffffffffffffffffffffffffff169060200190929190505050610151565b6040518082815260200191505060405180910390f35b600092915050565b6000919050565b600091905056fea265627a7a72315820a1766f22a125e6fbaa2a5997ed9e8ee19e3863ebb40546a399e94daff26a8bb364736f6c63430005100032",
  "linkReferences": {},
  "deployedLinkReferences": {}
}