{
  "_format": "hh-sol-artifact-1",
  "contractName": "aaveLendingPoolMock",
  "sourceName": "contracts/mocks/aaveLendingPoolMock.sol",
  "abi": [
    {
      "inputs": [
        {
          "internalType": "address",
          "name": "_dai",
          "type": "address"
        },
        {
          "internalType": "address",
          "name": "_aDai",
          "type": "address"
        }
      ],
      "payable": false,
      "stateMutability": "nonpayable",
      "type": "constructor"
    },
    {
      "constant": true,
      "inputs": [],
      "name": "aDai",
      "outputs": [
        {
          "internalType": "address",
          "name": "",
          "type": "address"
        }
      ],
      "payable": false,
      "stateMutability": "view",
      "type": "function"
    },
    {
      "constant": true,
      "inputs": [],
      "name": "currentLiquidityRate",
      "outputs": [
        {
          "internalType": "uint128",
          "name": "",
          "type": "uint128"
        }
      ],
      "payable": false,
      "stateMutability": "view",
      "type": "function"
    },
    {
      "constant": true,
      "inputs": [],
      "name": "dai",
      "outputs": [
        {
          "internalType": "address",
          "name": "",
          "type": "address"
        }
      ],
      "payable": false,
      "stateMutability": "view",
      "type": "function"
    },
    {
      "constant": false,
      "inputs": [
        {
          "internalType": "address",
          "name": "",
          "type": "address"
        },
        {
          "internalType": "uint256",
          "name": "_amount",
          "type": "uint256"
        },
        {
          "internalType": "uint16",
          "name": "",
          "type": "uint16"
        }
      ],
      "name": "deposit",
      "outputs": [],
      "payable": false,
      "stateMutability": "nonpayable",
      "type": "function"
    },
    {
      "constant": true,
      "inputs": [
        {
          "internalType": "address",
          "name": "_reserve",
          "type": "address"
        }
      ],
      "name": "getReserveData",
      "outputs": [
        {
          "components": [
            {
              "components": [
                {
                  "internalType": "uint256",
                  "name": "data",
                  "type": "uint256"
                }
              ],
              "internalType": "struct DataTypes.ReserveConfigurationMap",
              "name": "configuration",
              "type": "tuple"
            },
            {
              "internalType": "uint128",
              "name": "liquidityIndex",
              "type": "uint128"
            },
            {
              "internalType": "uint128",
              "name": "variableBorrowIndex",
              "type": "uint128"
            },
            {
              "internalType": "uint128",
              "name": "currentLiquidityRate",
              "type": "uint128"
            },
            {
              "internalType": "uint128",
              "name": "currentVariableBorrowRate",
              "type": "uint128"
            },
            {
              "internalType": "uint128",
              "name": "currentStableBorrowRate",
              "type": "uint128"
            },
            {
              "internalType": "uint40",
              "name": "lastUpdateTimestamp",
              "type": "uint40"
            },
            {
              "internalType": "address",
              "name": "aTokenAddress",
              "type": "address"
            },
            {
              "internalType": "address",
              "name": "stableDebtTokenAddress",
              "type": "address"
            },
            {
              "internalType": "address",
              "name": "variableDebtTokenAddress",
              "type": "address"
            },
            {
              "internalType": "address",
              "name": "interestRateStrategyAddress",
              "type": "address"
            },
            {
              "internalType": "uint8",
              "name": "id",
              "type": "uint8"
            }
          ],
          "internalType": "struct DataTypes.ReserveData",
          "name": "",
          "type": "tuple"
        }
      ],
      "payable": false,
      "stateMutability": "view",
      "type": "function"
    },
    {
      "constant": true,
      "inputs": [],
      "name": "interestRateStrategyAddress",
      "outputs": [
        {
          "internalType": "address",
          "name": "",
          "type": "address"
        }
      ],
      "payable": false,
      "stateMutability": "view",
      "type": "function"
    },
    {
      "constant": false,
      "inputs": [
        {
          "internalType": "uint128",
          "name": "v",
          "type": "uint128"
        }
      ],
      "name": "setCurrentLiquidityRate",
      "outputs": [],
      "payable": false,
      "stateMutability": "nonpayable",
      "type": "function"
    },
    {
      "constant": false,
      "inputs": [
        {
          "internalType": "address",
          "name": "a",
          "type": "address"
        }
      ],
      "name": "setInterestRateStrategyAddress",
      "outputs": [],
      "payable": false,
      "stateMutability": "nonpayable",
      "type": "function"
    },
    {
      "constant": false,
      "inputs": [
        {
          "internalType": "address",
          "name": "a",
          "type": "address"
        }
      ],
      "name": "setStableDebtTokenAddress",
      "outputs": [],
      "payable": false,
      "stateMutability": "nonpayable",
      "type": "function"
    },
    {
      "constant": false,
      "inputs": [
        {
          "internalType": "address",
          "name": "a",
          "type": "address"
        }
      ],
      "name": "setVariableDebtTokenAddress",
      "outputs": [],
      "payable": false,
      "stateMutability": "nonpayable",
      "type": "function"
    },
    {
      "constant": true,
      "inputs": [],
      "name": "stableDebtTokenAddress",
      "outputs": [
        {
          "internalType": "address",
          "name": "",
          "type": "address"
        }
      ],
      "payable": false,
      "stateMutability": "view",
      "type": "function"
    },
    {
      "constant": true,
      "inputs": [],
      "name": "variableDebtTokenAddress",
      "outputs": [
        {
          "internalType": "address",
          "name": "",
          "type": "address"
        }
      ],
      "payable": false,
      "stateMutability": "view",
      "type": "function"
    }
  ],
  "bytecode": "0x608060405234801561001057600080fd5b50604051610d99380380610d99833981810160405261003291908101906100cf565b816000806101000a81548173ffffffffffffffffffffffffffffffffffffffff021916908373ffffffffffffffffffffffffffffffffffffffff16021790555080600160006101000a81548173ffffffffffffffffffffffffffffffffffffffff021916908373ffffffffffffffffffffffffffffffffffffffff1602179055505050610154565b6000815190506100c98161013d565b92915050565b600080604083850312156100e257600080fd5b60006100f0858286016100ba565b9250506020610101858286016100ba565b9150509250929050565b60006101168261011d565b9050919050565b600073ffffffffffffffffffffffffffffffffffffffff82169050919050565b6101468161010b565b811461015157600080fd5b50565b610c36806101636000396000f3fe608060405234801561001057600080fd5b50600436106100b45760003560e01c80638bf24b20116100715780638bf24b201461017957806390839e3f14610195578063a34e8fa0146101b3578063cd2e7a52146101d1578063d2d0e066146101ef578063f4b9fa751461020b576100b4565b80631028c970146100b9578063106296dd146100d557806317723e31146100f35780631fbc9fa31461010f57806335ea6a751461012d57806361f1ce631461015d575b600080fd5b6100d360048036036100ce91908101906107dc565b610229565b005b6100dd61026d565b6040516100ea9190610a9f565b60405180910390f35b61010d6004803603610108919081019061087d565b61028f565b005b6101176102cb565b6040516101249190610a3f565b60405180910390f35b610147600480360361014291908101906107dc565b6102f1565b6040516101549190610a83565b60405180910390f35b610177600480360361017291908101906107dc565b610469565b005b610193600480360361018e91908101906107dc565b6104ad565b005b61019d6104f1565b6040516101aa9190610a3f565b60405180910390f35b6101bb610517565b6040516101c89190610a3f565b60405180910390f35b6101d961053d565b6040516101e69190610a3f565b60405180910390f35b61020960048036036102049190810190610805565b610563565b005b610213610618565b6040516102209190610a3f565b60405180910390f35b80600260006101000a81548173ffffffffffffffffffffffffffffffffffffffff021916908373ffffffffffffffffffffffffffffffffffffffff16021790555050565b600560009054906101000a90046fffffffffffffffffffffffffffffffff1681565b80600560006101000a8154816fffffffffffffffffffffffffffffffff02191690836fffffffffffffffffffffffffffffffff16021790555050565b600360009054906101000a900473ffffffffffffffffffffffffffffffffffffffff1681565b6102f961063d565b61030161063d565b600260009054906101000a900473ffffffffffffffffffffffffffffffffffffffff1681610100019073ffffffffffffffffffffffffffffffffffffffff16908173ffffffffffffffffffffffffffffffffffffffff1681525050600360009054906101000a900473ffffffffffffffffffffffffffffffffffffffff1681610120019073ffffffffffffffffffffffffffffffffffffffff16908173ffffffffffffffffffffffffffffffffffffffff1681525050600460009054906101000a900473ffffffffffffffffffffffffffffffffffffffff1681610140019073ffffffffffffffffffffffffffffffffffffffff16908173ffffffffffffffffffffffffffffffffffffffff1681525050600560009054906101000a90046fffffffffffffffffffffffffffffffff1681606001906fffffffffffffffffffffffffffffffff1690816fffffffffffffffffffffffffffffffff168152505080915050919050565b80600460006101000a81548173ffffffffffffffffffffffffffffffffffffffff021916908373ffffffffffffffffffffffffffffffffffffffff16021790555050565b80600360006101000a81548173ffffffffffffffffffffffffffffffffffffffff021916908373ffffffffffffffffffffffffffffffffffffffff16021790555050565b600460009054906101000a900473ffffffffffffffffffffffffffffffffffffffff1681565b600160009054906101000a900473ffffffffffffffffffffffffffffffffffffffff1681565b600260009054906101000a900473ffffffffffffffffffffffffffffffffffffffff1681565b600160009054906101000a900473ffffffffffffffffffffffffffffffffffffffff1673ffffffffffffffffffffffffffffffffffffffff1663a9059cbb33846040518363ffffffff1660e01b81526004016105c0929190610a5a565b602060405180830381600087803b1580156105da57600080fd5b505af11580156105ee573d6000803e3d6000fd5b505050506040513d601f19601f820116820180604052506106129190810190610854565b50505050565b6000809054906101000a900473ffffffffffffffffffffffffffffffffffffffff1681565b604051806101800160405280610651610760565b815260200160006fffffffffffffffffffffffffffffffff16815260200160006fffffffffffffffffffffffffffffffff16815260200160006fffffffffffffffffffffffffffffffff16815260200160006fffffffffffffffffffffffffffffffff16815260200160006fffffffffffffffffffffffffffffffff168152602001600064ffffffffff168152602001600073ffffffffffffffffffffffffffffffffffffffff168152602001600073ffffffffffffffffffffffffffffffffffffffff168152602001600073ffffffffffffffffffffffffffffffffffffffff168152602001600073ffffffffffffffffffffffffffffffffffffffff168152602001600060ff1681525090565b6040518060200160405280600081525090565b60008135905061078281610b80565b92915050565b60008151905061079781610b97565b92915050565b6000813590506107ac81610bae565b92915050565b6000813590506107c181610bc5565b92915050565b6000813590506107d681610bdc565b92915050565b6000602082840312156107ee57600080fd5b60006107fc84828501610773565b91505092915050565b60008060006060848603121561081a57600080fd5b600061082886828701610773565b9350506020610839868287016107c7565b925050604061084a868287016107b2565b9150509250925092565b60006020828403121561086657600080fd5b600061087484828501610788565b91505092915050565b60006020828403121561088f57600080fd5b600061089d8482850161079d565b91505092915050565b6108af81610b4a565b82525050565b6108be81610aba565b82525050565b6108cd81610aba565b82525050565b6020820160008201516108e96000850182610a03565b50505050565b6101808201600082015161090660008501826108d3565b50602082015161091960208501826109e5565b50604082015161092c60408501826109e5565b50606082015161093f60608501826109e5565b50608082015161095260808501826109e5565b5060a082015161096560a08501826109e5565b5060c082015161097860c0850182610a21565b5060e082015161098b60e08501826108b5565b506101008201516109a06101008501826108b5565b506101208201516109b56101208501826108b5565b506101408201516109ca6101408501826108b5565b506101608201516109df610160850182610a30565b50505050565b6109ee81610ad8565b82525050565b6109fd81610ad8565b82525050565b610a0c81610b22565b82525050565b610a1b81610b22565b82525050565b610a2a81610b2c565b82525050565b610a3981610b3d565b82525050565b6000602082019050610a5460008301846108c4565b92915050565b6000604082019050610a6f60008301856108a6565b610a7c6020830184610a12565b9392505050565b600061018082019050610a9960008301846108ef565b92915050565b6000602082019050610ab460008301846109f4565b92915050565b6000610ac582610b02565b9050919050565b60008115159050919050565b60006fffffffffffffffffffffffffffffffff82169050919050565b600061ffff82169050919050565b600073ffffffffffffffffffffffffffffffffffffffff82169050919050565b6000819050919050565b600064ffffffffff82169050919050565b600060ff82169050919050565b6000610b5582610b5c565b9050919050565b6000610b6782610b6e565b9050919050565b6000610b7982610b02565b9050919050565b610b8981610aba565b8114610b9457600080fd5b50565b610ba081610acc565b8114610bab57600080fd5b50565b610bb781610ad8565b8114610bc257600080fd5b50565b610bce81610af4565b8114610bd957600080fd5b50565b610be581610b22565b8114610bf057600080fd5b5056fea365627a7a7231582064e66f7964de0e72ee8d4ae5a68e3561b4ce2c6cb67e8eb58a628d448fe6e49b6c6578706572696d656e74616cf564736f6c63430005100040",
  "linkReferences": {},
  "deployedLinkReferences": {}
}