{
  "_format": "hh-sol-artifact-1",
  "contractName": "IdleAaveV2",
  "sourceName": "contracts/wrappers/IdleAaveV2.sol",
  "abi": [
    {
      "anonymous": false,
      "inputs": [
        {
          "indexed": true,
          "internalType": "address",
          "name": "previousOwner",
          "type": "address"
        },
        {
          "indexed": true,
          "internalType": "address",
          "name": "newOwner",
          "type": "address"
        }
      ],
      "name": "OwnershipTransferred",
      "type": "event"
    },
    {
      "constant": true,
      "inputs": [],
      "name": "availableLiquidity",
      "outputs": [
        {
          "internalType": "uint256",
          "name": "",
          "type": "uint256"
        }
      ],
      "payable": false,
      "stateMutability": "view",
      "type": "function"
    },
    {
      "constant": true,
      "inputs": [],
      "name": "getAPR",
      "outputs": [
        {
          "internalType": "uint256",
          "name": "",
          "type": "uint256"
        }
      ],
      "payable": false,
      "stateMutability": "view",
      "type": "function"
    },
    {
      "constant": true,
      "inputs": [],
      "name": "getPriceInToken",
      "outputs": [
        {
          "internalType": "uint256",
          "name": "",
          "type": "uint256"
        }
      ],
      "payable": false,
      "stateMutability": "view",
      "type": "function"
    },
    {
      "constant": true,
      "inputs": [],
      "name": "idleToken",
      "outputs": [
        {
          "internalType": "address",
          "name": "",
          "type": "address"
        }
      ],
      "payable": false,
      "stateMutability": "view",
      "type": "function"
    },
    {
      "constant": false,
      "inputs": [
        {
          "internalType": "address",
          "name": "_token",
          "type": "address"
        },
        {
          "internalType": "address",
          "name": "_addressesProvider",
          "type": "address"
        },
        {
          "internalType": "address",
          "name": "_idleToken",
          "type": "address"
        }
      ],
      "name": "initialize",
      "outputs": [],
      "payable": false,
      "stateMutability": "nonpayable",
      "type": "function"
    },
    {
      "constant": true,
      "inputs": [],
      "name": "initialized",
      "outputs": [
        {
          "internalType": "bool",
          "name": "",
          "type": "bool"
        }
      ],
      "payable": false,
      "stateMutability": "view",
      "type": "function"
    },
    {
      "constant": true,
      "inputs": [],
      "name": "isOwner",
      "outputs": [
        {
          "internalType": "bool",
          "name": "",
          "type": "bool"
        }
      ],
      "payable": false,
      "stateMutability": "view",
      "type": "function"
    },
    {
      "constant": false,
      "inputs": [],
      "name": "mint",
      "outputs": [
        {
          "internalType": "uint256",
          "name": "tokens",
          "type": "uint256"
        }
      ],
      "payable": false,
      "stateMutability": "nonpayable",
      "type": "function"
    },
    {
      "constant": true,
      "inputs": [
        {
          "internalType": "uint256",
          "name": "_amount",
          "type": "uint256"
        }
      ],
      "name": "nextSupplyRate",
      "outputs": [
        {
          "internalType": "uint256",
          "name": "",
          "type": "uint256"
        }
      ],
      "payable": false,
      "stateMutability": "view",
      "type": "function"
    },
    {
      "constant": true,
      "inputs": [
        {
          "internalType": "uint256[]",
          "name": "",
          "type": "uint256[]"
        }
      ],
      "name": "nextSupplyRateWithParams",
      "outputs": [
        {
          "internalType": "uint256",
          "name": "",
          "type": "uint256"
        }
      ],
      "payable": false,
      "stateMutability": "view",
      "type": "function"
    },
    {
      "constant": true,
      "inputs": [],
      "name": "owner",
      "outputs": [
        {
          "internalType": "address",
          "name": "",
          "type": "address"
        }
      ],
      "payable": false,
      "stateMutability": "view",
      "type": "function"
    },
    {
      "constant": true,
      "inputs": [],
      "name": "provider",
      "outputs": [
        {
          "internalType": "contract AaveLendingPoolProviderV2",
          "name": "",
          "type": "address"
        }
      ],
      "payable": false,
      "stateMutability": "view",
      "type": "function"
    },
    {
      "constant": false,
      "inputs": [
        {
          "internalType": "address",
          "name": "_account",
          "type": "address"
        }
      ],
      "name": "redeem",
      "outputs": [
        {
          "internalType": "uint256",
          "name": "tokens",
          "type": "uint256"
        }
      ],
      "payable": false,
      "stateMutability": "nonpayable",
      "type": "function"
    },
    {
      "constant": false,
      "inputs": [],
      "name": "renounceOwnership",
      "outputs": [],
      "payable": false,
      "stateMutability": "nonpayable",
      "type": "function"
    },
    {
      "constant": true,
      "inputs": [],
      "name": "token",
      "outputs": [
        {
          "internalType": "address",
          "name": "",
          "type": "address"
        }
      ],
      "payable": false,
      "stateMutability": "view",
      "type": "function"
    },
    {
      "constant": false,
      "inputs": [
        {
          "internalType": "address",
          "name": "newOwner",
          "type": "address"
        }
      ],
      "name": "transferOwnership",
      "outputs": [],
      "payable": false,
      "stateMutability": "nonpayable",
      "type": "function"
    },
    {
      "constant": true,
      "inputs": [],
      "name": "underlying",
      "outputs": [
        {
          "internalType": "address",
          "name": "",
          "type": "address"
        }
      ],
      "payable": false,
      "stateMutability": "view",
      "type": "function"
    }
  ],
  "bytecode": "0x608060405260006100146100b760201b60201c565b9050806000806101000a81548173ffffffffffffffffffffffffffffffffffffffff021916908373ffffffffffffffffffffffffffffffffffffffff1602179055508073ffffffffffffffffffffffffffffffffffffffff16600073ffffffffffffffffffffffffffffffffffffffff167f8be0079c531659141344cd1fd0a4f28419497f9722a3daafe3b4186f6b6457e060405160405180910390a3506100bf565b600033905090565b612a61806100ce6000396000f3fe608060405234801561001057600080fd5b506004361061010b5760003560e01c80638da5cb5b116100a2578063c0c53b8b11610071578063c0c53b8b14610288578063c89d5b8b146102a4578063ccdd0149146102c2578063f2fde38b146102f2578063fc0c546a1461030e5761010b565b80638da5cb5b146101ec5780638f32d59b1461020a57806393fd92191461022857806395a2251f146102585761010b565b80632dd60c5e116100de5780632dd60c5e146101885780636f307dc3146101a6578063715018a6146101c457806374375359146101ce5761010b565b806302bbce4614610110578063085d48831461012e5780631249c58b1461014c578063158ef93e1461016a575b600080fd5b61011861032c565b60405161012591906127da565b60405180910390f35b61013661033c565b604051610143919061263d565b60405180910390f35b610154610362565b60405161016191906127da565b60405180910390f35b6101726105dd565b60405161017f9190612622565b60405180910390f35b6101906105f0565b60405161019d91906124d8565b60405180910390f35b6101ae610616565b6040516101bb91906124d8565b60405180910390f35b6101cc61063c565b005b6101d6610742565b6040516101e391906127da565b60405180910390f35b6101f4610816565b60405161020191906124d8565b60405180910390f35b61021261083f565b60405161021f9190612622565b60405180910390f35b610242600480360361023d9190810190611f30565b61089d565b60405161024f91906127da565b60405180910390f35b610272600480360361026d9190810190611e8f565b6108a8565b60405161027f91906127da565b60405180910390f35b6102a2600480360361029d9190810190611ee1565b610b1c565b005b6102ac610e89565b6040516102b991906127da565b60405180910390f35b6102dc60048036036102d79190810190611fc8565b611012565b6040516102e991906127da565b60405180910390f35b61030c60048036036103079190810190611e8f565b61147e565b005b6103166114d1565b60405161032391906124d8565b60405180910390f35b6000670de0b6b3a7640000905090565b600460009054906101000a900473ffffffffffffffffffffffffffffffffffffffff1681565b6000600360009054906101000a900473ffffffffffffffffffffffffffffffffffffffff1673ffffffffffffffffffffffffffffffffffffffff163373ffffffffffffffffffffffffffffffffffffffff16146103f4576040517f08c379a00000000000000000000000000000000000000000000000000000000081526004016103eb9061267a565b60405180910390fd5b600260009054906101000a900473ffffffffffffffffffffffffffffffffffffffff1673ffffffffffffffffffffffffffffffffffffffff166370a08231306040518263ffffffff1660e01b815260040161044f91906124d8565b60206040518083038186803b15801561046757600080fd5b505afa15801561047b573d6000803e3d6000fd5b505050506040513d601f19601f8201168201806040525061049f9190810190611ff1565b90506000600460009054906101000a900473ffffffffffffffffffffffffffffffffffffffff1673ffffffffffffffffffffffffffffffffffffffff16630261bf8b6040518163ffffffff1660e01b815260040160206040518083038186803b15801561050b57600080fd5b505afa15801561051f573d6000803e3d6000fd5b505050506040513d601f19601f820116820180604052506105439190810190611eb8565b90508073ffffffffffffffffffffffffffffffffffffffff1663e8eda9df600260009054906101000a900473ffffffffffffffffffffffffffffffffffffffff168433601d6040518563ffffffff1660e01b81526004016105a7949392919061257c565b600060405180830381600087803b1580156105c157600080fd5b505af11580156105d5573d6000803e3d6000fd5b505050505090565b600360149054906101000a900460ff1681565b600360009054906101000a900473ffffffffffffffffffffffffffffffffffffffff1681565b600260009054906101000a900473ffffffffffffffffffffffffffffffffffffffff1681565b61064461083f565b610683576040517f08c379a000000000000000000000000000000000000000000000000000000000815260040161067a9061273a565b60405180910390fd5b600073ffffffffffffffffffffffffffffffffffffffff166000809054906101000a900473ffffffffffffffffffffffffffffffffffffffff1673ffffffffffffffffffffffffffffffffffffffff167f8be0079c531659141344cd1fd0a4f28419497f9722a3daafe3b4186f6b6457e060405160405180910390a360008060006101000a81548173ffffffffffffffffffffffffffffffffffffffff021916908373ffffffffffffffffffffffffffffffffffffffff160217905550565b6000600260009054906101000a900473ffffffffffffffffffffffffffffffffffffffff1673ffffffffffffffffffffffffffffffffffffffff166370a08231600160009054906101000a900473ffffffffffffffffffffffffffffffffffffffff166040518263ffffffff1660e01b81526004016107c191906124d8565b60206040518083038186803b1580156107d957600080fd5b505afa1580156107ed573d6000803e3d6000fd5b505050506040513d601f19601f820116820180604052506108119190810190611ff1565b905090565b60008060009054906101000a900473ffffffffffffffffffffffffffffffffffffffff16905090565b60008060009054906101000a900473ffffffffffffffffffffffffffffffffffffffff1673ffffffffffffffffffffffffffffffffffffffff166108816114f7565b73ffffffffffffffffffffffffffffffffffffffff1614905090565b600080905092915050565b6000600360009054906101000a900473ffffffffffffffffffffffffffffffffffffffff1673ffffffffffffffffffffffffffffffffffffffff163373ffffffffffffffffffffffffffffffffffffffff161461093a576040517f08c379a00000000000000000000000000000000000000000000000000000000081526004016109319061267a565b60405180910390fd5b600160009054906101000a900473ffffffffffffffffffffffffffffffffffffffff1673ffffffffffffffffffffffffffffffffffffffff166370a08231306040518263ffffffff1660e01b815260040161099591906124d8565b60206040518083038186803b1580156109ad57600080fd5b505afa1580156109c1573d6000803e3d6000fd5b505050506040513d601f19601f820116820180604052506109e59190810190611ff1565b9050600460009054906101000a900473ffffffffffffffffffffffffffffffffffffffff1673ffffffffffffffffffffffffffffffffffffffff16630261bf8b6040518163ffffffff1660e01b815260040160206040518083038186803b158015610a4f57600080fd5b505afa158015610a63573d6000803e3d6000fd5b505050506040513d601f19601f82011682018060405250610a879190810190611eb8565b73ffffffffffffffffffffffffffffffffffffffff166369328dec600260009054906101000a900473ffffffffffffffffffffffffffffffffffffffff1683856040518463ffffffff1660e01b8152600401610ae593929190612545565b600060405180830381600087803b158015610aff57600080fd5b505af1158015610b13573d6000803e3d6000fd5b50505050919050565b600360149054906101000a900460ff1615610b6c576040517f08c379a0000000000000000000000000000000000000000000000000000000008152600401610b639061275a565b60405180910390fd5b600073ffffffffffffffffffffffffffffffffffffffff168373ffffffffffffffffffffffffffffffffffffffff161415610bdc576040517f08c379a0000000000000000000000000000000000000000000000000000000008152600401610bd3906126fa565b60405180910390fd5b82600160006101000a81548173ffffffffffffffffffffffffffffffffffffffff021916908373ffffffffffffffffffffffffffffffffffffffff1602179055508273ffffffffffffffffffffffffffffffffffffffff1663b16a19de6040518163ffffffff1660e01b815260040160206040518083038186803b158015610c6357600080fd5b505afa158015610c77573d6000803e3d6000fd5b505050506040513d601f19601f82011682018060405250610c9b9190810190611eb8565b600260006101000a81548173ffffffffffffffffffffffffffffffffffffffff021916908373ffffffffffffffffffffffffffffffffffffffff16021790555080600360006101000a81548173ffffffffffffffffffffffffffffffffffffffff021916908373ffffffffffffffffffffffffffffffffffffffff16021790555081600460006101000a81548173ffffffffffffffffffffffffffffffffffffffff021916908373ffffffffffffffffffffffffffffffffffffffff160217905550610e69600460009054906101000a900473ffffffffffffffffffffffffffffffffffffffff1673ffffffffffffffffffffffffffffffffffffffff16630261bf8b6040518163ffffffff1660e01b815260040160206040518083038186803b158015610dc857600080fd5b505afa158015610ddc573d6000803e3d6000fd5b505050506040513d601f19601f82011682018060405250610e009190810190611eb8565b7fffffffffffffffffffffffffffffffffffffffffffffffffffffffffffffffff600260009054906101000a900473ffffffffffffffffffffffffffffffffffffffff1673ffffffffffffffffffffffffffffffffffffffff166114ff9092919063ffffffff16565b6001600360146101000a81548160ff021916908315150217905550505050565b6000610e93611b11565b600460009054906101000a900473ffffffffffffffffffffffffffffffffffffffff1673ffffffffffffffffffffffffffffffffffffffff16630261bf8b6040518163ffffffff1660e01b815260040160206040518083038186803b158015610efb57600080fd5b505afa158015610f0f573d6000803e3d6000fd5b505050506040513d601f19601f82011682018060405250610f339190810190611eb8565b73ffffffffffffffffffffffffffffffffffffffff166335ea6a75600260009054906101000a900473ffffffffffffffffffffffffffffffffffffffff166040518263ffffffff1660e01b8152600401610f8d91906124d8565b6101806040518083038186803b158015610fa657600080fd5b505afa158015610fba573d6000803e3d6000fd5b505050506040513d601f19601f82011682018060405250610fde9190810190611f9e565b905061100c6298968082606001516fffffffffffffffffffffffffffffffff1661167690919063ffffffff16565b91505090565b600080600460009054906101000a900473ffffffffffffffffffffffffffffffffffffffff1673ffffffffffffffffffffffffffffffffffffffff16630261bf8b6040518163ffffffff1660e01b815260040160206040518083038186803b15801561107d57600080fd5b505afa158015611091573d6000803e3d6000fd5b505050506040513d601f19601f820116820180604052506110b59190810190611eb8565b90506110bf611b11565b8173ffffffffffffffffffffffffffffffffffffffff166335ea6a75600260009054906101000a900473ffffffffffffffffffffffffffffffffffffffff166040518263ffffffff1660e01b815260040161111a91906124d8565b6101806040518083038186803b15801561113357600080fd5b505afa158015611147573d6000803e3d6000fd5b505050506040513d601f19601f8201168201806040525061116b9190810190611f9e565b90506000816101400151905060008083610100015173ffffffffffffffffffffffffffffffffffffffff1663f731e9be6040518163ffffffff1660e01b8152600401604080518083038186803b1580156111c457600080fd5b505afa1580156111d8573d6000803e3d6000fd5b505050506040513d601f19601f820116820180604052506111fc919081019061201a565b9150915060006112cb6b033b2e3c9fd0803ce80000006112bd87604001516fffffffffffffffffffffffffffffffff1688610120015173ffffffffffffffffffffffffffffffffffffffff1663b1bf962d6040518163ffffffff1660e01b815260040160206040518083038186803b15801561127757600080fd5b505afa15801561128b573d6000803e3d6000fd5b505050506040513d601f19601f820116820180604052506112af9190810190611ff1565b6116c090919063ffffffff16565b61167690919063ffffffff16565b90506000600260009054906101000a900473ffffffffffffffffffffffffffffffffffffffff1673ffffffffffffffffffffffffffffffffffffffff166370a082318760e001516040518263ffffffff1660e01b815260040161132e91906124d8565b60206040518083038186803b15801561134657600080fd5b505afa15801561135a573d6000803e3d6000fd5b505050506040513d601f19601f8201168201806040525061137e9190810190611ff1565b905060008573ffffffffffffffffffffffffffffffffffffffff16639584df28600260009054906101000a900473ffffffffffffffffffffffffffffffffffffffff166113d48d8661173090919063ffffffff16565b8887896113e48e60000151611785565b6040518763ffffffff1660e01b8152600401611405969594939291906125c1565b60606040518083038186803b15801561141d57600080fd5b505afa158015611431573d6000803e3d6000fd5b505050506040513d601f19601f820116820180604052506114559190810190612056565b5050905061146f629896808261167690919063ffffffff16565b98505050505050505050919050565b61148661083f565b6114c5576040517f08c379a00000000000000000000000000000000000000000000000000000000081526004016114bc9061273a565b60405180910390fd5b6114ce816117c5565b50565b600160009054906101000a900473ffffffffffffffffffffffffffffffffffffffff1681565b600033905090565b6000811480611598575060008373ffffffffffffffffffffffffffffffffffffffff1663dd62ed3e30856040518363ffffffff1660e01b81526004016115469291906124f3565b60206040518083038186803b15801561155e57600080fd5b505afa158015611572573d6000803e3d6000fd5b505050506040513d601f19601f820116820180604052506115969190810190611ff1565b145b6115d7576040517f08c379a00000000000000000000000000000000000000000000000000000000081526004016115ce9061279a565b60405180910390fd5b611671838473ffffffffffffffffffffffffffffffffffffffff1663095ea7b3905060e01b848460405160240161160f92919061251c565b604051602081830303815290604052907bffffffffffffffffffffffffffffffffffffffffffffffffffffffff19166020820180517bffffffffffffffffffffffffffffffffffffffffffffffffffffffff83818316178352505050506118f3565b505050565b60006116b883836040518060400160405280601a81526020017f536166654d6174683a206469766973696f6e206279207a65726f000000000000815250611a65565b905092915050565b6000808314156116d3576000905061172a565b60008284029050828482816116e457fe5b0414611725576040517f08c379a000000000000000000000000000000000000000000000000000000000815260040161171c9061271a565b60405180910390fd5b809150505b92915050565b60008082840190508381101561177b576040517f08c379a0000000000000000000000000000000000000000000000000000000008152600401611772906126ba565b60405180910390fd5b8091505092915050565b6000807fffffffffffffffffffffffffffffffffffffffffffff0000ffffffffffffffff9050600060409050808219856000015116901c92505050919050565b600073ffffffffffffffffffffffffffffffffffffffff168173ffffffffffffffffffffffffffffffffffffffff161415611835576040517f08c379a000000000000000000000000000000000000000000000000000000000815260040161182c9061269a565b60405180910390fd5b8073ffffffffffffffffffffffffffffffffffffffff166000809054906101000a900473ffffffffffffffffffffffffffffffffffffffff1673ffffffffffffffffffffffffffffffffffffffff167f8be0079c531659141344cd1fd0a4f28419497f9722a3daafe3b4186f6b6457e060405160405180910390a3806000806101000a81548173ffffffffffffffffffffffffffffffffffffffff021916908373ffffffffffffffffffffffffffffffffffffffff16021790555050565b6119128273ffffffffffffffffffffffffffffffffffffffff16611ac6565b611951576040517f08c379a0000000000000000000000000000000000000000000000000000000008152600401611948906127ba565b60405180910390fd5b600060608373ffffffffffffffffffffffffffffffffffffffff168360405161197a91906124c1565b6000604051808303816000865af19150503d80600081146119b7576040519150601f19603f3d011682016040523d82523d6000602084013e6119bc565b606091505b509150915081611a01576040517f08c379a00000000000000000000000000000000000000000000000000000000081526004016119f8906126da565b60405180910390fd5b600081511115611a5f5780806020019051611a1f9190810190611f75565b611a5e576040517f08c379a0000000000000000000000000000000000000000000000000000000008152600401611a559061277a565b60405180910390fd5b5b50505050565b60008083118290611aac576040517f08c379a0000000000000000000000000000000000000000000000000000000008152600401611aa39190612658565b60405180910390fd5b506000838581611ab857fe5b049050809150509392505050565b60008060007fc5d2460186f7233c927e7db2dcc703c0e500b653ca82273b7bfad8045d85a47060001b9050833f9150808214158015611b0857506000801b8214155b92505050919050565b604051806101800160405280611b25611c34565b815260200160006fffffffffffffffffffffffffffffffff16815260200160006fffffffffffffffffffffffffffffffff16815260200160006fffffffffffffffffffffffffffffffff16815260200160006fffffffffffffffffffffffffffffffff16815260200160006fffffffffffffffffffffffffffffffff168152602001600064ffffffffff168152602001600073ffffffffffffffffffffffffffffffffffffffff168152602001600073ffffffffffffffffffffffffffffffffffffffff168152602001600073ffffffffffffffffffffffffffffffffffffffff168152602001600073ffffffffffffffffffffffffffffffffffffffff168152602001600060ff1681525090565b6040518060200160405280600081525090565b600081359050611c5681612994565b92915050565b600081519050611c6b81612994565b92915050565b60008083601f840112611c8357600080fd5b8235905067ffffffffffffffff811115611c9c57600080fd5b602083019150836020820283011115611cb457600080fd5b9250929050565b600081519050611cca816129ab565b92915050565b600060208284031215611ce257600080fd5b611cec60206127f5565b90506000611cfc84828501611e50565b60008301525092915050565b60006101808284031215611d1b57600080fd5b611d266101806127f5565b90506000611d3684828501611cd0565b6000830152506020611d4a84828501611e26565b6020830152506040611d5e84828501611e26565b6040830152506060611d7284828501611e26565b6060830152506080611d8684828501611e26565b60808301525060a0611d9a84828501611e26565b60a08301525060c0611dae84828501611e65565b60c08301525060e0611dc284828501611c5c565b60e083015250610100611dd784828501611c5c565b61010083015250610120611ded84828501611c5c565b61012083015250610140611e0384828501611c5c565b61014083015250610160611e1984828501611e7a565b6101608301525092915050565b600081519050611e35816129c2565b92915050565b600081359050611e4a816129d9565b92915050565b600081519050611e5f816129d9565b92915050565b600081519050611e74816129f0565b92915050565b600081519050611e8981612a07565b92915050565b600060208284031215611ea157600080fd5b6000611eaf84828501611c47565b91505092915050565b600060208284031215611eca57600080fd5b6000611ed884828501611c5c565b91505092915050565b600080600060608486031215611ef657600080fd5b6000611f0486828701611c47565b9350506020611f1586828701611c47565b9250506040611f2686828701611c47565b9150509250925092565b60008060208385031215611f4357600080fd5b600083013567ffffffffffffffff811115611f5d57600080fd5b611f6985828601611c71565b92509250509250929050565b600060208284031215611f8757600080fd5b6000611f9584828501611cbb565b91505092915050565b60006101808284031215611fb157600080fd5b6000611fbf84828501611d08565b91505092915050565b600060208284031215611fda57600080fd5b6000611fe884828501611e3b565b91505092915050565b60006020828403121561200357600080fd5b600061201184828501611e50565b91505092915050565b6000806040838503121561202d57600080fd5b600061203b85828601611e50565b925050602061204c85828601611e50565b9150509250929050565b60008060006060848603121561206b57600080fd5b600061207986828701611e50565b935050602061208a86828701611e50565b925050604061209b86828701611e50565b9150509250925092565b6120ae816128e4565b82525050565b6120bd81612854565b82525050565b6120cc81612866565b82525050565b60006120dd82612822565b6120e78185612838565b93506120f7818560208601612950565b80840191505092915050565b61210c816128f6565b82525050565b61211b8161291a565b82525050565b600061212c8261282d565b6121368185612843565b9350612146818560208601612950565b61214f81612983565b840191505092915050565b6000612167602083612843565b91507f4f776e61626c653a2063616c6c6572206973206e6f742049646c65546f6b656e6000830152602082019050919050565b60006121a7602683612843565b91507f4f776e61626c653a206e6577206f776e657220697320746865207a65726f206160008301527f64647265737300000000000000000000000000000000000000000000000000006020830152604082019050919050565b600061220d601b83612843565b91507f536166654d6174683a206164646974696f6e206f766572666c6f7700000000006000830152602082019050919050565b600061224d602083612843565b91507f5361666545524332303a206c6f772d6c6576656c2063616c6c206661696c65646000830152602082019050919050565b600061228d600f83612843565b91507f414156453a2061646472206973203000000000000000000000000000000000006000830152602082019050919050565b60006122cd602183612843565b91507f536166654d6174683a206d756c7469706c69636174696f6e206f766572666c6f60008301527f77000000000000000000000000000000000000000000000000000000000000006020830152604082019050919050565b6000612333602083612843565b91507f4f776e61626c653a2063616c6c6572206973206e6f7420746865206f776e65726000830152602082019050919050565b6000612373601383612843565b91507f416c726561647920696e697469616c697a6564000000000000000000000000006000830152602082019050919050565b60006123b3602a83612843565b91507f5361666545524332303a204552433230206f7065726174696f6e20646964206e60008301527f6f742073756363656564000000000000000000000000000000000000000000006020830152604082019050919050565b6000612419603683612843565b91507f5361666545524332303a20617070726f76652066726f6d206e6f6e2d7a65726f60008301527f20746f206e6f6e2d7a65726f20616c6c6f77616e6365000000000000000000006020830152604082019050919050565b600061247f601f83612843565b91507f5361666545524332303a2063616c6c20746f206e6f6e2d636f6e7472616374006000830152602082019050919050565b6124bb816128bc565b82525050565b60006124cd82846120d2565b915081905092915050565b60006020820190506124ed60008301846120b4565b92915050565b600060408201905061250860008301856120b4565b61251560208301846120b4565b9392505050565b600060408201905061253160008301856120b4565b61253e60208301846124b2565b9392505050565b600060608201905061255a60008301866120b4565b61256760208301856124b2565b61257460408301846120b4565b949350505050565b600060808201905061259160008301876120b4565b61259e60208301866124b2565b6125ab60408301856120a5565b6125b86060830184612112565b95945050505050565b600060c0820190506125d660008301896120b4565b6125e360208301886124b2565b6125f060408301876124b2565b6125fd60608301866124b2565b61260a60808301856124b2565b61261760a08301846124b2565b979650505050505050565b600060208201905061263760008301846120c3565b92915050565b60006020820190506126526000830184612103565b92915050565b600060208201905081810360008301526126728184612121565b905092915050565b600060208201905081810360008301526126938161215a565b9050919050565b600060208201905081810360008301526126b38161219a565b9050919050565b600060208201905081810360008301526126d381612200565b9050919050565b600060208201905081810360008301526126f381612240565b9050919050565b6000602082019050818103600083015261271381612280565b9050919050565b60006020820190508181036000830152612733816122c0565b9050919050565b6000602082019050818103600083015261275381612326565b9050919050565b6000602082019050818103600083015261277381612366565b9050919050565b60006020820190508181036000830152612793816123a6565b9050919050565b600060208201905081810360008301526127b38161240c565b9050919050565b600060208201905081810360008301526127d381612472565b9050919050565b60006020820190506127ef60008301846124b2565b92915050565b6000604051905081810181811067ffffffffffffffff8211171561281857600080fd5b8060405250919050565b600081519050919050565b600081519050919050565b600081905092915050565b600082825260208201905092915050565b600061285f8261289c565b9050919050565b60008115159050919050565b60006fffffffffffffffffffffffffffffffff82169050919050565b600061ffff82169050919050565b600073ffffffffffffffffffffffffffffffffffffffff82169050919050565b6000819050919050565b600064ffffffffff82169050919050565b600060ff82169050919050565b60006128ef8261292c565b9050919050565b600061290182612908565b9050919050565b60006129138261289c565b9050919050565b60006129258261288e565b9050919050565b60006129378261293e565b9050919050565b60006129498261289c565b9050919050565b60005b8381101561296e578082015181840152602081019050612953565b8381111561297d576000848401525b50505050565b6000601f19601f8301169050919050565b61299d81612854565b81146129a857600080fd5b50565b6129b481612866565b81146129bf57600080fd5b50565b6129cb81612872565b81146129d657600080fd5b50565b6129e2816128bc565b81146129ed57600080fd5b50565b6129f9816128c6565b8114612a0457600080fd5b50565b612a10816128d7565b8114612a1b57600080fd5b5056fea365627a7a72315820c2d427c03517852ac117b1ca0d11e273ee4eb8278798b30409868a67327fc38c6c6578706572696d656e74616cf564736f6c63430005100040",
  "linkReferences": {},
  "deployedLinkReferences": {}
}